{
	"Modulo3/Cliente.sol": {
		"Cliente": {
			"abi": [
				{
					"inputs": [
						{
							"internalType": "address",
							"name": "_cofre",
							"type": "address"
						}
					],
					"stateMutability": "nonpayable",
					"type": "constructor"
				},
				{
					"anonymous": false,
					"inputs": [
						{
							"indexed": false,
							"internalType": "string",
							"name": "acao",
							"type": "string"
						},
						{
							"indexed": false,
							"internalType": "address",
							"name": "usuario",
							"type": "address"
						},
						{
							"indexed": false,
							"internalType": "uint256",
							"name": "valor",
							"type": "uint256"
						}
					],
					"name": "Interacao",
					"type": "event"
				},
				{
					"inputs": [],
					"name": "cofreEndereco",
					"outputs": [
						{
							"internalType": "address",
							"name": "",
							"type": "address"
						}
					],
					"stateMutability": "view",
					"type": "function"
				},
				{
					"inputs": [],
					"name": "enviarDeposito",
					"outputs": [],
					"stateMutability": "payable",
					"type": "function"
				},
				{
					"inputs": [
						{
							"internalType": "uint256",
							"name": "valor",
							"type": "uint256"
						}
					],
					"name": "requisitarSaque",
					"outputs": [],
					"stateMutability": "nonpayable",
					"type": "function"
				},
				{
					"inputs": [],
					"name": "verMeuSaldo",
					"outputs": [
						{
							"internalType": "uint256",
							"name": "",
							"type": "uint256"
						}
					],
					"stateMutability": "view",
					"type": "function"
				},
				{
					"stateMutability": "payable",
					"type": "receive"
				}
			],
			"devdoc": {
				"kind": "dev",
				"methods": {},
				"version": 1
			},
			"evm": {
				"assembly": "    /* \"Modulo3/Cliente.sol\":82:896  contract Cliente  {... */\n  mstore(0x40, 0x80)\n    /* \"Modulo3/Cliente.sol\":211:320  constructor(address _cofre) { //o endereço de deploy do contrato cofre... */\n  callvalue\n  dup1\n  iszero\n  tag_1\n  jumpi\n  revert(0x00, 0x00)\ntag_1:\n  pop\n  mload(0x40)\n  sub(codesize, bytecodeSize)\n  dup1\n  bytecodeSize\n  dup4\n  codecopy\n  dup2\n  dup2\n  add\n  0x40\n  mstore\n  dup2\n  add\n  swap1\n  tag_2\n  swap2\n  swap1\n  tag_3\n  jump\t// in\ntag_2:\n    /* \"Modulo3/Cliente.sol\":307:313  _cofre */\n  dup1\n    /* \"Modulo3/Cliente.sol\":291:304  cofreEndereco */\n  0x00\n  0x00\n    /* \"Modulo3/Cliente.sol\":291:313  cofreEndereco = _cofre */\n  0x0100\n  exp\n  dup2\n  sload\n  dup2\n  0xffffffffffffffffffffffffffffffffffffffff\n  mul\n  not\n  and\n  swap1\n  dup4\n  0xffffffffffffffffffffffffffffffffffffffff\n  and\n  mul\n  or\n  swap1\n  sstore\n  pop\n    /* \"Modulo3/Cliente.sol\":211:320  constructor(address _cofre) { //o endereço de deploy do contrato cofre... */\n  pop\n    /* \"Modulo3/Cliente.sol\":82:896  contract Cliente  {... */\n  jump(tag_6)\n    /* \"#utility.yul\":88:205   */\ntag_8:\n    /* \"#utility.yul\":197:198   */\n  0x00\n    /* \"#utility.yul\":194:195   */\n  0x00\n    /* \"#utility.yul\":187:199   */\n  revert\n    /* \"#utility.yul\":334:460   */\ntag_10:\n    /* \"#utility.yul\":371:378   */\n  0x00\n    /* \"#utility.yul\":411:453   */\n  0xffffffffffffffffffffffffffffffffffffffff\n    /* \"#utility.yul\":404:409   */\n  dup3\n    /* \"#utility.yul\":400:454   */\n  and\n    /* \"#utility.yul\":389:454   */\n  swap1\n  pop\n    /* \"#utility.yul\":334:460   */\n  swap2\n  swap1\n  pop\n  jump\t// out\n    /* \"#utility.yul\":466:562   */\ntag_11:\n    /* \"#utility.yul\":503:510   */\n  0x00\n    /* \"#utility.yul\":532:556   */\n  tag_20\n    /* \"#utility.yul\":550:555   */\n  dup3\n    /* \"#utility.yul\":532:556   */\n  tag_10\n  jump\t// in\ntag_20:\n    /* \"#utility.yul\":521:556   */\n  swap1\n  pop\n    /* \"#utility.yul\":466:562   */\n  swap2\n  swap1\n  pop\n  jump\t// out\n    /* \"#utility.yul\":568:690   */\ntag_12:\n    /* \"#utility.yul\":641:665   */\n  tag_22\n    /* \"#utility.yul\":659:664   */\n  dup2\n    /* \"#utility.yul\":641:665   */\n  tag_11\n  jump\t// in\ntag_22:\n    /* \"#utility.yul\":634:639   */\n  dup2\n    /* \"#utility.yul\":631:666   */\n  eq\n    /* \"#utility.yul\":621:684   */\n  tag_23\n  jumpi\n    /* \"#utility.yul\":680:681   */\n  0x00\n    /* \"#utility.yul\":677:678   */\n  0x00\n    /* \"#utility.yul\":670:682   */\n  revert\n    /* \"#utility.yul\":621:684   */\ntag_23:\n    /* \"#utility.yul\":568:690   */\n  pop\n  jump\t// out\n    /* \"#utility.yul\":696:839   */\ntag_13:\n    /* \"#utility.yul\":753:758   */\n  0x00\n    /* \"#utility.yul\":784:790   */\n  dup2\n    /* \"#utility.yul\":778:791   */\n  mload\n    /* \"#utility.yul\":769:791   */\n  swap1\n  pop\n    /* \"#utility.yul\":800:833   */\n  tag_25\n    /* \"#utility.yul\":827:832   */\n  dup2\n    /* \"#utility.yul\":800:833   */\n  tag_12\n  jump\t// in\ntag_25:\n    /* \"#utility.yul\":696:839   */\n  swap3\n  swap2\n  pop\n  pop\n  jump\t// out\n    /* \"#utility.yul\":845:1196   */\ntag_3:\n    /* \"#utility.yul\":915:921   */\n  0x00\n    /* \"#utility.yul\":964:966   */\n  0x20\n    /* \"#utility.yul\":952:961   */\n  dup3\n    /* \"#utility.yul\":943:950   */\n  dup5\n    /* \"#utility.yul\":939:962   */\n  sub\n    /* \"#utility.yul\":935:967   */\n  slt\n    /* \"#utility.yul\":932:1051   */\n  iszero\n  tag_27\n  jumpi\n    /* \"#utility.yul\":970:1049   */\n  tag_28\n  tag_8\n  jump\t// in\ntag_28:\n    /* \"#utility.yul\":932:1051   */\ntag_27:\n    /* \"#utility.yul\":1090:1091   */\n  0x00\n    /* \"#utility.yul\":1115:1179   */\n  tag_29\n    /* \"#utility.yul\":1171:1178   */\n  dup5\n    /* \"#utility.yul\":1162:1168   */\n  dup3\n    /* \"#utility.yul\":1151:1160   */\n  dup6\n    /* \"#utility.yul\":1147:1169   */\n  add\n    /* \"#utility.yul\":1115:1179   */\n  tag_13\n  jump\t// in\ntag_29:\n    /* \"#utility.yul\":1105:1179   */\n  swap2\n  pop\n    /* \"#utility.yul\":1061:1189   */\n  pop\n    /* \"#utility.yul\":845:1196   */\n  swap3\n  swap2\n  pop\n  pop\n  jump\t// out\n    /* \"Modulo3/Cliente.sol\":82:896  contract Cliente  {... */\ntag_6:\n  dataSize(sub_0)\n  dup1\n  dataOffset(sub_0)\n  0x00\n  codecopy\n  0x00\n  return\nstop\n\nsub_0: assembly {\n        /* \"Modulo3/Cliente.sol\":82:896  contract Cliente  {... */\n      mstore(0x40, 0x80)\n      jumpi(tag_1, lt(calldatasize, 0x04))\n      shr(0xe0, calldataload(0x00))\n      dup1\n      0x466fa6f7\n      eq\n      tag_3\n      jumpi\n      dup1\n      0xec128cb8\n      eq\n      tag_4\n      jumpi\n      dup1\n      0xf7fb2452\n      eq\n      tag_5\n      jumpi\n      dup1\n      0xfd6b81da\n      eq\n      tag_6\n      jumpi\n      jump(tag_2)\n    tag_1:\n      jumpi(tag_2, calldatasize)\n      stop\n    tag_2:\n      revert(0x00, 0x00)\n        /* \"Modulo3/Cliente.sol\":706:858  function requisitarSaque(uint256 valor) external {... */\n    tag_3:\n      callvalue\n      dup1\n      iszero\n      tag_9\n      jumpi\n      revert(0x00, 0x00)\n    tag_9:\n      pop\n      tag_10\n      0x04\n      dup1\n      calldatasize\n      sub\n      dup2\n      add\n      swap1\n      tag_11\n      swap2\n      swap1\n      tag_12\n      jump\t// in\n    tag_11:\n      tag_13\n      jump\t// in\n    tag_10:\n      stop\n        /* \"Modulo3/Cliente.sol\":570:700  function verMeuSaldo() external view returns (uint256) {... */\n    tag_4:\n      callvalue\n      dup1\n      iszero\n      tag_14\n      jumpi\n      revert(0x00, 0x00)\n    tag_14:\n      pop\n      tag_15\n      tag_16\n      jump\t// in\n    tag_15:\n      mload(0x40)\n      tag_17\n      swap2\n      swap1\n      tag_18\n      jump\t// in\n    tag_17:\n      mload(0x40)\n      dup1\n      swap2\n      sub\n      swap1\n      return\n        /* \"Modulo3/Cliente.sol\":326:564  function enviarDeposito() external payable { //CEI... */\n    tag_5:\n      tag_19\n      tag_20\n      jump\t// in\n    tag_19:\n      stop\n        /* \"Modulo3/Cliente.sol\":111:139  address public cofreEndereco */\n    tag_6:\n      callvalue\n      dup1\n      iszero\n      tag_21\n      jumpi\n      revert(0x00, 0x00)\n    tag_21:\n      pop\n      tag_22\n      tag_23\n      jump\t// in\n    tag_22:\n      mload(0x40)\n      tag_24\n      swap2\n      swap1\n      tag_25\n      jump\t// in\n    tag_24:\n      mload(0x40)\n      dup1\n      swap2\n      sub\n      swap1\n      return\n        /* \"Modulo3/Cliente.sol\":706:858  function requisitarSaque(uint256 valor) external {... */\n    tag_13:\n        /* \"Modulo3/Cliente.sol\":772:785  cofreEndereco */\n      0x00\n      0x00\n      swap1\n      sload\n      swap1\n      0x0100\n      exp\n      swap1\n      div\n      0xffffffffffffffffffffffffffffffffffffffff\n      and\n        /* \"Modulo3/Cliente.sol\":765:792  ICofre(cofreEndereco).sacar */\n      0xffffffffffffffffffffffffffffffffffffffff\n      and\n      0x7371b0d6\n        /* \"Modulo3/Cliente.sol\":793:798  valor */\n      dup3\n        /* \"Modulo3/Cliente.sol\":765:799  ICofre(cofreEndereco).sacar(valor) */\n      mload(0x40)\n      dup3\n      0xffffffff\n      and\n      0xe0\n      shl\n      dup2\n      mstore\n      0x04\n      add\n      tag_27\n      swap2\n      swap1\n      tag_18\n      jump\t// in\n    tag_27:\n      0x00\n      mload(0x40)\n      dup1\n      dup4\n      sub\n      dup2\n      0x00\n      dup8\n      dup1\n      extcodesize\n      iszero\n      dup1\n      iszero\n      tag_28\n      jumpi\n      revert(0x00, 0x00)\n    tag_28:\n      pop\n      gas\n      call\n      iszero\n      dup1\n      iszero\n      tag_30\n      jumpi\n      returndatacopy(0x00, 0x00, returndatasize)\n      revert(0x00, returndatasize)\n    tag_30:\n      pop\n      pop\n      pop\n      pop\n        /* \"Modulo3/Cliente.sol\":814:851  Interacao(\"saque\", msg.sender, valor) */\n      0x1d357e5c373df9a9135fa1ff39d5253b45f6eac6c56221a6b7305a02befb7cf2\n        /* \"Modulo3/Cliente.sol\":833:843  msg.sender */\n      caller\n        /* \"Modulo3/Cliente.sol\":845:850  valor */\n      dup3\n        /* \"Modulo3/Cliente.sol\":814:851  Interacao(\"saque\", msg.sender, valor) */\n      mload(0x40)\n      tag_31\n      swap3\n      swap2\n      swap1\n      tag_32\n      jump\t// in\n    tag_31:\n      mload(0x40)\n      dup1\n      swap2\n      sub\n      swap1\n      log1\n        /* \"Modulo3/Cliente.sol\":706:858  function requisitarSaque(uint256 valor) external {... */\n      pop\n      jump\t// out\n        /* \"Modulo3/Cliente.sol\":570:700  function verMeuSaldo() external view returns (uint256) {... */\n    tag_16:\n        /* \"Modulo3/Cliente.sol\":616:623  uint256 */\n      0x00\n        /* \"Modulo3/Cliente.sol\":649:662  cofreEndereco */\n      0x00\n      0x00\n      swap1\n      sload\n      swap1\n      0x0100\n      exp\n      swap1\n      div\n      0xffffffffffffffffffffffffffffffffffffffff\n      and\n        /* \"Modulo3/Cliente.sol\":642:678  ICofre(cofreEndereco).consultarSaldo */\n      0xffffffffffffffffffffffffffffffffffffffff\n      and\n      0x218895e3\n        /* \"Modulo3/Cliente.sol\":687:691  this */\n      address\n        /* \"Modulo3/Cliente.sol\":642:693  ICofre(cofreEndereco).consultarSaldo(address(this)) */\n      mload(0x40)\n      dup3\n      0xffffffff\n      and\n      0xe0\n      shl\n      dup2\n      mstore\n      0x04\n      add\n      tag_34\n      swap2\n      swap1\n      tag_25\n      jump\t// in\n    tag_34:\n      0x20\n      mload(0x40)\n      dup1\n      dup4\n      sub\n      dup2\n      dup7\n      gas\n      staticcall\n      iszero\n      dup1\n      iszero\n      tag_36\n      jumpi\n      returndatacopy(0x00, 0x00, returndatasize)\n      revert(0x00, returndatasize)\n    tag_36:\n      pop\n      pop\n      pop\n      pop\n      mload(0x40)\n      returndatasize\n      not(0x1f)\n      0x1f\n      dup3\n      add\n      and\n      dup3\n      add\n      dup1\n      0x40\n      mstore\n      pop\n      dup2\n      add\n      swap1\n      tag_37\n      swap2\n      swap1\n      tag_38\n      jump\t// in\n    tag_37:\n        /* \"Modulo3/Cliente.sol\":635:693  return ICofre(cofreEndereco).consultarSaldo(address(this)) */\n      swap1\n      pop\n        /* \"Modulo3/Cliente.sol\":570:700  function verMeuSaldo() external view returns (uint256) {... */\n      swap1\n      jump\t// out\n        /* \"Modulo3/Cliente.sol\":326:564  function enviarDeposito() external payable { //CEI... */\n    tag_20:\n        /* \"Modulo3/Cliente.sol\":405:406  0 */\n      0x00\n        /* \"Modulo3/Cliente.sol\":393:402  msg.value */\n      callvalue\n        /* \"Modulo3/Cliente.sol\":393:406  msg.value > 0 */\n      gt\n        /* \"Modulo3/Cliente.sol\":385:437  require(msg.value > 0, \"Precisa enviar algum ETHER\") */\n      tag_40\n      jumpi\n      mload(0x40)\n      0x08c379a000000000000000000000000000000000000000000000000000000000\n      dup2\n      mstore\n      0x04\n      add\n      tag_41\n      swap1\n      tag_42\n      jump\t// in\n    tag_41:\n      mload(0x40)\n      dup1\n      swap2\n      sub\n      swap1\n      revert\n    tag_40:\n        /* \"Modulo3/Cliente.sol\":454:467  cofreEndereco */\n      0x00\n      0x00\n      swap1\n      sload\n      swap1\n      0x0100\n      exp\n      swap1\n      div\n      0xffffffffffffffffffffffffffffffffffffffff\n      and\n        /* \"Modulo3/Cliente.sol\":447:478  ICofre(cofreEndereco).depositar */\n      0xffffffffffffffffffffffffffffffffffffffff\n      and\n      0x3d922f90\n        /* \"Modulo3/Cliente.sol\":486:495  msg.value */\n      callvalue\n        /* \"Modulo3/Cliente.sol\":447:498  ICofre(cofreEndereco).depositar{value: msg.value}() */\n      mload(0x40)\n      dup3\n      0xffffffff\n      and\n      0xe0\n      shl\n      dup2\n      mstore\n      0x04\n      add\n      0x00\n      mload(0x40)\n      dup1\n      dup4\n      sub\n      dup2\n      dup6\n      dup9\n      dup1\n      extcodesize\n      iszero\n      dup1\n      iszero\n      tag_43\n      jumpi\n      revert(0x00, 0x00)\n    tag_43:\n      pop\n      gas\n      call\n      iszero\n      dup1\n      iszero\n      tag_45\n      jumpi\n      returndatacopy(0x00, 0x00, returndatasize)\n      revert(0x00, returndatasize)\n    tag_45:\n      pop\n      pop\n      pop\n      pop\n      pop\n        /* \"Modulo3/Cliente.sol\":513:557  Interacao(\"deposito\", msg.sender, msg.value) */\n      0x1d357e5c373df9a9135fa1ff39d5253b45f6eac6c56221a6b7305a02befb7cf2\n        /* \"Modulo3/Cliente.sol\":535:545  msg.sender */\n      caller\n        /* \"Modulo3/Cliente.sol\":547:556  msg.value */\n      callvalue\n        /* \"Modulo3/Cliente.sol\":513:557  Interacao(\"deposito\", msg.sender, msg.value) */\n      mload(0x40)\n      tag_46\n      swap3\n      swap2\n      swap1\n      tag_47\n      jump\t// in\n    tag_46:\n      mload(0x40)\n      dup1\n      swap2\n      sub\n      swap1\n      log1\n        /* \"Modulo3/Cliente.sol\":326:564  function enviarDeposito() external payable { //CEI... */\n      jump\t// out\n        /* \"Modulo3/Cliente.sol\":111:139  address public cofreEndereco */\n    tag_23:\n      0x00\n      0x00\n      swap1\n      sload\n      swap1\n      0x0100\n      exp\n      swap1\n      div\n      0xffffffffffffffffffffffffffffffffffffffff\n      and\n      dup2\n      jump\t// out\n        /* \"#utility.yul\":88:205   */\n    tag_49:\n        /* \"#utility.yul\":197:198   */\n      0x00\n        /* \"#utility.yul\":194:195   */\n      0x00\n        /* \"#utility.yul\":187:199   */\n      revert\n        /* \"#utility.yul\":334:411   */\n    tag_51:\n        /* \"#utility.yul\":371:378   */\n      0x00\n        /* \"#utility.yul\":400:405   */\n      dup2\n        /* \"#utility.yul\":389:405   */\n      swap1\n      pop\n        /* \"#utility.yul\":334:411   */\n      swap2\n      swap1\n      pop\n      jump\t// out\n        /* \"#utility.yul\":417:539   */\n    tag_52:\n        /* \"#utility.yul\":490:514   */\n      tag_72\n        /* \"#utility.yul\":508:513   */\n      dup2\n        /* \"#utility.yul\":490:514   */\n      tag_51\n      jump\t// in\n    tag_72:\n        /* \"#utility.yul\":483:488   */\n      dup2\n        /* \"#utility.yul\":480:515   */\n      eq\n        /* \"#utility.yul\":470:533   */\n      tag_73\n      jumpi\n        /* \"#utility.yul\":529:530   */\n      0x00\n        /* \"#utility.yul\":526:527   */\n      0x00\n        /* \"#utility.yul\":519:531   */\n      revert\n        /* \"#utility.yul\":470:533   */\n    tag_73:\n        /* \"#utility.yul\":417:539   */\n      pop\n      jump\t// out\n        /* \"#utility.yul\":545:684   */\n    tag_53:\n        /* \"#utility.yul\":591:596   */\n      0x00\n        /* \"#utility.yul\":629:635   */\n      dup2\n        /* \"#utility.yul\":616:636   */\n      calldataload\n        /* \"#utility.yul\":607:636   */\n      swap1\n      pop\n        /* \"#utility.yul\":645:678   */\n      tag_75\n        /* \"#utility.yul\":672:677   */\n      dup2\n        /* \"#utility.yul\":645:678   */\n      tag_52\n      jump\t// in\n    tag_75:\n        /* \"#utility.yul\":545:684   */\n      swap3\n      swap2\n      pop\n      pop\n      jump\t// out\n        /* \"#utility.yul\":690:1019   */\n    tag_12:\n        /* \"#utility.yul\":749:755   */\n      0x00\n        /* \"#utility.yul\":798:800   */\n      0x20\n        /* \"#utility.yul\":786:795   */\n      dup3\n        /* \"#utility.yul\":777:784   */\n      dup5\n        /* \"#utility.yul\":773:796   */\n      sub\n        /* \"#utility.yul\":769:801   */\n      slt\n        /* \"#utility.yul\":766:885   */\n      iszero\n      tag_77\n      jumpi\n        /* \"#utility.yul\":804:883   */\n      tag_78\n      tag_49\n      jump\t// in\n    tag_78:\n        /* \"#utility.yul\":766:885   */\n    tag_77:\n        /* \"#utility.yul\":924:925   */\n      0x00\n        /* \"#utility.yul\":949:1002   */\n      tag_79\n        /* \"#utility.yul\":994:1001   */\n      dup5\n        /* \"#utility.yul\":985:991   */\n      dup3\n        /* \"#utility.yul\":974:983   */\n      dup6\n        /* \"#utility.yul\":970:992   */\n      add\n        /* \"#utility.yul\":949:1002   */\n      tag_53\n      jump\t// in\n    tag_79:\n        /* \"#utility.yul\":939:1002   */\n      swap2\n      pop\n        /* \"#utility.yul\":895:1012   */\n      pop\n        /* \"#utility.yul\":690:1019   */\n      swap3\n      swap2\n      pop\n      pop\n      jump\t// out\n        /* \"#utility.yul\":1025:1143   */\n    tag_54:\n        /* \"#utility.yul\":1112:1136   */\n      tag_81\n        /* \"#utility.yul\":1130:1135   */\n      dup2\n        /* \"#utility.yul\":1112:1136   */\n      tag_51\n      jump\t// in\n    tag_81:\n        /* \"#utility.yul\":1107:1110   */\n      dup3\n        /* \"#utility.yul\":1100:1137   */\n      mstore\n        /* \"#utility.yul\":1025:1143   */\n      pop\n      pop\n      jump\t// out\n        /* \"#utility.yul\":1149:1371   */\n    tag_18:\n        /* \"#utility.yul\":1242:1246   */\n      0x00\n        /* \"#utility.yul\":1280:1282   */\n      0x20\n        /* \"#utility.yul\":1269:1278   */\n      dup3\n        /* \"#utility.yul\":1265:1283   */\n      add\n        /* \"#utility.yul\":1257:1283   */\n      swap1\n      pop\n        /* \"#utility.yul\":1293:1364   */\n      tag_83\n        /* \"#utility.yul\":1361:1362   */\n      0x00\n        /* \"#utility.yul\":1350:1359   */\n      dup4\n        /* \"#utility.yul\":1346:1363   */\n      add\n        /* \"#utility.yul\":1337:1343   */\n      dup5\n        /* \"#utility.yul\":1293:1364   */\n      tag_54\n      jump\t// in\n    tag_83:\n        /* \"#utility.yul\":1149:1371   */\n      swap3\n      swap2\n      pop\n      pop\n      jump\t// out\n        /* \"#utility.yul\":1377:1503   */\n    tag_55:\n        /* \"#utility.yul\":1414:1421   */\n      0x00\n        /* \"#utility.yul\":1454:1496   */\n      0xffffffffffffffffffffffffffffffffffffffff\n        /* \"#utility.yul\":1447:1452   */\n      dup3\n        /* \"#utility.yul\":1443:1497   */\n      and\n        /* \"#utility.yul\":1432:1497   */\n      swap1\n      pop\n        /* \"#utility.yul\":1377:1503   */\n      swap2\n      swap1\n      pop\n      jump\t// out\n        /* \"#utility.yul\":1509:1605   */\n    tag_56:\n        /* \"#utility.yul\":1546:1553   */\n      0x00\n        /* \"#utility.yul\":1575:1599   */\n      tag_86\n        /* \"#utility.yul\":1593:1598   */\n      dup3\n        /* \"#utility.yul\":1575:1599   */\n      tag_55\n      jump\t// in\n    tag_86:\n        /* \"#utility.yul\":1564:1599   */\n      swap1\n      pop\n        /* \"#utility.yul\":1509:1605   */\n      swap2\n      swap1\n      pop\n      jump\t// out\n        /* \"#utility.yul\":1611:1729   */\n    tag_57:\n        /* \"#utility.yul\":1698:1722   */\n      tag_88\n        /* \"#utility.yul\":1716:1721   */\n      dup2\n        /* \"#utility.yul\":1698:1722   */\n      tag_56\n      jump\t// in\n    tag_88:\n        /* \"#utility.yul\":1693:1696   */\n      dup3\n        /* \"#utility.yul\":1686:1723   */\n      mstore\n        /* \"#utility.yul\":1611:1729   */\n      pop\n      pop\n      jump\t// out\n        /* \"#utility.yul\":1735:1957   */\n    tag_25:\n        /* \"#utility.yul\":1828:1832   */\n      0x00\n        /* \"#utility.yul\":1866:1868   */\n      0x20\n        /* \"#utility.yul\":1855:1864   */\n      dup3\n        /* \"#utility.yul\":1851:1869   */\n      add\n        /* \"#utility.yul\":1843:1869   */\n      swap1\n      pop\n        /* \"#utility.yul\":1879:1950   */\n      tag_90\n        /* \"#utility.yul\":1947:1948   */\n      0x00\n        /* \"#utility.yul\":1936:1945   */\n      dup4\n        /* \"#utility.yul\":1932:1949   */\n      add\n        /* \"#utility.yul\":1923:1929   */\n      dup5\n        /* \"#utility.yul\":1879:1950   */\n      tag_57\n      jump\t// in\n    tag_90:\n        /* \"#utility.yul\":1735:1957   */\n      swap3\n      swap2\n      pop\n      pop\n      jump\t// out\n        /* \"#utility.yul\":1963:2132   */\n    tag_58:\n        /* \"#utility.yul\":2047:2058   */\n      0x00\n        /* \"#utility.yul\":2081:2087   */\n      dup3\n        /* \"#utility.yul\":2076:2079   */\n      dup3\n        /* \"#utility.yul\":2069:2088   */\n      mstore\n        /* \"#utility.yul\":2121:2125   */\n      0x20\n        /* \"#utility.yul\":2116:2119   */\n      dup3\n        /* \"#utility.yul\":2112:2126   */\n      add\n        /* \"#utility.yul\":2097:2126   */\n      swap1\n      pop\n        /* \"#utility.yul\":1963:2132   */\n      swap3\n      swap2\n      pop\n      pop\n      jump\t// out\n        /* \"#utility.yul\":2138:2293   */\n    tag_59:\n        /* \"#utility.yul\":2278:2285   */\n      0x7361717565000000000000000000000000000000000000000000000000000000\n        /* \"#utility.yul\":2274:2275   */\n      0x00\n        /* \"#utility.yul\":2266:2272   */\n      dup3\n        /* \"#utility.yul\":2262:2276   */\n      add\n        /* \"#utility.yul\":2255:2286   */\n      mstore\n        /* \"#utility.yul\":2138:2293   */\n      pop\n      jump\t// out\n        /* \"#utility.yul\":2299:2664   */\n    tag_60:\n        /* \"#utility.yul\":2441:2444   */\n      0x00\n        /* \"#utility.yul\":2462:2528   */\n      tag_94\n        /* \"#utility.yul\":2526:2527   */\n      0x05\n        /* \"#utility.yul\":2521:2524   */\n      dup4\n        /* \"#utility.yul\":2462:2528   */\n      tag_58\n      jump\t// in\n    tag_94:\n        /* \"#utility.yul\":2455:2528   */\n      swap2\n      pop\n        /* \"#utility.yul\":2537:2630   */\n      tag_95\n        /* \"#utility.yul\":2626:2629   */\n      dup3\n        /* \"#utility.yul\":2537:2630   */\n      tag_59\n      jump\t// in\n    tag_95:\n        /* \"#utility.yul\":2655:2657   */\n      0x20\n        /* \"#utility.yul\":2650:2653   */\n      dup3\n        /* \"#utility.yul\":2646:2658   */\n      add\n        /* \"#utility.yul\":2639:2658   */\n      swap1\n      pop\n        /* \"#utility.yul\":2299:2664   */\n      swap2\n      swap1\n      pop\n      jump\t// out\n        /* \"#utility.yul\":2670:3309   */\n    tag_32:\n        /* \"#utility.yul\":2892:2896   */\n      0x00\n        /* \"#utility.yul\":2930:2932   */\n      0x60\n        /* \"#utility.yul\":2919:2928   */\n      dup3\n        /* \"#utility.yul\":2915:2933   */\n      add\n        /* \"#utility.yul\":2907:2933   */\n      swap1\n      pop\n        /* \"#utility.yul\":2979:2988   */\n      dup2\n        /* \"#utility.yul\":2973:2977   */\n      dup2\n        /* \"#utility.yul\":2969:2989   */\n      sub\n        /* \"#utility.yul\":2965:2966   */\n      0x00\n        /* \"#utility.yul\":2954:2963   */\n      dup4\n        /* \"#utility.yul\":2950:2967   */\n      add\n        /* \"#utility.yul\":2943:2990   */\n      mstore\n        /* \"#utility.yul\":3007:3138   */\n      tag_97\n        /* \"#utility.yul\":3133:3137   */\n      dup2\n        /* \"#utility.yul\":3007:3138   */\n      tag_60\n      jump\t// in\n    tag_97:\n        /* \"#utility.yul\":2999:3138   */\n      swap1\n      pop\n        /* \"#utility.yul\":3148:3220   */\n      tag_98\n        /* \"#utility.yul\":3216:3218   */\n      0x20\n        /* \"#utility.yul\":3205:3214   */\n      dup4\n        /* \"#utility.yul\":3201:3219   */\n      add\n        /* \"#utility.yul\":3192:3198   */\n      dup6\n        /* \"#utility.yul\":3148:3220   */\n      tag_57\n      jump\t// in\n    tag_98:\n        /* \"#utility.yul\":3230:3302   */\n      tag_99\n        /* \"#utility.yul\":3298:3300   */\n      0x40\n        /* \"#utility.yul\":3287:3296   */\n      dup4\n        /* \"#utility.yul\":3283:3301   */\n      add\n        /* \"#utility.yul\":3274:3280   */\n      dup5\n        /* \"#utility.yul\":3230:3302   */\n      tag_54\n      jump\t// in\n    tag_99:\n        /* \"#utility.yul\":2670:3309   */\n      swap4\n      swap3\n      pop\n      pop\n      pop\n      jump\t// out\n        /* \"#utility.yul\":3315:3458   */\n    tag_61:\n        /* \"#utility.yul\":3372:3377   */\n      0x00\n        /* \"#utility.yul\":3403:3409   */\n      dup2\n        /* \"#utility.yul\":3397:3410   */\n      mload\n        /* \"#utility.yul\":3388:3410   */\n      swap1\n      pop\n        /* \"#utility.yul\":3419:3452   */\n      tag_101\n        /* \"#utility.yul\":3446:3451   */\n      dup2\n        /* \"#utility.yul\":3419:3452   */\n      tag_52\n      jump\t// in\n    tag_101:\n        /* \"#utility.yul\":3315:3458   */\n      swap3\n      swap2\n      pop\n      pop\n      jump\t// out\n        /* \"#utility.yul\":3464:3815   */\n    tag_38:\n        /* \"#utility.yul\":3534:3540   */\n      0x00\n        /* \"#utility.yul\":3583:3585   */\n      0x20\n        /* \"#utility.yul\":3571:3580   */\n      dup3\n        /* \"#utility.yul\":3562:3569   */\n      dup5\n        /* \"#utility.yul\":3558:3581   */\n      sub\n        /* \"#utility.yul\":3554:3586   */\n      slt\n        /* \"#utility.yul\":3551:3670   */\n      iszero\n      tag_103\n      jumpi\n        /* \"#utility.yul\":3589:3668   */\n      tag_104\n      tag_49\n      jump\t// in\n    tag_104:\n        /* \"#utility.yul\":3551:3670   */\n    tag_103:\n        /* \"#utility.yul\":3709:3710   */\n      0x00\n        /* \"#utility.yul\":3734:3798   */\n      tag_105\n        /* \"#utility.yul\":3790:3797   */\n      dup5\n        /* \"#utility.yul\":3781:3787   */\n      dup3\n        /* \"#utility.yul\":3770:3779   */\n      dup6\n        /* \"#utility.yul\":3766:3788   */\n      add\n        /* \"#utility.yul\":3734:3798   */\n      tag_61\n      jump\t// in\n    tag_105:\n        /* \"#utility.yul\":3724:3798   */\n      swap2\n      pop\n        /* \"#utility.yul\":3680:3808   */\n      pop\n        /* \"#utility.yul\":3464:3815   */\n      swap3\n      swap2\n      pop\n      pop\n      jump\t// out\n        /* \"#utility.yul\":3821:3997   */\n    tag_62:\n        /* \"#utility.yul\":3961:3989   */\n      0x5072656369736120656e7669617220616c67756d204554484552000000000000\n        /* \"#utility.yul\":3957:3958   */\n      0x00\n        /* \"#utility.yul\":3949:3955   */\n      dup3\n        /* \"#utility.yul\":3945:3959   */\n      add\n        /* \"#utility.yul\":3938:3990   */\n      mstore\n        /* \"#utility.yul\":3821:3997   */\n      pop\n      jump\t// out\n        /* \"#utility.yul\":4003:4369   */\n    tag_63:\n        /* \"#utility.yul\":4145:4148   */\n      0x00\n        /* \"#utility.yul\":4166:4233   */\n      tag_108\n        /* \"#utility.yul\":4230:4232   */\n      0x1a\n        /* \"#utility.yul\":4225:4228   */\n      dup4\n        /* \"#utility.yul\":4166:4233   */\n      tag_58\n      jump\t// in\n    tag_108:\n        /* \"#utility.yul\":4159:4233   */\n      swap2\n      pop\n        /* \"#utility.yul\":4242:4335   */\n      tag_109\n        /* \"#utility.yul\":4331:4334   */\n      dup3\n        /* \"#utility.yul\":4242:4335   */\n      tag_62\n      jump\t// in\n    tag_109:\n        /* \"#utility.yul\":4360:4362   */\n      0x20\n        /* \"#utility.yul\":4355:4358   */\n      dup3\n        /* \"#utility.yul\":4351:4363   */\n      add\n        /* \"#utility.yul\":4344:4363   */\n      swap1\n      pop\n        /* \"#utility.yul\":4003:4369   */\n      swap2\n      swap1\n      pop\n      jump\t// out\n        /* \"#utility.yul\":4375:4794   */\n    tag_42:\n        /* \"#utility.yul\":4541:4545   */\n      0x00\n        /* \"#utility.yul\":4579:4581   */\n      0x20\n        /* \"#utility.yul\":4568:4577   */\n      dup3\n        /* \"#utility.yul\":4564:4582   */\n      add\n        /* \"#utility.yul\":4556:4582   */\n      swap1\n      pop\n        /* \"#utility.yul\":4628:4637   */\n      dup2\n        /* \"#utility.yul\":4622:4626   */\n      dup2\n        /* \"#utility.yul\":4618:4638   */\n      sub\n        /* \"#utility.yul\":4614:4615   */\n      0x00\n        /* \"#utility.yul\":4603:4612   */\n      dup4\n        /* \"#utility.yul\":4599:4616   */\n      add\n        /* \"#utility.yul\":4592:4639   */\n      mstore\n        /* \"#utility.yul\":4656:4787   */\n      tag_111\n        /* \"#utility.yul\":4782:4786   */\n      dup2\n        /* \"#utility.yul\":4656:4787   */\n      tag_63\n      jump\t// in\n    tag_111:\n        /* \"#utility.yul\":4648:4787   */\n      swap1\n      pop\n        /* \"#utility.yul\":4375:4794   */\n      swap2\n      swap1\n      pop\n      jump\t// out\n        /* \"#utility.yul\":4800:4958   */\n    tag_64:\n        /* \"#utility.yul\":4940:4950   */\n      0x6465706f7369746f000000000000000000000000000000000000000000000000\n        /* \"#utility.yul\":4936:4937   */\n      0x00\n        /* \"#utility.yul\":4928:4934   */\n      dup3\n        /* \"#utility.yul\":4924:4938   */\n      add\n        /* \"#utility.yul\":4917:4951   */\n      mstore\n        /* \"#utility.yul\":4800:4958   */\n      pop\n      jump\t// out\n        /* \"#utility.yul\":4964:5329   */\n    tag_65:\n        /* \"#utility.yul\":5106:5109   */\n      0x00\n        /* \"#utility.yul\":5127:5193   */\n      tag_114\n        /* \"#utility.yul\":5191:5192   */\n      0x08\n        /* \"#utility.yul\":5186:5189   */\n      dup4\n        /* \"#utility.yul\":5127:5193   */\n      tag_58\n      jump\t// in\n    tag_114:\n        /* \"#utility.yul\":5120:5193   */\n      swap2\n      pop\n        /* \"#utility.yul\":5202:5295   */\n      tag_115\n        /* \"#utility.yul\":5291:5294   */\n      dup3\n        /* \"#utility.yul\":5202:5295   */\n      tag_64\n      jump\t// in\n    tag_115:\n        /* \"#utility.yul\":5320:5322   */\n      0x20\n        /* \"#utility.yul\":5315:5318   */\n      dup3\n        /* \"#utility.yul\":5311:5323   */\n      add\n        /* \"#utility.yul\":5304:5323   */\n      swap1\n      pop\n        /* \"#utility.yul\":4964:5329   */\n      swap2\n      swap1\n      pop\n      jump\t// out\n        /* \"#utility.yul\":5335:5974   */\n    tag_47:\n        /* \"#utility.yul\":5557:5561   */\n      0x00\n        /* \"#utility.yul\":5595:5597   */\n      0x60\n        /* \"#utility.yul\":5584:5593   */\n      dup3\n        /* \"#utility.yul\":5580:5598   */\n      add\n        /* \"#utility.yul\":5572:5598   */\n      swap1\n      pop\n        /* \"#utility.yul\":5644:5653   */\n      dup2\n        /* \"#utility.yul\":5638:5642   */\n      dup2\n        /* \"#utility.yul\":5634:5654   */\n      sub\n        /* \"#utility.yul\":5630:5631   */\n      0x00\n        /* \"#utility.yul\":5619:5628   */\n      dup4\n        /* \"#utility.yul\":5615:5632   */\n      add\n        /* \"#utility.yul\":5608:5655   */\n      mstore\n        /* \"#utility.yul\":5672:5803   */\n      tag_117\n        /* \"#utility.yul\":5798:5802   */\n      dup2\n        /* \"#utility.yul\":5672:5803   */\n      tag_65\n      jump\t// in\n    tag_117:\n        /* \"#utility.yul\":5664:5803   */\n      swap1\n      pop\n        /* \"#utility.yul\":5813:5885   */\n      tag_118\n        /* \"#utility.yul\":5881:5883   */\n      0x20\n        /* \"#utility.yul\":5870:5879   */\n      dup4\n        /* \"#utility.yul\":5866:5884   */\n      add\n        /* \"#utility.yul\":5857:5863   */\n      dup6\n        /* \"#utility.yul\":5813:5885   */\n      tag_57\n      jump\t// in\n    tag_118:\n        /* \"#utility.yul\":5895:5967   */\n      tag_119\n        /* \"#utility.yul\":5963:5965   */\n      0x40\n        /* \"#utility.yul\":5952:5961   */\n      dup4\n        /* \"#utility.yul\":5948:5966   */\n      add\n        /* \"#utility.yul\":5939:5945   */\n      dup5\n        /* \"#utility.yul\":5895:5967   */\n      tag_54\n      jump\t// in\n    tag_119:\n        /* \"#utility.yul\":5335:5974   */\n      swap4\n      swap3\n      pop\n      pop\n      pop\n      jump\t// out\n\n    auxdata: 0xa26469706673582212202ba40fcb0636e6d3fd00ca4f1c4d4a9b3e93b5c09713ad20874603636039ea7464736f6c634300081e0033\n}\n",
				"bytecode": {
					"linkReferences": {},
					"object": "608060405234801561000f575f5ffd5b50604051610734380380610734833981810160405281019061003191906100d4565b805f5f6101000a81548173ffffffffffffffffffffffffffffffffffffffff021916908373ffffffffffffffffffffffffffffffffffffffff160217905550506100ff565b5f5ffd5b5f73ffffffffffffffffffffffffffffffffffffffff82169050919050565b5f6100a38261007a565b9050919050565b6100b381610099565b81146100bd575f5ffd5b50565b5f815190506100ce816100aa565b92915050565b5f602082840312156100e9576100e8610076565b5b5f6100f6848285016100c0565b91505092915050565b6106288061010c5f395ff3fe608060405260043610610042575f3560e01c8063466fa6f71461004d578063ec128cb814610075578063f7fb24521461009f578063fd6b81da146100a957610049565b3661004957005b5f5ffd5b348015610058575f5ffd5b50610073600480360381019061006e9190610388565b6100d3565b005b348015610080575f5ffd5b50610089610195565b60405161009691906103c2565b60405180910390f35b6100a7610233565b005b3480156100b4575f5ffd5b506100bd61032d565b6040516100ca919061041a565b60405180910390f35b5f5f9054906101000a900473ffffffffffffffffffffffffffffffffffffffff1673ffffffffffffffffffffffffffffffffffffffff16637371b0d6826040518263ffffffff1660e01b815260040161012c91906103c2565b5f604051808303815f87803b158015610143575f5ffd5b505af1158015610155573d5f5f3e3d5ffd5b505050507f1d357e5c373df9a9135fa1ff39d5253b45f6eac6c56221a6b7305a02befb7cf2338260405161018a92919061048d565b60405180910390a150565b5f5f5f9054906101000a900473ffffffffffffffffffffffffffffffffffffffff1673ffffffffffffffffffffffffffffffffffffffff1663218895e3306040518263ffffffff1660e01b81526004016101ef919061041a565b602060405180830381865afa15801561020a573d5f5f3e3d5ffd5b505050506040513d601f19601f8201168201806040525081019061022e91906104db565b905090565b5f3411610275576040517f08c379a000000000000000000000000000000000000000000000000000000000815260040161026c90610550565b60405180910390fd5b5f5f9054906101000a900473ffffffffffffffffffffffffffffffffffffffff1673ffffffffffffffffffffffffffffffffffffffff16633d922f90346040518263ffffffff1660e01b81526004015f604051808303818588803b1580156102db575f5ffd5b505af11580156102ed573d5f5f3e3d5ffd5b50505050507f1d357e5c373df9a9135fa1ff39d5253b45f6eac6c56221a6b7305a02befb7cf233346040516103239291906105b8565b60405180910390a1565b5f5f9054906101000a900473ffffffffffffffffffffffffffffffffffffffff1681565b5f5ffd5b5f819050919050565b61036781610355565b8114610371575f5ffd5b50565b5f813590506103828161035e565b92915050565b5f6020828403121561039d5761039c610351565b5b5f6103aa84828501610374565b91505092915050565b6103bc81610355565b82525050565b5f6020820190506103d55f8301846103b3565b92915050565b5f73ffffffffffffffffffffffffffffffffffffffff82169050919050565b5f610404826103db565b9050919050565b610414816103fa565b82525050565b5f60208201905061042d5f83018461040b565b92915050565b5f82825260208201905092915050565b7f73617175650000000000000000000000000000000000000000000000000000005f82015250565b5f610477600583610433565b915061048282610443565b602082019050919050565b5f6060820190508181035f8301526104a48161046b565b90506104b3602083018561040b565b6104c060408301846103b3565b9392505050565b5f815190506104d58161035e565b92915050565b5f602082840312156104f0576104ef610351565b5b5f6104fd848285016104c7565b91505092915050565b7f5072656369736120656e7669617220616c67756d2045544845520000000000005f82015250565b5f61053a601a83610433565b915061054582610506565b602082019050919050565b5f6020820190508181035f8301526105678161052e565b9050919050565b7f6465706f7369746f0000000000000000000000000000000000000000000000005f82015250565b5f6105a2600883610433565b91506105ad8261056e565b602082019050919050565b5f6060820190508181035f8301526105cf81610596565b90506105de602083018561040b565b6105eb60408301846103b3565b939250505056fea26469706673582212202ba40fcb0636e6d3fd00ca4f1c4d4a9b3e93b5c09713ad20874603636039ea7464736f6c634300081e0033",
					"opcodes": "PUSH1 0x80 PUSH1 0x40 MSTORE CALLVALUE DUP1 ISZERO PUSH2 0xF JUMPI PUSH0 PUSH0 REVERT JUMPDEST POP PUSH1 0x40 MLOAD PUSH2 0x734 CODESIZE SUB DUP1 PUSH2 0x734 DUP4 CODECOPY DUP2 DUP2 ADD PUSH1 0x40 MSTORE DUP2 ADD SWAP1 PUSH2 0x31 SWAP2 SWAP1 PUSH2 0xD4 JUMP JUMPDEST DUP1 PUSH0 PUSH0 PUSH2 0x100 EXP DUP2 SLOAD DUP2 PUSH20 0xFFFFFFFFFFFFFFFFFFFFFFFFFFFFFFFFFFFFFFFF MUL NOT AND SWAP1 DUP4 PUSH20 0xFFFFFFFFFFFFFFFFFFFFFFFFFFFFFFFFFFFFFFFF AND MUL OR SWAP1 SSTORE POP POP PUSH2 0xFF JUMP JUMPDEST PUSH0 PUSH0 REVERT JUMPDEST PUSH0 PUSH20 0xFFFFFFFFFFFFFFFFFFFFFFFFFFFFFFFFFFFFFFFF DUP3 AND SWAP1 POP SWAP2 SWAP1 POP JUMP JUMPDEST PUSH0 PUSH2 0xA3 DUP3 PUSH2 0x7A JUMP JUMPDEST SWAP1 POP SWAP2 SWAP1 POP JUMP JUMPDEST PUSH2 0xB3 DUP2 PUSH2 0x99 JUMP JUMPDEST DUP2 EQ PUSH2 0xBD JUMPI PUSH0 PUSH0 REVERT JUMPDEST POP JUMP JUMPDEST PUSH0 DUP2 MLOAD SWAP1 POP PUSH2 0xCE DUP2 PUSH2 0xAA JUMP JUMPDEST SWAP3 SWAP2 POP POP JUMP JUMPDEST PUSH0 PUSH1 0x20 DUP3 DUP5 SUB SLT ISZERO PUSH2 0xE9 JUMPI PUSH2 0xE8 PUSH2 0x76 JUMP JUMPDEST JUMPDEST PUSH0 PUSH2 0xF6 DUP5 DUP3 DUP6 ADD PUSH2 0xC0 JUMP JUMPDEST SWAP2 POP POP SWAP3 SWAP2 POP POP JUMP JUMPDEST PUSH2 0x628 DUP1 PUSH2 0x10C PUSH0 CODECOPY PUSH0 RETURN INVALID PUSH1 0x80 PUSH1 0x40 MSTORE PUSH1 0x4 CALLDATASIZE LT PUSH2 0x42 JUMPI PUSH0 CALLDATALOAD PUSH1 0xE0 SHR DUP1 PUSH4 0x466FA6F7 EQ PUSH2 0x4D JUMPI DUP1 PUSH4 0xEC128CB8 EQ PUSH2 0x75 JUMPI DUP1 PUSH4 0xF7FB2452 EQ PUSH2 0x9F JUMPI DUP1 PUSH4 0xFD6B81DA EQ PUSH2 0xA9 JUMPI PUSH2 0x49 JUMP JUMPDEST CALLDATASIZE PUSH2 0x49 JUMPI STOP JUMPDEST PUSH0 PUSH0 REVERT JUMPDEST CALLVALUE DUP1 ISZERO PUSH2 0x58 JUMPI PUSH0 PUSH0 REVERT JUMPDEST POP PUSH2 0x73 PUSH1 0x4 DUP1 CALLDATASIZE SUB DUP2 ADD SWAP1 PUSH2 0x6E SWAP2 SWAP1 PUSH2 0x388 JUMP JUMPDEST PUSH2 0xD3 JUMP JUMPDEST STOP JUMPDEST CALLVALUE DUP1 ISZERO PUSH2 0x80 JUMPI PUSH0 PUSH0 REVERT JUMPDEST POP PUSH2 0x89 PUSH2 0x195 JUMP JUMPDEST PUSH1 0x40 MLOAD PUSH2 0x96 SWAP2 SWAP1 PUSH2 0x3C2 JUMP JUMPDEST PUSH1 0x40 MLOAD DUP1 SWAP2 SUB SWAP1 RETURN JUMPDEST PUSH2 0xA7 PUSH2 0x233 JUMP JUMPDEST STOP JUMPDEST CALLVALUE DUP1 ISZERO PUSH2 0xB4 JUMPI PUSH0 PUSH0 REVERT JUMPDEST POP PUSH2 0xBD PUSH2 0x32D JUMP JUMPDEST PUSH1 0x40 MLOAD PUSH2 0xCA SWAP2 SWAP1 PUSH2 0x41A JUMP JUMPDEST PUSH1 0x40 MLOAD DUP1 SWAP2 SUB SWAP1 RETURN JUMPDEST PUSH0 PUSH0 SWAP1 SLOAD SWAP1 PUSH2 0x100 EXP SWAP1 DIV PUSH20 0xFFFFFFFFFFFFFFFFFFFFFFFFFFFFFFFFFFFFFFFF AND PUSH20 0xFFFFFFFFFFFFFFFFFFFFFFFFFFFFFFFFFFFFFFFF AND PUSH4 0x7371B0D6 DUP3 PUSH1 0x40 MLOAD DUP3 PUSH4 0xFFFFFFFF AND PUSH1 0xE0 SHL DUP2 MSTORE PUSH1 0x4 ADD PUSH2 0x12C SWAP2 SWAP1 PUSH2 0x3C2 JUMP JUMPDEST PUSH0 PUSH1 0x40 MLOAD DUP1 DUP4 SUB DUP2 PUSH0 DUP8 DUP1 EXTCODESIZE ISZERO DUP1 ISZERO PUSH2 0x143 JUMPI PUSH0 PUSH0 REVERT JUMPDEST POP GAS CALL ISZERO DUP1 ISZERO PUSH2 0x155 JUMPI RETURNDATASIZE PUSH0 PUSH0 RETURNDATACOPY RETURNDATASIZE PUSH0 REVERT JUMPDEST POP POP POP POP PUSH32 0x1D357E5C373DF9A9135FA1FF39D5253B45F6EAC6C56221A6B7305A02BEFB7CF2 CALLER DUP3 PUSH1 0x40 MLOAD PUSH2 0x18A SWAP3 SWAP2 SWAP1 PUSH2 0x48D JUMP JUMPDEST PUSH1 0x40 MLOAD DUP1 SWAP2 SUB SWAP1 LOG1 POP JUMP JUMPDEST PUSH0 PUSH0 PUSH0 SWAP1 SLOAD SWAP1 PUSH2 0x100 EXP SWAP1 DIV PUSH20 0xFFFFFFFFFFFFFFFFFFFFFFFFFFFFFFFFFFFFFFFF AND PUSH20 0xFFFFFFFFFFFFFFFFFFFFFFFFFFFFFFFFFFFFFFFF AND PUSH4 0x218895E3 ADDRESS PUSH1 0x40 MLOAD DUP3 PUSH4 0xFFFFFFFF AND PUSH1 0xE0 SHL DUP2 MSTORE PUSH1 0x4 ADD PUSH2 0x1EF SWAP2 SWAP1 PUSH2 0x41A JUMP JUMPDEST PUSH1 0x20 PUSH1 0x40 MLOAD DUP1 DUP4 SUB DUP2 DUP7 GAS STATICCALL ISZERO DUP1 ISZERO PUSH2 0x20A JUMPI RETURNDATASIZE PUSH0 PUSH0 RETURNDATACOPY RETURNDATASIZE PUSH0 REVERT JUMPDEST POP POP POP POP PUSH1 0x40 MLOAD RETURNDATASIZE PUSH1 0x1F NOT PUSH1 0x1F DUP3 ADD AND DUP3 ADD DUP1 PUSH1 0x40 MSTORE POP DUP2 ADD SWAP1 PUSH2 0x22E SWAP2 SWAP1 PUSH2 0x4DB JUMP JUMPDEST SWAP1 POP SWAP1 JUMP JUMPDEST PUSH0 CALLVALUE GT PUSH2 0x275 JUMPI PUSH1 0x40 MLOAD PUSH32 0x8C379A000000000000000000000000000000000000000000000000000000000 DUP2 MSTORE PUSH1 0x4 ADD PUSH2 0x26C SWAP1 PUSH2 0x550 JUMP JUMPDEST PUSH1 0x40 MLOAD DUP1 SWAP2 SUB SWAP1 REVERT JUMPDEST PUSH0 PUSH0 SWAP1 SLOAD SWAP1 PUSH2 0x100 EXP SWAP1 DIV PUSH20 0xFFFFFFFFFFFFFFFFFFFFFFFFFFFFFFFFFFFFFFFF AND PUSH20 0xFFFFFFFFFFFFFFFFFFFFFFFFFFFFFFFFFFFFFFFF AND PUSH4 0x3D922F90 CALLVALUE PUSH1 0x40 MLOAD DUP3 PUSH4 0xFFFFFFFF AND PUSH1 0xE0 SHL DUP2 MSTORE PUSH1 0x4 ADD PUSH0 PUSH1 0x40 MLOAD DUP1 DUP4 SUB DUP2 DUP6 DUP9 DUP1 EXTCODESIZE ISZERO DUP1 ISZERO PUSH2 0x2DB JUMPI PUSH0 PUSH0 REVERT JUMPDEST POP GAS CALL ISZERO DUP1 ISZERO PUSH2 0x2ED JUMPI RETURNDATASIZE PUSH0 PUSH0 RETURNDATACOPY RETURNDATASIZE PUSH0 REVERT JUMPDEST POP POP POP POP POP PUSH32 0x1D357E5C373DF9A9135FA1FF39D5253B45F6EAC6C56221A6B7305A02BEFB7CF2 CALLER CALLVALUE PUSH1 0x40 MLOAD PUSH2 0x323 SWAP3 SWAP2 SWAP1 PUSH2 0x5B8 JUMP JUMPDEST PUSH1 0x40 MLOAD DUP1 SWAP2 SUB SWAP1 LOG1 JUMP JUMPDEST PUSH0 PUSH0 SWAP1 SLOAD SWAP1 PUSH2 0x100 EXP SWAP1 DIV PUSH20 0xFFFFFFFFFFFFFFFFFFFFFFFFFFFFFFFFFFFFFFFF AND DUP2 JUMP JUMPDEST PUSH0 PUSH0 REVERT JUMPDEST PUSH0 DUP2 SWAP1 POP SWAP2 SWAP1 POP JUMP JUMPDEST PUSH2 0x367 DUP2 PUSH2 0x355 JUMP JUMPDEST DUP2 EQ PUSH2 0x371 JUMPI PUSH0 PUSH0 REVERT JUMPDEST POP JUMP JUMPDEST PUSH0 DUP2 CALLDATALOAD SWAP1 POP PUSH2 0x382 DUP2 PUSH2 0x35E JUMP JUMPDEST SWAP3 SWAP2 POP POP JUMP JUMPDEST PUSH0 PUSH1 0x20 DUP3 DUP5 SUB SLT ISZERO PUSH2 0x39D JUMPI PUSH2 0x39C PUSH2 0x351 JUMP JUMPDEST JUMPDEST PUSH0 PUSH2 0x3AA DUP5 DUP3 DUP6 ADD PUSH2 0x374 JUMP JUMPDEST SWAP2 POP POP SWAP3 SWAP2 POP POP JUMP JUMPDEST PUSH2 0x3BC DUP2 PUSH2 0x355 JUMP JUMPDEST DUP3 MSTORE POP POP JUMP JUMPDEST PUSH0 PUSH1 0x20 DUP3 ADD SWAP1 POP PUSH2 0x3D5 PUSH0 DUP4 ADD DUP5 PUSH2 0x3B3 JUMP JUMPDEST SWAP3 SWAP2 POP POP JUMP JUMPDEST PUSH0 PUSH20 0xFFFFFFFFFFFFFFFFFFFFFFFFFFFFFFFFFFFFFFFF DUP3 AND SWAP1 POP SWAP2 SWAP1 POP JUMP JUMPDEST PUSH0 PUSH2 0x404 DUP3 PUSH2 0x3DB JUMP JUMPDEST SWAP1 POP SWAP2 SWAP1 POP JUMP JUMPDEST PUSH2 0x414 DUP2 PUSH2 0x3FA JUMP JUMPDEST DUP3 MSTORE POP POP JUMP JUMPDEST PUSH0 PUSH1 0x20 DUP3 ADD SWAP1 POP PUSH2 0x42D PUSH0 DUP4 ADD DUP5 PUSH2 0x40B JUMP JUMPDEST SWAP3 SWAP2 POP POP JUMP JUMPDEST PUSH0 DUP3 DUP3 MSTORE PUSH1 0x20 DUP3 ADD SWAP1 POP SWAP3 SWAP2 POP POP JUMP JUMPDEST PUSH32 0x7361717565000000000000000000000000000000000000000000000000000000 PUSH0 DUP3 ADD MSTORE POP JUMP JUMPDEST PUSH0 PUSH2 0x477 PUSH1 0x5 DUP4 PUSH2 0x433 JUMP JUMPDEST SWAP2 POP PUSH2 0x482 DUP3 PUSH2 0x443 JUMP JUMPDEST PUSH1 0x20 DUP3 ADD SWAP1 POP SWAP2 SWAP1 POP JUMP JUMPDEST PUSH0 PUSH1 0x60 DUP3 ADD SWAP1 POP DUP2 DUP2 SUB PUSH0 DUP4 ADD MSTORE PUSH2 0x4A4 DUP2 PUSH2 0x46B JUMP JUMPDEST SWAP1 POP PUSH2 0x4B3 PUSH1 0x20 DUP4 ADD DUP6 PUSH2 0x40B JUMP JUMPDEST PUSH2 0x4C0 PUSH1 0x40 DUP4 ADD DUP5 PUSH2 0x3B3 JUMP JUMPDEST SWAP4 SWAP3 POP POP POP JUMP JUMPDEST PUSH0 DUP2 MLOAD SWAP1 POP PUSH2 0x4D5 DUP2 PUSH2 0x35E JUMP JUMPDEST SWAP3 SWAP2 POP POP JUMP JUMPDEST PUSH0 PUSH1 0x20 DUP3 DUP5 SUB SLT ISZERO PUSH2 0x4F0 JUMPI PUSH2 0x4EF PUSH2 0x351 JUMP JUMPDEST JUMPDEST PUSH0 PUSH2 0x4FD DUP5 DUP3 DUP6 ADD PUSH2 0x4C7 JUMP JUMPDEST SWAP2 POP POP SWAP3 SWAP2 POP POP JUMP JUMPDEST PUSH32 0x5072656369736120656E7669617220616C67756D204554484552000000000000 PUSH0 DUP3 ADD MSTORE POP JUMP JUMPDEST PUSH0 PUSH2 0x53A PUSH1 0x1A DUP4 PUSH2 0x433 JUMP JUMPDEST SWAP2 POP PUSH2 0x545 DUP3 PUSH2 0x506 JUMP JUMPDEST PUSH1 0x20 DUP3 ADD SWAP1 POP SWAP2 SWAP1 POP JUMP JUMPDEST PUSH0 PUSH1 0x20 DUP3 ADD SWAP1 POP DUP2 DUP2 SUB PUSH0 DUP4 ADD MSTORE PUSH2 0x567 DUP2 PUSH2 0x52E JUMP JUMPDEST SWAP1 POP SWAP2 SWAP1 POP JUMP JUMPDEST PUSH32 0x6465706F7369746F000000000000000000000000000000000000000000000000 PUSH0 DUP3 ADD MSTORE POP JUMP JUMPDEST PUSH0 PUSH2 0x5A2 PUSH1 0x8 DUP4 PUSH2 0x433 JUMP JUMPDEST SWAP2 POP PUSH2 0x5AD DUP3 PUSH2 0x56E JUMP JUMPDEST PUSH1 0x20 DUP3 ADD SWAP1 POP SWAP2 SWAP1 POP JUMP JUMPDEST PUSH0 PUSH1 0x60 DUP3 ADD SWAP1 POP DUP2 DUP2 SUB PUSH0 DUP4 ADD MSTORE PUSH2 0x5CF DUP2 PUSH2 0x596 JUMP JUMPDEST SWAP1 POP PUSH2 0x5DE PUSH1 0x20 DUP4 ADD DUP6 PUSH2 0x40B JUMP JUMPDEST PUSH2 0x5EB PUSH1 0x40 DUP4 ADD DUP5 PUSH2 0x3B3 JUMP JUMPDEST SWAP4 SWAP3 POP POP POP JUMP INVALID LOG2 PUSH5 0x6970667358 0x22 SLT KECCAK256 0x2B LOG4 0xF 0xCB MOD CALLDATASIZE DUPN 0xD3 REVERT STOP 0xCA 0x4F SHR 0x4D BLOBBASEFEE SWAP12 RETURNDATACOPY SWAP4 0xB5 0xC0 SWAP8 SGT 0xAD KECCAK256 DUP8 CHAINID SUB PUSH4 0x6039EA74 PUSH5 0x736F6C6343 STOP ADDMOD 0x1E STOP CALLER "
				},
				"gasEstimates": {
					"creation": {
						"codeDepositCost": "315200",
						"executionCost": "infinite",
						"totalCost": "infinite"
					},
					"external": {
						"cofreEndereco()": "2551",
						"enviarDeposito()": "infinite",
						"requisitarSaque(uint256)": "infinite",
						"verMeuSaldo()": "infinite"
					}
				},
				"methodIdentifiers": {
					"cofreEndereco()": "fd6b81da",
					"enviarDeposito()": "f7fb2452",
					"requisitarSaque(uint256)": "466fa6f7",
					"verMeuSaldo()": "ec128cb8"
				}
			},
			"storageLayout": {
				"storage": [
					{
						"astId": 4,
						"contract": "Modulo3/Cliente.sol:Cliente",
						"label": "cofreEndereco",
						"offset": 0,
						"slot": "0",
						"type": "t_address"
					}
				],
				"types": {
					"t_address": {
						"encoding": "inplace",
						"label": "address",
						"numberOfBytes": "20"
					}
				}
			},
			"userdoc": {
				"kind": "user",
				"methods": {},
				"version": 1
			}
		}
	}
}