{
	"Modulo2/ContadorAcessos.sol": {
		"ContadorAcessos": {
			"abi": [
				{
					"inputs": [
						{
							"internalType": "uint256",
							"name": "valr",
							"type": "uint256"
						}
					],
					"stateMutability": "nonpayable",
					"type": "constructor"
				},
				{
					"inputs": [],
					"name": "contar",
					"outputs": [],
					"stateMutability": "nonpayable",
					"type": "function"
				},
				{
					"inputs": [],
					"name": "gerarContagem",
					"outputs": [],
					"stateMutability": "nonpayable",
					"type": "function"
				},
				{
					"inputs": [],
					"name": "getContagem",
					"outputs": [
						{
							"internalType": "uint256",
							"name": "",
							"type": "uint256"
						}
					],
					"stateMutability": "view",
					"type": "function"
				}
			],
			"devdoc": {
				"kind": "dev",
				"methods": {},
				"version": 1
			},
			"evm": {
				"assembly": "    /* \"Modulo2/ContadorAcessos.sol\":57:395  contract ContadorAcessos {... */\n  mstore(0x40, 0x80)\n    /* \"Modulo2/ContadorAcessos.sol\":115:173  constructor(uint256 valr) {... */\n  callvalue\n  dup1\n  iszero\n  tag_1\n  jumpi\n  revert(0x00, 0x00)\ntag_1:\n  pop\n  mload(0x40)\n  sub(codesize, bytecodeSize)\n  dup1\n  bytecodeSize\n  dup4\n  codecopy\n  dup2\n  dup2\n  add\n  0x40\n  mstore\n  dup2\n  add\n  swap1\n  tag_2\n  swap2\n  swap1\n  tag_3\n  jump\t// in\ntag_2:\n    /* \"Modulo2/ContadorAcessos.sol\":162:166  valr */\n  dup1\n    /* \"Modulo2/ContadorAcessos.sol\":151:159  contador */\n  0x00\n    /* \"Modulo2/ContadorAcessos.sol\":151:166  contador = valr */\n  dup2\n  swap1\n  sstore\n  pop\n    /* \"Modulo2/ContadorAcessos.sol\":115:173  constructor(uint256 valr) {... */\n  pop\n    /* \"Modulo2/ContadorAcessos.sol\":57:395  contract ContadorAcessos {... */\n  jump(tag_6)\n    /* \"#utility.yul\":88:205   */\ntag_8:\n    /* \"#utility.yul\":197:198   */\n  0x00\n    /* \"#utility.yul\":194:195   */\n  0x00\n    /* \"#utility.yul\":187:199   */\n  revert\n    /* \"#utility.yul\":334:411   */\ntag_10:\n    /* \"#utility.yul\":371:378   */\n  0x00\n    /* \"#utility.yul\":400:405   */\n  dup2\n    /* \"#utility.yul\":389:405   */\n  swap1\n  pop\n    /* \"#utility.yul\":334:411   */\n  swap2\n  swap1\n  pop\n  jump\t// out\n    /* \"#utility.yul\":417:539   */\ntag_11:\n    /* \"#utility.yul\":490:514   */\n  tag_19\n    /* \"#utility.yul\":508:513   */\n  dup2\n    /* \"#utility.yul\":490:514   */\n  tag_10\n  jump\t// in\ntag_19:\n    /* \"#utility.yul\":483:488   */\n  dup2\n    /* \"#utility.yul\":480:515   */\n  eq\n    /* \"#utility.yul\":470:533   */\n  tag_20\n  jumpi\n    /* \"#utility.yul\":529:530   */\n  0x00\n    /* \"#utility.yul\":526:527   */\n  0x00\n    /* \"#utility.yul\":519:531   */\n  revert\n    /* \"#utility.yul\":470:533   */\ntag_20:\n    /* \"#utility.yul\":417:539   */\n  pop\n  jump\t// out\n    /* \"#utility.yul\":545:688   */\ntag_12:\n    /* \"#utility.yul\":602:607   */\n  0x00\n    /* \"#utility.yul\":633:639   */\n  dup2\n    /* \"#utility.yul\":627:640   */\n  mload\n    /* \"#utility.yul\":618:640   */\n  swap1\n  pop\n    /* \"#utility.yul\":649:682   */\n  tag_22\n    /* \"#utility.yul\":676:681   */\n  dup2\n    /* \"#utility.yul\":649:682   */\n  tag_11\n  jump\t// in\ntag_22:\n    /* \"#utility.yul\":545:688   */\n  swap3\n  swap2\n  pop\n  pop\n  jump\t// out\n    /* \"#utility.yul\":694:1045   */\ntag_3:\n    /* \"#utility.yul\":764:770   */\n  0x00\n    /* \"#utility.yul\":813:815   */\n  0x20\n    /* \"#utility.yul\":801:810   */\n  dup3\n    /* \"#utility.yul\":792:799   */\n  dup5\n    /* \"#utility.yul\":788:811   */\n  sub\n    /* \"#utility.yul\":784:816   */\n  slt\n    /* \"#utility.yul\":781:900   */\n  iszero\n  tag_24\n  jumpi\n    /* \"#utility.yul\":819:898   */\n  tag_25\n  tag_8\n  jump\t// in\ntag_25:\n    /* \"#utility.yul\":781:900   */\ntag_24:\n    /* \"#utility.yul\":939:940   */\n  0x00\n    /* \"#utility.yul\":964:1028   */\n  tag_26\n    /* \"#utility.yul\":1020:1027   */\n  dup5\n    /* \"#utility.yul\":1011:1017   */\n  dup3\n    /* \"#utility.yul\":1000:1009   */\n  dup6\n    /* \"#utility.yul\":996:1018   */\n  add\n    /* \"#utility.yul\":964:1028   */\n  tag_12\n  jump\t// in\ntag_26:\n    /* \"#utility.yul\":954:1028   */\n  swap2\n  pop\n    /* \"#utility.yul\":910:1038   */\n  pop\n    /* \"#utility.yul\":694:1045   */\n  swap3\n  swap2\n  pop\n  pop\n  jump\t// out\n    /* \"Modulo2/ContadorAcessos.sol\":57:395  contract ContadorAcessos {... */\ntag_6:\n  dataSize(sub_0)\n  dup1\n  dataOffset(sub_0)\n  0x00\n  codecopy\n  0x00\n  return\nstop\n\nsub_0: assembly {\n        /* \"Modulo2/ContadorAcessos.sol\":57:395  contract ContadorAcessos {... */\n      mstore(0x40, 0x80)\n      callvalue\n      dup1\n      iszero\n      tag_1\n      jumpi\n      revert(0x00, 0x00)\n    tag_1:\n      pop\n      jumpi(tag_2, lt(calldatasize, 0x04))\n      shr(0xe0, calldataload(0x00))\n      dup1\n      0x8476c437\n      eq\n      tag_3\n      jumpi\n      dup1\n      0x9d1f79ef\n      eq\n      tag_4\n      jumpi\n      dup1\n      0xe5e95f03\n      eq\n      tag_5\n      jumpi\n    tag_2:\n      revert(0x00, 0x00)\n        /* \"Modulo2/ContadorAcessos.sol\":270:332  function gerarContagem() public  {... */\n    tag_3:\n      tag_6\n      tag_7\n      jump\t// in\n    tag_6:\n      stop\n        /* \"Modulo2/ContadorAcessos.sol\":179:264  function getContagem() public view returns (uint256) {... */\n    tag_4:\n      tag_8\n      tag_9\n      jump\t// in\n    tag_8:\n      mload(0x40)\n      tag_10\n      swap2\n      swap1\n      tag_11\n      jump\t// in\n    tag_10:\n      mload(0x40)\n      dup1\n      swap2\n      sub\n      swap1\n      return\n        /* \"Modulo2/ContadorAcessos.sol\":338:393  function contar() public {... */\n    tag_5:\n      tag_12\n      tag_13\n      jump\t// in\n    tag_12:\n      stop\n        /* \"Modulo2/ContadorAcessos.sol\":270:332  function gerarContagem() public  {... */\n    tag_7:\n        /* \"Modulo2/ContadorAcessos.sol\":324:325  0 */\n      0x00\n        /* \"Modulo2/ContadorAcessos.sol\":313:321  contador */\n      0x00\n        /* \"Modulo2/ContadorAcessos.sol\":313:325  contador = 0 */\n      dup2\n      swap1\n      sstore\n      pop\n        /* \"Modulo2/ContadorAcessos.sol\":270:332  function gerarContagem() public  {... */\n      jump\t// out\n        /* \"Modulo2/ContadorAcessos.sol\":179:264  function getContagem() public view returns (uint256) {... */\n    tag_9:\n        /* \"Modulo2/ContadorAcessos.sol\":223:230  uint256 */\n      0x00\n        /* \"Modulo2/ContadorAcessos.sol\":249:257  contador */\n      sload(0x00)\n        /* \"Modulo2/ContadorAcessos.sol\":242:257  return contador */\n      swap1\n      pop\n        /* \"Modulo2/ContadorAcessos.sol\":179:264  function getContagem() public view returns (uint256) {... */\n      swap1\n      jump\t// out\n        /* \"Modulo2/ContadorAcessos.sol\":338:393  function contar() public {... */\n    tag_13:\n        /* \"Modulo2/ContadorAcessos.sol\":385:386  1 */\n      0x01\n        /* \"Modulo2/ContadorAcessos.sol\":373:381  contador */\n      0x00\n      0x00\n        /* \"Modulo2/ContadorAcessos.sol\":373:386  contador += 1 */\n      dup3\n      dup3\n      sload\n      tag_17\n      swap2\n      swap1\n      tag_18\n      jump\t// in\n    tag_17:\n      swap3\n      pop\n      pop\n      dup2\n      swap1\n      sstore\n      pop\n        /* \"Modulo2/ContadorAcessos.sol\":338:393  function contar() public {... */\n      jump\t// out\n        /* \"#utility.yul\":7:84   */\n    tag_19:\n        /* \"#utility.yul\":44:51   */\n      0x00\n        /* \"#utility.yul\":73:78   */\n      dup2\n        /* \"#utility.yul\":62:78   */\n      swap1\n      pop\n        /* \"#utility.yul\":7:84   */\n      swap2\n      swap1\n      pop\n      jump\t// out\n        /* \"#utility.yul\":90:208   */\n    tag_20:\n        /* \"#utility.yul\":177:201   */\n      tag_25\n        /* \"#utility.yul\":195:200   */\n      dup2\n        /* \"#utility.yul\":177:201   */\n      tag_19\n      jump\t// in\n    tag_25:\n        /* \"#utility.yul\":172:175   */\n      dup3\n        /* \"#utility.yul\":165:202   */\n      mstore\n        /* \"#utility.yul\":90:208   */\n      pop\n      pop\n      jump\t// out\n        /* \"#utility.yul\":214:436   */\n    tag_11:\n        /* \"#utility.yul\":307:311   */\n      0x00\n        /* \"#utility.yul\":345:347   */\n      0x20\n        /* \"#utility.yul\":334:343   */\n      dup3\n        /* \"#utility.yul\":330:348   */\n      add\n        /* \"#utility.yul\":322:348   */\n      swap1\n      pop\n        /* \"#utility.yul\":358:429   */\n      tag_27\n        /* \"#utility.yul\":426:427   */\n      0x00\n        /* \"#utility.yul\":415:424   */\n      dup4\n        /* \"#utility.yul\":411:428   */\n      add\n        /* \"#utility.yul\":402:408   */\n      dup5\n        /* \"#utility.yul\":358:429   */\n      tag_20\n      jump\t// in\n    tag_27:\n        /* \"#utility.yul\":214:436   */\n      swap3\n      swap2\n      pop\n      pop\n      jump\t// out\n        /* \"#utility.yul\":442:622   */\n    tag_21:\n        /* \"#utility.yul\":490:567   */\n      0x4e487b7100000000000000000000000000000000000000000000000000000000\n        /* \"#utility.yul\":487:488   */\n      0x00\n        /* \"#utility.yul\":480:568   */\n      mstore\n        /* \"#utility.yul\":587:591   */\n      0x11\n        /* \"#utility.yul\":584:585   */\n      0x04\n        /* \"#utility.yul\":577:592   */\n      mstore\n        /* \"#utility.yul\":611:615   */\n      0x24\n        /* \"#utility.yul\":608:609   */\n      0x00\n        /* \"#utility.yul\":601:616   */\n      revert\n        /* \"#utility.yul\":628:819   */\n    tag_18:\n        /* \"#utility.yul\":668:671   */\n      0x00\n        /* \"#utility.yul\":687:707   */\n      tag_30\n        /* \"#utility.yul\":705:706   */\n      dup3\n        /* \"#utility.yul\":687:707   */\n      tag_19\n      jump\t// in\n    tag_30:\n        /* \"#utility.yul\":682:707   */\n      swap2\n      pop\n        /* \"#utility.yul\":721:741   */\n      tag_31\n        /* \"#utility.yul\":739:740   */\n      dup4\n        /* \"#utility.yul\":721:741   */\n      tag_19\n      jump\t// in\n    tag_31:\n        /* \"#utility.yul\":716:741   */\n      swap3\n      pop\n        /* \"#utility.yul\":764:765   */\n      dup3\n        /* \"#utility.yul\":761:762   */\n      dup3\n        /* \"#utility.yul\":757:766   */\n      add\n        /* \"#utility.yul\":750:766   */\n      swap1\n      pop\n        /* \"#utility.yul\":785:788   */\n      dup1\n        /* \"#utility.yul\":782:783   */\n      dup3\n        /* \"#utility.yul\":779:789   */\n      gt\n        /* \"#utility.yul\":776:812   */\n      iszero\n      tag_32\n      jumpi\n        /* \"#utility.yul\":792:810   */\n      tag_33\n      tag_21\n      jump\t// in\n    tag_33:\n        /* \"#utility.yul\":776:812   */\n    tag_32:\n        /* \"#utility.yul\":628:819   */\n      swap3\n      swap2\n      pop\n      pop\n      jump\t// out\n\n    auxdata: 0xa2646970667358221220bf9eb43d044e2507205704e0a29992923853bdb330671758c97332966cfbb64964736f6c634300081e0033\n}\n",
				"bytecode": {
					"linkReferences": {},
					"object": "6080604052348015600e575f5ffd5b506040516102043803806102048339818101604052810190602e9190606b565b805f81905550506091565b5f5ffd5b5f819050919050565b604d81603d565b81146056575f5ffd5b50565b5f815190506065816046565b92915050565b5f60208284031215607d57607c6039565b5b5f6088848285016059565b91505092915050565b6101668061009e5f395ff3fe608060405234801561000f575f5ffd5b506004361061003f575f3560e01c80638476c437146100435780639d1f79ef1461004d578063e5e95f031461006b575b5f5ffd5b61004b610075565b005b61005561007d565b60405161006291906100b7565b60405180910390f35b610073610085565b005b5f5f81905550565b5f5f54905090565b60015f5f82825461009691906100fd565b92505081905550565b5f819050919050565b6100b18161009f565b82525050565b5f6020820190506100ca5f8301846100a8565b92915050565b7f4e487b71000000000000000000000000000000000000000000000000000000005f52601160045260245ffd5b5f6101078261009f565b91506101128361009f565b925082820190508082111561012a576101296100d0565b5b9291505056fea2646970667358221220bf9eb43d044e2507205704e0a29992923853bdb330671758c97332966cfbb64964736f6c634300081e0033",
					"opcodes": "PUSH1 0x80 PUSH1 0x40 MSTORE CALLVALUE DUP1 ISZERO PUSH1 0xE JUMPI PUSH0 PUSH0 REVERT JUMPDEST POP PUSH1 0x40 MLOAD PUSH2 0x204 CODESIZE SUB DUP1 PUSH2 0x204 DUP4 CODECOPY DUP2 DUP2 ADD PUSH1 0x40 MSTORE DUP2 ADD SWAP1 PUSH1 0x2E SWAP2 SWAP1 PUSH1 0x6B JUMP JUMPDEST DUP1 PUSH0 DUP2 SWAP1 SSTORE POP POP PUSH1 0x91 JUMP JUMPDEST PUSH0 PUSH0 REVERT JUMPDEST PUSH0 DUP2 SWAP1 POP SWAP2 SWAP1 POP JUMP JUMPDEST PUSH1 0x4D DUP2 PUSH1 0x3D JUMP JUMPDEST DUP2 EQ PUSH1 0x56 JUMPI PUSH0 PUSH0 REVERT JUMPDEST POP JUMP JUMPDEST PUSH0 DUP2 MLOAD SWAP1 POP PUSH1 0x65 DUP2 PUSH1 0x46 JUMP JUMPDEST SWAP3 SWAP2 POP POP JUMP JUMPDEST PUSH0 PUSH1 0x20 DUP3 DUP5 SUB SLT ISZERO PUSH1 0x7D JUMPI PUSH1 0x7C PUSH1 0x39 JUMP JUMPDEST JUMPDEST PUSH0 PUSH1 0x88 DUP5 DUP3 DUP6 ADD PUSH1 0x59 JUMP JUMPDEST SWAP2 POP POP SWAP3 SWAP2 POP POP JUMP JUMPDEST PUSH2 0x166 DUP1 PUSH2 0x9E PUSH0 CODECOPY PUSH0 RETURN INVALID PUSH1 0x80 PUSH1 0x40 MSTORE CALLVALUE DUP1 ISZERO PUSH2 0xF JUMPI PUSH0 PUSH0 REVERT JUMPDEST POP PUSH1 0x4 CALLDATASIZE LT PUSH2 0x3F JUMPI PUSH0 CALLDATALOAD PUSH1 0xE0 SHR DUP1 PUSH4 0x8476C437 EQ PUSH2 0x43 JUMPI DUP1 PUSH4 0x9D1F79EF EQ PUSH2 0x4D JUMPI DUP1 PUSH4 0xE5E95F03 EQ PUSH2 0x6B JUMPI JUMPDEST PUSH0 PUSH0 REVERT JUMPDEST PUSH2 0x4B PUSH2 0x75 JUMP JUMPDEST STOP JUMPDEST PUSH2 0x55 PUSH2 0x7D JUMP JUMPDEST PUSH1 0x40 MLOAD PUSH2 0x62 SWAP2 SWAP1 PUSH2 0xB7 JUMP JUMPDEST PUSH1 0x40 MLOAD DUP1 SWAP2 SUB SWAP1 RETURN JUMPDEST PUSH2 0x73 PUSH2 0x85 JUMP JUMPDEST STOP JUMPDEST PUSH0 PUSH0 DUP2 SWAP1 SSTORE POP JUMP JUMPDEST PUSH0 PUSH0 SLOAD SWAP1 POP SWAP1 JUMP JUMPDEST PUSH1 0x1 PUSH0 PUSH0 DUP3 DUP3 SLOAD PUSH2 0x96 SWAP2 SWAP1 PUSH2 0xFD JUMP JUMPDEST SWAP3 POP POP DUP2 SWAP1 SSTORE POP JUMP JUMPDEST PUSH0 DUP2 SWAP1 POP SWAP2 SWAP1 POP JUMP JUMPDEST PUSH2 0xB1 DUP2 PUSH2 0x9F JUMP JUMPDEST DUP3 MSTORE POP POP JUMP JUMPDEST PUSH0 PUSH1 0x20 DUP3 ADD SWAP1 POP PUSH2 0xCA PUSH0 DUP4 ADD DUP5 PUSH2 0xA8 JUMP JUMPDEST SWAP3 SWAP2 POP POP JUMP JUMPDEST PUSH32 0x4E487B7100000000000000000000000000000000000000000000000000000000 PUSH0 MSTORE PUSH1 0x11 PUSH1 0x4 MSTORE PUSH1 0x24 PUSH0 REVERT JUMPDEST PUSH0 PUSH2 0x107 DUP3 PUSH2 0x9F JUMP JUMPDEST SWAP2 POP PUSH2 0x112 DUP4 PUSH2 0x9F JUMP JUMPDEST SWAP3 POP DUP3 DUP3 ADD SWAP1 POP DUP1 DUP3 GT ISZERO PUSH2 0x12A JUMPI PUSH2 0x129 PUSH2 0xD0 JUMP JUMPDEST JUMPDEST SWAP3 SWAP2 POP POP JUMP INVALID LOG2 PUSH5 0x6970667358 0x22 SLT KECCAK256 0xBF SWAP15 0xB4 RETURNDATASIZE DIV 0x4E 0x25 SMOD KECCAK256 JUMPI DIV RJUMP 0xA299 SWAP3 SWAP3 CODESIZE MSTORE8 0xBD 0xB3 ADDRESS PUSH8 0x1758C97332966CFB 0xB6 BLOBHASH PUSH5 0x736F6C6343 STOP ADDMOD 0x1E STOP CALLER "
				},
				"gasEstimates": {
					"creation": {
						"codeDepositCost": "71600",
						"executionCost": "infinite",
						"totalCost": "infinite"
					},
					"external": {
						"contar()": "infinite",
						"gerarContagem()": "5133",
						"getContagem()": "2431"
					}
				},
				"methodIdentifiers": {
					"contar()": "e5e95f03",
					"gerarContagem()": "8476c437",
					"getContagem()": "9d1f79ef"
				}
			},
			"storageLayout": {
				"storage": [
					{
						"astId": 3,
						"contract": "Modulo2/ContadorAcessos.sol:ContadorAcessos",
						"label": "contador",
						"offset": 0,
						"slot": "0",
						"type": "t_uint256"
					}
				],
				"types": {
					"t_uint256": {
						"encoding": "inplace",
						"label": "uint256",
						"numberOfBytes": "32"
					}
				}
			},
			"userdoc": {
				"kind": "user",
				"methods": {},
				"version": 1
			}
		}
	}
}