{
	"Modulo2/PiggyBankNew.sol": {
		"PiggyBank": {
			"abi": [
				{
					"inputs": [],
					"stateMutability": "nonpayable",
					"type": "constructor"
				},
				{
					"inputs": [],
					"name": "deposit",
					"outputs": [],
					"stateMutability": "payable",
					"type": "function"
				},
				{
					"inputs": [
						{
							"internalType": "address",
							"name": "_depositor",
							"type": "address"
						}
					],
					"name": "getDepositAmountByAddress",
					"outputs": [
						{
							"internalType": "uint256",
							"name": "",
							"type": "uint256"
						}
					],
					"stateMutability": "view",
					"type": "function"
				},
				{
					"inputs": [],
					"name": "getOwner",
					"outputs": [
						{
							"internalType": "address",
							"name": "",
							"type": "address"
						}
					],
					"stateMutability": "view",
					"type": "function"
				},
				{
					"inputs": [],
					"name": "viewBalance",
					"outputs": [
						{
							"internalType": "uint256",
							"name": "",
							"type": "uint256"
						}
					],
					"stateMutability": "view",
					"type": "function"
				},
				{
					"inputs": [
						{
							"internalType": "address payable",
							"name": "receiver",
							"type": "address"
						},
						{
							"internalType": "uint256",
							"name": "value",
							"type": "uint256"
						}
					],
					"name": "withdrawal",
					"outputs": [],
					"stateMutability": "nonpayable",
					"type": "function"
				},
				{
					"stateMutability": "payable",
					"type": "receive"
				}
			],
			"devdoc": {
				"kind": "dev",
				"methods": {},
				"version": 1
			},
			"evm": {
				"assembly": "    /* \"Modulo2/PiggyBankNew.sol\":58:1646  contract PiggyBank {... */\n  mstore(0x40, 0x80)\n    /* \"Modulo2/PiggyBankNew.sol\":296:345  constructor() {... */\n  callvalue\n  dup1\n  iszero\n  tag_1\n  jumpi\n  revert(0x00, 0x00)\ntag_1:\n  pop\n    /* \"Modulo2/PiggyBankNew.sol\":328:338  msg.sender */\n  caller\n    /* \"Modulo2/PiggyBankNew.sol\":320:325  owner */\n  0x00\n  0x00\n    /* \"Modulo2/PiggyBankNew.sol\":320:338  owner = msg.sender */\n  0x0100\n  exp\n  dup2\n  sload\n  dup2\n  0xffffffffffffffffffffffffffffffffffffffff\n  mul\n  not\n  and\n  swap1\n  dup4\n  0xffffffffffffffffffffffffffffffffffffffff\n  and\n  mul\n  or\n  swap1\n  sstore\n  pop\n    /* \"Modulo2/PiggyBankNew.sol\":58:1646  contract PiggyBank {... */\n  dataSize(sub_0)\n  dup1\n  dataOffset(sub_0)\n  0x00\n  codecopy\n  0x00\n  return\nstop\n\nsub_0: assembly {\n        /* \"Modulo2/PiggyBankNew.sol\":58:1646  contract PiggyBank {... */\n      mstore(0x40, 0x80)\n      jumpi(tag_1, lt(calldatasize, 0x04))\n      shr(0xe0, calldataload(0x00))\n      dup1\n      0x1a61902b\n      eq\n      tag_3\n      jumpi\n      dup1\n      0x3ff1e05b\n      eq\n      tag_4\n      jumpi\n      dup1\n      0x5a6b26ba\n      eq\n      tag_5\n      jumpi\n      dup1\n      0x893d20e8\n      eq\n      tag_6\n      jumpi\n      dup1\n      0xd0e30db0\n      eq\n      tag_7\n      jumpi\n      jump(tag_2)\n    tag_1:\n      jumpi(tag_2, calldatasize)\n        /* \"Modulo2/PiggyBankNew.sol\":746:755  msg.value */\n      callvalue\n        /* \"Modulo2/PiggyBankNew.sol\":722:730  deposits */\n      0x01\n        /* \"Modulo2/PiggyBankNew.sol\":722:742  deposits[msg.sender] */\n      0x00\n        /* \"Modulo2/PiggyBankNew.sol\":731:741  msg.sender */\n      caller\n        /* \"Modulo2/PiggyBankNew.sol\":722:742  deposits[msg.sender] */\n      0xffffffffffffffffffffffffffffffffffffffff\n      and\n      0xffffffffffffffffffffffffffffffffffffffff\n      and\n      dup2\n      mstore\n      0x20\n      add\n      swap1\n      dup2\n      mstore\n      0x20\n      add\n      0x00\n      keccak256\n      0x00\n        /* \"Modulo2/PiggyBankNew.sol\":722:755  deposits[msg.sender] += msg.value */\n      dup3\n      dup3\n      sload\n      tag_10\n      swap2\n      swap1\n      tag_11\n      jump\t// in\n    tag_10:\n      swap3\n      pop\n      pop\n      dup2\n      swap1\n      sstore\n      stop\n        /* \"Modulo2/PiggyBankNew.sol\":58:1646  contract PiggyBank {... */\n    tag_2:\n      revert(0x00, 0x00)\n        /* \"Modulo2/PiggyBankNew.sol\":1373:1502  function getDepositAmountByAddress(address _depositor) public view returns (uint256) {... */\n    tag_3:\n      callvalue\n      dup1\n      iszero\n      tag_12\n      jumpi\n      revert(0x00, 0x00)\n    tag_12:\n      pop\n      tag_13\n      0x04\n      dup1\n      calldatasize\n      sub\n      dup2\n      add\n      swap1\n      tag_14\n      swap2\n      swap1\n      tag_15\n      jump\t// in\n    tag_14:\n      tag_16\n      jump\t// in\n    tag_13:\n      mload(0x40)\n      tag_17\n      swap2\n      swap1\n      tag_18\n      jump\t// in\n    tag_17:\n      mload(0x40)\n      dup1\n      swap2\n      sub\n      swap1\n      return\n        /* \"Modulo2/PiggyBankNew.sol\":879:977  function viewBalance() public view returns (uint256) {... */\n    tag_4:\n      callvalue\n      dup1\n      iszero\n      tag_19\n      jumpi\n      revert(0x00, 0x00)\n    tag_19:\n      pop\n      tag_20\n      tag_21\n      jump\t// in\n    tag_20:\n      mload(0x40)\n      tag_22\n      swap2\n      swap1\n      tag_18\n      jump\t// in\n    tag_22:\n      mload(0x40)\n      dup1\n      swap2\n      sub\n      swap1\n      return\n        /* \"Modulo2/PiggyBankNew.sol\":1040:1297  function withdrawal(address payable receiver, uint256 value) public {... */\n    tag_5:\n      callvalue\n      dup1\n      iszero\n      tag_23\n      jumpi\n      revert(0x00, 0x00)\n    tag_23:\n      pop\n      tag_24\n      0x04\n      dup1\n      calldatasize\n      sub\n      dup2\n      add\n      swap1\n      tag_25\n      swap2\n      swap1\n      tag_26\n      jump\t// in\n    tag_25:\n      tag_27\n      jump\t// in\n    tag_24:\n      stop\n        /* \"Modulo2/PiggyBankNew.sol\":1565:1644  function getOwner() public view returns (address) {... */\n    tag_6:\n      callvalue\n      dup1\n      iszero\n      tag_28\n      jumpi\n      revert(0x00, 0x00)\n    tag_28:\n      pop\n      tag_29\n      tag_30\n      jump\t// in\n    tag_29:\n      mload(0x40)\n      tag_31\n      swap2\n      swap1\n      tag_32\n      jump\t// in\n    tag_31:\n      mload(0x40)\n      dup1\n      swap2\n      sub\n      swap1\n      return\n        /* \"Modulo2/PiggyBankNew.sol\":414:546  function deposit() public payable {... */\n    tag_7:\n      tag_33\n      tag_34\n      jump\t// in\n    tag_33:\n      stop\n        /* \"Modulo2/PiggyBankNew.sol\":1373:1502  function getDepositAmountByAddress(address _depositor) public view returns (uint256) {... */\n    tag_16:\n        /* \"Modulo2/PiggyBankNew.sol\":1449:1456  uint256 */\n      0x00\n        /* \"Modulo2/PiggyBankNew.sol\":1475:1483  deposits */\n      0x01\n        /* \"Modulo2/PiggyBankNew.sol\":1475:1495  deposits[_depositor] */\n      0x00\n        /* \"Modulo2/PiggyBankNew.sol\":1484:1494  _depositor */\n      dup4\n        /* \"Modulo2/PiggyBankNew.sol\":1475:1495  deposits[_depositor] */\n      0xffffffffffffffffffffffffffffffffffffffff\n      and\n      0xffffffffffffffffffffffffffffffffffffffff\n      and\n      dup2\n      mstore\n      0x20\n      add\n      swap1\n      dup2\n      mstore\n      0x20\n      add\n      0x00\n      keccak256\n      sload\n        /* \"Modulo2/PiggyBankNew.sol\":1468:1495  return deposits[_depositor] */\n      swap1\n      pop\n        /* \"Modulo2/PiggyBankNew.sol\":1373:1502  function getDepositAmountByAddress(address _depositor) public view returns (uint256) {... */\n      swap2\n      swap1\n      pop\n      jump\t// out\n        /* \"Modulo2/PiggyBankNew.sol\":879:977  function viewBalance() public view returns (uint256) {... */\n    tag_21:\n        /* \"Modulo2/PiggyBankNew.sol\":923:930  uint256 */\n      0x00\n        /* \"Modulo2/PiggyBankNew.sol\":949:970  address(this).balance */\n      selfbalance\n        /* \"Modulo2/PiggyBankNew.sol\":942:970  return address(this).balance */\n      swap1\n      pop\n        /* \"Modulo2/PiggyBankNew.sol\":879:977  function viewBalance() public view returns (uint256) {... */\n      swap1\n      jump\t// out\n        /* \"Modulo2/PiggyBankNew.sol\":1040:1297  function withdrawal(address payable receiver, uint256 value) public {... */\n    tag_27:\n        /* \"Modulo2/PiggyBankNew.sol\":1140:1145  owner */\n      0x00\n      0x00\n      swap1\n      sload\n      swap1\n      0x0100\n      exp\n      swap1\n      div\n      0xffffffffffffffffffffffffffffffffffffffff\n      and\n        /* \"Modulo2/PiggyBankNew.sol\":1126:1145  msg.sender == owner */\n      0xffffffffffffffffffffffffffffffffffffffff\n      and\n        /* \"Modulo2/PiggyBankNew.sol\":1126:1136  msg.sender */\n      caller\n        /* \"Modulo2/PiggyBankNew.sol\":1126:1145  msg.sender == owner */\n      0xffffffffffffffffffffffffffffffffffffffff\n      and\n      eq\n        /* \"Modulo2/PiggyBankNew.sol\":1118:1184  require(msg.sender == owner, \"Somente o proprietario pode sacar.\") */\n      tag_38\n      jumpi\n      mload(0x40)\n      0x08c379a000000000000000000000000000000000000000000000000000000000\n      dup2\n      mstore\n      0x04\n      add\n      tag_39\n      swap1\n      tag_40\n      jump\t// in\n    tag_39:\n      mload(0x40)\n      dup1\n      swap2\n      sub\n      swap1\n      revert\n    tag_38:\n        /* \"Modulo2/PiggyBankNew.sol\":1211:1232  address(this).balance */\n      selfbalance\n        /* \"Modulo2/PiggyBankNew.sol\":1202:1207  value */\n      dup2\n        /* \"Modulo2/PiggyBankNew.sol\":1202:1232  value <= address(this).balance */\n      gt\n      iszero\n        /* \"Modulo2/PiggyBankNew.sol\":1194:1256  require(value <= address(this).balance, \"Saldo insuficiente.\") */\n      tag_41\n      jumpi\n      mload(0x40)\n      0x08c379a000000000000000000000000000000000000000000000000000000000\n      dup2\n      mstore\n      0x04\n      add\n      tag_42\n      swap1\n      tag_43\n      jump\t// in\n    tag_42:\n      mload(0x40)\n      dup1\n      swap2\n      sub\n      swap1\n      revert\n    tag_41:\n        /* \"Modulo2/PiggyBankNew.sol\":1266:1274  receiver */\n      dup2\n        /* \"Modulo2/PiggyBankNew.sol\":1266:1283  receiver.transfer */\n      0xffffffffffffffffffffffffffffffffffffffff\n      and\n        /* \"Modulo2/PiggyBankNew.sol\":1266:1290  receiver.transfer(value) */\n      0x08fc\n        /* \"Modulo2/PiggyBankNew.sol\":1284:1289  value */\n      dup3\n        /* \"Modulo2/PiggyBankNew.sol\":1266:1290  receiver.transfer(value) */\n      swap1\n      dup2\n      iszero\n      mul\n      swap1\n      mload(0x40)\n      0x00\n      mload(0x40)\n      dup1\n      dup4\n      sub\n      dup2\n      dup6\n      dup9\n      dup9\n      call\n      swap4\n      pop\n      pop\n      pop\n      pop\n      iszero\n      dup1\n      iszero\n      tag_45\n      jumpi\n      returndatacopy(0x00, 0x00, returndatasize)\n      revert(0x00, returndatasize)\n    tag_45:\n      pop\n        /* \"Modulo2/PiggyBankNew.sol\":1040:1297  function withdrawal(address payable receiver, uint256 value) public {... */\n      pop\n      pop\n      jump\t// out\n        /* \"Modulo2/PiggyBankNew.sol\":1565:1644  function getOwner() public view returns (address) {... */\n    tag_30:\n        /* \"Modulo2/PiggyBankNew.sol\":1606:1613  address */\n      0x00\n        /* \"Modulo2/PiggyBankNew.sol\":1632:1637  owner */\n      0x00\n      0x00\n      swap1\n      sload\n      swap1\n      0x0100\n      exp\n      swap1\n      div\n      0xffffffffffffffffffffffffffffffffffffffff\n      and\n        /* \"Modulo2/PiggyBankNew.sol\":1625:1637  return owner */\n      swap1\n      pop\n        /* \"Modulo2/PiggyBankNew.sol\":1565:1644  function getOwner() public view returns (address) {... */\n      swap1\n      jump\t// out\n        /* \"Modulo2/PiggyBankNew.sol\":414:546  function deposit() public payable {... */\n    tag_34:\n        /* \"Modulo2/PiggyBankNew.sol\":482:491  msg.value */\n      callvalue\n        /* \"Modulo2/PiggyBankNew.sol\":458:466  deposits */\n      0x01\n        /* \"Modulo2/PiggyBankNew.sol\":458:478  deposits[msg.sender] */\n      0x00\n        /* \"Modulo2/PiggyBankNew.sol\":467:477  msg.sender */\n      caller\n        /* \"Modulo2/PiggyBankNew.sol\":458:478  deposits[msg.sender] */\n      0xffffffffffffffffffffffffffffffffffffffff\n      and\n      0xffffffffffffffffffffffffffffffffffffffff\n      and\n      dup2\n      mstore\n      0x20\n      add\n      swap1\n      dup2\n      mstore\n      0x20\n      add\n      0x00\n      keccak256\n      0x00\n        /* \"Modulo2/PiggyBankNew.sol\":458:491  deposits[msg.sender] += msg.value */\n      dup3\n      dup3\n      sload\n      tag_48\n      swap2\n      swap1\n      tag_11\n      jump\t// in\n    tag_48:\n      swap3\n      pop\n      pop\n      dup2\n      swap1\n      sstore\n      pop\n        /* \"Modulo2/PiggyBankNew.sol\":414:546  function deposit() public payable {... */\n      jump\t// out\n        /* \"#utility.yul\":7:84   */\n    tag_49:\n        /* \"#utility.yul\":44:51   */\n      0x00\n        /* \"#utility.yul\":73:78   */\n      dup2\n        /* \"#utility.yul\":62:78   */\n      swap1\n      pop\n        /* \"#utility.yul\":7:84   */\n      swap2\n      swap1\n      pop\n      jump\t// out\n        /* \"#utility.yul\":90:270   */\n    tag_50:\n        /* \"#utility.yul\":138:215   */\n      0x4e487b7100000000000000000000000000000000000000000000000000000000\n        /* \"#utility.yul\":135:136   */\n      0x00\n        /* \"#utility.yul\":128:216   */\n      mstore\n        /* \"#utility.yul\":235:239   */\n      0x11\n        /* \"#utility.yul\":232:233   */\n      0x04\n        /* \"#utility.yul\":225:240   */\n      mstore\n        /* \"#utility.yul\":259:263   */\n      0x24\n        /* \"#utility.yul\":256:257   */\n      0x00\n        /* \"#utility.yul\":249:264   */\n      revert\n        /* \"#utility.yul\":276:467   */\n    tag_11:\n        /* \"#utility.yul\":316:319   */\n      0x00\n        /* \"#utility.yul\":335:355   */\n      tag_74\n        /* \"#utility.yul\":353:354   */\n      dup3\n        /* \"#utility.yul\":335:355   */\n      tag_49\n      jump\t// in\n    tag_74:\n        /* \"#utility.yul\":330:355   */\n      swap2\n      pop\n        /* \"#utility.yul\":369:389   */\n      tag_75\n        /* \"#utility.yul\":387:388   */\n      dup4\n        /* \"#utility.yul\":369:389   */\n      tag_49\n      jump\t// in\n    tag_75:\n        /* \"#utility.yul\":364:389   */\n      swap3\n      pop\n        /* \"#utility.yul\":412:413   */\n      dup3\n        /* \"#utility.yul\":409:410   */\n      dup3\n        /* \"#utility.yul\":405:414   */\n      add\n        /* \"#utility.yul\":398:414   */\n      swap1\n      pop\n        /* \"#utility.yul\":433:436   */\n      dup1\n        /* \"#utility.yul\":430:431   */\n      dup3\n        /* \"#utility.yul\":427:437   */\n      gt\n        /* \"#utility.yul\":424:460   */\n      iszero\n      tag_76\n      jumpi\n        /* \"#utility.yul\":440:458   */\n      tag_77\n      tag_50\n      jump\t// in\n    tag_77:\n        /* \"#utility.yul\":424:460   */\n    tag_76:\n        /* \"#utility.yul\":276:467   */\n      swap3\n      swap2\n      pop\n      pop\n      jump\t// out\n        /* \"#utility.yul\":554:671   */\n    tag_52:\n        /* \"#utility.yul\":663:664   */\n      0x00\n        /* \"#utility.yul\":660:661   */\n      0x00\n        /* \"#utility.yul\":653:665   */\n      revert\n        /* \"#utility.yul\":800:926   */\n    tag_54:\n        /* \"#utility.yul\":837:844   */\n      0x00\n        /* \"#utility.yul\":877:919   */\n      0xffffffffffffffffffffffffffffffffffffffff\n        /* \"#utility.yul\":870:875   */\n      dup3\n        /* \"#utility.yul\":866:920   */\n      and\n        /* \"#utility.yul\":855:920   */\n      swap1\n      pop\n        /* \"#utility.yul\":800:926   */\n      swap2\n      swap1\n      pop\n      jump\t// out\n        /* \"#utility.yul\":932:1028   */\n    tag_55:\n        /* \"#utility.yul\":969:976   */\n      0x00\n        /* \"#utility.yul\":998:1022   */\n      tag_83\n        /* \"#utility.yul\":1016:1021   */\n      dup3\n        /* \"#utility.yul\":998:1022   */\n      tag_54\n      jump\t// in\n    tag_83:\n        /* \"#utility.yul\":987:1022   */\n      swap1\n      pop\n        /* \"#utility.yul\":932:1028   */\n      swap2\n      swap1\n      pop\n      jump\t// out\n        /* \"#utility.yul\":1034:1156   */\n    tag_56:\n        /* \"#utility.yul\":1107:1131   */\n      tag_85\n        /* \"#utility.yul\":1125:1130   */\n      dup2\n        /* \"#utility.yul\":1107:1131   */\n      tag_55\n      jump\t// in\n    tag_85:\n        /* \"#utility.yul\":1100:1105   */\n      dup2\n        /* \"#utility.yul\":1097:1132   */\n      eq\n        /* \"#utility.yul\":1087:1150   */\n      tag_86\n      jumpi\n        /* \"#utility.yul\":1146:1147   */\n      0x00\n        /* \"#utility.yul\":1143:1144   */\n      0x00\n        /* \"#utility.yul\":1136:1148   */\n      revert\n        /* \"#utility.yul\":1087:1150   */\n    tag_86:\n        /* \"#utility.yul\":1034:1156   */\n      pop\n      jump\t// out\n        /* \"#utility.yul\":1162:1301   */\n    tag_57:\n        /* \"#utility.yul\":1208:1213   */\n      0x00\n        /* \"#utility.yul\":1246:1252   */\n      dup2\n        /* \"#utility.yul\":1233:1253   */\n      calldataload\n        /* \"#utility.yul\":1224:1253   */\n      swap1\n      pop\n        /* \"#utility.yul\":1262:1295   */\n      tag_88\n        /* \"#utility.yul\":1289:1294   */\n      dup2\n        /* \"#utility.yul\":1262:1295   */\n      tag_56\n      jump\t// in\n    tag_88:\n        /* \"#utility.yul\":1162:1301   */\n      swap3\n      swap2\n      pop\n      pop\n      jump\t// out\n        /* \"#utility.yul\":1307:1636   */\n    tag_15:\n        /* \"#utility.yul\":1366:1372   */\n      0x00\n        /* \"#utility.yul\":1415:1417   */\n      0x20\n        /* \"#utility.yul\":1403:1412   */\n      dup3\n        /* \"#utility.yul\":1394:1401   */\n      dup5\n        /* \"#utility.yul\":1390:1413   */\n      sub\n        /* \"#utility.yul\":1386:1418   */\n      slt\n        /* \"#utility.yul\":1383:1502   */\n      iszero\n      tag_90\n      jumpi\n        /* \"#utility.yul\":1421:1500   */\n      tag_91\n      tag_52\n      jump\t// in\n    tag_91:\n        /* \"#utility.yul\":1383:1502   */\n    tag_90:\n        /* \"#utility.yul\":1541:1542   */\n      0x00\n        /* \"#utility.yul\":1566:1619   */\n      tag_92\n        /* \"#utility.yul\":1611:1618   */\n      dup5\n        /* \"#utility.yul\":1602:1608   */\n      dup3\n        /* \"#utility.yul\":1591:1600   */\n      dup6\n        /* \"#utility.yul\":1587:1609   */\n      add\n        /* \"#utility.yul\":1566:1619   */\n      tag_57\n      jump\t// in\n    tag_92:\n        /* \"#utility.yul\":1556:1619   */\n      swap2\n      pop\n        /* \"#utility.yul\":1512:1629   */\n      pop\n        /* \"#utility.yul\":1307:1636   */\n      swap3\n      swap2\n      pop\n      pop\n      jump\t// out\n        /* \"#utility.yul\":1642:1760   */\n    tag_58:\n        /* \"#utility.yul\":1729:1753   */\n      tag_94\n        /* \"#utility.yul\":1747:1752   */\n      dup2\n        /* \"#utility.yul\":1729:1753   */\n      tag_49\n      jump\t// in\n    tag_94:\n        /* \"#utility.yul\":1724:1727   */\n      dup3\n        /* \"#utility.yul\":1717:1754   */\n      mstore\n        /* \"#utility.yul\":1642:1760   */\n      pop\n      pop\n      jump\t// out\n        /* \"#utility.yul\":1766:1988   */\n    tag_18:\n        /* \"#utility.yul\":1859:1863   */\n      0x00\n        /* \"#utility.yul\":1897:1899   */\n      0x20\n        /* \"#utility.yul\":1886:1895   */\n      dup3\n        /* \"#utility.yul\":1882:1900   */\n      add\n        /* \"#utility.yul\":1874:1900   */\n      swap1\n      pop\n        /* \"#utility.yul\":1910:1981   */\n      tag_96\n        /* \"#utility.yul\":1978:1979   */\n      0x00\n        /* \"#utility.yul\":1967:1976   */\n      dup4\n        /* \"#utility.yul\":1963:1980   */\n      add\n        /* \"#utility.yul\":1954:1960   */\n      dup5\n        /* \"#utility.yul\":1910:1981   */\n      tag_58\n      jump\t// in\n    tag_96:\n        /* \"#utility.yul\":1766:1988   */\n      swap3\n      swap2\n      pop\n      pop\n      jump\t// out\n        /* \"#utility.yul\":1994:2098   */\n    tag_59:\n        /* \"#utility.yul\":2039:2046   */\n      0x00\n        /* \"#utility.yul\":2068:2092   */\n      tag_98\n        /* \"#utility.yul\":2086:2091   */\n      dup3\n        /* \"#utility.yul\":2068:2092   */\n      tag_54\n      jump\t// in\n    tag_98:\n        /* \"#utility.yul\":2057:2092   */\n      swap1\n      pop\n        /* \"#utility.yul\":1994:2098   */\n      swap2\n      swap1\n      pop\n      jump\t// out\n        /* \"#utility.yul\":2104:2242   */\n    tag_60:\n        /* \"#utility.yul\":2185:2217   */\n      tag_100\n        /* \"#utility.yul\":2211:2216   */\n      dup2\n        /* \"#utility.yul\":2185:2217   */\n      tag_59\n      jump\t// in\n    tag_100:\n        /* \"#utility.yul\":2178:2183   */\n      dup2\n        /* \"#utility.yul\":2175:2218   */\n      eq\n        /* \"#utility.yul\":2165:2236   */\n      tag_101\n      jumpi\n        /* \"#utility.yul\":2232:2233   */\n      0x00\n        /* \"#utility.yul\":2229:2230   */\n      0x00\n        /* \"#utility.yul\":2222:2234   */\n      revert\n        /* \"#utility.yul\":2165:2236   */\n    tag_101:\n        /* \"#utility.yul\":2104:2242   */\n      pop\n      jump\t// out\n        /* \"#utility.yul\":2248:2403   */\n    tag_61:\n        /* \"#utility.yul\":2302:2307   */\n      0x00\n        /* \"#utility.yul\":2340:2346   */\n      dup2\n        /* \"#utility.yul\":2327:2347   */\n      calldataload\n        /* \"#utility.yul\":2318:2347   */\n      swap1\n      pop\n        /* \"#utility.yul\":2356:2397   */\n      tag_103\n        /* \"#utility.yul\":2391:2396   */\n      dup2\n        /* \"#utility.yul\":2356:2397   */\n      tag_60\n      jump\t// in\n    tag_103:\n        /* \"#utility.yul\":2248:2403   */\n      swap3\n      swap2\n      pop\n      pop\n      jump\t// out\n        /* \"#utility.yul\":2409:2531   */\n    tag_62:\n        /* \"#utility.yul\":2482:2506   */\n      tag_105\n        /* \"#utility.yul\":2500:2505   */\n      dup2\n        /* \"#utility.yul\":2482:2506   */\n      tag_49\n      jump\t// in\n    tag_105:\n        /* \"#utility.yul\":2475:2480   */\n      dup2\n        /* \"#utility.yul\":2472:2507   */\n      eq\n        /* \"#utility.yul\":2462:2525   */\n      tag_106\n      jumpi\n        /* \"#utility.yul\":2521:2522   */\n      0x00\n        /* \"#utility.yul\":2518:2519   */\n      0x00\n        /* \"#utility.yul\":2511:2523   */\n      revert\n        /* \"#utility.yul\":2462:2525   */\n    tag_106:\n        /* \"#utility.yul\":2409:2531   */\n      pop\n      jump\t// out\n        /* \"#utility.yul\":2537:2676   */\n    tag_63:\n        /* \"#utility.yul\":2583:2588   */\n      0x00\n        /* \"#utility.yul\":2621:2627   */\n      dup2\n        /* \"#utility.yul\":2608:2628   */\n      calldataload\n        /* \"#utility.yul\":2599:2628   */\n      swap1\n      pop\n        /* \"#utility.yul\":2637:2670   */\n      tag_108\n        /* \"#utility.yul\":2664:2669   */\n      dup2\n        /* \"#utility.yul\":2637:2670   */\n      tag_62\n      jump\t// in\n    tag_108:\n        /* \"#utility.yul\":2537:2676   */\n      swap3\n      swap2\n      pop\n      pop\n      jump\t// out\n        /* \"#utility.yul\":2682:3172   */\n    tag_26:\n        /* \"#utility.yul\":2758:2764   */\n      0x00\n        /* \"#utility.yul\":2766:2772   */\n      0x00\n        /* \"#utility.yul\":2815:2817   */\n      0x40\n        /* \"#utility.yul\":2803:2812   */\n      dup4\n        /* \"#utility.yul\":2794:2801   */\n      dup6\n        /* \"#utility.yul\":2790:2813   */\n      sub\n        /* \"#utility.yul\":2786:2818   */\n      slt\n        /* \"#utility.yul\":2783:2902   */\n      iszero\n      tag_110\n      jumpi\n        /* \"#utility.yul\":2821:2900   */\n      tag_111\n      tag_52\n      jump\t// in\n    tag_111:\n        /* \"#utility.yul\":2783:2902   */\n    tag_110:\n        /* \"#utility.yul\":2941:2942   */\n      0x00\n        /* \"#utility.yul\":2966:3027   */\n      tag_112\n        /* \"#utility.yul\":3019:3026   */\n      dup6\n        /* \"#utility.yul\":3010:3016   */\n      dup3\n        /* \"#utility.yul\":2999:3008   */\n      dup7\n        /* \"#utility.yul\":2995:3017   */\n      add\n        /* \"#utility.yul\":2966:3027   */\n      tag_61\n      jump\t// in\n    tag_112:\n        /* \"#utility.yul\":2956:3027   */\n      swap3\n      pop\n        /* \"#utility.yul\":2912:3037   */\n      pop\n        /* \"#utility.yul\":3076:3078   */\n      0x20\n        /* \"#utility.yul\":3102:3155   */\n      tag_113\n        /* \"#utility.yul\":3147:3154   */\n      dup6\n        /* \"#utility.yul\":3138:3144   */\n      dup3\n        /* \"#utility.yul\":3127:3136   */\n      dup7\n        /* \"#utility.yul\":3123:3145   */\n      add\n        /* \"#utility.yul\":3102:3155   */\n      tag_63\n      jump\t// in\n    tag_113:\n        /* \"#utility.yul\":3092:3155   */\n      swap2\n      pop\n        /* \"#utility.yul\":3047:3165   */\n      pop\n        /* \"#utility.yul\":2682:3172   */\n      swap3\n      pop\n      swap3\n      swap1\n      pop\n      jump\t// out\n        /* \"#utility.yul\":3178:3296   */\n    tag_64:\n        /* \"#utility.yul\":3265:3289   */\n      tag_115\n        /* \"#utility.yul\":3283:3288   */\n      dup2\n        /* \"#utility.yul\":3265:3289   */\n      tag_55\n      jump\t// in\n    tag_115:\n        /* \"#utility.yul\":3260:3263   */\n      dup3\n        /* \"#utility.yul\":3253:3290   */\n      mstore\n        /* \"#utility.yul\":3178:3296   */\n      pop\n      pop\n      jump\t// out\n        /* \"#utility.yul\":3302:3524   */\n    tag_32:\n        /* \"#utility.yul\":3395:3399   */\n      0x00\n        /* \"#utility.yul\":3433:3435   */\n      0x20\n        /* \"#utility.yul\":3422:3431   */\n      dup3\n        /* \"#utility.yul\":3418:3436   */\n      add\n        /* \"#utility.yul\":3410:3436   */\n      swap1\n      pop\n        /* \"#utility.yul\":3446:3517   */\n      tag_117\n        /* \"#utility.yul\":3514:3515   */\n      0x00\n        /* \"#utility.yul\":3503:3512   */\n      dup4\n        /* \"#utility.yul\":3499:3516   */\n      add\n        /* \"#utility.yul\":3490:3496   */\n      dup5\n        /* \"#utility.yul\":3446:3517   */\n      tag_64\n      jump\t// in\n    tag_117:\n        /* \"#utility.yul\":3302:3524   */\n      swap3\n      swap2\n      pop\n      pop\n      jump\t// out\n        /* \"#utility.yul\":3530:3699   */\n    tag_65:\n        /* \"#utility.yul\":3614:3625   */\n      0x00\n        /* \"#utility.yul\":3648:3654   */\n      dup3\n        /* \"#utility.yul\":3643:3646   */\n      dup3\n        /* \"#utility.yul\":3636:3655   */\n      mstore\n        /* \"#utility.yul\":3688:3692   */\n      0x20\n        /* \"#utility.yul\":3683:3686   */\n      dup3\n        /* \"#utility.yul\":3679:3693   */\n      add\n        /* \"#utility.yul\":3664:3693   */\n      swap1\n      pop\n        /* \"#utility.yul\":3530:3699   */\n      swap3\n      swap2\n      pop\n      pop\n      jump\t// out\n        /* \"#utility.yul\":3705:3926   */\n    tag_66:\n        /* \"#utility.yul\":3845:3879   */\n      0x536f6d656e7465206f2070726f70726965746172696f20706f64652073616361\n        /* \"#utility.yul\":3841:3842   */\n      0x00\n        /* \"#utility.yul\":3833:3839   */\n      dup3\n        /* \"#utility.yul\":3829:3843   */\n      add\n        /* \"#utility.yul\":3822:3880   */\n      mstore\n        /* \"#utility.yul\":3914:3918   */\n      0x722e000000000000000000000000000000000000000000000000000000000000\n        /* \"#utility.yul\":3909:3911   */\n      0x20\n        /* \"#utility.yul\":3901:3907   */\n      dup3\n        /* \"#utility.yul\":3897:3912   */\n      add\n        /* \"#utility.yul\":3890:3919   */\n      mstore\n        /* \"#utility.yul\":3705:3926   */\n      pop\n      jump\t// out\n        /* \"#utility.yul\":3932:4298   */\n    tag_67:\n        /* \"#utility.yul\":4074:4077   */\n      0x00\n        /* \"#utility.yul\":4095:4162   */\n      tag_121\n        /* \"#utility.yul\":4159:4161   */\n      0x22\n        /* \"#utility.yul\":4154:4157   */\n      dup4\n        /* \"#utility.yul\":4095:4162   */\n      tag_65\n      jump\t// in\n    tag_121:\n        /* \"#utility.yul\":4088:4162   */\n      swap2\n      pop\n        /* \"#utility.yul\":4171:4264   */\n      tag_122\n        /* \"#utility.yul\":4260:4263   */\n      dup3\n        /* \"#utility.yul\":4171:4264   */\n      tag_66\n      jump\t// in\n    tag_122:\n        /* \"#utility.yul\":4289:4291   */\n      0x40\n        /* \"#utility.yul\":4284:4287   */\n      dup3\n        /* \"#utility.yul\":4280:4292   */\n      add\n        /* \"#utility.yul\":4273:4292   */\n      swap1\n      pop\n        /* \"#utility.yul\":3932:4298   */\n      swap2\n      swap1\n      pop\n      jump\t// out\n        /* \"#utility.yul\":4304:4723   */\n    tag_40:\n        /* \"#utility.yul\":4470:4474   */\n      0x00\n        /* \"#utility.yul\":4508:4510   */\n      0x20\n        /* \"#utility.yul\":4497:4506   */\n      dup3\n        /* \"#utility.yul\":4493:4511   */\n      add\n        /* \"#utility.yul\":4485:4511   */\n      swap1\n      pop\n        /* \"#utility.yul\":4557:4566   */\n      dup2\n        /* \"#utility.yul\":4551:4555   */\n      dup2\n        /* \"#utility.yul\":4547:4567   */\n      sub\n        /* \"#utility.yul\":4543:4544   */\n      0x00\n        /* \"#utility.yul\":4532:4541   */\n      dup4\n        /* \"#utility.yul\":4528:4545   */\n      add\n        /* \"#utility.yul\":4521:4568   */\n      mstore\n        /* \"#utility.yul\":4585:4716   */\n      tag_124\n        /* \"#utility.yul\":4711:4715   */\n      dup2\n        /* \"#utility.yul\":4585:4716   */\n      tag_67\n      jump\t// in\n    tag_124:\n        /* \"#utility.yul\":4577:4716   */\n      swap1\n      pop\n        /* \"#utility.yul\":4304:4723   */\n      swap2\n      swap1\n      pop\n      jump\t// out\n        /* \"#utility.yul\":4729:4898   */\n    tag_68:\n        /* \"#utility.yul\":4869:4890   */\n      0x53616c646f20696e737566696369656e74652e00000000000000000000000000\n        /* \"#utility.yul\":4865:4866   */\n      0x00\n        /* \"#utility.yul\":4857:4863   */\n      dup3\n        /* \"#utility.yul\":4853:4867   */\n      add\n        /* \"#utility.yul\":4846:4891   */\n      mstore\n        /* \"#utility.yul\":4729:4898   */\n      pop\n      jump\t// out\n        /* \"#utility.yul\":4904:5270   */\n    tag_69:\n        /* \"#utility.yul\":5046:5049   */\n      0x00\n        /* \"#utility.yul\":5067:5134   */\n      tag_127\n        /* \"#utility.yul\":5131:5133   */\n      0x13\n        /* \"#utility.yul\":5126:5129   */\n      dup4\n        /* \"#utility.yul\":5067:5134   */\n      tag_65\n      jump\t// in\n    tag_127:\n        /* \"#utility.yul\":5060:5134   */\n      swap2\n      pop\n        /* \"#utility.yul\":5143:5236   */\n      tag_128\n        /* \"#utility.yul\":5232:5235   */\n      dup3\n        /* \"#utility.yul\":5143:5236   */\n      tag_68\n      jump\t// in\n    tag_128:\n        /* \"#utility.yul\":5261:5263   */\n      0x20\n        /* \"#utility.yul\":5256:5259   */\n      dup3\n        /* \"#utility.yul\":5252:5264   */\n      add\n        /* \"#utility.yul\":5245:5264   */\n      swap1\n      pop\n        /* \"#utility.yul\":4904:5270   */\n      swap2\n      swap1\n      pop\n      jump\t// out\n        /* \"#utility.yul\":5276:5695   */\n    tag_43:\n        /* \"#utility.yul\":5442:5446   */\n      0x00\n        /* \"#utility.yul\":5480:5482   */\n      0x20\n        /* \"#utility.yul\":5469:5478   */\n      dup3\n        /* \"#utility.yul\":5465:5483   */\n      add\n        /* \"#utility.yul\":5457:5483   */\n      swap1\n      pop\n        /* \"#utility.yul\":5529:5538   */\n      dup2\n        /* \"#utility.yul\":5523:5527   */\n      dup2\n        /* \"#utility.yul\":5519:5539   */\n      sub\n        /* \"#utility.yul\":5515:5516   */\n      0x00\n        /* \"#utility.yul\":5504:5513   */\n      dup4\n        /* \"#utility.yul\":5500:5517   */\n      add\n        /* \"#utility.yul\":5493:5540   */\n      mstore\n        /* \"#utility.yul\":5557:5688   */\n      tag_130\n        /* \"#utility.yul\":5683:5687   */\n      dup2\n        /* \"#utility.yul\":5557:5688   */\n      tag_69\n      jump\t// in\n    tag_130:\n        /* \"#utility.yul\":5549:5688   */\n      swap1\n      pop\n        /* \"#utility.yul\":5276:5695   */\n      swap2\n      swap1\n      pop\n      jump\t// out\n\n    auxdata: 0xa26469706673582212202c9170e1f360fefe31256a19e40ac3045f6796437e50170797a9ca5dfe439d4b64736f6c634300081e0033\n}\n",
				"bytecode": {
					"linkReferences": {},
					"object": "6080604052348015600e575f5ffd5b50335f5f6101000a81548173ffffffffffffffffffffffffffffffffffffffff021916908373ffffffffffffffffffffffffffffffffffffffff16021790555061066f8061005b5f395ff3fe60806040526004361061004d575f3560e01c80631a61902b146100aa5780633ff1e05b146100e65780635a6b26ba14610110578063893d20e814610138578063d0e30db014610162576100a6565b366100a6573460015f3373ffffffffffffffffffffffffffffffffffffffff1673ffffffffffffffffffffffffffffffffffffffff1681526020019081526020015f205f82825461009e9190610384565b925050819055005b5f5ffd5b3480156100b5575f5ffd5b506100d060048036038101906100cb9190610415565b61016c565b6040516100dd919061044f565b60405180910390f35b3480156100f1575f5ffd5b506100fa6101b2565b604051610107919061044f565b60405180910390f35b34801561011b575f5ffd5b50610136600480360381019061013191906104cd565b6101b9565b005b348015610143575f5ffd5b5061014c6102d2565b604051610159919061051a565b60405180910390f35b61016a6102f9565b005b5f60015f8373ffffffffffffffffffffffffffffffffffffffff1673ffffffffffffffffffffffffffffffffffffffff1681526020019081526020015f20549050919050565b5f47905090565b5f5f9054906101000a900473ffffffffffffffffffffffffffffffffffffffff1673ffffffffffffffffffffffffffffffffffffffff163373ffffffffffffffffffffffffffffffffffffffff1614610247576040517f08c379a000000000000000000000000000000000000000000000000000000000815260040161023e906105b3565b60405180910390fd5b4781111561028a576040517f08c379a00000000000000000000000000000000000000000000000000000000081526004016102819061061b565b60405180910390fd5b8173ffffffffffffffffffffffffffffffffffffffff166108fc8290811502906040515f60405180830381858888f193505050501580156102cd573d5f5f3e3d5ffd5b505050565b5f5f5f9054906101000a900473ffffffffffffffffffffffffffffffffffffffff16905090565b3460015f3373ffffffffffffffffffffffffffffffffffffffff1673ffffffffffffffffffffffffffffffffffffffff1681526020019081526020015f205f8282546103459190610384565b92505081905550565b5f819050919050565b7f4e487b71000000000000000000000000000000000000000000000000000000005f52601160045260245ffd5b5f61038e8261034e565b91506103998361034e565b92508282019050808211156103b1576103b0610357565b5b92915050565b5f5ffd5b5f73ffffffffffffffffffffffffffffffffffffffff82169050919050565b5f6103e4826103bb565b9050919050565b6103f4816103da565b81146103fe575f5ffd5b50565b5f8135905061040f816103eb565b92915050565b5f6020828403121561042a576104296103b7565b5b5f61043784828501610401565b91505092915050565b6104498161034e565b82525050565b5f6020820190506104625f830184610440565b92915050565b5f610472826103bb565b9050919050565b61048281610468565b811461048c575f5ffd5b50565b5f8135905061049d81610479565b92915050565b6104ac8161034e565b81146104b6575f5ffd5b50565b5f813590506104c7816104a3565b92915050565b5f5f604083850312156104e3576104e26103b7565b5b5f6104f08582860161048f565b9250506020610501858286016104b9565b9150509250929050565b610514816103da565b82525050565b5f60208201905061052d5f83018461050b565b92915050565b5f82825260208201905092915050565b7f536f6d656e7465206f2070726f70726965746172696f20706f646520736163615f8201527f722e000000000000000000000000000000000000000000000000000000000000602082015250565b5f61059d602283610533565b91506105a882610543565b604082019050919050565b5f6020820190508181035f8301526105ca81610591565b9050919050565b7f53616c646f20696e737566696369656e74652e000000000000000000000000005f82015250565b5f610605601383610533565b9150610610826105d1565b602082019050919050565b5f6020820190508181035f830152610632816105f9565b905091905056fea26469706673582212202c9170e1f360fefe31256a19e40ac3045f6796437e50170797a9ca5dfe439d4b64736f6c634300081e0033",
					"opcodes": "PUSH1 0x80 PUSH1 0x40 MSTORE CALLVALUE DUP1 ISZERO PUSH1 0xE JUMPI PUSH0 PUSH0 REVERT JUMPDEST POP CALLER PUSH0 PUSH0 PUSH2 0x100 EXP DUP2 SLOAD DUP2 PUSH20 0xFFFFFFFFFFFFFFFFFFFFFFFFFFFFFFFFFFFFFFFF MUL NOT AND SWAP1 DUP4 PUSH20 0xFFFFFFFFFFFFFFFFFFFFFFFFFFFFFFFFFFFFFFFF AND MUL OR SWAP1 SSTORE POP PUSH2 0x66F DUP1 PUSH2 0x5B PUSH0 CODECOPY PUSH0 RETURN INVALID PUSH1 0x80 PUSH1 0x40 MSTORE PUSH1 0x4 CALLDATASIZE LT PUSH2 0x4D JUMPI PUSH0 CALLDATALOAD PUSH1 0xE0 SHR DUP1 PUSH4 0x1A61902B EQ PUSH2 0xAA JUMPI DUP1 PUSH4 0x3FF1E05B EQ PUSH2 0xE6 JUMPI DUP1 PUSH4 0x5A6B26BA EQ PUSH2 0x110 JUMPI DUP1 PUSH4 0x893D20E8 EQ PUSH2 0x138 JUMPI DUP1 PUSH4 0xD0E30DB0 EQ PUSH2 0x162 JUMPI PUSH2 0xA6 JUMP JUMPDEST CALLDATASIZE PUSH2 0xA6 JUMPI CALLVALUE PUSH1 0x1 PUSH0 CALLER PUSH20 0xFFFFFFFFFFFFFFFFFFFFFFFFFFFFFFFFFFFFFFFF AND PUSH20 0xFFFFFFFFFFFFFFFFFFFFFFFFFFFFFFFFFFFFFFFF AND DUP2 MSTORE PUSH1 0x20 ADD SWAP1 DUP2 MSTORE PUSH1 0x20 ADD PUSH0 KECCAK256 PUSH0 DUP3 DUP3 SLOAD PUSH2 0x9E SWAP2 SWAP1 PUSH2 0x384 JUMP JUMPDEST SWAP3 POP POP DUP2 SWAP1 SSTORE STOP JUMPDEST PUSH0 PUSH0 REVERT JUMPDEST CALLVALUE DUP1 ISZERO PUSH2 0xB5 JUMPI PUSH0 PUSH0 REVERT JUMPDEST POP PUSH2 0xD0 PUSH1 0x4 DUP1 CALLDATASIZE SUB DUP2 ADD SWAP1 PUSH2 0xCB SWAP2 SWAP1 PUSH2 0x415 JUMP JUMPDEST PUSH2 0x16C JUMP JUMPDEST PUSH1 0x40 MLOAD PUSH2 0xDD SWAP2 SWAP1 PUSH2 0x44F JUMP JUMPDEST PUSH1 0x40 MLOAD DUP1 SWAP2 SUB SWAP1 RETURN JUMPDEST CALLVALUE DUP1 ISZERO PUSH2 0xF1 JUMPI PUSH0 PUSH0 REVERT JUMPDEST POP PUSH2 0xFA PUSH2 0x1B2 JUMP JUMPDEST PUSH1 0x40 MLOAD PUSH2 0x107 SWAP2 SWAP1 PUSH2 0x44F JUMP JUMPDEST PUSH1 0x40 MLOAD DUP1 SWAP2 SUB SWAP1 RETURN JUMPDEST CALLVALUE DUP1 ISZERO PUSH2 0x11B JUMPI PUSH0 PUSH0 REVERT JUMPDEST POP PUSH2 0x136 PUSH1 0x4 DUP1 CALLDATASIZE SUB DUP2 ADD SWAP1 PUSH2 0x131 SWAP2 SWAP1 PUSH2 0x4CD JUMP JUMPDEST PUSH2 0x1B9 JUMP JUMPDEST STOP JUMPDEST CALLVALUE DUP1 ISZERO PUSH2 0x143 JUMPI PUSH0 PUSH0 REVERT JUMPDEST POP PUSH2 0x14C PUSH2 0x2D2 JUMP JUMPDEST PUSH1 0x40 MLOAD PUSH2 0x159 SWAP2 SWAP1 PUSH2 0x51A JUMP JUMPDEST PUSH1 0x40 MLOAD DUP1 SWAP2 SUB SWAP1 RETURN JUMPDEST PUSH2 0x16A PUSH2 0x2F9 JUMP JUMPDEST STOP JUMPDEST PUSH0 PUSH1 0x1 PUSH0 DUP4 PUSH20 0xFFFFFFFFFFFFFFFFFFFFFFFFFFFFFFFFFFFFFFFF AND PUSH20 0xFFFFFFFFFFFFFFFFFFFFFFFFFFFFFFFFFFFFFFFF AND DUP2 MSTORE PUSH1 0x20 ADD SWAP1 DUP2 MSTORE PUSH1 0x20 ADD PUSH0 KECCAK256 SLOAD SWAP1 POP SWAP2 SWAP1 POP JUMP JUMPDEST PUSH0 SELFBALANCE SWAP1 POP SWAP1 JUMP JUMPDEST PUSH0 PUSH0 SWAP1 SLOAD SWAP1 PUSH2 0x100 EXP SWAP1 DIV PUSH20 0xFFFFFFFFFFFFFFFFFFFFFFFFFFFFFFFFFFFFFFFF AND PUSH20 0xFFFFFFFFFFFFFFFFFFFFFFFFFFFFFFFFFFFFFFFF AND CALLER PUSH20 0xFFFFFFFFFFFFFFFFFFFFFFFFFFFFFFFFFFFFFFFF AND EQ PUSH2 0x247 JUMPI PUSH1 0x40 MLOAD PUSH32 0x8C379A000000000000000000000000000000000000000000000000000000000 DUP2 MSTORE PUSH1 0x4 ADD PUSH2 0x23E SWAP1 PUSH2 0x5B3 JUMP JUMPDEST PUSH1 0x40 MLOAD DUP1 SWAP2 SUB SWAP1 REVERT JUMPDEST SELFBALANCE DUP2 GT ISZERO PUSH2 0x28A JUMPI PUSH1 0x40 MLOAD PUSH32 0x8C379A000000000000000000000000000000000000000000000000000000000 DUP2 MSTORE PUSH1 0x4 ADD PUSH2 0x281 SWAP1 PUSH2 0x61B JUMP JUMPDEST PUSH1 0x40 MLOAD DUP1 SWAP2 SUB SWAP1 REVERT JUMPDEST DUP2 PUSH20 0xFFFFFFFFFFFFFFFFFFFFFFFFFFFFFFFFFFFFFFFF AND PUSH2 0x8FC DUP3 SWAP1 DUP2 ISZERO MUL SWAP1 PUSH1 0x40 MLOAD PUSH0 PUSH1 0x40 MLOAD DUP1 DUP4 SUB DUP2 DUP6 DUP9 DUP9 CALL SWAP4 POP POP POP POP ISZERO DUP1 ISZERO PUSH2 0x2CD JUMPI RETURNDATASIZE PUSH0 PUSH0 RETURNDATACOPY RETURNDATASIZE PUSH0 REVERT JUMPDEST POP POP POP JUMP JUMPDEST PUSH0 PUSH0 PUSH0 SWAP1 SLOAD SWAP1 PUSH2 0x100 EXP SWAP1 DIV PUSH20 0xFFFFFFFFFFFFFFFFFFFFFFFFFFFFFFFFFFFFFFFF AND SWAP1 POP SWAP1 JUMP JUMPDEST CALLVALUE PUSH1 0x1 PUSH0 CALLER PUSH20 0xFFFFFFFFFFFFFFFFFFFFFFFFFFFFFFFFFFFFFFFF AND PUSH20 0xFFFFFFFFFFFFFFFFFFFFFFFFFFFFFFFFFFFFFFFF AND DUP2 MSTORE PUSH1 0x20 ADD SWAP1 DUP2 MSTORE PUSH1 0x20 ADD PUSH0 KECCAK256 PUSH0 DUP3 DUP3 SLOAD PUSH2 0x345 SWAP2 SWAP1 PUSH2 0x384 JUMP JUMPDEST SWAP3 POP POP DUP2 SWAP1 SSTORE POP JUMP JUMPDEST PUSH0 DUP2 SWAP1 POP SWAP2 SWAP1 POP JUMP JUMPDEST PUSH32 0x4E487B7100000000000000000000000000000000000000000000000000000000 PUSH0 MSTORE PUSH1 0x11 PUSH1 0x4 MSTORE PUSH1 0x24 PUSH0 REVERT JUMPDEST PUSH0 PUSH2 0x38E DUP3 PUSH2 0x34E JUMP JUMPDEST SWAP2 POP PUSH2 0x399 DUP4 PUSH2 0x34E JUMP JUMPDEST SWAP3 POP DUP3 DUP3 ADD SWAP1 POP DUP1 DUP3 GT ISZERO PUSH2 0x3B1 JUMPI PUSH2 0x3B0 PUSH2 0x357 JUMP JUMPDEST JUMPDEST SWAP3 SWAP2 POP POP JUMP JUMPDEST PUSH0 PUSH0 REVERT JUMPDEST PUSH0 PUSH20 0xFFFFFFFFFFFFFFFFFFFFFFFFFFFFFFFFFFFFFFFF DUP3 AND SWAP1 POP SWAP2 SWAP1 POP JUMP JUMPDEST PUSH0 PUSH2 0x3E4 DUP3 PUSH2 0x3BB JUMP JUMPDEST SWAP1 POP SWAP2 SWAP1 POP JUMP JUMPDEST PUSH2 0x3F4 DUP2 PUSH2 0x3DA JUMP JUMPDEST DUP2 EQ PUSH2 0x3FE JUMPI PUSH0 PUSH0 REVERT JUMPDEST POP JUMP JUMPDEST PUSH0 DUP2 CALLDATALOAD SWAP1 POP PUSH2 0x40F DUP2 PUSH2 0x3EB JUMP JUMPDEST SWAP3 SWAP2 POP POP JUMP JUMPDEST PUSH0 PUSH1 0x20 DUP3 DUP5 SUB SLT ISZERO PUSH2 0x42A JUMPI PUSH2 0x429 PUSH2 0x3B7 JUMP JUMPDEST JUMPDEST PUSH0 PUSH2 0x437 DUP5 DUP3 DUP6 ADD PUSH2 0x401 JUMP JUMPDEST SWAP2 POP POP SWAP3 SWAP2 POP POP JUMP JUMPDEST PUSH2 0x449 DUP2 PUSH2 0x34E JUMP JUMPDEST DUP3 MSTORE POP POP JUMP JUMPDEST PUSH0 PUSH1 0x20 DUP3 ADD SWAP1 POP PUSH2 0x462 PUSH0 DUP4 ADD DUP5 PUSH2 0x440 JUMP JUMPDEST SWAP3 SWAP2 POP POP JUMP JUMPDEST PUSH0 PUSH2 0x472 DUP3 PUSH2 0x3BB JUMP JUMPDEST SWAP1 POP SWAP2 SWAP1 POP JUMP JUMPDEST PUSH2 0x482 DUP2 PUSH2 0x468 JUMP JUMPDEST DUP2 EQ PUSH2 0x48C JUMPI PUSH0 PUSH0 REVERT JUMPDEST POP JUMP JUMPDEST PUSH0 DUP2 CALLDATALOAD SWAP1 POP PUSH2 0x49D DUP2 PUSH2 0x479 JUMP JUMPDEST SWAP3 SWAP2 POP POP JUMP JUMPDEST PUSH2 0x4AC DUP2 PUSH2 0x34E JUMP JUMPDEST DUP2 EQ PUSH2 0x4B6 JUMPI PUSH0 PUSH0 REVERT JUMPDEST POP JUMP JUMPDEST PUSH0 DUP2 CALLDATALOAD SWAP1 POP PUSH2 0x4C7 DUP2 PUSH2 0x4A3 JUMP JUMPDEST SWAP3 SWAP2 POP POP JUMP JUMPDEST PUSH0 PUSH0 PUSH1 0x40 DUP4 DUP6 SUB SLT ISZERO PUSH2 0x4E3 JUMPI PUSH2 0x4E2 PUSH2 0x3B7 JUMP JUMPDEST JUMPDEST PUSH0 PUSH2 0x4F0 DUP6 DUP3 DUP7 ADD PUSH2 0x48F JUMP JUMPDEST SWAP3 POP POP PUSH1 0x20 PUSH2 0x501 DUP6 DUP3 DUP7 ADD PUSH2 0x4B9 JUMP JUMPDEST SWAP2 POP POP SWAP3 POP SWAP3 SWAP1 POP JUMP JUMPDEST PUSH2 0x514 DUP2 PUSH2 0x3DA JUMP JUMPDEST DUP3 MSTORE POP POP JUMP JUMPDEST PUSH0 PUSH1 0x20 DUP3 ADD SWAP1 POP PUSH2 0x52D PUSH0 DUP4 ADD DUP5 PUSH2 0x50B JUMP JUMPDEST SWAP3 SWAP2 POP POP JUMP JUMPDEST PUSH0 DUP3 DUP3 MSTORE PUSH1 0x20 DUP3 ADD SWAP1 POP SWAP3 SWAP2 POP POP JUMP JUMPDEST PUSH32 0x536F6D656E7465206F2070726F70726965746172696F20706F64652073616361 PUSH0 DUP3 ADD MSTORE PUSH32 0x722E000000000000000000000000000000000000000000000000000000000000 PUSH1 0x20 DUP3 ADD MSTORE POP JUMP JUMPDEST PUSH0 PUSH2 0x59D PUSH1 0x22 DUP4 PUSH2 0x533 JUMP JUMPDEST SWAP2 POP PUSH2 0x5A8 DUP3 PUSH2 0x543 JUMP JUMPDEST PUSH1 0x40 DUP3 ADD SWAP1 POP SWAP2 SWAP1 POP JUMP JUMPDEST PUSH0 PUSH1 0x20 DUP3 ADD SWAP1 POP DUP2 DUP2 SUB PUSH0 DUP4 ADD MSTORE PUSH2 0x5CA DUP2 PUSH2 0x591 JUMP JUMPDEST SWAP1 POP SWAP2 SWAP1 POP JUMP JUMPDEST PUSH32 0x53616C646F20696E737566696369656E74652E00000000000000000000000000 PUSH0 DUP3 ADD MSTORE POP JUMP JUMPDEST PUSH0 PUSH2 0x605 PUSH1 0x13 DUP4 PUSH2 0x533 JUMP JUMPDEST SWAP2 POP PUSH2 0x610 DUP3 PUSH2 0x5D1 JUMP JUMPDEST PUSH1 0x20 DUP3 ADD SWAP1 POP SWAP2 SWAP1 POP JUMP JUMPDEST PUSH0 PUSH1 0x20 DUP3 ADD SWAP1 POP DUP2 DUP2 SUB PUSH0 DUP4 ADD MSTORE PUSH2 0x632 DUP2 PUSH2 0x5F9 JUMP JUMPDEST SWAP1 POP SWAP2 SWAP1 POP JUMP INVALID LOG2 PUSH5 0x6970667358 0x22 SLT KECCAK256 0x2C SWAP2 PUSH17 0xE1F360FEFE31256A19E40AC3045F679643 PUSH31 0x50170797A9CA5DFE439D4B64736F6C634300081E0033000000000000000000 "
				},
				"gasEstimates": {
					"creation": {
						"codeDepositCost": "329400",
						"executionCost": "24630",
						"totalCost": "354030"
					},
					"external": {
						"deposit()": "infinite",
						"getDepositAmountByAddress(address)": "2807",
						"getOwner()": "2558",
						"viewBalance()": "334",
						"withdrawal(address,uint256)": "infinite"
					}
				},
				"methodIdentifiers": {
					"deposit()": "d0e30db0",
					"getDepositAmountByAddress(address)": "1a61902b",
					"getOwner()": "893d20e8",
					"viewBalance()": "3ff1e05b",
					"withdrawal(address,uint256)": "5a6b26ba"
				}
			},
			"storageLayout": {
				"storage": [
					{
						"astId": 3,
						"contract": "Modulo2/PiggyBankNew.sol:PiggyBank",
						"label": "owner",
						"offset": 0,
						"slot": "0",
						"type": "t_address"
					},
					{
						"astId": 7,
						"contract": "Modulo2/PiggyBankNew.sol:PiggyBank",
						"label": "deposits",
						"offset": 0,
						"slot": "1",
						"type": "t_mapping(t_address,t_uint256)"
					}
				],
				"types": {
					"t_address": {
						"encoding": "inplace",
						"label": "address",
						"numberOfBytes": "20"
					},
					"t_mapping(t_address,t_uint256)": {
						"encoding": "mapping",
						"key": "t_address",
						"label": "mapping(address => uint256)",
						"numberOfBytes": "32",
						"value": "t_uint256"
					},
					"t_uint256": {
						"encoding": "inplace",
						"label": "uint256",
						"numberOfBytes": "32"
					}
				}
			},
			"userdoc": {
				"kind": "user",
				"methods": {},
				"version": 1
			}
		}
	}
}