{
	"Modulo3/TrabalhoFinal/SimpleDex.sol": {
		"SimpleDex": {
			"abi": [
				{
					"inputs": [
						{
							"internalType": "address",
							"name": "_tokenA",
							"type": "address"
						},
						{
							"internalType": "address",
							"name": "_tokenB",
							"type": "address"
						}
					],
					"stateMutability": "nonpayable",
					"type": "constructor"
				},
				{
					"inputs": [
						{
							"internalType": "address",
							"name": "owner",
							"type": "address"
						}
					],
					"name": "OwnableInvalidOwner",
					"type": "error"
				},
				{
					"inputs": [
						{
							"internalType": "address",
							"name": "account",
							"type": "address"
						}
					],
					"name": "OwnableUnauthorizedAccount",
					"type": "error"
				},
				{
					"anonymous": false,
					"inputs": [
						{
							"indexed": true,
							"internalType": "address",
							"name": "previousOwner",
							"type": "address"
						},
						{
							"indexed": true,
							"internalType": "address",
							"name": "newOwner",
							"type": "address"
						}
					],
					"name": "OwnershipTransferred",
					"type": "event"
				},
				{
					"anonymous": false,
					"inputs": [
						{
							"indexed": false,
							"internalType": "string",
							"name": "action",
							"type": "string"
						},
						{
							"indexed": false,
							"internalType": "uint256",
							"name": "amountA",
							"type": "uint256"
						},
						{
							"indexed": false,
							"internalType": "uint256",
							"name": "amountB",
							"type": "uint256"
						}
					],
					"name": "liquidity",
					"type": "event"
				},
				{
					"anonymous": false,
					"inputs": [
						{
							"indexed": false,
							"internalType": "string",
							"name": "action",
							"type": "string"
						},
						{
							"indexed": false,
							"internalType": "uint256",
							"name": "amountIn",
							"type": "uint256"
						},
						{
							"indexed": false,
							"internalType": "uint256",
							"name": "amountOut",
							"type": "uint256"
						}
					],
					"name": "swap",
					"type": "event"
				},
				{
					"inputs": [
						{
							"internalType": "uint256",
							"name": "amountA",
							"type": "uint256"
						},
						{
							"internalType": "uint256",
							"name": "amountB",
							"type": "uint256"
						}
					],
					"name": "addLiquidity",
					"outputs": [],
					"stateMutability": "nonpayable",
					"type": "function"
				},
				{
					"inputs": [
						{
							"internalType": "address",
							"name": "_token",
							"type": "address"
						}
					],
					"name": "getPrice",
					"outputs": [
						{
							"internalType": "uint256",
							"name": "",
							"type": "uint256"
						}
					],
					"stateMutability": "view",
					"type": "function"
				},
				{
					"inputs": [],
					"name": "owner",
					"outputs": [
						{
							"internalType": "address",
							"name": "",
							"type": "address"
						}
					],
					"stateMutability": "view",
					"type": "function"
				},
				{
					"inputs": [
						{
							"internalType": "uint256",
							"name": "amountA",
							"type": "uint256"
						},
						{
							"internalType": "uint256",
							"name": "amountB",
							"type": "uint256"
						}
					],
					"name": "removeLiquidity",
					"outputs": [],
					"stateMutability": "nonpayable",
					"type": "function"
				},
				{
					"inputs": [],
					"name": "renounceOwnership",
					"outputs": [],
					"stateMutability": "nonpayable",
					"type": "function"
				},
				{
					"inputs": [],
					"name": "reserveA",
					"outputs": [
						{
							"internalType": "uint256",
							"name": "",
							"type": "uint256"
						}
					],
					"stateMutability": "view",
					"type": "function"
				},
				{
					"inputs": [],
					"name": "reserveB",
					"outputs": [
						{
							"internalType": "uint256",
							"name": "",
							"type": "uint256"
						}
					],
					"stateMutability": "view",
					"type": "function"
				},
				{
					"inputs": [
						{
							"internalType": "uint256",
							"name": "amountAIn",
							"type": "uint256"
						}
					],
					"name": "swapAforB",
					"outputs": [],
					"stateMutability": "nonpayable",
					"type": "function"
				},
				{
					"inputs": [
						{
							"internalType": "uint256",
							"name": "amountBIn",
							"type": "uint256"
						}
					],
					"name": "swapBforA",
					"outputs": [],
					"stateMutability": "nonpayable",
					"type": "function"
				},
				{
					"inputs": [],
					"name": "tokenA",
					"outputs": [
						{
							"internalType": "contract IERC20",
							"name": "",
							"type": "address"
						}
					],
					"stateMutability": "view",
					"type": "function"
				},
				{
					"inputs": [],
					"name": "tokenB",
					"outputs": [
						{
							"internalType": "contract IERC20",
							"name": "",
							"type": "address"
						}
					],
					"stateMutability": "view",
					"type": "function"
				},
				{
					"inputs": [
						{
							"internalType": "address",
							"name": "newOwner",
							"type": "address"
						}
					],
					"name": "transferOwnership",
					"outputs": [],
					"stateMutability": "nonpayable",
					"type": "function"
				}
			],
			"devdoc": {
				"errors": {
					"OwnableInvalidOwner(address)": [
						{
							"details": "The owner is not a valid owner account. (eg. `address(0)`)"
						}
					],
					"OwnableUnauthorizedAccount(address)": [
						{
							"details": "The caller account is not authorized to perform an operation."
						}
					]
				},
				"kind": "dev",
				"methods": {
					"owner()": {
						"details": "Returns the address of the current owner."
					},
					"renounceOwnership()": {
						"details": "Leaves the contract without owner. It will not be possible to call `onlyOwner` functions. Can only be called by the current owner. NOTE: Renouncing ownership will leave the contract without an owner, thereby disabling any functionality that is only available to the owner."
					},
					"transferOwnership(address)": {
						"details": "Transfers ownership of the contract to a new account (`newOwner`). Can only be called by the current owner."
					}
				},
				"version": 1
			},
			"evm": {
				"assembly": "    /* \"Modulo3/TrabalhoFinal/SimpleDex.sol\":232:3609  contract SimpleDex is Ownable, ReentrancyGuard{... */\n  mstore(0x40, 0x80)\n    /* \"Modulo3/TrabalhoFinal/SimpleDex.sol\":538:678  constructor(address _tokenA, address _tokenB) Ownable(msg.sender){... */\n  callvalue\n  dup1\n  iszero\n  tag_1\n  jumpi\n  revert(0x00, 0x00)\ntag_1:\n  pop\n  mload(0x40)\n  sub(codesize, bytecodeSize)\n  dup1\n  bytecodeSize\n  dup4\n  codecopy\n  dup2\n  dup2\n  add\n  0x40\n  mstore\n  dup2\n  add\n  swap1\n  tag_2\n  swap2\n  swap1\n  tag_3\n  jump\t// in\ntag_2:\n    /* \"Modulo3/TrabalhoFinal/SimpleDex.sol\":592:602  msg.sender */\n  caller\n    /* \"@openzeppelin/contracts/access/Ownable.sol\":1297:1298  0 */\n  0x00\n    /* \"@openzeppelin/contracts/access/Ownable.sol\":1273:1299  initialOwner == address(0) */\n  0xffffffffffffffffffffffffffffffffffffffff\n  and\n    /* \"@openzeppelin/contracts/access/Ownable.sol\":1273:1285  initialOwner */\n  dup2\n    /* \"@openzeppelin/contracts/access/Ownable.sol\":1273:1299  initialOwner == address(0) */\n  0xffffffffffffffffffffffffffffffffffffffff\n  and\n  sub\n    /* \"@openzeppelin/contracts/access/Ownable.sol\":1269:1364  if (initialOwner == address(0)) {... */\n  tag_8\n  jumpi\n    /* \"@openzeppelin/contracts/access/Ownable.sol\":1350:1351  0 */\n  0x00\n    /* \"@openzeppelin/contracts/access/Ownable.sol\":1322:1353  OwnableInvalidOwner(address(0)) */\n  mload(0x40)\n  0x1e4fbdf700000000000000000000000000000000000000000000000000000000\n  dup2\n  mstore\n  0x04\n  add\n  tag_9\n  swap2\n  swap1\n  tag_10\n  jump\t// in\ntag_9:\n  mload(0x40)\n  dup1\n  swap2\n  sub\n  swap1\n  revert\n    /* \"@openzeppelin/contracts/access/Ownable.sol\":1269:1364  if (initialOwner == address(0)) {... */\ntag_8:\n    /* \"@openzeppelin/contracts/access/Ownable.sol\":1373:1405  _transferOwnership(initialOwner) */\n  tag_11\n    /* \"@openzeppelin/contracts/access/Ownable.sol\":1392:1404  initialOwner */\n  dup2\n    /* \"@openzeppelin/contracts/access/Ownable.sol\":1373:1391  _transferOwnership */\n  shl(0x20, tag_12)\n    /* \"@openzeppelin/contracts/access/Ownable.sol\":1373:1405  _transferOwnership(initialOwner) */\n  0x20\n  shr\n  jump\t// in\ntag_11:\n    /* \"@openzeppelin/contracts/access/Ownable.sol\":1225:1412  constructor(address initialOwner) {... */\n  pop\n    /* \"@openzeppelin/contracts/security/ReentrancyGuard.sol\":1716:1717  1 */\n  0x01\n    /* \"@openzeppelin/contracts/security/ReentrancyGuard.sol\":1821:1828  _status */\n  dup1\n    /* \"@openzeppelin/contracts/security/ReentrancyGuard.sol\":1821:1843  _status = _NOT_ENTERED */\n  dup2\n  swap1\n  sstore\n  pop\n    /* \"Modulo3/TrabalhoFinal/SimpleDex.sol\":629:636  _tokenA */\n  dup2\n    /* \"Modulo3/TrabalhoFinal/SimpleDex.sol\":613:619  tokenA */\n  0x02\n  0x00\n    /* \"Modulo3/TrabalhoFinal/SimpleDex.sol\":613:637  tokenA = IERC20(_tokenA) */\n  0x0100\n  exp\n  dup2\n  sload\n  dup2\n  0xffffffffffffffffffffffffffffffffffffffff\n  mul\n  not\n  and\n  swap1\n  dup4\n  0xffffffffffffffffffffffffffffffffffffffff\n  and\n  mul\n  or\n  swap1\n  sstore\n  pop\n    /* \"Modulo3/TrabalhoFinal/SimpleDex.sol\":663:670  _tokenB */\n  dup1\n    /* \"Modulo3/TrabalhoFinal/SimpleDex.sol\":647:653  tokenB */\n  0x03\n  0x00\n    /* \"Modulo3/TrabalhoFinal/SimpleDex.sol\":647:671  tokenB = IERC20(_tokenB) */\n  0x0100\n  exp\n  dup2\n  sload\n  dup2\n  0xffffffffffffffffffffffffffffffffffffffff\n  mul\n  not\n  and\n  swap1\n  dup4\n  0xffffffffffffffffffffffffffffffffffffffff\n  and\n  mul\n  or\n  swap1\n  sstore\n  pop\n    /* \"Modulo3/TrabalhoFinal/SimpleDex.sol\":538:678  constructor(address _tokenA, address _tokenB) Ownable(msg.sender){... */\n  pop\n  pop\n    /* \"Modulo3/TrabalhoFinal/SimpleDex.sol\":232:3609  contract SimpleDex is Ownable, ReentrancyGuard{... */\n  jump(tag_15)\n    /* \"@openzeppelin/contracts/access/Ownable.sol\":2912:3099  function _transferOwnership(address newOwner) internal virtual {... */\ntag_12:\n    /* \"@openzeppelin/contracts/access/Ownable.sol\":2985:3001  address oldOwner */\n  0x00\n    /* \"@openzeppelin/contracts/access/Ownable.sol\":3004:3010  _owner */\n  0x00\n  0x00\n  swap1\n  sload\n  swap1\n  0x0100\n  exp\n  swap1\n  div\n  0xffffffffffffffffffffffffffffffffffffffff\n  and\n    /* \"@openzeppelin/contracts/access/Ownable.sol\":2985:3010  address oldOwner = _owner */\n  swap1\n  pop\n    /* \"@openzeppelin/contracts/access/Ownable.sol\":3029:3037  newOwner */\n  dup2\n    /* \"@openzeppelin/contracts/access/Ownable.sol\":3020:3026  _owner */\n  0x00\n  0x00\n    /* \"@openzeppelin/contracts/access/Ownable.sol\":3020:3037  _owner = newOwner */\n  0x0100\n  exp\n  dup2\n  sload\n  dup2\n  0xffffffffffffffffffffffffffffffffffffffff\n  mul\n  not\n  and\n  swap1\n  dup4\n  0xffffffffffffffffffffffffffffffffffffffff\n  and\n  mul\n  or\n  swap1\n  sstore\n  pop\n    /* \"@openzeppelin/contracts/access/Ownable.sol\":3083:3091  newOwner */\n  dup2\n    /* \"@openzeppelin/contracts/access/Ownable.sol\":3052:3092  OwnershipTransferred(oldOwner, newOwner) */\n  0xffffffffffffffffffffffffffffffffffffffff\n  and\n    /* \"@openzeppelin/contracts/access/Ownable.sol\":3073:3081  oldOwner */\n  dup2\n    /* \"@openzeppelin/contracts/access/Ownable.sol\":3052:3092  OwnershipTransferred(oldOwner, newOwner) */\n  0xffffffffffffffffffffffffffffffffffffffff\n  and\n  0x8be0079c531659141344cd1fd0a4f28419497f9722a3daafe3b4186f6b6457e0\n  mload(0x40)\n  mload(0x40)\n  dup1\n  swap2\n  sub\n  swap1\n  log3\n    /* \"@openzeppelin/contracts/access/Ownable.sol\":2975:3099  {... */\n  pop\n    /* \"@openzeppelin/contracts/access/Ownable.sol\":2912:3099  function _transferOwnership(address newOwner) internal virtual {... */\n  pop\n  jump\t// out\n    /* \"#utility.yul\":88:205   */\ntag_18:\n    /* \"#utility.yul\":197:198   */\n  0x00\n    /* \"#utility.yul\":194:195   */\n  0x00\n    /* \"#utility.yul\":187:199   */\n  revert\n    /* \"#utility.yul\":334:460   */\ntag_20:\n    /* \"#utility.yul\":371:378   */\n  0x00\n    /* \"#utility.yul\":411:453   */\n  0xffffffffffffffffffffffffffffffffffffffff\n    /* \"#utility.yul\":404:409   */\n  dup3\n    /* \"#utility.yul\":400:454   */\n  and\n    /* \"#utility.yul\":389:454   */\n  swap1\n  pop\n    /* \"#utility.yul\":334:460   */\n  swap2\n  swap1\n  pop\n  jump\t// out\n    /* \"#utility.yul\":466:562   */\ntag_21:\n    /* \"#utility.yul\":503:510   */\n  0x00\n    /* \"#utility.yul\":532:556   */\n  tag_31\n    /* \"#utility.yul\":550:555   */\n  dup3\n    /* \"#utility.yul\":532:556   */\n  tag_20\n  jump\t// in\ntag_31:\n    /* \"#utility.yul\":521:556   */\n  swap1\n  pop\n    /* \"#utility.yul\":466:562   */\n  swap2\n  swap1\n  pop\n  jump\t// out\n    /* \"#utility.yul\":568:690   */\ntag_22:\n    /* \"#utility.yul\":641:665   */\n  tag_33\n    /* \"#utility.yul\":659:664   */\n  dup2\n    /* \"#utility.yul\":641:665   */\n  tag_21\n  jump\t// in\ntag_33:\n    /* \"#utility.yul\":634:639   */\n  dup2\n    /* \"#utility.yul\":631:666   */\n  eq\n    /* \"#utility.yul\":621:684   */\n  tag_34\n  jumpi\n    /* \"#utility.yul\":680:681   */\n  0x00\n    /* \"#utility.yul\":677:678   */\n  0x00\n    /* \"#utility.yul\":670:682   */\n  revert\n    /* \"#utility.yul\":621:684   */\ntag_34:\n    /* \"#utility.yul\":568:690   */\n  pop\n  jump\t// out\n    /* \"#utility.yul\":696:839   */\ntag_23:\n    /* \"#utility.yul\":753:758   */\n  0x00\n    /* \"#utility.yul\":784:790   */\n  dup2\n    /* \"#utility.yul\":778:791   */\n  mload\n    /* \"#utility.yul\":769:791   */\n  swap1\n  pop\n    /* \"#utility.yul\":800:833   */\n  tag_36\n    /* \"#utility.yul\":827:832   */\n  dup2\n    /* \"#utility.yul\":800:833   */\n  tag_22\n  jump\t// in\ntag_36:\n    /* \"#utility.yul\":696:839   */\n  swap3\n  swap2\n  pop\n  pop\n  jump\t// out\n    /* \"#utility.yul\":845:1352   */\ntag_3:\n    /* \"#utility.yul\":924:930   */\n  0x00\n    /* \"#utility.yul\":932:938   */\n  0x00\n    /* \"#utility.yul\":981:983   */\n  0x40\n    /* \"#utility.yul\":969:978   */\n  dup4\n    /* \"#utility.yul\":960:967   */\n  dup6\n    /* \"#utility.yul\":956:979   */\n  sub\n    /* \"#utility.yul\":952:984   */\n  slt\n    /* \"#utility.yul\":949:1068   */\n  iszero\n  tag_38\n  jumpi\n    /* \"#utility.yul\":987:1066   */\n  tag_39\n  tag_18\n  jump\t// in\ntag_39:\n    /* \"#utility.yul\":949:1068   */\ntag_38:\n    /* \"#utility.yul\":1107:1108   */\n  0x00\n    /* \"#utility.yul\":1132:1196   */\n  tag_40\n    /* \"#utility.yul\":1188:1195   */\n  dup6\n    /* \"#utility.yul\":1179:1185   */\n  dup3\n    /* \"#utility.yul\":1168:1177   */\n  dup7\n    /* \"#utility.yul\":1164:1186   */\n  add\n    /* \"#utility.yul\":1132:1196   */\n  tag_23\n  jump\t// in\ntag_40:\n    /* \"#utility.yul\":1122:1196   */\n  swap3\n  pop\n    /* \"#utility.yul\":1078:1206   */\n  pop\n    /* \"#utility.yul\":1245:1247   */\n  0x20\n    /* \"#utility.yul\":1271:1335   */\n  tag_41\n    /* \"#utility.yul\":1327:1334   */\n  dup6\n    /* \"#utility.yul\":1318:1324   */\n  dup3\n    /* \"#utility.yul\":1307:1316   */\n  dup7\n    /* \"#utility.yul\":1303:1325   */\n  add\n    /* \"#utility.yul\":1271:1335   */\n  tag_23\n  jump\t// in\ntag_41:\n    /* \"#utility.yul\":1261:1335   */\n  swap2\n  pop\n    /* \"#utility.yul\":1216:1345   */\n  pop\n    /* \"#utility.yul\":845:1352   */\n  swap3\n  pop\n  swap3\n  swap1\n  pop\n  jump\t// out\n    /* \"#utility.yul\":1358:1476   */\ntag_24:\n    /* \"#utility.yul\":1445:1469   */\n  tag_43\n    /* \"#utility.yul\":1463:1468   */\n  dup2\n    /* \"#utility.yul\":1445:1469   */\n  tag_21\n  jump\t// in\ntag_43:\n    /* \"#utility.yul\":1440:1443   */\n  dup3\n    /* \"#utility.yul\":1433:1470   */\n  mstore\n    /* \"#utility.yul\":1358:1476   */\n  pop\n  pop\n  jump\t// out\n    /* \"#utility.yul\":1482:1704   */\ntag_10:\n    /* \"#utility.yul\":1575:1579   */\n  0x00\n    /* \"#utility.yul\":1613:1615   */\n  0x20\n    /* \"#utility.yul\":1602:1611   */\n  dup3\n    /* \"#utility.yul\":1598:1616   */\n  add\n    /* \"#utility.yul\":1590:1616   */\n  swap1\n  pop\n    /* \"#utility.yul\":1626:1697   */\n  tag_45\n    /* \"#utility.yul\":1694:1695   */\n  0x00\n    /* \"#utility.yul\":1683:1692   */\n  dup4\n    /* \"#utility.yul\":1679:1696   */\n  add\n    /* \"#utility.yul\":1670:1676   */\n  dup5\n    /* \"#utility.yul\":1626:1697   */\n  tag_24\n  jump\t// in\ntag_45:\n    /* \"#utility.yul\":1482:1704   */\n  swap3\n  swap2\n  pop\n  pop\n  jump\t// out\n    /* \"Modulo3/TrabalhoFinal/SimpleDex.sol\":232:3609  contract SimpleDex is Ownable, ReentrancyGuard{... */\ntag_15:\n  dataSize(sub_0)\n  dup1\n  dataOffset(sub_0)\n  0x00\n  codecopy\n  0x00\n  return\nstop\n\nsub_0: assembly {\n        /* \"Modulo3/TrabalhoFinal/SimpleDex.sol\":232:3609  contract SimpleDex is Ownable, ReentrancyGuard{... */\n      mstore(0x40, 0x80)\n      callvalue\n      dup1\n      iszero\n      tag_1\n      jumpi\n      revert(0x00, 0x00)\n    tag_1:\n      pop\n      jumpi(tag_2, lt(calldatasize, 0x04))\n      shr(0xe0, calldataload(0x00))\n      dup1\n      0x8da5cb5b\n      gt\n      tag_15\n      jumpi\n      dup1\n      0x8da5cb5b\n      eq\n      tag_9\n      jumpi\n      dup1\n      0x9cd441da\n      eq\n      tag_10\n      jumpi\n      dup1\n      0x9d7de6b3\n      eq\n      tag_11\n      jumpi\n      dup1\n      0xdc5fa6c5\n      eq\n      tag_12\n      jumpi\n      dup1\n      0xe4f1f70a\n      eq\n      tag_13\n      jumpi\n      dup1\n      0xf2fde38b\n      eq\n      tag_14\n      jumpi\n      jump(tag_2)\n    tag_15:\n      dup1\n      0x0fc63d10\n      eq\n      tag_3\n      jumpi\n      dup1\n      0x19e36f3b\n      eq\n      tag_4\n      jumpi\n      dup1\n      0x41976e09\n      eq\n      tag_5\n      jumpi\n      dup1\n      0x5f64b55b\n      eq\n      tag_6\n      jumpi\n      dup1\n      0x715018a6\n      eq\n      tag_7\n      jumpi\n      dup1\n      0x8014a7aa\n      eq\n      tag_8\n      jumpi\n    tag_2:\n      revert(0x00, 0x00)\n        /* \"Modulo3/TrabalhoFinal/SimpleDex.sol\":289:309  IERC20 public tokenA */\n    tag_3:\n      tag_16\n      tag_17\n      jump\t// in\n    tag_16:\n      mload(0x40)\n      tag_18\n      swap2\n      swap1\n      tag_19\n      jump\t// in\n    tag_18:\n      mload(0x40)\n      dup1\n      swap2\n      sub\n      swap1\n      return\n        /* \"Modulo3/TrabalhoFinal/SimpleDex.sol\":370:393  uint256 public reserveB */\n    tag_4:\n      tag_20\n      tag_21\n      jump\t// in\n    tag_20:\n      mload(0x40)\n      tag_22\n      swap2\n      swap1\n      tag_23\n      jump\t// in\n    tag_22:\n      mload(0x40)\n      dup1\n      swap2\n      sub\n      swap1\n      return\n        /* \"Modulo3/TrabalhoFinal/SimpleDex.sol\":2667:3081  function getPrice(address _token) external view returns (uint256) {... */\n    tag_5:\n      tag_24\n      0x04\n      dup1\n      calldatasize\n      sub\n      dup2\n      add\n      swap1\n      tag_25\n      swap2\n      swap1\n      tag_26\n      jump\t// in\n    tag_25:\n      tag_27\n      jump\t// in\n    tag_24:\n      mload(0x40)\n      tag_28\n      swap2\n      swap1\n      tag_23\n      jump\t// in\n    tag_28:\n      mload(0x40)\n      dup1\n      swap2\n      sub\n      swap1\n      return\n        /* \"Modulo3/TrabalhoFinal/SimpleDex.sol\":315:335  IERC20 public tokenB */\n    tag_6:\n      tag_29\n      tag_30\n      jump\t// in\n    tag_29:\n      mload(0x40)\n      tag_31\n      swap2\n      swap1\n      tag_19\n      jump\t// in\n    tag_31:\n      mload(0x40)\n      dup1\n      swap2\n      sub\n      swap1\n      return\n        /* \"@openzeppelin/contracts/access/Ownable.sol\":2293:2394  function renounceOwnership() public virtual onlyOwner {... */\n    tag_7:\n      tag_32\n      tag_33\n      jump\t// in\n    tag_32:\n      stop\n        /* \"Modulo3/TrabalhoFinal/SimpleDex.sol\":2068:2661  function swapBforA(uint256 amountBIn) external nonReentrant{... */\n    tag_8:\n      tag_34\n      0x04\n      dup1\n      calldatasize\n      sub\n      dup2\n      add\n      swap1\n      tag_35\n      swap2\n      swap1\n      tag_36\n      jump\t// in\n    tag_35:\n      tag_37\n      jump\t// in\n    tag_34:\n      stop\n        /* \"@openzeppelin/contracts/access/Ownable.sol\":1638:1723  function owner() public view virtual returns (address) {... */\n    tag_9:\n      tag_38\n      tag_39\n      jump\t// in\n    tag_38:\n      mload(0x40)\n      tag_40\n      swap2\n      swap1\n      tag_41\n      jump\t// in\n    tag_40:\n      mload(0x40)\n      dup1\n      swap2\n      sub\n      swap1\n      return\n        /* \"Modulo3/TrabalhoFinal/SimpleDex.sol\":684:1084  function addLiquidity(uint256 amountA, uint256 amountB) external onlyOwner{... */\n    tag_10:\n      tag_42\n      0x04\n      dup1\n      calldatasize\n      sub\n      dup2\n      add\n      swap1\n      tag_43\n      swap2\n      swap1\n      tag_44\n      jump\t// in\n    tag_43:\n      tag_45\n      jump\t// in\n    tag_42:\n      stop\n        /* \"Modulo3/TrabalhoFinal/SimpleDex.sol\":1090:1463  function removeLiquidity(uint256 amountA, uint256 amountB) external onlyOwner{... */\n    tag_11:\n      tag_46\n      0x04\n      dup1\n      calldatasize\n      sub\n      dup2\n      add\n      swap1\n      tag_47\n      swap2\n      swap1\n      tag_44\n      jump\t// in\n    tag_47:\n      tag_48\n      jump\t// in\n    tag_46:\n      stop\n        /* \"Modulo3/TrabalhoFinal/SimpleDex.sol\":341:364  uint256 public reserveA */\n    tag_12:\n      tag_49\n      tag_50\n      jump\t// in\n    tag_49:\n      mload(0x40)\n      tag_51\n      swap2\n      swap1\n      tag_23\n      jump\t// in\n    tag_51:\n      mload(0x40)\n      dup1\n      swap2\n      sub\n      swap1\n      return\n        /* \"Modulo3/TrabalhoFinal/SimpleDex.sol\":1469:2062  function swapAforB(uint256 amountAIn) external nonReentrant{... */\n    tag_13:\n      tag_52\n      0x04\n      dup1\n      calldatasize\n      sub\n      dup2\n      add\n      swap1\n      tag_53\n      swap2\n      swap1\n      tag_36\n      jump\t// in\n    tag_53:\n      tag_54\n      jump\t// in\n    tag_52:\n      stop\n        /* \"@openzeppelin/contracts/access/Ownable.sol\":2543:2758  function transferOwnership(address newOwner) public virtual onlyOwner {... */\n    tag_14:\n      tag_55\n      0x04\n      dup1\n      calldatasize\n      sub\n      dup2\n      add\n      swap1\n      tag_56\n      swap2\n      swap1\n      tag_26\n      jump\t// in\n    tag_56:\n      tag_57\n      jump\t// in\n    tag_55:\n      stop\n        /* \"Modulo3/TrabalhoFinal/SimpleDex.sol\":289:309  IERC20 public tokenA */\n    tag_17:\n      0x02\n      0x00\n      swap1\n      sload\n      swap1\n      0x0100\n      exp\n      swap1\n      div\n      0xffffffffffffffffffffffffffffffffffffffff\n      and\n      dup2\n      jump\t// out\n        /* \"Modulo3/TrabalhoFinal/SimpleDex.sol\":370:393  uint256 public reserveB */\n    tag_21:\n      sload(0x05)\n      dup2\n      jump\t// out\n        /* \"Modulo3/TrabalhoFinal/SimpleDex.sol\":2667:3081  function getPrice(address _token) external view returns (uint256) {... */\n    tag_27:\n        /* \"Modulo3/TrabalhoFinal/SimpleDex.sol\":2724:2731  uint256 */\n      0x00\n        /* \"Modulo3/TrabalhoFinal/SimpleDex.sol\":2765:2771  tokenA */\n      0x02\n      0x00\n      swap1\n      sload\n      swap1\n      0x0100\n      exp\n      swap1\n      div\n      0xffffffffffffffffffffffffffffffffffffffff\n      and\n        /* \"Modulo3/TrabalhoFinal/SimpleDex.sol\":2747:2772  _token == address(tokenA) */\n      0xffffffffffffffffffffffffffffffffffffffff\n      and\n        /* \"Modulo3/TrabalhoFinal/SimpleDex.sol\":2747:2753  _token */\n      dup3\n        /* \"Modulo3/TrabalhoFinal/SimpleDex.sol\":2747:2772  _token == address(tokenA) */\n      0xffffffffffffffffffffffffffffffffffffffff\n      and\n      sub\n        /* \"Modulo3/TrabalhoFinal/SimpleDex.sol\":2743:3075  if (_token == address(tokenA)) {... */\n      tag_59\n      jumpi\n        /* \"Modulo3/TrabalhoFinal/SimpleDex.sol\":2804:2805  0 */\n      0x00\n        /* \"Modulo3/TrabalhoFinal/SimpleDex.sol\":2792:2800  reserveA */\n      sload(0x04)\n        /* \"Modulo3/TrabalhoFinal/SimpleDex.sol\":2792:2805  reserveA == 0 */\n      sub\n        /* \"Modulo3/TrabalhoFinal/SimpleDex.sol\":2788:2815  if (reserveA == 0) return 0 */\n      tag_60\n      jumpi\n        /* \"Modulo3/TrabalhoFinal/SimpleDex.sol\":2814:2815  0 */\n      0x00\n        /* \"Modulo3/TrabalhoFinal/SimpleDex.sol\":2807:2815  return 0 */\n      swap1\n      pop\n      jump(tag_58)\n        /* \"Modulo3/TrabalhoFinal/SimpleDex.sol\":2788:2815  if (reserveA == 0) return 0 */\n    tag_60:\n        /* \"Modulo3/TrabalhoFinal/SimpleDex.sol\":2856:2864  reserveA */\n      sload(0x04)\n        /* \"Modulo3/TrabalhoFinal/SimpleDex.sol\":2848:2852  1e18 */\n      0x0de0b6b3a7640000\n        /* \"Modulo3/TrabalhoFinal/SimpleDex.sol\":2837:2845  reserveB */\n      sload(0x05)\n        /* \"Modulo3/TrabalhoFinal/SimpleDex.sol\":2837:2852  reserveB * 1e18 */\n      tag_61\n      swap2\n      swap1\n      tag_62\n      jump\t// in\n    tag_61:\n        /* \"Modulo3/TrabalhoFinal/SimpleDex.sol\":2836:2864  (reserveB * 1e18) / reserveA */\n      tag_63\n      swap2\n      swap1\n      tag_64\n      jump\t// in\n    tag_63:\n        /* \"Modulo3/TrabalhoFinal/SimpleDex.sol\":2829:2864  return (reserveB * 1e18) / reserveA */\n      swap1\n      pop\n      jump(tag_58)\n        /* \"Modulo3/TrabalhoFinal/SimpleDex.sol\":2743:3075  if (_token == address(tokenA)) {... */\n    tag_59:\n        /* \"Modulo3/TrabalhoFinal/SimpleDex.sol\":2903:2909  tokenB */\n      0x03\n      0x00\n      swap1\n      sload\n      swap1\n      0x0100\n      exp\n      swap1\n      div\n      0xffffffffffffffffffffffffffffffffffffffff\n      and\n        /* \"Modulo3/TrabalhoFinal/SimpleDex.sol\":2885:2910  _token == address(tokenB) */\n      0xffffffffffffffffffffffffffffffffffffffff\n      and\n        /* \"Modulo3/TrabalhoFinal/SimpleDex.sol\":2885:2891  _token */\n      dup3\n        /* \"Modulo3/TrabalhoFinal/SimpleDex.sol\":2885:2910  _token == address(tokenB) */\n      0xffffffffffffffffffffffffffffffffffffffff\n      and\n      sub\n        /* \"Modulo3/TrabalhoFinal/SimpleDex.sol\":2881:3075  if (_token == address(tokenB)) {... */\n      tag_66\n      jumpi\n        /* \"Modulo3/TrabalhoFinal/SimpleDex.sol\":2942:2943  0 */\n      0x00\n        /* \"Modulo3/TrabalhoFinal/SimpleDex.sol\":2930:2938  reserveB */\n      sload(0x05)\n        /* \"Modulo3/TrabalhoFinal/SimpleDex.sol\":2930:2943  reserveB == 0 */\n      sub\n        /* \"Modulo3/TrabalhoFinal/SimpleDex.sol\":2926:2953  if (reserveB == 0) return 0 */\n      tag_67\n      jumpi\n        /* \"Modulo3/TrabalhoFinal/SimpleDex.sol\":2952:2953  0 */\n      0x00\n        /* \"Modulo3/TrabalhoFinal/SimpleDex.sol\":2945:2953  return 0 */\n      swap1\n      pop\n      jump(tag_58)\n        /* \"Modulo3/TrabalhoFinal/SimpleDex.sol\":2926:2953  if (reserveB == 0) return 0 */\n    tag_67:\n        /* \"Modulo3/TrabalhoFinal/SimpleDex.sol\":2994:3002  reserveB */\n      sload(0x05)\n        /* \"Modulo3/TrabalhoFinal/SimpleDex.sol\":2986:2990  1e18 */\n      0x0de0b6b3a7640000\n        /* \"Modulo3/TrabalhoFinal/SimpleDex.sol\":2975:2983  reserveA */\n      sload(0x04)\n        /* \"Modulo3/TrabalhoFinal/SimpleDex.sol\":2975:2990  reserveA * 1e18 */\n      tag_68\n      swap2\n      swap1\n      tag_62\n      jump\t// in\n    tag_68:\n        /* \"Modulo3/TrabalhoFinal/SimpleDex.sol\":2974:3002  (reserveA * 1e18) / reserveB */\n      tag_69\n      swap2\n      swap1\n      tag_64\n      jump\t// in\n    tag_69:\n        /* \"Modulo3/TrabalhoFinal/SimpleDex.sol\":2967:3002  return (reserveA * 1e18) / reserveB */\n      swap1\n      pop\n      jump(tag_58)\n        /* \"Modulo3/TrabalhoFinal/SimpleDex.sol\":2881:3075  if (_token == address(tokenB)) {... */\n    tag_66:\n        /* \"Modulo3/TrabalhoFinal/SimpleDex.sol\":3033:3064  revert(\"Invalid token address\") */\n      mload(0x40)\n      0x08c379a000000000000000000000000000000000000000000000000000000000\n      dup2\n      mstore\n      0x04\n      add\n      tag_71\n      swap1\n      tag_72\n      jump\t// in\n    tag_71:\n      mload(0x40)\n      dup1\n      swap2\n      sub\n      swap1\n      revert\n        /* \"Modulo3/TrabalhoFinal/SimpleDex.sol\":2667:3081  function getPrice(address _token) external view returns (uint256) {... */\n    tag_58:\n      swap2\n      swap1\n      pop\n      jump\t// out\n        /* \"Modulo3/TrabalhoFinal/SimpleDex.sol\":315:335  IERC20 public tokenB */\n    tag_30:\n      0x03\n      0x00\n      swap1\n      sload\n      swap1\n      0x0100\n      exp\n      swap1\n      div\n      0xffffffffffffffffffffffffffffffffffffffff\n      and\n      dup2\n      jump\t// out\n        /* \"@openzeppelin/contracts/access/Ownable.sol\":2293:2394  function renounceOwnership() public virtual onlyOwner {... */\n    tag_33:\n        /* \"@openzeppelin/contracts/access/Ownable.sol\":1531:1544  _checkOwner() */\n      tag_74\n        /* \"@openzeppelin/contracts/access/Ownable.sol\":1531:1542  _checkOwner */\n      tag_75\n        /* \"@openzeppelin/contracts/access/Ownable.sol\":1531:1544  _checkOwner() */\n      jump\t// in\n    tag_74:\n        /* \"@openzeppelin/contracts/access/Ownable.sol\":2357:2387  _transferOwnership(address(0)) */\n      tag_77\n        /* \"@openzeppelin/contracts/access/Ownable.sol\":2384:2385  0 */\n      0x00\n        /* \"@openzeppelin/contracts/access/Ownable.sol\":2357:2375  _transferOwnership */\n      tag_78\n        /* \"@openzeppelin/contracts/access/Ownable.sol\":2357:2387  _transferOwnership(address(0)) */\n      jump\t// in\n    tag_77:\n        /* \"@openzeppelin/contracts/access/Ownable.sol\":2293:2394  function renounceOwnership() public virtual onlyOwner {... */\n      jump\t// out\n        /* \"Modulo3/TrabalhoFinal/SimpleDex.sol\":2068:2661  function swapBforA(uint256 amountBIn) external nonReentrant{... */\n    tag_37:\n        /* \"@openzeppelin/contracts/security/ReentrancyGuard.sol\":2261:2282  _nonReentrantBefore() */\n      tag_80\n        /* \"@openzeppelin/contracts/security/ReentrancyGuard.sol\":2261:2280  _nonReentrantBefore */\n      tag_81\n        /* \"@openzeppelin/contracts/security/ReentrancyGuard.sol\":2261:2282  _nonReentrantBefore() */\n      jump\t// in\n    tag_80:\n        /* \"Modulo3/TrabalhoFinal/SimpleDex.sol\":2157:2158  0 */\n      0x00\n        /* \"Modulo3/TrabalhoFinal/SimpleDex.sol\":2145:2154  amountBIn */\n      dup2\n        /* \"Modulo3/TrabalhoFinal/SimpleDex.sol\":2145:2158  amountBIn > 0 */\n      gt\n        /* \"Modulo3/TrabalhoFinal/SimpleDex.sol\":2137:2198  require(amountBIn > 0, \"Amount in must be greater than zero\") */\n      tag_83\n      jumpi\n      mload(0x40)\n      0x08c379a000000000000000000000000000000000000000000000000000000000\n      dup2\n      mstore\n      0x04\n      add\n      tag_84\n      swap1\n      tag_85\n      jump\t// in\n    tag_84:\n      mload(0x40)\n      dup1\n      swap2\n      sub\n      swap1\n      revert\n    tag_83:\n        /* \"Modulo3/TrabalhoFinal/SimpleDex.sol\":2227:2228  0 */\n      0x00\n        /* \"Modulo3/TrabalhoFinal/SimpleDex.sol\":2216:2224  reserveA */\n      sload(0x04)\n        /* \"Modulo3/TrabalhoFinal/SimpleDex.sol\":2216:2228  reserveA > 0 */\n      gt\n        /* \"Modulo3/TrabalhoFinal/SimpleDex.sol\":2216:2244  reserveA > 0 && reserveB > 0 */\n      dup1\n      iszero\n      tag_86\n      jumpi\n      pop\n        /* \"Modulo3/TrabalhoFinal/SimpleDex.sol\":2243:2244  0 */\n      0x00\n        /* \"Modulo3/TrabalhoFinal/SimpleDex.sol\":2232:2240  reserveB */\n      sload(0x05)\n        /* \"Modulo3/TrabalhoFinal/SimpleDex.sol\":2232:2244  reserveB > 0 */\n      gt\n        /* \"Modulo3/TrabalhoFinal/SimpleDex.sol\":2216:2244  reserveA > 0 && reserveB > 0 */\n    tag_86:\n        /* \"Modulo3/TrabalhoFinal/SimpleDex.sol\":2208:2272  require(reserveA > 0 && reserveB > 0, \"Liquidity pool is empty\") */\n      tag_87\n      jumpi\n      mload(0x40)\n      0x08c379a000000000000000000000000000000000000000000000000000000000\n      dup2\n      mstore\n      0x04\n      add\n      tag_88\n      swap1\n      tag_89\n      jump\t// in\n    tag_88:\n      mload(0x40)\n      dup1\n      swap2\n      sub\n      swap1\n      revert\n    tag_87:\n        /* \"Modulo3/TrabalhoFinal/SimpleDex.sol\":2282:2300  uint256 amountAOut */\n      0x00\n        /* \"Modulo3/TrabalhoFinal/SimpleDex.sol\":2303:2346  getAmountOut(amountBIn, reserveB, reserveA) */\n      tag_90\n        /* \"Modulo3/TrabalhoFinal/SimpleDex.sol\":2316:2325  amountBIn */\n      dup3\n        /* \"Modulo3/TrabalhoFinal/SimpleDex.sol\":2327:2335  reserveB */\n      sload(0x05)\n        /* \"Modulo3/TrabalhoFinal/SimpleDex.sol\":2337:2345  reserveA */\n      sload(0x04)\n        /* \"Modulo3/TrabalhoFinal/SimpleDex.sol\":2303:2315  getAmountOut */\n      tag_91\n        /* \"Modulo3/TrabalhoFinal/SimpleDex.sol\":2303:2346  getAmountOut(amountBIn, reserveB, reserveA) */\n      jump\t// in\n    tag_90:\n        /* \"Modulo3/TrabalhoFinal/SimpleDex.sol\":2282:2346  uint256 amountAOut = getAmountOut(amountBIn, reserveB, reserveA) */\n      swap1\n      pop\n        /* \"Modulo3/TrabalhoFinal/SimpleDex.sol\":2376:2386  amountAOut */\n      dup1\n        /* \"Modulo3/TrabalhoFinal/SimpleDex.sol\":2364:2372  reserveA */\n      sload(0x04)\n        /* \"Modulo3/TrabalhoFinal/SimpleDex.sol\":2364:2386  reserveA >= amountAOut */\n      lt\n      iszero\n        /* \"Modulo3/TrabalhoFinal/SimpleDex.sol\":2356:2424  require(reserveA >= amountAOut, \"Not enough liquidity for the swap\") */\n      tag_92\n      jumpi\n      mload(0x40)\n      0x08c379a000000000000000000000000000000000000000000000000000000000\n      dup2\n      mstore\n      0x04\n      add\n      tag_93\n      swap1\n      tag_94\n      jump\t// in\n    tag_93:\n      mload(0x40)\n      dup1\n      swap2\n      sub\n      swap1\n      revert\n    tag_92:\n        /* \"Modulo3/TrabalhoFinal/SimpleDex.sol\":2434:2440  tokenB */\n      0x03\n      0x00\n      swap1\n      sload\n      swap1\n      0x0100\n      exp\n      swap1\n      div\n      0xffffffffffffffffffffffffffffffffffffffff\n      and\n        /* \"Modulo3/TrabalhoFinal/SimpleDex.sol\":2434:2453  tokenB.transferFrom */\n      0xffffffffffffffffffffffffffffffffffffffff\n      and\n      0x23b872dd\n        /* \"Modulo3/TrabalhoFinal/SimpleDex.sol\":2454:2464  msg.sender */\n      caller\n        /* \"Modulo3/TrabalhoFinal/SimpleDex.sol\":2474:2478  this */\n      address\n        /* \"Modulo3/TrabalhoFinal/SimpleDex.sol\":2481:2490  amountBIn */\n      dup6\n        /* \"Modulo3/TrabalhoFinal/SimpleDex.sol\":2434:2491  tokenB.transferFrom(msg.sender, address(this), amountBIn) */\n      mload(0x40)\n      dup5\n      0xffffffff\n      and\n      0xe0\n      shl\n      dup2\n      mstore\n      0x04\n      add\n      tag_95\n      swap4\n      swap3\n      swap2\n      swap1\n      tag_96\n      jump\t// in\n    tag_95:\n      0x20\n      mload(0x40)\n      dup1\n      dup4\n      sub\n      dup2\n      0x00\n      dup8\n      gas\n      call\n      iszero\n      dup1\n      iszero\n      tag_98\n      jumpi\n      returndatacopy(0x00, 0x00, returndatasize)\n      revert(0x00, returndatasize)\n    tag_98:\n      pop\n      pop\n      pop\n      pop\n      mload(0x40)\n      returndatasize\n      not(0x1f)\n      0x1f\n      dup3\n      add\n      and\n      dup3\n      add\n      dup1\n      0x40\n      mstore\n      pop\n      dup2\n      add\n      swap1\n      tag_99\n      swap2\n      swap1\n      tag_100\n      jump\t// in\n    tag_99:\n      pop\n        /* \"Modulo3/TrabalhoFinal/SimpleDex.sol\":2501:2507  tokenA */\n      0x02\n      0x00\n      swap1\n      sload\n      swap1\n      0x0100\n      exp\n      swap1\n      div\n      0xffffffffffffffffffffffffffffffffffffffff\n      and\n        /* \"Modulo3/TrabalhoFinal/SimpleDex.sol\":2501:2516  tokenA.transfer */\n      0xffffffffffffffffffffffffffffffffffffffff\n      and\n      0xa9059cbb\n        /* \"Modulo3/TrabalhoFinal/SimpleDex.sol\":2517:2527  msg.sender */\n      caller\n        /* \"Modulo3/TrabalhoFinal/SimpleDex.sol\":2529:2539  amountAOut */\n      dup4\n        /* \"Modulo3/TrabalhoFinal/SimpleDex.sol\":2501:2540  tokenA.transfer(msg.sender, amountAOut) */\n      mload(0x40)\n      dup4\n      0xffffffff\n      and\n      0xe0\n      shl\n      dup2\n      mstore\n      0x04\n      add\n      tag_101\n      swap3\n      swap2\n      swap1\n      tag_102\n      jump\t// in\n    tag_101:\n      0x20\n      mload(0x40)\n      dup1\n      dup4\n      sub\n      dup2\n      0x00\n      dup8\n      gas\n      call\n      iszero\n      dup1\n      iszero\n      tag_104\n      jumpi\n      returndatacopy(0x00, 0x00, returndatasize)\n      revert(0x00, returndatasize)\n    tag_104:\n      pop\n      pop\n      pop\n      pop\n      mload(0x40)\n      returndatasize\n      not(0x1f)\n      0x1f\n      dup3\n      add\n      and\n      dup3\n      add\n      dup1\n      0x40\n      mstore\n      pop\n      dup2\n      add\n      swap1\n      tag_105\n      swap2\n      swap1\n      tag_100\n      jump\t// in\n    tag_105:\n      pop\n        /* \"Modulo3/TrabalhoFinal/SimpleDex.sol\":2562:2571  amountBIn */\n      dup2\n        /* \"Modulo3/TrabalhoFinal/SimpleDex.sol\":2550:2558  reserveB */\n      0x05\n      0x00\n        /* \"Modulo3/TrabalhoFinal/SimpleDex.sol\":2550:2571  reserveB += amountBIn */\n      dup3\n      dup3\n      sload\n      tag_106\n      swap2\n      swap1\n      tag_107\n      jump\t// in\n    tag_106:\n      swap3\n      pop\n      pop\n      dup2\n      swap1\n      sstore\n      pop\n        /* \"Modulo3/TrabalhoFinal/SimpleDex.sol\":2593:2603  amountAOut */\n      dup1\n        /* \"Modulo3/TrabalhoFinal/SimpleDex.sol\":2581:2589  reserveA */\n      0x04\n      0x00\n        /* \"Modulo3/TrabalhoFinal/SimpleDex.sol\":2581:2603  reserveA -= amountAOut */\n      dup3\n      dup3\n      sload\n      tag_108\n      swap2\n      swap1\n      tag_109\n      jump\t// in\n    tag_108:\n      swap3\n      pop\n      pop\n      dup2\n      swap1\n      sstore\n      pop\n        /* \"Modulo3/TrabalhoFinal/SimpleDex.sol\":2618:2654  swap(\"BforA\", amountBIn, amountAOut) */\n      0x99151d1285a42a31514afc05d8341521a9e02f4d15fe80d8cd617dd0e6330c3b\n        /* \"Modulo3/TrabalhoFinal/SimpleDex.sol\":2632:2641  amountBIn */\n      dup3\n        /* \"Modulo3/TrabalhoFinal/SimpleDex.sol\":2643:2653  amountAOut */\n      dup3\n        /* \"Modulo3/TrabalhoFinal/SimpleDex.sol\":2618:2654  swap(\"BforA\", amountBIn, amountAOut) */\n      mload(0x40)\n      tag_110\n      swap3\n      swap2\n      swap1\n      tag_111\n      jump\t// in\n    tag_110:\n      mload(0x40)\n      dup1\n      swap2\n      sub\n      swap1\n      log1\n        /* \"Modulo3/TrabalhoFinal/SimpleDex.sol\":2127:2661  {... */\n      pop\n        /* \"@openzeppelin/contracts/security/ReentrancyGuard.sol\":2303:2323  _nonReentrantAfter() */\n      tag_112\n        /* \"@openzeppelin/contracts/security/ReentrancyGuard.sol\":2303:2321  _nonReentrantAfter */\n      tag_113\n        /* \"@openzeppelin/contracts/security/ReentrancyGuard.sol\":2303:2323  _nonReentrantAfter() */\n      jump\t// in\n    tag_112:\n        /* \"Modulo3/TrabalhoFinal/SimpleDex.sol\":2068:2661  function swapBforA(uint256 amountBIn) external nonReentrant{... */\n      pop\n      jump\t// out\n        /* \"@openzeppelin/contracts/access/Ownable.sol\":1638:1723  function owner() public view virtual returns (address) {... */\n    tag_39:\n        /* \"@openzeppelin/contracts/access/Ownable.sol\":1684:1691  address */\n      0x00\n        /* \"@openzeppelin/contracts/access/Ownable.sol\":1710:1716  _owner */\n      0x00\n      0x00\n      swap1\n      sload\n      swap1\n      0x0100\n      exp\n      swap1\n      div\n      0xffffffffffffffffffffffffffffffffffffffff\n      and\n        /* \"@openzeppelin/contracts/access/Ownable.sol\":1703:1716  return _owner */\n      swap1\n      pop\n        /* \"@openzeppelin/contracts/access/Ownable.sol\":1638:1723  function owner() public view virtual returns (address) {... */\n      swap1\n      jump\t// out\n        /* \"Modulo3/TrabalhoFinal/SimpleDex.sol\":684:1084  function addLiquidity(uint256 amountA, uint256 amountB) external onlyOwner{... */\n    tag_45:\n        /* \"@openzeppelin/contracts/access/Ownable.sol\":1531:1544  _checkOwner() */\n      tag_116\n        /* \"@openzeppelin/contracts/access/Ownable.sol\":1531:1542  _checkOwner */\n      tag_75\n        /* \"@openzeppelin/contracts/access/Ownable.sol\":1531:1544  _checkOwner() */\n      jump\t// in\n    tag_116:\n        /* \"Modulo3/TrabalhoFinal/SimpleDex.sol\":786:787  0 */\n      0x00\n        /* \"Modulo3/TrabalhoFinal/SimpleDex.sol\":776:783  amountA */\n      dup3\n        /* \"Modulo3/TrabalhoFinal/SimpleDex.sol\":776:787  amountA > 0 */\n      gt\n        /* \"Modulo3/TrabalhoFinal/SimpleDex.sol\":776:802  amountA > 0 || amountB > 0 */\n      dup1\n      tag_118\n      jumpi\n      pop\n        /* \"Modulo3/TrabalhoFinal/SimpleDex.sol\":801:802  0 */\n      0x00\n        /* \"Modulo3/TrabalhoFinal/SimpleDex.sol\":791:798  amountB */\n      dup2\n        /* \"Modulo3/TrabalhoFinal/SimpleDex.sol\":791:802  amountB > 0 */\n      gt\n        /* \"Modulo3/TrabalhoFinal/SimpleDex.sol\":776:802  amountA > 0 || amountB > 0 */\n    tag_118:\n        /* \"Modulo3/TrabalhoFinal/SimpleDex.sol\":768:840  require(amountA > 0 || amountB > 0, \"Amounts must be greater than zero\") */\n      tag_119\n      jumpi\n      mload(0x40)\n      0x08c379a000000000000000000000000000000000000000000000000000000000\n      dup2\n      mstore\n      0x04\n      add\n      tag_120\n      swap1\n      tag_121\n      jump\t// in\n    tag_120:\n      mload(0x40)\n      dup1\n      swap2\n      sub\n      swap1\n      revert\n    tag_119:\n        /* \"Modulo3/TrabalhoFinal/SimpleDex.sol\":850:856  tokenA */\n      0x02\n      0x00\n      swap1\n      sload\n      swap1\n      0x0100\n      exp\n      swap1\n      div\n      0xffffffffffffffffffffffffffffffffffffffff\n      and\n        /* \"Modulo3/TrabalhoFinal/SimpleDex.sol\":850:869  tokenA.transferFrom */\n      0xffffffffffffffffffffffffffffffffffffffff\n      and\n      0x23b872dd\n        /* \"Modulo3/TrabalhoFinal/SimpleDex.sol\":870:880  msg.sender */\n      caller\n        /* \"Modulo3/TrabalhoFinal/SimpleDex.sol\":890:894  this */\n      address\n        /* \"Modulo3/TrabalhoFinal/SimpleDex.sol\":897:904  amountA */\n      dup6\n        /* \"Modulo3/TrabalhoFinal/SimpleDex.sol\":850:905  tokenA.transferFrom(msg.sender, address(this), amountA) */\n      mload(0x40)\n      dup5\n      0xffffffff\n      and\n      0xe0\n      shl\n      dup2\n      mstore\n      0x04\n      add\n      tag_122\n      swap4\n      swap3\n      swap2\n      swap1\n      tag_96\n      jump\t// in\n    tag_122:\n      0x20\n      mload(0x40)\n      dup1\n      dup4\n      sub\n      dup2\n      0x00\n      dup8\n      gas\n      call\n      iszero\n      dup1\n      iszero\n      tag_124\n      jumpi\n      returndatacopy(0x00, 0x00, returndatasize)\n      revert(0x00, returndatasize)\n    tag_124:\n      pop\n      pop\n      pop\n      pop\n      mload(0x40)\n      returndatasize\n      not(0x1f)\n      0x1f\n      dup3\n      add\n      and\n      dup3\n      add\n      dup1\n      0x40\n      mstore\n      pop\n      dup2\n      add\n      swap1\n      tag_125\n      swap2\n      swap1\n      tag_100\n      jump\t// in\n    tag_125:\n      pop\n        /* \"Modulo3/TrabalhoFinal/SimpleDex.sol\":915:921  tokenB */\n      0x03\n      0x00\n      swap1\n      sload\n      swap1\n      0x0100\n      exp\n      swap1\n      div\n      0xffffffffffffffffffffffffffffffffffffffff\n      and\n        /* \"Modulo3/TrabalhoFinal/SimpleDex.sol\":915:934  tokenB.transferFrom */\n      0xffffffffffffffffffffffffffffffffffffffff\n      and\n      0x23b872dd\n        /* \"Modulo3/TrabalhoFinal/SimpleDex.sol\":935:945  msg.sender */\n      caller\n        /* \"Modulo3/TrabalhoFinal/SimpleDex.sol\":955:959  this */\n      address\n        /* \"Modulo3/TrabalhoFinal/SimpleDex.sol\":962:969  amountB */\n      dup5\n        /* \"Modulo3/TrabalhoFinal/SimpleDex.sol\":915:970  tokenB.transferFrom(msg.sender, address(this), amountB) */\n      mload(0x40)\n      dup5\n      0xffffffff\n      and\n      0xe0\n      shl\n      dup2\n      mstore\n      0x04\n      add\n      tag_126\n      swap4\n      swap3\n      swap2\n      swap1\n      tag_96\n      jump\t// in\n    tag_126:\n      0x20\n      mload(0x40)\n      dup1\n      dup4\n      sub\n      dup2\n      0x00\n      dup8\n      gas\n      call\n      iszero\n      dup1\n      iszero\n      tag_128\n      jumpi\n      returndatacopy(0x00, 0x00, returndatasize)\n      revert(0x00, returndatasize)\n    tag_128:\n      pop\n      pop\n      pop\n      pop\n      mload(0x40)\n      returndatasize\n      not(0x1f)\n      0x1f\n      dup3\n      add\n      and\n      dup3\n      add\n      dup1\n      0x40\n      mstore\n      pop\n      dup2\n      add\n      swap1\n      tag_129\n      swap2\n      swap1\n      tag_100\n      jump\t// in\n    tag_129:\n      pop\n        /* \"Modulo3/TrabalhoFinal/SimpleDex.sol\":992:999  amountA */\n      dup2\n        /* \"Modulo3/TrabalhoFinal/SimpleDex.sol\":980:988  reserveA */\n      0x04\n      0x00\n        /* \"Modulo3/TrabalhoFinal/SimpleDex.sol\":980:999  reserveA += amountA */\n      dup3\n      dup3\n      sload\n      tag_130\n      swap2\n      swap1\n      tag_107\n      jump\t// in\n    tag_130:\n      swap3\n      pop\n      pop\n      dup2\n      swap1\n      sstore\n      pop\n        /* \"Modulo3/TrabalhoFinal/SimpleDex.sol\":1021:1028  amountB */\n      dup1\n        /* \"Modulo3/TrabalhoFinal/SimpleDex.sol\":1009:1017  reserveB */\n      0x05\n      0x00\n        /* \"Modulo3/TrabalhoFinal/SimpleDex.sol\":1009:1028  reserveB += amountB */\n      dup3\n      dup3\n      sload\n      tag_131\n      swap2\n      swap1\n      tag_107\n      jump\t// in\n    tag_131:\n      swap3\n      pop\n      pop\n      dup2\n      swap1\n      sstore\n      pop\n        /* \"Modulo3/TrabalhoFinal/SimpleDex.sol\":1043:1077  liquidity(\"Add\", amountA, amountB) */\n      0x959b1d93cfbbd38471fd78660c739ffed1589f0ac706cbce37f4d8db90f15b1d\n        /* \"Modulo3/TrabalhoFinal/SimpleDex.sol\":1060:1067  amountA */\n      dup3\n        /* \"Modulo3/TrabalhoFinal/SimpleDex.sol\":1069:1076  amountB */\n      dup3\n        /* \"Modulo3/TrabalhoFinal/SimpleDex.sol\":1043:1077  liquidity(\"Add\", amountA, amountB) */\n      mload(0x40)\n      tag_132\n      swap3\n      swap2\n      swap1\n      tag_133\n      jump\t// in\n    tag_132:\n      mload(0x40)\n      dup1\n      swap2\n      sub\n      swap1\n      log1\n        /* \"Modulo3/TrabalhoFinal/SimpleDex.sol\":684:1084  function addLiquidity(uint256 amountA, uint256 amountB) external onlyOwner{... */\n      pop\n      pop\n      jump\t// out\n        /* \"Modulo3/TrabalhoFinal/SimpleDex.sol\":1090:1463  function removeLiquidity(uint256 amountA, uint256 amountB) external onlyOwner{... */\n    tag_48:\n        /* \"@openzeppelin/contracts/access/Ownable.sol\":1531:1544  _checkOwner() */\n      tag_135\n        /* \"@openzeppelin/contracts/access/Ownable.sol\":1531:1542  _checkOwner */\n      tag_75\n        /* \"@openzeppelin/contracts/access/Ownable.sol\":1531:1544  _checkOwner() */\n      jump\t// in\n    tag_135:\n        /* \"Modulo3/TrabalhoFinal/SimpleDex.sol\":1196:1204  reserveA */\n      sload(0x04)\n        /* \"Modulo3/TrabalhoFinal/SimpleDex.sol\":1185:1192  amountA */\n      dup3\n        /* \"Modulo3/TrabalhoFinal/SimpleDex.sol\":1185:1204  amountA <= reserveA */\n      gt\n      iszero\n        /* \"Modulo3/TrabalhoFinal/SimpleDex.sol\":1185:1227  amountA <= reserveA && amountB <= reserveB */\n      dup1\n      iszero\n      tag_137\n      jumpi\n      pop\n        /* \"Modulo3/TrabalhoFinal/SimpleDex.sol\":1219:1227  reserveB */\n      sload(0x05)\n        /* \"Modulo3/TrabalhoFinal/SimpleDex.sol\":1208:1215  amountB */\n      dup2\n        /* \"Modulo3/TrabalhoFinal/SimpleDex.sol\":1208:1227  amountB <= reserveB */\n      gt\n      iszero\n        /* \"Modulo3/TrabalhoFinal/SimpleDex.sol\":1185:1227  amountA <= reserveA && amountB <= reserveB */\n    tag_137:\n        /* \"Modulo3/TrabalhoFinal/SimpleDex.sol\":1177:1254  require(amountA <= reserveA && amountB <= reserveB, \"Insufficient liquidity\") */\n      tag_138\n      jumpi\n      mload(0x40)\n      0x08c379a000000000000000000000000000000000000000000000000000000000\n      dup2\n      mstore\n      0x04\n      add\n      tag_139\n      swap1\n      tag_140\n      jump\t// in\n    tag_139:\n      mload(0x40)\n      dup1\n      swap2\n      sub\n      swap1\n      revert\n    tag_138:\n        /* \"Modulo3/TrabalhoFinal/SimpleDex.sol\":1276:1283  amountA */\n      dup2\n        /* \"Modulo3/TrabalhoFinal/SimpleDex.sol\":1264:1272  reserveA */\n      0x04\n      0x00\n        /* \"Modulo3/TrabalhoFinal/SimpleDex.sol\":1264:1283  reserveA -= amountA */\n      dup3\n      dup3\n      sload\n      tag_141\n      swap2\n      swap1\n      tag_109\n      jump\t// in\n    tag_141:\n      swap3\n      pop\n      pop\n      dup2\n      swap1\n      sstore\n      pop\n        /* \"Modulo3/TrabalhoFinal/SimpleDex.sol\":1305:1312  amountB */\n      dup1\n        /* \"Modulo3/TrabalhoFinal/SimpleDex.sol\":1293:1301  reserveB */\n      0x05\n      0x00\n        /* \"Modulo3/TrabalhoFinal/SimpleDex.sol\":1293:1312  reserveB -= amountB */\n      dup3\n      dup3\n      sload\n      tag_142\n      swap2\n      swap1\n      tag_109\n      jump\t// in\n    tag_142:\n      swap3\n      pop\n      pop\n      dup2\n      swap1\n      sstore\n      pop\n        /* \"Modulo3/TrabalhoFinal/SimpleDex.sol\":1322:1328  tokenA */\n      0x02\n      0x00\n      swap1\n      sload\n      swap1\n      0x0100\n      exp\n      swap1\n      div\n      0xffffffffffffffffffffffffffffffffffffffff\n      and\n        /* \"Modulo3/TrabalhoFinal/SimpleDex.sol\":1322:1337  tokenA.transfer */\n      0xffffffffffffffffffffffffffffffffffffffff\n      and\n      0xa9059cbb\n        /* \"Modulo3/TrabalhoFinal/SimpleDex.sol\":1338:1348  msg.sender */\n      caller\n        /* \"Modulo3/TrabalhoFinal/SimpleDex.sol\":1350:1357  amountA */\n      dup5\n        /* \"Modulo3/TrabalhoFinal/SimpleDex.sol\":1322:1358  tokenA.transfer(msg.sender, amountA) */\n      mload(0x40)\n      dup4\n      0xffffffff\n      and\n      0xe0\n      shl\n      dup2\n      mstore\n      0x04\n      add\n      tag_143\n      swap3\n      swap2\n      swap1\n      tag_102\n      jump\t// in\n    tag_143:\n      0x20\n      mload(0x40)\n      dup1\n      dup4\n      sub\n      dup2\n      0x00\n      dup8\n      gas\n      call\n      iszero\n      dup1\n      iszero\n      tag_145\n      jumpi\n      returndatacopy(0x00, 0x00, returndatasize)\n      revert(0x00, returndatasize)\n    tag_145:\n      pop\n      pop\n      pop\n      pop\n      mload(0x40)\n      returndatasize\n      not(0x1f)\n      0x1f\n      dup3\n      add\n      and\n      dup3\n      add\n      dup1\n      0x40\n      mstore\n      pop\n      dup2\n      add\n      swap1\n      tag_146\n      swap2\n      swap1\n      tag_100\n      jump\t// in\n    tag_146:\n      pop\n        /* \"Modulo3/TrabalhoFinal/SimpleDex.sol\":1368:1374  tokenB */\n      0x03\n      0x00\n      swap1\n      sload\n      swap1\n      0x0100\n      exp\n      swap1\n      div\n      0xffffffffffffffffffffffffffffffffffffffff\n      and\n        /* \"Modulo3/TrabalhoFinal/SimpleDex.sol\":1368:1383  tokenB.transfer */\n      0xffffffffffffffffffffffffffffffffffffffff\n      and\n      0xa9059cbb\n        /* \"Modulo3/TrabalhoFinal/SimpleDex.sol\":1384:1394  msg.sender */\n      caller\n        /* \"Modulo3/TrabalhoFinal/SimpleDex.sol\":1396:1403  amountB */\n      dup4\n        /* \"Modulo3/TrabalhoFinal/SimpleDex.sol\":1368:1404  tokenB.transfer(msg.sender, amountB) */\n      mload(0x40)\n      dup4\n      0xffffffff\n      and\n      0xe0\n      shl\n      dup2\n      mstore\n      0x04\n      add\n      tag_147\n      swap3\n      swap2\n      swap1\n      tag_102\n      jump\t// in\n    tag_147:\n      0x20\n      mload(0x40)\n      dup1\n      dup4\n      sub\n      dup2\n      0x00\n      dup8\n      gas\n      call\n      iszero\n      dup1\n      iszero\n      tag_149\n      jumpi\n      returndatacopy(0x00, 0x00, returndatasize)\n      revert(0x00, returndatasize)\n    tag_149:\n      pop\n      pop\n      pop\n      pop\n      mload(0x40)\n      returndatasize\n      not(0x1f)\n      0x1f\n      dup3\n      add\n      and\n      dup3\n      add\n      dup1\n      0x40\n      mstore\n      pop\n      dup2\n      add\n      swap1\n      tag_150\n      swap2\n      swap1\n      tag_100\n      jump\t// in\n    tag_150:\n      pop\n        /* \"Modulo3/TrabalhoFinal/SimpleDex.sol\":1419:1456  liquidity(\"Remove\", amountA, amountB) */\n      0x959b1d93cfbbd38471fd78660c739ffed1589f0ac706cbce37f4d8db90f15b1d\n        /* \"Modulo3/TrabalhoFinal/SimpleDex.sol\":1439:1446  amountA */\n      dup3\n        /* \"Modulo3/TrabalhoFinal/SimpleDex.sol\":1448:1455  amountB */\n      dup3\n        /* \"Modulo3/TrabalhoFinal/SimpleDex.sol\":1419:1456  liquidity(\"Remove\", amountA, amountB) */\n      mload(0x40)\n      tag_151\n      swap3\n      swap2\n      swap1\n      tag_152\n      jump\t// in\n    tag_151:\n      mload(0x40)\n      dup1\n      swap2\n      sub\n      swap1\n      log1\n        /* \"Modulo3/TrabalhoFinal/SimpleDex.sol\":1090:1463  function removeLiquidity(uint256 amountA, uint256 amountB) external onlyOwner{... */\n      pop\n      pop\n      jump\t// out\n        /* \"Modulo3/TrabalhoFinal/SimpleDex.sol\":341:364  uint256 public reserveA */\n    tag_50:\n      sload(0x04)\n      dup2\n      jump\t// out\n        /* \"Modulo3/TrabalhoFinal/SimpleDex.sol\":1469:2062  function swapAforB(uint256 amountAIn) external nonReentrant{... */\n    tag_54:\n        /* \"@openzeppelin/contracts/security/ReentrancyGuard.sol\":2261:2282  _nonReentrantBefore() */\n      tag_154\n        /* \"@openzeppelin/contracts/security/ReentrancyGuard.sol\":2261:2280  _nonReentrantBefore */\n      tag_81\n        /* \"@openzeppelin/contracts/security/ReentrancyGuard.sol\":2261:2282  _nonReentrantBefore() */\n      jump\t// in\n    tag_154:\n        /* \"Modulo3/TrabalhoFinal/SimpleDex.sol\":1558:1559  0 */\n      0x00\n        /* \"Modulo3/TrabalhoFinal/SimpleDex.sol\":1546:1555  amountAIn */\n      dup2\n        /* \"Modulo3/TrabalhoFinal/SimpleDex.sol\":1546:1559  amountAIn > 0 */\n      gt\n        /* \"Modulo3/TrabalhoFinal/SimpleDex.sol\":1538:1599  require(amountAIn > 0, \"Amount in must be greater than zero\") */\n      tag_156\n      jumpi\n      mload(0x40)\n      0x08c379a000000000000000000000000000000000000000000000000000000000\n      dup2\n      mstore\n      0x04\n      add\n      tag_157\n      swap1\n      tag_85\n      jump\t// in\n    tag_157:\n      mload(0x40)\n      dup1\n      swap2\n      sub\n      swap1\n      revert\n    tag_156:\n        /* \"Modulo3/TrabalhoFinal/SimpleDex.sol\":1628:1629  0 */\n      0x00\n        /* \"Modulo3/TrabalhoFinal/SimpleDex.sol\":1617:1625  reserveA */\n      sload(0x04)\n        /* \"Modulo3/TrabalhoFinal/SimpleDex.sol\":1617:1629  reserveA > 0 */\n      gt\n        /* \"Modulo3/TrabalhoFinal/SimpleDex.sol\":1617:1645  reserveA > 0 && reserveB > 0 */\n      dup1\n      iszero\n      tag_158\n      jumpi\n      pop\n        /* \"Modulo3/TrabalhoFinal/SimpleDex.sol\":1644:1645  0 */\n      0x00\n        /* \"Modulo3/TrabalhoFinal/SimpleDex.sol\":1633:1641  reserveB */\n      sload(0x05)\n        /* \"Modulo3/TrabalhoFinal/SimpleDex.sol\":1633:1645  reserveB > 0 */\n      gt\n        /* \"Modulo3/TrabalhoFinal/SimpleDex.sol\":1617:1645  reserveA > 0 && reserveB > 0 */\n    tag_158:\n        /* \"Modulo3/TrabalhoFinal/SimpleDex.sol\":1609:1673  require(reserveA > 0 && reserveB > 0, \"Liquidity pool is empty\") */\n      tag_159\n      jumpi\n      mload(0x40)\n      0x08c379a000000000000000000000000000000000000000000000000000000000\n      dup2\n      mstore\n      0x04\n      add\n      tag_160\n      swap1\n      tag_89\n      jump\t// in\n    tag_160:\n      mload(0x40)\n      dup1\n      swap2\n      sub\n      swap1\n      revert\n    tag_159:\n        /* \"Modulo3/TrabalhoFinal/SimpleDex.sol\":1683:1701  uint256 amountBOut */\n      0x00\n        /* \"Modulo3/TrabalhoFinal/SimpleDex.sol\":1704:1747  getAmountOut(amountAIn, reserveA, reserveB) */\n      tag_161\n        /* \"Modulo3/TrabalhoFinal/SimpleDex.sol\":1717:1726  amountAIn */\n      dup3\n        /* \"Modulo3/TrabalhoFinal/SimpleDex.sol\":1728:1736  reserveA */\n      sload(0x04)\n        /* \"Modulo3/TrabalhoFinal/SimpleDex.sol\":1738:1746  reserveB */\n      sload(0x05)\n        /* \"Modulo3/TrabalhoFinal/SimpleDex.sol\":1704:1716  getAmountOut */\n      tag_91\n        /* \"Modulo3/TrabalhoFinal/SimpleDex.sol\":1704:1747  getAmountOut(amountAIn, reserveA, reserveB) */\n      jump\t// in\n    tag_161:\n        /* \"Modulo3/TrabalhoFinal/SimpleDex.sol\":1683:1747  uint256 amountBOut = getAmountOut(amountAIn, reserveA, reserveB) */\n      swap1\n      pop\n        /* \"Modulo3/TrabalhoFinal/SimpleDex.sol\":1777:1787  amountBOut */\n      dup1\n        /* \"Modulo3/TrabalhoFinal/SimpleDex.sol\":1765:1773  reserveB */\n      sload(0x05)\n        /* \"Modulo3/TrabalhoFinal/SimpleDex.sol\":1765:1787  reserveB >= amountBOut */\n      lt\n      iszero\n        /* \"Modulo3/TrabalhoFinal/SimpleDex.sol\":1757:1825  require(reserveB >= amountBOut, \"Not enough liquidity for the swap\") */\n      tag_162\n      jumpi\n      mload(0x40)\n      0x08c379a000000000000000000000000000000000000000000000000000000000\n      dup2\n      mstore\n      0x04\n      add\n      tag_163\n      swap1\n      tag_94\n      jump\t// in\n    tag_163:\n      mload(0x40)\n      dup1\n      swap2\n      sub\n      swap1\n      revert\n    tag_162:\n        /* \"Modulo3/TrabalhoFinal/SimpleDex.sol\":1835:1841  tokenA */\n      0x02\n      0x00\n      swap1\n      sload\n      swap1\n      0x0100\n      exp\n      swap1\n      div\n      0xffffffffffffffffffffffffffffffffffffffff\n      and\n        /* \"Modulo3/TrabalhoFinal/SimpleDex.sol\":1835:1854  tokenA.transferFrom */\n      0xffffffffffffffffffffffffffffffffffffffff\n      and\n      0x23b872dd\n        /* \"Modulo3/TrabalhoFinal/SimpleDex.sol\":1855:1865  msg.sender */\n      caller\n        /* \"Modulo3/TrabalhoFinal/SimpleDex.sol\":1875:1879  this */\n      address\n        /* \"Modulo3/TrabalhoFinal/SimpleDex.sol\":1882:1891  amountAIn */\n      dup6\n        /* \"Modulo3/TrabalhoFinal/SimpleDex.sol\":1835:1892  tokenA.transferFrom(msg.sender, address(this), amountAIn) */\n      mload(0x40)\n      dup5\n      0xffffffff\n      and\n      0xe0\n      shl\n      dup2\n      mstore\n      0x04\n      add\n      tag_164\n      swap4\n      swap3\n      swap2\n      swap1\n      tag_96\n      jump\t// in\n    tag_164:\n      0x20\n      mload(0x40)\n      dup1\n      dup4\n      sub\n      dup2\n      0x00\n      dup8\n      gas\n      call\n      iszero\n      dup1\n      iszero\n      tag_166\n      jumpi\n      returndatacopy(0x00, 0x00, returndatasize)\n      revert(0x00, returndatasize)\n    tag_166:\n      pop\n      pop\n      pop\n      pop\n      mload(0x40)\n      returndatasize\n      not(0x1f)\n      0x1f\n      dup3\n      add\n      and\n      dup3\n      add\n      dup1\n      0x40\n      mstore\n      pop\n      dup2\n      add\n      swap1\n      tag_167\n      swap2\n      swap1\n      tag_100\n      jump\t// in\n    tag_167:\n      pop\n        /* \"Modulo3/TrabalhoFinal/SimpleDex.sol\":1902:1908  tokenB */\n      0x03\n      0x00\n      swap1\n      sload\n      swap1\n      0x0100\n      exp\n      swap1\n      div\n      0xffffffffffffffffffffffffffffffffffffffff\n      and\n        /* \"Modulo3/TrabalhoFinal/SimpleDex.sol\":1902:1917  tokenB.transfer */\n      0xffffffffffffffffffffffffffffffffffffffff\n      and\n      0xa9059cbb\n        /* \"Modulo3/TrabalhoFinal/SimpleDex.sol\":1918:1928  msg.sender */\n      caller\n        /* \"Modulo3/TrabalhoFinal/SimpleDex.sol\":1930:1940  amountBOut */\n      dup4\n        /* \"Modulo3/TrabalhoFinal/SimpleDex.sol\":1902:1941  tokenB.transfer(msg.sender, amountBOut) */\n      mload(0x40)\n      dup4\n      0xffffffff\n      and\n      0xe0\n      shl\n      dup2\n      mstore\n      0x04\n      add\n      tag_168\n      swap3\n      swap2\n      swap1\n      tag_102\n      jump\t// in\n    tag_168:\n      0x20\n      mload(0x40)\n      dup1\n      dup4\n      sub\n      dup2\n      0x00\n      dup8\n      gas\n      call\n      iszero\n      dup1\n      iszero\n      tag_170\n      jumpi\n      returndatacopy(0x00, 0x00, returndatasize)\n      revert(0x00, returndatasize)\n    tag_170:\n      pop\n      pop\n      pop\n      pop\n      mload(0x40)\n      returndatasize\n      not(0x1f)\n      0x1f\n      dup3\n      add\n      and\n      dup3\n      add\n      dup1\n      0x40\n      mstore\n      pop\n      dup2\n      add\n      swap1\n      tag_171\n      swap2\n      swap1\n      tag_100\n      jump\t// in\n    tag_171:\n      pop\n        /* \"Modulo3/TrabalhoFinal/SimpleDex.sol\":1963:1972  amountAIn */\n      dup2\n        /* \"Modulo3/TrabalhoFinal/SimpleDex.sol\":1951:1959  reserveA */\n      0x04\n      0x00\n        /* \"Modulo3/TrabalhoFinal/SimpleDex.sol\":1951:1972  reserveA += amountAIn */\n      dup3\n      dup3\n      sload\n      tag_172\n      swap2\n      swap1\n      tag_107\n      jump\t// in\n    tag_172:\n      swap3\n      pop\n      pop\n      dup2\n      swap1\n      sstore\n      pop\n        /* \"Modulo3/TrabalhoFinal/SimpleDex.sol\":1994:2004  amountBOut */\n      dup1\n        /* \"Modulo3/TrabalhoFinal/SimpleDex.sol\":1982:1990  reserveB */\n      0x05\n      0x00\n        /* \"Modulo3/TrabalhoFinal/SimpleDex.sol\":1982:2004  reserveB -= amountBOut */\n      dup3\n      dup3\n      sload\n      tag_173\n      swap2\n      swap1\n      tag_109\n      jump\t// in\n    tag_173:\n      swap3\n      pop\n      pop\n      dup2\n      swap1\n      sstore\n      pop\n        /* \"Modulo3/TrabalhoFinal/SimpleDex.sol\":2019:2055  swap(\"AforB\", amountAIn, amountBOut) */\n      0x99151d1285a42a31514afc05d8341521a9e02f4d15fe80d8cd617dd0e6330c3b\n        /* \"Modulo3/TrabalhoFinal/SimpleDex.sol\":2033:2042  amountAIn */\n      dup3\n        /* \"Modulo3/TrabalhoFinal/SimpleDex.sol\":2044:2054  amountBOut */\n      dup3\n        /* \"Modulo3/TrabalhoFinal/SimpleDex.sol\":2019:2055  swap(\"AforB\", amountAIn, amountBOut) */\n      mload(0x40)\n      tag_174\n      swap3\n      swap2\n      swap1\n      tag_175\n      jump\t// in\n    tag_174:\n      mload(0x40)\n      dup1\n      swap2\n      sub\n      swap1\n      log1\n        /* \"Modulo3/TrabalhoFinal/SimpleDex.sol\":1528:2062  {... */\n      pop\n        /* \"@openzeppelin/contracts/security/ReentrancyGuard.sol\":2303:2323  _nonReentrantAfter() */\n      tag_176\n        /* \"@openzeppelin/contracts/security/ReentrancyGuard.sol\":2303:2321  _nonReentrantAfter */\n      tag_113\n        /* \"@openzeppelin/contracts/security/ReentrancyGuard.sol\":2303:2323  _nonReentrantAfter() */\n      jump\t// in\n    tag_176:\n        /* \"Modulo3/TrabalhoFinal/SimpleDex.sol\":1469:2062  function swapAforB(uint256 amountAIn) external nonReentrant{... */\n      pop\n      jump\t// out\n        /* \"@openzeppelin/contracts/access/Ownable.sol\":2543:2758  function transferOwnership(address newOwner) public virtual onlyOwner {... */\n    tag_57:\n        /* \"@openzeppelin/contracts/access/Ownable.sol\":1531:1544  _checkOwner() */\n      tag_178\n        /* \"@openzeppelin/contracts/access/Ownable.sol\":1531:1542  _checkOwner */\n      tag_75\n        /* \"@openzeppelin/contracts/access/Ownable.sol\":1531:1544  _checkOwner() */\n      jump\t// in\n    tag_178:\n        /* \"@openzeppelin/contracts/access/Ownable.sol\":2647:2648  0 */\n      0x00\n        /* \"@openzeppelin/contracts/access/Ownable.sol\":2627:2649  newOwner == address(0) */\n      0xffffffffffffffffffffffffffffffffffffffff\n      and\n        /* \"@openzeppelin/contracts/access/Ownable.sol\":2627:2635  newOwner */\n      dup2\n        /* \"@openzeppelin/contracts/access/Ownable.sol\":2627:2649  newOwner == address(0) */\n      0xffffffffffffffffffffffffffffffffffffffff\n      and\n      sub\n        /* \"@openzeppelin/contracts/access/Ownable.sol\":2623:2714  if (newOwner == address(0)) {... */\n      tag_180\n      jumpi\n        /* \"@openzeppelin/contracts/access/Ownable.sol\":2700:2701  0 */\n      0x00\n        /* \"@openzeppelin/contracts/access/Ownable.sol\":2672:2703  OwnableInvalidOwner(address(0)) */\n      mload(0x40)\n      0x1e4fbdf700000000000000000000000000000000000000000000000000000000\n      dup2\n      mstore\n      0x04\n      add\n      tag_181\n      swap2\n      swap1\n      tag_41\n      jump\t// in\n    tag_181:\n      mload(0x40)\n      dup1\n      swap2\n      sub\n      swap1\n      revert\n        /* \"@openzeppelin/contracts/access/Ownable.sol\":2623:2714  if (newOwner == address(0)) {... */\n    tag_180:\n        /* \"@openzeppelin/contracts/access/Ownable.sol\":2723:2751  _transferOwnership(newOwner) */\n      tag_182\n        /* \"@openzeppelin/contracts/access/Ownable.sol\":2742:2750  newOwner */\n      dup2\n        /* \"@openzeppelin/contracts/access/Ownable.sol\":2723:2741  _transferOwnership */\n      tag_78\n        /* \"@openzeppelin/contracts/access/Ownable.sol\":2723:2751  _transferOwnership(newOwner) */\n      jump\t// in\n    tag_182:\n        /* \"@openzeppelin/contracts/access/Ownable.sol\":2543:2758  function transferOwnership(address newOwner) public virtual onlyOwner {... */\n      pop\n      jump\t// out\n        /* \"@openzeppelin/contracts/access/Ownable.sol\":1796:1958  function _checkOwner() internal view virtual {... */\n    tag_75:\n        /* \"@openzeppelin/contracts/access/Ownable.sol\":1866:1878  _msgSender() */\n      tag_184\n        /* \"@openzeppelin/contracts/access/Ownable.sol\":1866:1876  _msgSender */\n      tag_185\n        /* \"@openzeppelin/contracts/access/Ownable.sol\":1866:1878  _msgSender() */\n      jump\t// in\n    tag_184:\n        /* \"@openzeppelin/contracts/access/Ownable.sol\":1855:1878  owner() != _msgSender() */\n      0xffffffffffffffffffffffffffffffffffffffff\n      and\n        /* \"@openzeppelin/contracts/access/Ownable.sol\":1855:1862  owner() */\n      tag_186\n        /* \"@openzeppelin/contracts/access/Ownable.sol\":1855:1860  owner */\n      tag_39\n        /* \"@openzeppelin/contracts/access/Ownable.sol\":1855:1862  owner() */\n      jump\t// in\n    tag_186:\n        /* \"@openzeppelin/contracts/access/Ownable.sol\":1855:1878  owner() != _msgSender() */\n      0xffffffffffffffffffffffffffffffffffffffff\n      and\n      eq\n        /* \"@openzeppelin/contracts/access/Ownable.sol\":1851:1952  if (owner() != _msgSender()) {... */\n      tag_187\n      jumpi\n        /* \"@openzeppelin/contracts/access/Ownable.sol\":1928:1940  _msgSender() */\n      tag_188\n        /* \"@openzeppelin/contracts/access/Ownable.sol\":1928:1938  _msgSender */\n      tag_185\n        /* \"@openzeppelin/contracts/access/Ownable.sol\":1928:1940  _msgSender() */\n      jump\t// in\n    tag_188:\n        /* \"@openzeppelin/contracts/access/Ownable.sol\":1901:1941  OwnableUnauthorizedAccount(_msgSender()) */\n      mload(0x40)\n      0x118cdaa700000000000000000000000000000000000000000000000000000000\n      dup2\n      mstore\n      0x04\n      add\n      tag_189\n      swap2\n      swap1\n      tag_41\n      jump\t// in\n    tag_189:\n      mload(0x40)\n      dup1\n      swap2\n      sub\n      swap1\n      revert\n        /* \"@openzeppelin/contracts/access/Ownable.sol\":1851:1952  if (owner() != _msgSender()) {... */\n    tag_187:\n        /* \"@openzeppelin/contracts/access/Ownable.sol\":1796:1958  function _checkOwner() internal view virtual {... */\n      jump\t// out\n        /* \"@openzeppelin/contracts/access/Ownable.sol\":2912:3099  function _transferOwnership(address newOwner) internal virtual {... */\n    tag_78:\n        /* \"@openzeppelin/contracts/access/Ownable.sol\":2985:3001  address oldOwner */\n      0x00\n        /* \"@openzeppelin/contracts/access/Ownable.sol\":3004:3010  _owner */\n      0x00\n      0x00\n      swap1\n      sload\n      swap1\n      0x0100\n      exp\n      swap1\n      div\n      0xffffffffffffffffffffffffffffffffffffffff\n      and\n        /* \"@openzeppelin/contracts/access/Ownable.sol\":2985:3010  address oldOwner = _owner */\n      swap1\n      pop\n        /* \"@openzeppelin/contracts/access/Ownable.sol\":3029:3037  newOwner */\n      dup2\n        /* \"@openzeppelin/contracts/access/Ownable.sol\":3020:3026  _owner */\n      0x00\n      0x00\n        /* \"@openzeppelin/contracts/access/Ownable.sol\":3020:3037  _owner = newOwner */\n      0x0100\n      exp\n      dup2\n      sload\n      dup2\n      0xffffffffffffffffffffffffffffffffffffffff\n      mul\n      not\n      and\n      swap1\n      dup4\n      0xffffffffffffffffffffffffffffffffffffffff\n      and\n      mul\n      or\n      swap1\n      sstore\n      pop\n        /* \"@openzeppelin/contracts/access/Ownable.sol\":3083:3091  newOwner */\n      dup2\n        /* \"@openzeppelin/contracts/access/Ownable.sol\":3052:3092  OwnershipTransferred(oldOwner, newOwner) */\n      0xffffffffffffffffffffffffffffffffffffffff\n      and\n        /* \"@openzeppelin/contracts/access/Ownable.sol\":3073:3081  oldOwner */\n      dup2\n        /* \"@openzeppelin/contracts/access/Ownable.sol\":3052:3092  OwnershipTransferred(oldOwner, newOwner) */\n      0xffffffffffffffffffffffffffffffffffffffff\n      and\n      0x8be0079c531659141344cd1fd0a4f28419497f9722a3daafe3b4186f6b6457e0\n      mload(0x40)\n      mload(0x40)\n      dup1\n      swap2\n      sub\n      swap1\n      log3\n        /* \"@openzeppelin/contracts/access/Ownable.sol\":2975:3099  {... */\n      pop\n        /* \"@openzeppelin/contracts/access/Ownable.sol\":2912:3099  function _transferOwnership(address newOwner) internal virtual {... */\n      pop\n      jump\t// out\n        /* \"@openzeppelin/contracts/security/ReentrancyGuard.sol\":2336:2623  function _nonReentrantBefore() private {... */\n    tag_81:\n        /* \"@openzeppelin/contracts/security/ReentrancyGuard.sol\":1759:1760  2 */\n      0x02\n        /* \"@openzeppelin/contracts/security/ReentrancyGuard.sol\":2468:2475  _status */\n      sload(0x01)\n        /* \"@openzeppelin/contracts/security/ReentrancyGuard.sol\":2468:2487  _status != _ENTERED */\n      sub\n        /* \"@openzeppelin/contracts/security/ReentrancyGuard.sol\":2460:2523  require(_status != _ENTERED, \"ReentrancyGuard: reentrant call\") */\n      tag_192\n      jumpi\n      mload(0x40)\n      0x08c379a000000000000000000000000000000000000000000000000000000000\n      dup2\n      mstore\n      0x04\n      add\n      tag_193\n      swap1\n      tag_194\n      jump\t// in\n    tag_193:\n      mload(0x40)\n      dup1\n      swap2\n      sub\n      swap1\n      revert\n    tag_192:\n        /* \"@openzeppelin/contracts/security/ReentrancyGuard.sol\":1759:1760  2 */\n      0x02\n        /* \"@openzeppelin/contracts/security/ReentrancyGuard.sol\":2598:2605  _status */\n      0x01\n        /* \"@openzeppelin/contracts/security/ReentrancyGuard.sol\":2598:2616  _status = _ENTERED */\n      dup2\n      swap1\n      sstore\n      pop\n        /* \"@openzeppelin/contracts/security/ReentrancyGuard.sol\":2336:2623  function _nonReentrantBefore() private {... */\n      jump\t// out\n        /* \"Modulo3/TrabalhoFinal/SimpleDex.sol\":3087:3606  function getAmountOut(uint256 amountIn, uint256 reserveIn, uint256 reserveOut) internal pure returns (uint256) {... */\n    tag_91:\n        /* \"Modulo3/TrabalhoFinal/SimpleDex.sol\":3189:3196  uint256 */\n      0x00\n        /* \"Modulo3/TrabalhoFinal/SimpleDex.sol\":3228:3229  0 */\n      0x00\n        /* \"Modulo3/TrabalhoFinal/SimpleDex.sol\":3216:3225  reserveIn */\n      dup4\n        /* \"Modulo3/TrabalhoFinal/SimpleDex.sol\":3216:3229  reserveIn > 0 */\n      gt\n        /* \"Modulo3/TrabalhoFinal/SimpleDex.sol\":3216:3247  reserveIn > 0 && reserveOut > 0 */\n      dup1\n      iszero\n      tag_196\n      jumpi\n      pop\n        /* \"Modulo3/TrabalhoFinal/SimpleDex.sol\":3246:3247  0 */\n      0x00\n        /* \"Modulo3/TrabalhoFinal/SimpleDex.sol\":3233:3243  reserveOut */\n      dup3\n        /* \"Modulo3/TrabalhoFinal/SimpleDex.sol\":3233:3247  reserveOut > 0 */\n      gt\n        /* \"Modulo3/TrabalhoFinal/SimpleDex.sol\":3216:3247  reserveIn > 0 && reserveOut > 0 */\n    tag_196:\n        /* \"Modulo3/TrabalhoFinal/SimpleDex.sol\":3208:3290  require(reserveIn > 0 && reserveOut > 0, \"Insufficient liquidity for calculation\") */\n      tag_197\n      jumpi\n      mload(0x40)\n      0x08c379a000000000000000000000000000000000000000000000000000000000\n      dup2\n      mstore\n      0x04\n      add\n      tag_198\n      swap1\n      tag_199\n      jump\t// in\n    tag_198:\n      mload(0x40)\n      dup1\n      swap2\n      sub\n      swap1\n      revert\n    tag_197:\n        /* \"Modulo3/TrabalhoFinal/SimpleDex.sol\":3300:3315  uint256 product */\n      0x00\n        /* \"Modulo3/TrabalhoFinal/SimpleDex.sol\":3330:3340  reserveOut */\n      dup3\n        /* \"Modulo3/TrabalhoFinal/SimpleDex.sol\":3318:3327  reserveIn */\n      dup5\n        /* \"Modulo3/TrabalhoFinal/SimpleDex.sol\":3318:3340  reserveIn * reserveOut */\n      tag_200\n      swap2\n      swap1\n      tag_62\n      jump\t// in\n    tag_200:\n        /* \"Modulo3/TrabalhoFinal/SimpleDex.sol\":3300:3340  uint256 product = reserveIn * reserveOut */\n      swap1\n      pop\n        /* \"Modulo3/TrabalhoFinal/SimpleDex.sol\":3350:3370  uint256 newReserveIn */\n      0x00\n        /* \"Modulo3/TrabalhoFinal/SimpleDex.sol\":3385:3393  amountIn */\n      dup6\n        /* \"Modulo3/TrabalhoFinal/SimpleDex.sol\":3373:3382  reserveIn */\n      dup6\n        /* \"Modulo3/TrabalhoFinal/SimpleDex.sol\":3373:3393  reserveIn + amountIn */\n      tag_201\n      swap2\n      swap1\n      tag_107\n      jump\t// in\n    tag_201:\n        /* \"Modulo3/TrabalhoFinal/SimpleDex.sol\":3350:3393  uint256 newReserveIn = reserveIn + amountIn */\n      swap1\n      pop\n        /* \"Modulo3/TrabalhoFinal/SimpleDex.sol\":3403:3424  uint256 newReserveOut */\n      0x00\n        /* \"Modulo3/TrabalhoFinal/SimpleDex.sol\":3437:3449  newReserveIn */\n      dup2\n        /* \"Modulo3/TrabalhoFinal/SimpleDex.sol\":3427:3434  product */\n      dup4\n        /* \"Modulo3/TrabalhoFinal/SimpleDex.sol\":3427:3449  product / newReserveIn */\n      tag_202\n      swap2\n      swap1\n      tag_64\n      jump\t// in\n    tag_202:\n        /* \"Modulo3/TrabalhoFinal/SimpleDex.sol\":3403:3449  uint256 newReserveOut = product / newReserveIn */\n      swap1\n      pop\n        /* \"Modulo3/TrabalhoFinal/SimpleDex.sol\":3459:3476  uint256 amountOut */\n      0x00\n        /* \"Modulo3/TrabalhoFinal/SimpleDex.sol\":3492:3505  newReserveOut */\n      dup2\n        /* \"Modulo3/TrabalhoFinal/SimpleDex.sol\":3479:3489  reserveOut */\n      dup7\n        /* \"Modulo3/TrabalhoFinal/SimpleDex.sol\":3479:3505  reserveOut - newReserveOut */\n      tag_203\n      swap2\n      swap1\n      tag_109\n      jump\t// in\n    tag_203:\n        /* \"Modulo3/TrabalhoFinal/SimpleDex.sol\":3459:3505  uint256 amountOut = reserveOut - newReserveOut */\n      swap1\n      pop\n        /* \"Modulo3/TrabalhoFinal/SimpleDex.sol\":3535:3536  0 */\n      0x00\n        /* \"Modulo3/TrabalhoFinal/SimpleDex.sol\":3523:3532  amountOut */\n      dup2\n        /* \"Modulo3/TrabalhoFinal/SimpleDex.sol\":3523:3536  amountOut > 0 */\n      gt\n        /* \"Modulo3/TrabalhoFinal/SimpleDex.sol\":3515:3573  require(amountOut > 0, \"Calculated output amount is zero\") */\n      tag_204\n      jumpi\n      mload(0x40)\n      0x08c379a000000000000000000000000000000000000000000000000000000000\n      dup2\n      mstore\n      0x04\n      add\n      tag_205\n      swap1\n      tag_206\n      jump\t// in\n    tag_205:\n      mload(0x40)\n      dup1\n      swap2\n      sub\n      swap1\n      revert\n    tag_204:\n        /* \"Modulo3/TrabalhoFinal/SimpleDex.sol\":3590:3599  amountOut */\n      dup1\n        /* \"Modulo3/TrabalhoFinal/SimpleDex.sol\":3583:3599  return amountOut */\n      swap5\n      pop\n      pop\n      pop\n      pop\n      pop\n        /* \"Modulo3/TrabalhoFinal/SimpleDex.sol\":3087:3606  function getAmountOut(uint256 amountIn, uint256 reserveIn, uint256 reserveOut) internal pure returns (uint256) {... */\n      swap4\n      swap3\n      pop\n      pop\n      pop\n      jump\t// out\n        /* \"@openzeppelin/contracts/security/ReentrancyGuard.sol\":2629:2838  function _nonReentrantAfter() private {... */\n    tag_113:\n        /* \"@openzeppelin/contracts/security/ReentrancyGuard.sol\":1716:1717  1 */\n      0x01\n        /* \"@openzeppelin/contracts/security/ReentrancyGuard.sol\":2809:2816  _status */\n      dup1\n        /* \"@openzeppelin/contracts/security/ReentrancyGuard.sol\":2809:2831  _status = _NOT_ENTERED */\n      dup2\n      swap1\n      sstore\n      pop\n        /* \"@openzeppelin/contracts/security/ReentrancyGuard.sol\":2629:2838  function _nonReentrantAfter() private {... */\n      jump\t// out\n        /* \"@openzeppelin/contracts/utils/Context.sol\":656:752  function _msgSender() internal view virtual returns (address) {... */\n    tag_185:\n        /* \"@openzeppelin/contracts/utils/Context.sol\":709:716  address */\n      0x00\n        /* \"@openzeppelin/contracts/utils/Context.sol\":735:745  msg.sender */\n      caller\n        /* \"@openzeppelin/contracts/utils/Context.sol\":728:745  return msg.sender */\n      swap1\n      pop\n        /* \"@openzeppelin/contracts/utils/Context.sol\":656:752  function _msgSender() internal view virtual returns (address) {... */\n      swap1\n      jump\t// out\n        /* \"#utility.yul\":7:133   */\n    tag_209:\n        /* \"#utility.yul\":44:51   */\n      0x00\n        /* \"#utility.yul\":84:126   */\n      0xffffffffffffffffffffffffffffffffffffffff\n        /* \"#utility.yul\":77:82   */\n      dup3\n        /* \"#utility.yul\":73:127   */\n      and\n        /* \"#utility.yul\":62:127   */\n      swap1\n      pop\n        /* \"#utility.yul\":7:133   */\n      swap2\n      swap1\n      pop\n      jump\t// out\n        /* \"#utility.yul\":139:199   */\n    tag_210:\n        /* \"#utility.yul\":167:170   */\n      0x00\n        /* \"#utility.yul\":188:193   */\n      dup2\n        /* \"#utility.yul\":181:193   */\n      swap1\n      pop\n        /* \"#utility.yul\":139:199   */\n      swap2\n      swap1\n      pop\n      jump\t// out\n        /* \"#utility.yul\":205:347   */\n    tag_211:\n        /* \"#utility.yul\":255:264   */\n      0x00\n        /* \"#utility.yul\":288:341   */\n      tag_262\n        /* \"#utility.yul\":306:340   */\n      tag_263\n        /* \"#utility.yul\":315:339   */\n      tag_264\n        /* \"#utility.yul\":333:338   */\n      dup5\n        /* \"#utility.yul\":315:339   */\n      tag_209\n      jump\t// in\n    tag_264:\n        /* \"#utility.yul\":306:340   */\n      tag_210\n      jump\t// in\n    tag_263:\n        /* \"#utility.yul\":288:341   */\n      tag_209\n      jump\t// in\n    tag_262:\n        /* \"#utility.yul\":275:341   */\n      swap1\n      pop\n        /* \"#utility.yul\":205:347   */\n      swap2\n      swap1\n      pop\n      jump\t// out\n        /* \"#utility.yul\":353:479   */\n    tag_212:\n        /* \"#utility.yul\":403:412   */\n      0x00\n        /* \"#utility.yul\":436:473   */\n      tag_266\n        /* \"#utility.yul\":467:472   */\n      dup3\n        /* \"#utility.yul\":436:473   */\n      tag_211\n      jump\t// in\n    tag_266:\n        /* \"#utility.yul\":423:473   */\n      swap1\n      pop\n        /* \"#utility.yul\":353:479   */\n      swap2\n      swap1\n      pop\n      jump\t// out\n        /* \"#utility.yul\":485:625   */\n    tag_213:\n        /* \"#utility.yul\":549:558   */\n      0x00\n        /* \"#utility.yul\":582:619   */\n      tag_268\n        /* \"#utility.yul\":613:618   */\n      dup3\n        /* \"#utility.yul\":582:619   */\n      tag_212\n      jump\t// in\n    tag_268:\n        /* \"#utility.yul\":569:619   */\n      swap1\n      pop\n        /* \"#utility.yul\":485:625   */\n      swap2\n      swap1\n      pop\n      jump\t// out\n        /* \"#utility.yul\":631:790   */\n    tag_214:\n        /* \"#utility.yul\":732:783   */\n      tag_270\n        /* \"#utility.yul\":777:782   */\n      dup2\n        /* \"#utility.yul\":732:783   */\n      tag_213\n      jump\t// in\n    tag_270:\n        /* \"#utility.yul\":727:730   */\n      dup3\n        /* \"#utility.yul\":720:784   */\n      mstore\n        /* \"#utility.yul\":631:790   */\n      pop\n      pop\n      jump\t// out\n        /* \"#utility.yul\":796:1046   */\n    tag_19:\n        /* \"#utility.yul\":903:907   */\n      0x00\n        /* \"#utility.yul\":941:943   */\n      0x20\n        /* \"#utility.yul\":930:939   */\n      dup3\n        /* \"#utility.yul\":926:944   */\n      add\n        /* \"#utility.yul\":918:944   */\n      swap1\n      pop\n        /* \"#utility.yul\":954:1039   */\n      tag_272\n        /* \"#utility.yul\":1036:1037   */\n      0x00\n        /* \"#utility.yul\":1025:1034   */\n      dup4\n        /* \"#utility.yul\":1021:1038   */\n      add\n        /* \"#utility.yul\":1012:1018   */\n      dup5\n        /* \"#utility.yul\":954:1039   */\n      tag_214\n      jump\t// in\n    tag_272:\n        /* \"#utility.yul\":796:1046   */\n      swap3\n      swap2\n      pop\n      pop\n      jump\t// out\n        /* \"#utility.yul\":1052:1129   */\n    tag_215:\n        /* \"#utility.yul\":1089:1096   */\n      0x00\n        /* \"#utility.yul\":1118:1123   */\n      dup2\n        /* \"#utility.yul\":1107:1123   */\n      swap1\n      pop\n        /* \"#utility.yul\":1052:1129   */\n      swap2\n      swap1\n      pop\n      jump\t// out\n        /* \"#utility.yul\":1135:1253   */\n    tag_216:\n        /* \"#utility.yul\":1222:1246   */\n      tag_275\n        /* \"#utility.yul\":1240:1245   */\n      dup2\n        /* \"#utility.yul\":1222:1246   */\n      tag_215\n      jump\t// in\n    tag_275:\n        /* \"#utility.yul\":1217:1220   */\n      dup3\n        /* \"#utility.yul\":1210:1247   */\n      mstore\n        /* \"#utility.yul\":1135:1253   */\n      pop\n      pop\n      jump\t// out\n        /* \"#utility.yul\":1259:1481   */\n    tag_23:\n        /* \"#utility.yul\":1352:1356   */\n      0x00\n        /* \"#utility.yul\":1390:1392   */\n      0x20\n        /* \"#utility.yul\":1379:1388   */\n      dup3\n        /* \"#utility.yul\":1375:1393   */\n      add\n        /* \"#utility.yul\":1367:1393   */\n      swap1\n      pop\n        /* \"#utility.yul\":1403:1474   */\n      tag_277\n        /* \"#utility.yul\":1471:1472   */\n      0x00\n        /* \"#utility.yul\":1460:1469   */\n      dup4\n        /* \"#utility.yul\":1456:1473   */\n      add\n        /* \"#utility.yul\":1447:1453   */\n      dup5\n        /* \"#utility.yul\":1403:1474   */\n      tag_216\n      jump\t// in\n    tag_277:\n        /* \"#utility.yul\":1259:1481   */\n      swap3\n      swap2\n      pop\n      pop\n      jump\t// out\n        /* \"#utility.yul\":1568:1685   */\n    tag_218:\n        /* \"#utility.yul\":1677:1678   */\n      0x00\n        /* \"#utility.yul\":1674:1675   */\n      0x00\n        /* \"#utility.yul\":1667:1679   */\n      revert\n        /* \"#utility.yul\":1814:1910   */\n    tag_220:\n        /* \"#utility.yul\":1851:1858   */\n      0x00\n        /* \"#utility.yul\":1880:1904   */\n      tag_282\n        /* \"#utility.yul\":1898:1903   */\n      dup3\n        /* \"#utility.yul\":1880:1904   */\n      tag_209\n      jump\t// in\n    tag_282:\n        /* \"#utility.yul\":1869:1904   */\n      swap1\n      pop\n        /* \"#utility.yul\":1814:1910   */\n      swap2\n      swap1\n      pop\n      jump\t// out\n        /* \"#utility.yul\":1916:2038   */\n    tag_221:\n        /* \"#utility.yul\":1989:2013   */\n      tag_284\n        /* \"#utility.yul\":2007:2012   */\n      dup2\n        /* \"#utility.yul\":1989:2013   */\n      tag_220\n      jump\t// in\n    tag_284:\n        /* \"#utility.yul\":1982:1987   */\n      dup2\n        /* \"#utility.yul\":1979:2014   */\n      eq\n        /* \"#utility.yul\":1969:2032   */\n      tag_285\n      jumpi\n        /* \"#utility.yul\":2028:2029   */\n      0x00\n        /* \"#utility.yul\":2025:2026   */\n      0x00\n        /* \"#utility.yul\":2018:2030   */\n      revert\n        /* \"#utility.yul\":1969:2032   */\n    tag_285:\n        /* \"#utility.yul\":1916:2038   */\n      pop\n      jump\t// out\n        /* \"#utility.yul\":2044:2183   */\n    tag_222:\n        /* \"#utility.yul\":2090:2095   */\n      0x00\n        /* \"#utility.yul\":2128:2134   */\n      dup2\n        /* \"#utility.yul\":2115:2135   */\n      calldataload\n        /* \"#utility.yul\":2106:2135   */\n      swap1\n      pop\n        /* \"#utility.yul\":2144:2177   */\n      tag_287\n        /* \"#utility.yul\":2171:2176   */\n      dup2\n        /* \"#utility.yul\":2144:2177   */\n      tag_221\n      jump\t// in\n    tag_287:\n        /* \"#utility.yul\":2044:2183   */\n      swap3\n      swap2\n      pop\n      pop\n      jump\t// out\n        /* \"#utility.yul\":2189:2518   */\n    tag_26:\n        /* \"#utility.yul\":2248:2254   */\n      0x00\n        /* \"#utility.yul\":2297:2299   */\n      0x20\n        /* \"#utility.yul\":2285:2294   */\n      dup3\n        /* \"#utility.yul\":2276:2283   */\n      dup5\n        /* \"#utility.yul\":2272:2295   */\n      sub\n        /* \"#utility.yul\":2268:2300   */\n      slt\n        /* \"#utility.yul\":2265:2384   */\n      iszero\n      tag_289\n      jumpi\n        /* \"#utility.yul\":2303:2382   */\n      tag_290\n      tag_218\n      jump\t// in\n    tag_290:\n        /* \"#utility.yul\":2265:2384   */\n    tag_289:\n        /* \"#utility.yul\":2423:2424   */\n      0x00\n        /* \"#utility.yul\":2448:2501   */\n      tag_291\n        /* \"#utility.yul\":2493:2500   */\n      dup5\n        /* \"#utility.yul\":2484:2490   */\n      dup3\n        /* \"#utility.yul\":2473:2482   */\n      dup6\n        /* \"#utility.yul\":2469:2491   */\n      add\n        /* \"#utility.yul\":2448:2501   */\n      tag_222\n      jump\t// in\n    tag_291:\n        /* \"#utility.yul\":2438:2501   */\n      swap2\n      pop\n        /* \"#utility.yul\":2394:2511   */\n      pop\n        /* \"#utility.yul\":2189:2518   */\n      swap3\n      swap2\n      pop\n      pop\n      jump\t// out\n        /* \"#utility.yul\":2524:2646   */\n    tag_223:\n        /* \"#utility.yul\":2597:2621   */\n      tag_293\n        /* \"#utility.yul\":2615:2620   */\n      dup2\n        /* \"#utility.yul\":2597:2621   */\n      tag_215\n      jump\t// in\n    tag_293:\n        /* \"#utility.yul\":2590:2595   */\n      dup2\n        /* \"#utility.yul\":2587:2622   */\n      eq\n        /* \"#utility.yul\":2577:2640   */\n      tag_294\n      jumpi\n        /* \"#utility.yul\":2636:2637   */\n      0x00\n        /* \"#utility.yul\":2633:2634   */\n      0x00\n        /* \"#utility.yul\":2626:2638   */\n      revert\n        /* \"#utility.yul\":2577:2640   */\n    tag_294:\n        /* \"#utility.yul\":2524:2646   */\n      pop\n      jump\t// out\n        /* \"#utility.yul\":2652:2791   */\n    tag_224:\n        /* \"#utility.yul\":2698:2703   */\n      0x00\n        /* \"#utility.yul\":2736:2742   */\n      dup2\n        /* \"#utility.yul\":2723:2743   */\n      calldataload\n        /* \"#utility.yul\":2714:2743   */\n      swap1\n      pop\n        /* \"#utility.yul\":2752:2785   */\n      tag_296\n        /* \"#utility.yul\":2779:2784   */\n      dup2\n        /* \"#utility.yul\":2752:2785   */\n      tag_223\n      jump\t// in\n    tag_296:\n        /* \"#utility.yul\":2652:2791   */\n      swap3\n      swap2\n      pop\n      pop\n      jump\t// out\n        /* \"#utility.yul\":2797:3126   */\n    tag_36:\n        /* \"#utility.yul\":2856:2862   */\n      0x00\n        /* \"#utility.yul\":2905:2907   */\n      0x20\n        /* \"#utility.yul\":2893:2902   */\n      dup3\n        /* \"#utility.yul\":2884:2891   */\n      dup5\n        /* \"#utility.yul\":2880:2903   */\n      sub\n        /* \"#utility.yul\":2876:2908   */\n      slt\n        /* \"#utility.yul\":2873:2992   */\n      iszero\n      tag_298\n      jumpi\n        /* \"#utility.yul\":2911:2990   */\n      tag_299\n      tag_218\n      jump\t// in\n    tag_299:\n        /* \"#utility.yul\":2873:2992   */\n    tag_298:\n        /* \"#utility.yul\":3031:3032   */\n      0x00\n        /* \"#utility.yul\":3056:3109   */\n      tag_300\n        /* \"#utility.yul\":3101:3108   */\n      dup5\n        /* \"#utility.yul\":3092:3098   */\n      dup3\n        /* \"#utility.yul\":3081:3090   */\n      dup6\n        /* \"#utility.yul\":3077:3099   */\n      add\n        /* \"#utility.yul\":3056:3109   */\n      tag_224\n      jump\t// in\n    tag_300:\n        /* \"#utility.yul\":3046:3109   */\n      swap2\n      pop\n        /* \"#utility.yul\":3002:3119   */\n      pop\n        /* \"#utility.yul\":2797:3126   */\n      swap3\n      swap2\n      pop\n      pop\n      jump\t// out\n        /* \"#utility.yul\":3132:3250   */\n    tag_225:\n        /* \"#utility.yul\":3219:3243   */\n      tag_302\n        /* \"#utility.yul\":3237:3242   */\n      dup2\n        /* \"#utility.yul\":3219:3243   */\n      tag_220\n      jump\t// in\n    tag_302:\n        /* \"#utility.yul\":3214:3217   */\n      dup3\n        /* \"#utility.yul\":3207:3244   */\n      mstore\n        /* \"#utility.yul\":3132:3250   */\n      pop\n      pop\n      jump\t// out\n        /* \"#utility.yul\":3256:3478   */\n    tag_41:\n        /* \"#utility.yul\":3349:3353   */\n      0x00\n        /* \"#utility.yul\":3387:3389   */\n      0x20\n        /* \"#utility.yul\":3376:3385   */\n      dup3\n        /* \"#utility.yul\":3372:3390   */\n      add\n        /* \"#utility.yul\":3364:3390   */\n      swap1\n      pop\n        /* \"#utility.yul\":3400:3471   */\n      tag_304\n        /* \"#utility.yul\":3468:3469   */\n      0x00\n        /* \"#utility.yul\":3457:3466   */\n      dup4\n        /* \"#utility.yul\":3453:3470   */\n      add\n        /* \"#utility.yul\":3444:3450   */\n      dup5\n        /* \"#utility.yul\":3400:3471   */\n      tag_225\n      jump\t// in\n    tag_304:\n        /* \"#utility.yul\":3256:3478   */\n      swap3\n      swap2\n      pop\n      pop\n      jump\t// out\n        /* \"#utility.yul\":3484:3958   */\n    tag_44:\n        /* \"#utility.yul\":3552:3558   */\n      0x00\n        /* \"#utility.yul\":3560:3566   */\n      0x00\n        /* \"#utility.yul\":3609:3611   */\n      0x40\n        /* \"#utility.yul\":3597:3606   */\n      dup4\n        /* \"#utility.yul\":3588:3595   */\n      dup6\n        /* \"#utility.yul\":3584:3607   */\n      sub\n        /* \"#utility.yul\":3580:3612   */\n      slt\n        /* \"#utility.yul\":3577:3696   */\n      iszero\n      tag_306\n      jumpi\n        /* \"#utility.yul\":3615:3694   */\n      tag_307\n      tag_218\n      jump\t// in\n    tag_307:\n        /* \"#utility.yul\":3577:3696   */\n    tag_306:\n        /* \"#utility.yul\":3735:3736   */\n      0x00\n        /* \"#utility.yul\":3760:3813   */\n      tag_308\n        /* \"#utility.yul\":3805:3812   */\n      dup6\n        /* \"#utility.yul\":3796:3802   */\n      dup3\n        /* \"#utility.yul\":3785:3794   */\n      dup7\n        /* \"#utility.yul\":3781:3803   */\n      add\n        /* \"#utility.yul\":3760:3813   */\n      tag_224\n      jump\t// in\n    tag_308:\n        /* \"#utility.yul\":3750:3813   */\n      swap3\n      pop\n        /* \"#utility.yul\":3706:3823   */\n      pop\n        /* \"#utility.yul\":3862:3864   */\n      0x20\n        /* \"#utility.yul\":3888:3941   */\n      tag_309\n        /* \"#utility.yul\":3933:3940   */\n      dup6\n        /* \"#utility.yul\":3924:3930   */\n      dup3\n        /* \"#utility.yul\":3913:3922   */\n      dup7\n        /* \"#utility.yul\":3909:3931   */\n      add\n        /* \"#utility.yul\":3888:3941   */\n      tag_224\n      jump\t// in\n    tag_309:\n        /* \"#utility.yul\":3878:3941   */\n      swap2\n      pop\n        /* \"#utility.yul\":3833:3951   */\n      pop\n        /* \"#utility.yul\":3484:3958   */\n      swap3\n      pop\n      swap3\n      swap1\n      pop\n      jump\t// out\n        /* \"#utility.yul\":3964:4144   */\n    tag_226:\n        /* \"#utility.yul\":4012:4089   */\n      0x4e487b7100000000000000000000000000000000000000000000000000000000\n        /* \"#utility.yul\":4009:4010   */\n      0x00\n        /* \"#utility.yul\":4002:4090   */\n      mstore\n        /* \"#utility.yul\":4109:4113   */\n      0x11\n        /* \"#utility.yul\":4106:4107   */\n      0x04\n        /* \"#utility.yul\":4099:4114   */\n      mstore\n        /* \"#utility.yul\":4133:4137   */\n      0x24\n        /* \"#utility.yul\":4130:4131   */\n      0x00\n        /* \"#utility.yul\":4123:4138   */\n      revert\n        /* \"#utility.yul\":4150:4560   */\n    tag_62:\n        /* \"#utility.yul\":4190:4197   */\n      0x00\n        /* \"#utility.yul\":4213:4233   */\n      tag_312\n        /* \"#utility.yul\":4231:4232   */\n      dup3\n        /* \"#utility.yul\":4213:4233   */\n      tag_215\n      jump\t// in\n    tag_312:\n        /* \"#utility.yul\":4208:4233   */\n      swap2\n      pop\n        /* \"#utility.yul\":4247:4267   */\n      tag_313\n        /* \"#utility.yul\":4265:4266   */\n      dup4\n        /* \"#utility.yul\":4247:4267   */\n      tag_215\n      jump\t// in\n    tag_313:\n        /* \"#utility.yul\":4242:4267   */\n      swap3\n      pop\n        /* \"#utility.yul\":4302:4303   */\n      dup3\n        /* \"#utility.yul\":4299:4300   */\n      dup3\n        /* \"#utility.yul\":4295:4304   */\n      mul\n        /* \"#utility.yul\":4324:4354   */\n      tag_314\n        /* \"#utility.yul\":4342:4353   */\n      dup2\n        /* \"#utility.yul\":4324:4354   */\n      tag_215\n      jump\t// in\n    tag_314:\n        /* \"#utility.yul\":4313:4354   */\n      swap2\n      pop\n        /* \"#utility.yul\":4503:4504   */\n      dup3\n        /* \"#utility.yul\":4494:4501   */\n      dup3\n        /* \"#utility.yul\":4490:4505   */\n      div\n        /* \"#utility.yul\":4487:4488   */\n      dup5\n        /* \"#utility.yul\":4484:4506   */\n      eq\n        /* \"#utility.yul\":4464:4465   */\n      dup4\n        /* \"#utility.yul\":4457:4466   */\n      iszero\n        /* \"#utility.yul\":4437:4520   */\n      or\n        /* \"#utility.yul\":4414:4553   */\n      tag_315\n      jumpi\n        /* \"#utility.yul\":4533:4551   */\n      tag_316\n      tag_226\n      jump\t// in\n    tag_316:\n        /* \"#utility.yul\":4414:4553   */\n    tag_315:\n        /* \"#utility.yul\":4198:4560   */\n      pop\n        /* \"#utility.yul\":4150:4560   */\n      swap3\n      swap2\n      pop\n      pop\n      jump\t// out\n        /* \"#utility.yul\":4566:4746   */\n    tag_227:\n        /* \"#utility.yul\":4614:4691   */\n      0x4e487b7100000000000000000000000000000000000000000000000000000000\n        /* \"#utility.yul\":4611:4612   */\n      0x00\n        /* \"#utility.yul\":4604:4692   */\n      mstore\n        /* \"#utility.yul\":4711:4715   */\n      0x12\n        /* \"#utility.yul\":4708:4709   */\n      0x04\n        /* \"#utility.yul\":4701:4716   */\n      mstore\n        /* \"#utility.yul\":4735:4739   */\n      0x24\n        /* \"#utility.yul\":4732:4733   */\n      0x00\n        /* \"#utility.yul\":4725:4740   */\n      revert\n        /* \"#utility.yul\":4752:4937   */\n    tag_64:\n        /* \"#utility.yul\":4792:4793   */\n      0x00\n        /* \"#utility.yul\":4809:4829   */\n      tag_319\n        /* \"#utility.yul\":4827:4828   */\n      dup3\n        /* \"#utility.yul\":4809:4829   */\n      tag_215\n      jump\t// in\n    tag_319:\n        /* \"#utility.yul\":4804:4829   */\n      swap2\n      pop\n        /* \"#utility.yul\":4843:4863   */\n      tag_320\n        /* \"#utility.yul\":4861:4862   */\n      dup4\n        /* \"#utility.yul\":4843:4863   */\n      tag_215\n      jump\t// in\n    tag_320:\n        /* \"#utility.yul\":4838:4863   */\n      swap3\n      pop\n        /* \"#utility.yul\":4882:4883   */\n      dup3\n        /* \"#utility.yul\":4872:4907   */\n      tag_321\n      jumpi\n        /* \"#utility.yul\":4887:4905   */\n      tag_322\n      tag_227\n      jump\t// in\n    tag_322:\n        /* \"#utility.yul\":4872:4907   */\n    tag_321:\n        /* \"#utility.yul\":4929:4930   */\n      dup3\n        /* \"#utility.yul\":4926:4927   */\n      dup3\n        /* \"#utility.yul\":4922:4931   */\n      div\n        /* \"#utility.yul\":4917:4931   */\n      swap1\n      pop\n        /* \"#utility.yul\":4752:4937   */\n      swap3\n      swap2\n      pop\n      pop\n      jump\t// out\n        /* \"#utility.yul\":4943:5112   */\n    tag_228:\n        /* \"#utility.yul\":5027:5038   */\n      0x00\n        /* \"#utility.yul\":5061:5067   */\n      dup3\n        /* \"#utility.yul\":5056:5059   */\n      dup3\n        /* \"#utility.yul\":5049:5068   */\n      mstore\n        /* \"#utility.yul\":5101:5105   */\n      0x20\n        /* \"#utility.yul\":5096:5099   */\n      dup3\n        /* \"#utility.yul\":5092:5106   */\n      add\n        /* \"#utility.yul\":5077:5106   */\n      swap1\n      pop\n        /* \"#utility.yul\":4943:5112   */\n      swap3\n      swap2\n      pop\n      pop\n      jump\t// out\n        /* \"#utility.yul\":5118:5289   */\n    tag_229:\n        /* \"#utility.yul\":5258:5281   */\n      0x496e76616c696420746f6b656e20616464726573730000000000000000000000\n        /* \"#utility.yul\":5254:5255   */\n      0x00\n        /* \"#utility.yul\":5246:5252   */\n      dup3\n        /* \"#utility.yul\":5242:5256   */\n      add\n        /* \"#utility.yul\":5235:5282   */\n      mstore\n        /* \"#utility.yul\":5118:5289   */\n      pop\n      jump\t// out\n        /* \"#utility.yul\":5295:5661   */\n    tag_230:\n        /* \"#utility.yul\":5437:5440   */\n      0x00\n        /* \"#utility.yul\":5458:5525   */\n      tag_326\n        /* \"#utility.yul\":5522:5524   */\n      0x15\n        /* \"#utility.yul\":5517:5520   */\n      dup4\n        /* \"#utility.yul\":5458:5525   */\n      tag_228\n      jump\t// in\n    tag_326:\n        /* \"#utility.yul\":5451:5525   */\n      swap2\n      pop\n        /* \"#utility.yul\":5534:5627   */\n      tag_327\n        /* \"#utility.yul\":5623:5626   */\n      dup3\n        /* \"#utility.yul\":5534:5627   */\n      tag_229\n      jump\t// in\n    tag_327:\n        /* \"#utility.yul\":5652:5654   */\n      0x20\n        /* \"#utility.yul\":5647:5650   */\n      dup3\n        /* \"#utility.yul\":5643:5655   */\n      add\n        /* \"#utility.yul\":5636:5655   */\n      swap1\n      pop\n        /* \"#utility.yul\":5295:5661   */\n      swap2\n      swap1\n      pop\n      jump\t// out\n        /* \"#utility.yul\":5667:6086   */\n    tag_72:\n        /* \"#utility.yul\":5833:5837   */\n      0x00\n        /* \"#utility.yul\":5871:5873   */\n      0x20\n        /* \"#utility.yul\":5860:5869   */\n      dup3\n        /* \"#utility.yul\":5856:5874   */\n      add\n        /* \"#utility.yul\":5848:5874   */\n      swap1\n      pop\n        /* \"#utility.yul\":5920:5929   */\n      dup2\n        /* \"#utility.yul\":5914:5918   */\n      dup2\n        /* \"#utility.yul\":5910:5930   */\n      sub\n        /* \"#utility.yul\":5906:5907   */\n      0x00\n        /* \"#utility.yul\":5895:5904   */\n      dup4\n        /* \"#utility.yul\":5891:5908   */\n      add\n        /* \"#utility.yul\":5884:5931   */\n      mstore\n        /* \"#utility.yul\":5948:6079   */\n      tag_329\n        /* \"#utility.yul\":6074:6078   */\n      dup2\n        /* \"#utility.yul\":5948:6079   */\n      tag_230\n      jump\t// in\n    tag_329:\n        /* \"#utility.yul\":5940:6079   */\n      swap1\n      pop\n        /* \"#utility.yul\":5667:6086   */\n      swap2\n      swap1\n      pop\n      jump\t// out\n        /* \"#utility.yul\":6092:6314   */\n    tag_231:\n        /* \"#utility.yul\":6232:6266   */\n      0x416d6f756e7420696e206d7573742062652067726561746572207468616e207a\n        /* \"#utility.yul\":6228:6229   */\n      0x00\n        /* \"#utility.yul\":6220:6226   */\n      dup3\n        /* \"#utility.yul\":6216:6230   */\n      add\n        /* \"#utility.yul\":6209:6267   */\n      mstore\n        /* \"#utility.yul\":6301:6306   */\n      0x65726f0000000000000000000000000000000000000000000000000000000000\n        /* \"#utility.yul\":6296:6298   */\n      0x20\n        /* \"#utility.yul\":6288:6294   */\n      dup3\n        /* \"#utility.yul\":6284:6299   */\n      add\n        /* \"#utility.yul\":6277:6307   */\n      mstore\n        /* \"#utility.yul\":6092:6314   */\n      pop\n      jump\t// out\n        /* \"#utility.yul\":6320:6686   */\n    tag_232:\n        /* \"#utility.yul\":6462:6465   */\n      0x00\n        /* \"#utility.yul\":6483:6550   */\n      tag_332\n        /* \"#utility.yul\":6547:6549   */\n      0x23\n        /* \"#utility.yul\":6542:6545   */\n      dup4\n        /* \"#utility.yul\":6483:6550   */\n      tag_228\n      jump\t// in\n    tag_332:\n        /* \"#utility.yul\":6476:6550   */\n      swap2\n      pop\n        /* \"#utility.yul\":6559:6652   */\n      tag_333\n        /* \"#utility.yul\":6648:6651   */\n      dup3\n        /* \"#utility.yul\":6559:6652   */\n      tag_231\n      jump\t// in\n    tag_333:\n        /* \"#utility.yul\":6677:6679   */\n      0x40\n        /* \"#utility.yul\":6672:6675   */\n      dup3\n        /* \"#utility.yul\":6668:6680   */\n      add\n        /* \"#utility.yul\":6661:6680   */\n      swap1\n      pop\n        /* \"#utility.yul\":6320:6686   */\n      swap2\n      swap1\n      pop\n      jump\t// out\n        /* \"#utility.yul\":6692:7111   */\n    tag_85:\n        /* \"#utility.yul\":6858:6862   */\n      0x00\n        /* \"#utility.yul\":6896:6898   */\n      0x20\n        /* \"#utility.yul\":6885:6894   */\n      dup3\n        /* \"#utility.yul\":6881:6899   */\n      add\n        /* \"#utility.yul\":6873:6899   */\n      swap1\n      pop\n        /* \"#utility.yul\":6945:6954   */\n      dup2\n        /* \"#utility.yul\":6939:6943   */\n      dup2\n        /* \"#utility.yul\":6935:6955   */\n      sub\n        /* \"#utility.yul\":6931:6932   */\n      0x00\n        /* \"#utility.yul\":6920:6929   */\n      dup4\n        /* \"#utility.yul\":6916:6933   */\n      add\n        /* \"#utility.yul\":6909:6956   */\n      mstore\n        /* \"#utility.yul\":6973:7104   */\n      tag_335\n        /* \"#utility.yul\":7099:7103   */\n      dup2\n        /* \"#utility.yul\":6973:7104   */\n      tag_232\n      jump\t// in\n    tag_335:\n        /* \"#utility.yul\":6965:7104   */\n      swap1\n      pop\n        /* \"#utility.yul\":6692:7111   */\n      swap2\n      swap1\n      pop\n      jump\t// out\n        /* \"#utility.yul\":7117:7290   */\n    tag_233:\n        /* \"#utility.yul\":7257:7282   */\n      0x4c697175696469747920706f6f6c20697320656d707479000000000000000000\n        /* \"#utility.yul\":7253:7254   */\n      0x00\n        /* \"#utility.yul\":7245:7251   */\n      dup3\n        /* \"#utility.yul\":7241:7255   */\n      add\n        /* \"#utility.yul\":7234:7283   */\n      mstore\n        /* \"#utility.yul\":7117:7290   */\n      pop\n      jump\t// out\n        /* \"#utility.yul\":7296:7662   */\n    tag_234:\n        /* \"#utility.yul\":7438:7441   */\n      0x00\n        /* \"#utility.yul\":7459:7526   */\n      tag_338\n        /* \"#utility.yul\":7523:7525   */\n      0x17\n        /* \"#utility.yul\":7518:7521   */\n      dup4\n        /* \"#utility.yul\":7459:7526   */\n      tag_228\n      jump\t// in\n    tag_338:\n        /* \"#utility.yul\":7452:7526   */\n      swap2\n      pop\n        /* \"#utility.yul\":7535:7628   */\n      tag_339\n        /* \"#utility.yul\":7624:7627   */\n      dup3\n        /* \"#utility.yul\":7535:7628   */\n      tag_233\n      jump\t// in\n    tag_339:\n        /* \"#utility.yul\":7653:7655   */\n      0x20\n        /* \"#utility.yul\":7648:7651   */\n      dup3\n        /* \"#utility.yul\":7644:7656   */\n      add\n        /* \"#utility.yul\":7637:7656   */\n      swap1\n      pop\n        /* \"#utility.yul\":7296:7662   */\n      swap2\n      swap1\n      pop\n      jump\t// out\n        /* \"#utility.yul\":7668:8087   */\n    tag_89:\n        /* \"#utility.yul\":7834:7838   */\n      0x00\n        /* \"#utility.yul\":7872:7874   */\n      0x20\n        /* \"#utility.yul\":7861:7870   */\n      dup3\n        /* \"#utility.yul\":7857:7875   */\n      add\n        /* \"#utility.yul\":7849:7875   */\n      swap1\n      pop\n        /* \"#utility.yul\":7921:7930   */\n      dup2\n        /* \"#utility.yul\":7915:7919   */\n      dup2\n        /* \"#utility.yul\":7911:7931   */\n      sub\n        /* \"#utility.yul\":7907:7908   */\n      0x00\n        /* \"#utility.yul\":7896:7905   */\n      dup4\n        /* \"#utility.yul\":7892:7909   */\n      add\n        /* \"#utility.yul\":7885:7932   */\n      mstore\n        /* \"#utility.yul\":7949:8080   */\n      tag_341\n        /* \"#utility.yul\":8075:8079   */\n      dup2\n        /* \"#utility.yul\":7949:8080   */\n      tag_234\n      jump\t// in\n    tag_341:\n        /* \"#utility.yul\":7941:8080   */\n      swap1\n      pop\n        /* \"#utility.yul\":7668:8087   */\n      swap2\n      swap1\n      pop\n      jump\t// out\n        /* \"#utility.yul\":8093:8313   */\n    tag_235:\n        /* \"#utility.yul\":8233:8267   */\n      0x4e6f7420656e6f756768206c697175696469747920666f722074686520737761\n        /* \"#utility.yul\":8229:8230   */\n      0x00\n        /* \"#utility.yul\":8221:8227   */\n      dup3\n        /* \"#utility.yul\":8217:8231   */\n      add\n        /* \"#utility.yul\":8210:8268   */\n      mstore\n        /* \"#utility.yul\":8302:8305   */\n      0x7000000000000000000000000000000000000000000000000000000000000000\n        /* \"#utility.yul\":8297:8299   */\n      0x20\n        /* \"#utility.yul\":8289:8295   */\n      dup3\n        /* \"#utility.yul\":8285:8300   */\n      add\n        /* \"#utility.yul\":8278:8306   */\n      mstore\n        /* \"#utility.yul\":8093:8313   */\n      pop\n      jump\t// out\n        /* \"#utility.yul\":8319:8685   */\n    tag_236:\n        /* \"#utility.yul\":8461:8464   */\n      0x00\n        /* \"#utility.yul\":8482:8549   */\n      tag_344\n        /* \"#utility.yul\":8546:8548   */\n      0x21\n        /* \"#utility.yul\":8541:8544   */\n      dup4\n        /* \"#utility.yul\":8482:8549   */\n      tag_228\n      jump\t// in\n    tag_344:\n        /* \"#utility.yul\":8475:8549   */\n      swap2\n      pop\n        /* \"#utility.yul\":8558:8651   */\n      tag_345\n        /* \"#utility.yul\":8647:8650   */\n      dup3\n        /* \"#utility.yul\":8558:8651   */\n      tag_235\n      jump\t// in\n    tag_345:\n        /* \"#utility.yul\":8676:8678   */\n      0x40\n        /* \"#utility.yul\":8671:8674   */\n      dup3\n        /* \"#utility.yul\":8667:8679   */\n      add\n        /* \"#utility.yul\":8660:8679   */\n      swap1\n      pop\n        /* \"#utility.yul\":8319:8685   */\n      swap2\n      swap1\n      pop\n      jump\t// out\n        /* \"#utility.yul\":8691:9110   */\n    tag_94:\n        /* \"#utility.yul\":8857:8861   */\n      0x00\n        /* \"#utility.yul\":8895:8897   */\n      0x20\n        /* \"#utility.yul\":8884:8893   */\n      dup3\n        /* \"#utility.yul\":8880:8898   */\n      add\n        /* \"#utility.yul\":8872:8898   */\n      swap1\n      pop\n        /* \"#utility.yul\":8944:8953   */\n      dup2\n        /* \"#utility.yul\":8938:8942   */\n      dup2\n        /* \"#utility.yul\":8934:8954   */\n      sub\n        /* \"#utility.yul\":8930:8931   */\n      0x00\n        /* \"#utility.yul\":8919:8928   */\n      dup4\n        /* \"#utility.yul\":8915:8932   */\n      add\n        /* \"#utility.yul\":8908:8955   */\n      mstore\n        /* \"#utility.yul\":8972:9103   */\n      tag_347\n        /* \"#utility.yul\":9098:9102   */\n      dup2\n        /* \"#utility.yul\":8972:9103   */\n      tag_236\n      jump\t// in\n    tag_347:\n        /* \"#utility.yul\":8964:9103   */\n      swap1\n      pop\n        /* \"#utility.yul\":8691:9110   */\n      swap2\n      swap1\n      pop\n      jump\t// out\n        /* \"#utility.yul\":9116:9558   */\n    tag_96:\n        /* \"#utility.yul\":9265:9269   */\n      0x00\n        /* \"#utility.yul\":9303:9305   */\n      0x60\n        /* \"#utility.yul\":9292:9301   */\n      dup3\n        /* \"#utility.yul\":9288:9306   */\n      add\n        /* \"#utility.yul\":9280:9306   */\n      swap1\n      pop\n        /* \"#utility.yul\":9316:9387   */\n      tag_349\n        /* \"#utility.yul\":9384:9385   */\n      0x00\n        /* \"#utility.yul\":9373:9382   */\n      dup4\n        /* \"#utility.yul\":9369:9386   */\n      add\n        /* \"#utility.yul\":9360:9366   */\n      dup7\n        /* \"#utility.yul\":9316:9387   */\n      tag_225\n      jump\t// in\n    tag_349:\n        /* \"#utility.yul\":9397:9469   */\n      tag_350\n        /* \"#utility.yul\":9465:9467   */\n      0x20\n        /* \"#utility.yul\":9454:9463   */\n      dup4\n        /* \"#utility.yul\":9450:9468   */\n      add\n        /* \"#utility.yul\":9441:9447   */\n      dup6\n        /* \"#utility.yul\":9397:9469   */\n      tag_225\n      jump\t// in\n    tag_350:\n        /* \"#utility.yul\":9479:9551   */\n      tag_351\n        /* \"#utility.yul\":9547:9549   */\n      0x40\n        /* \"#utility.yul\":9536:9545   */\n      dup4\n        /* \"#utility.yul\":9532:9550   */\n      add\n        /* \"#utility.yul\":9523:9529   */\n      dup5\n        /* \"#utility.yul\":9479:9551   */\n      tag_216\n      jump\t// in\n    tag_351:\n        /* \"#utility.yul\":9116:9558   */\n      swap5\n      swap4\n      pop\n      pop\n      pop\n      pop\n      jump\t// out\n        /* \"#utility.yul\":9564:9654   */\n    tag_237:\n        /* \"#utility.yul\":9598:9605   */\n      0x00\n        /* \"#utility.yul\":9641:9646   */\n      dup2\n        /* \"#utility.yul\":9634:9647   */\n      iszero\n        /* \"#utility.yul\":9627:9648   */\n      iszero\n        /* \"#utility.yul\":9616:9648   */\n      swap1\n      pop\n        /* \"#utility.yul\":9564:9654   */\n      swap2\n      swap1\n      pop\n      jump\t// out\n        /* \"#utility.yul\":9660:9776   */\n    tag_238:\n        /* \"#utility.yul\":9730:9751   */\n      tag_354\n        /* \"#utility.yul\":9745:9750   */\n      dup2\n        /* \"#utility.yul\":9730:9751   */\n      tag_237\n      jump\t// in\n    tag_354:\n        /* \"#utility.yul\":9723:9728   */\n      dup2\n        /* \"#utility.yul\":9720:9752   */\n      eq\n        /* \"#utility.yul\":9710:9770   */\n      tag_355\n      jumpi\n        /* \"#utility.yul\":9766:9767   */\n      0x00\n        /* \"#utility.yul\":9763:9764   */\n      0x00\n        /* \"#utility.yul\":9756:9768   */\n      revert\n        /* \"#utility.yul\":9710:9770   */\n    tag_355:\n        /* \"#utility.yul\":9660:9776   */\n      pop\n      jump\t// out\n        /* \"#utility.yul\":9782:9919   */\n    tag_239:\n        /* \"#utility.yul\":9836:9841   */\n      0x00\n        /* \"#utility.yul\":9867:9873   */\n      dup2\n        /* \"#utility.yul\":9861:9874   */\n      mload\n        /* \"#utility.yul\":9852:9874   */\n      swap1\n      pop\n        /* \"#utility.yul\":9883:9913   */\n      tag_357\n        /* \"#utility.yul\":9907:9912   */\n      dup2\n        /* \"#utility.yul\":9883:9913   */\n      tag_238\n      jump\t// in\n    tag_357:\n        /* \"#utility.yul\":9782:9919   */\n      swap3\n      swap2\n      pop\n      pop\n      jump\t// out\n        /* \"#utility.yul\":9925:10270   */\n    tag_100:\n        /* \"#utility.yul\":9992:9998   */\n      0x00\n        /* \"#utility.yul\":10041:10043   */\n      0x20\n        /* \"#utility.yul\":10029:10038   */\n      dup3\n        /* \"#utility.yul\":10020:10027   */\n      dup5\n        /* \"#utility.yul\":10016:10039   */\n      sub\n        /* \"#utility.yul\":10012:10044   */\n      slt\n        /* \"#utility.yul\":10009:10128   */\n      iszero\n      tag_359\n      jumpi\n        /* \"#utility.yul\":10047:10126   */\n      tag_360\n      tag_218\n      jump\t// in\n    tag_360:\n        /* \"#utility.yul\":10009:10128   */\n    tag_359:\n        /* \"#utility.yul\":10167:10168   */\n      0x00\n        /* \"#utility.yul\":10192:10253   */\n      tag_361\n        /* \"#utility.yul\":10245:10252   */\n      dup5\n        /* \"#utility.yul\":10236:10242   */\n      dup3\n        /* \"#utility.yul\":10225:10234   */\n      dup6\n        /* \"#utility.yul\":10221:10243   */\n      add\n        /* \"#utility.yul\":10192:10253   */\n      tag_239\n      jump\t// in\n    tag_361:\n        /* \"#utility.yul\":10182:10253   */\n      swap2\n      pop\n        /* \"#utility.yul\":10138:10263   */\n      pop\n        /* \"#utility.yul\":9925:10270   */\n      swap3\n      swap2\n      pop\n      pop\n      jump\t// out\n        /* \"#utility.yul\":10276:10608   */\n    tag_102:\n        /* \"#utility.yul\":10397:10401   */\n      0x00\n        /* \"#utility.yul\":10435:10437   */\n      0x40\n        /* \"#utility.yul\":10424:10433   */\n      dup3\n        /* \"#utility.yul\":10420:10438   */\n      add\n        /* \"#utility.yul\":10412:10438   */\n      swap1\n      pop\n        /* \"#utility.yul\":10448:10519   */\n      tag_363\n        /* \"#utility.yul\":10516:10517   */\n      0x00\n        /* \"#utility.yul\":10505:10514   */\n      dup4\n        /* \"#utility.yul\":10501:10518   */\n      add\n        /* \"#utility.yul\":10492:10498   */\n      dup6\n        /* \"#utility.yul\":10448:10519   */\n      tag_225\n      jump\t// in\n    tag_363:\n        /* \"#utility.yul\":10529:10601   */\n      tag_364\n        /* \"#utility.yul\":10597:10599   */\n      0x20\n        /* \"#utility.yul\":10586:10595   */\n      dup4\n        /* \"#utility.yul\":10582:10600   */\n      add\n        /* \"#utility.yul\":10573:10579   */\n      dup5\n        /* \"#utility.yul\":10529:10601   */\n      tag_216\n      jump\t// in\n    tag_364:\n        /* \"#utility.yul\":10276:10608   */\n      swap4\n      swap3\n      pop\n      pop\n      pop\n      jump\t// out\n        /* \"#utility.yul\":10614:10805   */\n    tag_107:\n        /* \"#utility.yul\":10654:10657   */\n      0x00\n        /* \"#utility.yul\":10673:10693   */\n      tag_366\n        /* \"#utility.yul\":10691:10692   */\n      dup3\n        /* \"#utility.yul\":10673:10693   */\n      tag_215\n      jump\t// in\n    tag_366:\n        /* \"#utility.yul\":10668:10693   */\n      swap2\n      pop\n        /* \"#utility.yul\":10707:10727   */\n      tag_367\n        /* \"#utility.yul\":10725:10726   */\n      dup4\n        /* \"#utility.yul\":10707:10727   */\n      tag_215\n      jump\t// in\n    tag_367:\n        /* \"#utility.yul\":10702:10727   */\n      swap3\n      pop\n        /* \"#utility.yul\":10750:10751   */\n      dup3\n        /* \"#utility.yul\":10747:10748   */\n      dup3\n        /* \"#utility.yul\":10743:10752   */\n      add\n        /* \"#utility.yul\":10736:10752   */\n      swap1\n      pop\n        /* \"#utility.yul\":10771:10774   */\n      dup1\n        /* \"#utility.yul\":10768:10769   */\n      dup3\n        /* \"#utility.yul\":10765:10775   */\n      gt\n        /* \"#utility.yul\":10762:10798   */\n      iszero\n      tag_368\n      jumpi\n        /* \"#utility.yul\":10778:10796   */\n      tag_369\n      tag_226\n      jump\t// in\n    tag_369:\n        /* \"#utility.yul\":10762:10798   */\n    tag_368:\n        /* \"#utility.yul\":10614:10805   */\n      swap3\n      swap2\n      pop\n      pop\n      jump\t// out\n        /* \"#utility.yul\":10811:11005   */\n    tag_109:\n        /* \"#utility.yul\":10851:10855   */\n      0x00\n        /* \"#utility.yul\":10871:10891   */\n      tag_371\n        /* \"#utility.yul\":10889:10890   */\n      dup3\n        /* \"#utility.yul\":10871:10891   */\n      tag_215\n      jump\t// in\n    tag_371:\n        /* \"#utility.yul\":10866:10891   */\n      swap2\n      pop\n        /* \"#utility.yul\":10905:10925   */\n      tag_372\n        /* \"#utility.yul\":10923:10924   */\n      dup4\n        /* \"#utility.yul\":10905:10925   */\n      tag_215\n      jump\t// in\n    tag_372:\n        /* \"#utility.yul\":10900:10925   */\n      swap3\n      pop\n        /* \"#utility.yul\":10949:10950   */\n      dup3\n        /* \"#utility.yul\":10946:10947   */\n      dup3\n        /* \"#utility.yul\":10942:10951   */\n      sub\n        /* \"#utility.yul\":10934:10951   */\n      swap1\n      pop\n        /* \"#utility.yul\":10973:10974   */\n      dup2\n        /* \"#utility.yul\":10967:10971   */\n      dup2\n        /* \"#utility.yul\":10964:10975   */\n      gt\n        /* \"#utility.yul\":10961:10998   */\n      iszero\n      tag_373\n      jumpi\n        /* \"#utility.yul\":10978:10996   */\n      tag_374\n      tag_226\n      jump\t// in\n    tag_374:\n        /* \"#utility.yul\":10961:10998   */\n    tag_373:\n        /* \"#utility.yul\":10811:11005   */\n      swap3\n      swap2\n      pop\n      pop\n      jump\t// out\n        /* \"#utility.yul\":11011:11166   */\n    tag_240:\n        /* \"#utility.yul\":11151:11158   */\n      0x42666f7241000000000000000000000000000000000000000000000000000000\n        /* \"#utility.yul\":11147:11148   */\n      0x00\n        /* \"#utility.yul\":11139:11145   */\n      dup3\n        /* \"#utility.yul\":11135:11149   */\n      add\n        /* \"#utility.yul\":11128:11159   */\n      mstore\n        /* \"#utility.yul\":11011:11166   */\n      pop\n      jump\t// out\n        /* \"#utility.yul\":11172:11537   */\n    tag_241:\n        /* \"#utility.yul\":11314:11317   */\n      0x00\n        /* \"#utility.yul\":11335:11401   */\n      tag_377\n        /* \"#utility.yul\":11399:11400   */\n      0x05\n        /* \"#utility.yul\":11394:11397   */\n      dup4\n        /* \"#utility.yul\":11335:11401   */\n      tag_228\n      jump\t// in\n    tag_377:\n        /* \"#utility.yul\":11328:11401   */\n      swap2\n      pop\n        /* \"#utility.yul\":11410:11503   */\n      tag_378\n        /* \"#utility.yul\":11499:11502   */\n      dup3\n        /* \"#utility.yul\":11410:11503   */\n      tag_240\n      jump\t// in\n    tag_378:\n        /* \"#utility.yul\":11528:11530   */\n      0x20\n        /* \"#utility.yul\":11523:11526   */\n      dup3\n        /* \"#utility.yul\":11519:11531   */\n      add\n        /* \"#utility.yul\":11512:11531   */\n      swap1\n      pop\n        /* \"#utility.yul\":11172:11537   */\n      swap2\n      swap1\n      pop\n      jump\t// out\n        /* \"#utility.yul\":11543:12182   */\n    tag_111:\n        /* \"#utility.yul\":11765:11769   */\n      0x00\n        /* \"#utility.yul\":11803:11805   */\n      0x60\n        /* \"#utility.yul\":11792:11801   */\n      dup3\n        /* \"#utility.yul\":11788:11806   */\n      add\n        /* \"#utility.yul\":11780:11806   */\n      swap1\n      pop\n        /* \"#utility.yul\":11852:11861   */\n      dup2\n        /* \"#utility.yul\":11846:11850   */\n      dup2\n        /* \"#utility.yul\":11842:11862   */\n      sub\n        /* \"#utility.yul\":11838:11839   */\n      0x00\n        /* \"#utility.yul\":11827:11836   */\n      dup4\n        /* \"#utility.yul\":11823:11840   */\n      add\n        /* \"#utility.yul\":11816:11863   */\n      mstore\n        /* \"#utility.yul\":11880:12011   */\n      tag_380\n        /* \"#utility.yul\":12006:12010   */\n      dup2\n        /* \"#utility.yul\":11880:12011   */\n      tag_241\n      jump\t// in\n    tag_380:\n        /* \"#utility.yul\":11872:12011   */\n      swap1\n      pop\n        /* \"#utility.yul\":12021:12093   */\n      tag_381\n        /* \"#utility.yul\":12089:12091   */\n      0x20\n        /* \"#utility.yul\":12078:12087   */\n      dup4\n        /* \"#utility.yul\":12074:12092   */\n      add\n        /* \"#utility.yul\":12065:12071   */\n      dup6\n        /* \"#utility.yul\":12021:12093   */\n      tag_216\n      jump\t// in\n    tag_381:\n        /* \"#utility.yul\":12103:12175   */\n      tag_382\n        /* \"#utility.yul\":12171:12173   */\n      0x40\n        /* \"#utility.yul\":12160:12169   */\n      dup4\n        /* \"#utility.yul\":12156:12174   */\n      add\n        /* \"#utility.yul\":12147:12153   */\n      dup5\n        /* \"#utility.yul\":12103:12175   */\n      tag_216\n      jump\t// in\n    tag_382:\n        /* \"#utility.yul\":11543:12182   */\n      swap4\n      swap3\n      pop\n      pop\n      pop\n      jump\t// out\n        /* \"#utility.yul\":12188:12408   */\n    tag_242:\n        /* \"#utility.yul\":12328:12362   */\n      0x416d6f756e7473206d7573742062652067726561746572207468616e207a6572\n        /* \"#utility.yul\":12324:12325   */\n      0x00\n        /* \"#utility.yul\":12316:12322   */\n      dup3\n        /* \"#utility.yul\":12312:12326   */\n      add\n        /* \"#utility.yul\":12305:12363   */\n      mstore\n        /* \"#utility.yul\":12397:12400   */\n      0x6f00000000000000000000000000000000000000000000000000000000000000\n        /* \"#utility.yul\":12392:12394   */\n      0x20\n        /* \"#utility.yul\":12384:12390   */\n      dup3\n        /* \"#utility.yul\":12380:12395   */\n      add\n        /* \"#utility.yul\":12373:12401   */\n      mstore\n        /* \"#utility.yul\":12188:12408   */\n      pop\n      jump\t// out\n        /* \"#utility.yul\":12414:12780   */\n    tag_243:\n        /* \"#utility.yul\":12556:12559   */\n      0x00\n        /* \"#utility.yul\":12577:12644   */\n      tag_385\n        /* \"#utility.yul\":12641:12643   */\n      0x21\n        /* \"#utility.yul\":12636:12639   */\n      dup4\n        /* \"#utility.yul\":12577:12644   */\n      tag_228\n      jump\t// in\n    tag_385:\n        /* \"#utility.yul\":12570:12644   */\n      swap2\n      pop\n        /* \"#utility.yul\":12653:12746   */\n      tag_386\n        /* \"#utility.yul\":12742:12745   */\n      dup3\n        /* \"#utility.yul\":12653:12746   */\n      tag_242\n      jump\t// in\n    tag_386:\n        /* \"#utility.yul\":12771:12773   */\n      0x40\n        /* \"#utility.yul\":12766:12769   */\n      dup3\n        /* \"#utility.yul\":12762:12774   */\n      add\n        /* \"#utility.yul\":12755:12774   */\n      swap1\n      pop\n        /* \"#utility.yul\":12414:12780   */\n      swap2\n      swap1\n      pop\n      jump\t// out\n        /* \"#utility.yul\":12786:13205   */\n    tag_121:\n        /* \"#utility.yul\":12952:12956   */\n      0x00\n        /* \"#utility.yul\":12990:12992   */\n      0x20\n        /* \"#utility.yul\":12979:12988   */\n      dup3\n        /* \"#utility.yul\":12975:12993   */\n      add\n        /* \"#utility.yul\":12967:12993   */\n      swap1\n      pop\n        /* \"#utility.yul\":13039:13048   */\n      dup2\n        /* \"#utility.yul\":13033:13037   */\n      dup2\n        /* \"#utility.yul\":13029:13049   */\n      sub\n        /* \"#utility.yul\":13025:13026   */\n      0x00\n        /* \"#utility.yul\":13014:13023   */\n      dup4\n        /* \"#utility.yul\":13010:13027   */\n      add\n        /* \"#utility.yul\":13003:13050   */\n      mstore\n        /* \"#utility.yul\":13067:13198   */\n      tag_388\n        /* \"#utility.yul\":13193:13197   */\n      dup2\n        /* \"#utility.yul\":13067:13198   */\n      tag_243\n      jump\t// in\n    tag_388:\n        /* \"#utility.yul\":13059:13198   */\n      swap1\n      pop\n        /* \"#utility.yul\":12786:13205   */\n      swap2\n      swap1\n      pop\n      jump\t// out\n        /* \"#utility.yul\":13211:13364   */\n    tag_244:\n        /* \"#utility.yul\":13351:13356   */\n      0x4164640000000000000000000000000000000000000000000000000000000000\n        /* \"#utility.yul\":13347:13348   */\n      0x00\n        /* \"#utility.yul\":13339:13345   */\n      dup3\n        /* \"#utility.yul\":13335:13349   */\n      add\n        /* \"#utility.yul\":13328:13357   */\n      mstore\n        /* \"#utility.yul\":13211:13364   */\n      pop\n      jump\t// out\n        /* \"#utility.yul\":13370:13735   */\n    tag_245:\n        /* \"#utility.yul\":13512:13515   */\n      0x00\n        /* \"#utility.yul\":13533:13599   */\n      tag_391\n        /* \"#utility.yul\":13597:13598   */\n      0x03\n        /* \"#utility.yul\":13592:13595   */\n      dup4\n        /* \"#utility.yul\":13533:13599   */\n      tag_228\n      jump\t// in\n    tag_391:\n        /* \"#utility.yul\":13526:13599   */\n      swap2\n      pop\n        /* \"#utility.yul\":13608:13701   */\n      tag_392\n        /* \"#utility.yul\":13697:13700   */\n      dup3\n        /* \"#utility.yul\":13608:13701   */\n      tag_244\n      jump\t// in\n    tag_392:\n        /* \"#utility.yul\":13726:13728   */\n      0x20\n        /* \"#utility.yul\":13721:13724   */\n      dup3\n        /* \"#utility.yul\":13717:13729   */\n      add\n        /* \"#utility.yul\":13710:13729   */\n      swap1\n      pop\n        /* \"#utility.yul\":13370:13735   */\n      swap2\n      swap1\n      pop\n      jump\t// out\n        /* \"#utility.yul\":13741:14380   */\n    tag_133:\n        /* \"#utility.yul\":13963:13967   */\n      0x00\n        /* \"#utility.yul\":14001:14003   */\n      0x60\n        /* \"#utility.yul\":13990:13999   */\n      dup3\n        /* \"#utility.yul\":13986:14004   */\n      add\n        /* \"#utility.yul\":13978:14004   */\n      swap1\n      pop\n        /* \"#utility.yul\":14050:14059   */\n      dup2\n        /* \"#utility.yul\":14044:14048   */\n      dup2\n        /* \"#utility.yul\":14040:14060   */\n      sub\n        /* \"#utility.yul\":14036:14037   */\n      0x00\n        /* \"#utility.yul\":14025:14034   */\n      dup4\n        /* \"#utility.yul\":14021:14038   */\n      add\n        /* \"#utility.yul\":14014:14061   */\n      mstore\n        /* \"#utility.yul\":14078:14209   */\n      tag_394\n        /* \"#utility.yul\":14204:14208   */\n      dup2\n        /* \"#utility.yul\":14078:14209   */\n      tag_245\n      jump\t// in\n    tag_394:\n        /* \"#utility.yul\":14070:14209   */\n      swap1\n      pop\n        /* \"#utility.yul\":14219:14291   */\n      tag_395\n        /* \"#utility.yul\":14287:14289   */\n      0x20\n        /* \"#utility.yul\":14276:14285   */\n      dup4\n        /* \"#utility.yul\":14272:14290   */\n      add\n        /* \"#utility.yul\":14263:14269   */\n      dup6\n        /* \"#utility.yul\":14219:14291   */\n      tag_216\n      jump\t// in\n    tag_395:\n        /* \"#utility.yul\":14301:14373   */\n      tag_396\n        /* \"#utility.yul\":14369:14371   */\n      0x40\n        /* \"#utility.yul\":14358:14367   */\n      dup4\n        /* \"#utility.yul\":14354:14372   */\n      add\n        /* \"#utility.yul\":14345:14351   */\n      dup5\n        /* \"#utility.yul\":14301:14373   */\n      tag_216\n      jump\t// in\n    tag_396:\n        /* \"#utility.yul\":13741:14380   */\n      swap4\n      swap3\n      pop\n      pop\n      pop\n      jump\t// out\n        /* \"#utility.yul\":14386:14558   */\n    tag_246:\n        /* \"#utility.yul\":14526:14550   */\n      0x496e73756666696369656e74206c697175696469747900000000000000000000\n        /* \"#utility.yul\":14522:14523   */\n      0x00\n        /* \"#utility.yul\":14514:14520   */\n      dup3\n        /* \"#utility.yul\":14510:14524   */\n      add\n        /* \"#utility.yul\":14503:14551   */\n      mstore\n        /* \"#utility.yul\":14386:14558   */\n      pop\n      jump\t// out\n        /* \"#utility.yul\":14564:14930   */\n    tag_247:\n        /* \"#utility.yul\":14706:14709   */\n      0x00\n        /* \"#utility.yul\":14727:14794   */\n      tag_399\n        /* \"#utility.yul\":14791:14793   */\n      0x16\n        /* \"#utility.yul\":14786:14789   */\n      dup4\n        /* \"#utility.yul\":14727:14794   */\n      tag_228\n      jump\t// in\n    tag_399:\n        /* \"#utility.yul\":14720:14794   */\n      swap2\n      pop\n        /* \"#utility.yul\":14803:14896   */\n      tag_400\n        /* \"#utility.yul\":14892:14895   */\n      dup3\n        /* \"#utility.yul\":14803:14896   */\n      tag_246\n      jump\t// in\n    tag_400:\n        /* \"#utility.yul\":14921:14923   */\n      0x20\n        /* \"#utility.yul\":14916:14919   */\n      dup3\n        /* \"#utility.yul\":14912:14924   */\n      add\n        /* \"#utility.yul\":14905:14924   */\n      swap1\n      pop\n        /* \"#utility.yul\":14564:14930   */\n      swap2\n      swap1\n      pop\n      jump\t// out\n        /* \"#utility.yul\":14936:15355   */\n    tag_140:\n        /* \"#utility.yul\":15102:15106   */\n      0x00\n        /* \"#utility.yul\":15140:15142   */\n      0x20\n        /* \"#utility.yul\":15129:15138   */\n      dup3\n        /* \"#utility.yul\":15125:15143   */\n      add\n        /* \"#utility.yul\":15117:15143   */\n      swap1\n      pop\n        /* \"#utility.yul\":15189:15198   */\n      dup2\n        /* \"#utility.yul\":15183:15187   */\n      dup2\n        /* \"#utility.yul\":15179:15199   */\n      sub\n        /* \"#utility.yul\":15175:15176   */\n      0x00\n        /* \"#utility.yul\":15164:15173   */\n      dup4\n        /* \"#utility.yul\":15160:15177   */\n      add\n        /* \"#utility.yul\":15153:15200   */\n      mstore\n        /* \"#utility.yul\":15217:15348   */\n      tag_402\n        /* \"#utility.yul\":15343:15347   */\n      dup2\n        /* \"#utility.yul\":15217:15348   */\n      tag_247\n      jump\t// in\n    tag_402:\n        /* \"#utility.yul\":15209:15348   */\n      swap1\n      pop\n        /* \"#utility.yul\":14936:15355   */\n      swap2\n      swap1\n      pop\n      jump\t// out\n        /* \"#utility.yul\":15361:15517   */\n    tag_248:\n        /* \"#utility.yul\":15501:15509   */\n      0x52656d6f76650000000000000000000000000000000000000000000000000000\n        /* \"#utility.yul\":15497:15498   */\n      0x00\n        /* \"#utility.yul\":15489:15495   */\n      dup3\n        /* \"#utility.yul\":15485:15499   */\n      add\n        /* \"#utility.yul\":15478:15510   */\n      mstore\n        /* \"#utility.yul\":15361:15517   */\n      pop\n      jump\t// out\n        /* \"#utility.yul\":15523:15888   */\n    tag_249:\n        /* \"#utility.yul\":15665:15668   */\n      0x00\n        /* \"#utility.yul\":15686:15752   */\n      tag_405\n        /* \"#utility.yul\":15750:15751   */\n      0x06\n        /* \"#utility.yul\":15745:15748   */\n      dup4\n        /* \"#utility.yul\":15686:15752   */\n      tag_228\n      jump\t// in\n    tag_405:\n        /* \"#utility.yul\":15679:15752   */\n      swap2\n      pop\n        /* \"#utility.yul\":15761:15854   */\n      tag_406\n        /* \"#utility.yul\":15850:15853   */\n      dup3\n        /* \"#utility.yul\":15761:15854   */\n      tag_248\n      jump\t// in\n    tag_406:\n        /* \"#utility.yul\":15879:15881   */\n      0x20\n        /* \"#utility.yul\":15874:15877   */\n      dup3\n        /* \"#utility.yul\":15870:15882   */\n      add\n        /* \"#utility.yul\":15863:15882   */\n      swap1\n      pop\n        /* \"#utility.yul\":15523:15888   */\n      swap2\n      swap1\n      pop\n      jump\t// out\n        /* \"#utility.yul\":15894:16533   */\n    tag_152:\n        /* \"#utility.yul\":16116:16120   */\n      0x00\n        /* \"#utility.yul\":16154:16156   */\n      0x60\n        /* \"#utility.yul\":16143:16152   */\n      dup3\n        /* \"#utility.yul\":16139:16157   */\n      add\n        /* \"#utility.yul\":16131:16157   */\n      swap1\n      pop\n        /* \"#utility.yul\":16203:16212   */\n      dup2\n        /* \"#utility.yul\":16197:16201   */\n      dup2\n        /* \"#utility.yul\":16193:16213   */\n      sub\n        /* \"#utility.yul\":16189:16190   */\n      0x00\n        /* \"#utility.yul\":16178:16187   */\n      dup4\n        /* \"#utility.yul\":16174:16191   */\n      add\n        /* \"#utility.yul\":16167:16214   */\n      mstore\n        /* \"#utility.yul\":16231:16362   */\n      tag_408\n        /* \"#utility.yul\":16357:16361   */\n      dup2\n        /* \"#utility.yul\":16231:16362   */\n      tag_249\n      jump\t// in\n    tag_408:\n        /* \"#utility.yul\":16223:16362   */\n      swap1\n      pop\n        /* \"#utility.yul\":16372:16444   */\n      tag_409\n        /* \"#utility.yul\":16440:16442   */\n      0x20\n        /* \"#utility.yul\":16429:16438   */\n      dup4\n        /* \"#utility.yul\":16425:16443   */\n      add\n        /* \"#utility.yul\":16416:16422   */\n      dup6\n        /* \"#utility.yul\":16372:16444   */\n      tag_216\n      jump\t// in\n    tag_409:\n        /* \"#utility.yul\":16454:16526   */\n      tag_410\n        /* \"#utility.yul\":16522:16524   */\n      0x40\n        /* \"#utility.yul\":16511:16520   */\n      dup4\n        /* \"#utility.yul\":16507:16525   */\n      add\n        /* \"#utility.yul\":16498:16504   */\n      dup5\n        /* \"#utility.yul\":16454:16526   */\n      tag_216\n      jump\t// in\n    tag_410:\n        /* \"#utility.yul\":15894:16533   */\n      swap4\n      swap3\n      pop\n      pop\n      pop\n      jump\t// out\n        /* \"#utility.yul\":16539:16694   */\n    tag_250:\n        /* \"#utility.yul\":16679:16686   */\n      0x41666f7242000000000000000000000000000000000000000000000000000000\n        /* \"#utility.yul\":16675:16676   */\n      0x00\n        /* \"#utility.yul\":16667:16673   */\n      dup3\n        /* \"#utility.yul\":16663:16677   */\n      add\n        /* \"#utility.yul\":16656:16687   */\n      mstore\n        /* \"#utility.yul\":16539:16694   */\n      pop\n      jump\t// out\n        /* \"#utility.yul\":16700:17065   */\n    tag_251:\n        /* \"#utility.yul\":16842:16845   */\n      0x00\n        /* \"#utility.yul\":16863:16929   */\n      tag_413\n        /* \"#utility.yul\":16927:16928   */\n      0x05\n        /* \"#utility.yul\":16922:16925   */\n      dup4\n        /* \"#utility.yul\":16863:16929   */\n      tag_228\n      jump\t// in\n    tag_413:\n        /* \"#utility.yul\":16856:16929   */\n      swap2\n      pop\n        /* \"#utility.yul\":16938:17031   */\n      tag_414\n        /* \"#utility.yul\":17027:17030   */\n      dup3\n        /* \"#utility.yul\":16938:17031   */\n      tag_250\n      jump\t// in\n    tag_414:\n        /* \"#utility.yul\":17056:17058   */\n      0x20\n        /* \"#utility.yul\":17051:17054   */\n      dup3\n        /* \"#utility.yul\":17047:17059   */\n      add\n        /* \"#utility.yul\":17040:17059   */\n      swap1\n      pop\n        /* \"#utility.yul\":16700:17065   */\n      swap2\n      swap1\n      pop\n      jump\t// out\n        /* \"#utility.yul\":17071:17710   */\n    tag_175:\n        /* \"#utility.yul\":17293:17297   */\n      0x00\n        /* \"#utility.yul\":17331:17333   */\n      0x60\n        /* \"#utility.yul\":17320:17329   */\n      dup3\n        /* \"#utility.yul\":17316:17334   */\n      add\n        /* \"#utility.yul\":17308:17334   */\n      swap1\n      pop\n        /* \"#utility.yul\":17380:17389   */\n      dup2\n        /* \"#utility.yul\":17374:17378   */\n      dup2\n        /* \"#utility.yul\":17370:17390   */\n      sub\n        /* \"#utility.yul\":17366:17367   */\n      0x00\n        /* \"#utility.yul\":17355:17364   */\n      dup4\n        /* \"#utility.yul\":17351:17368   */\n      add\n        /* \"#utility.yul\":17344:17391   */\n      mstore\n        /* \"#utility.yul\":17408:17539   */\n      tag_416\n        /* \"#utility.yul\":17534:17538   */\n      dup2\n        /* \"#utility.yul\":17408:17539   */\n      tag_251\n      jump\t// in\n    tag_416:\n        /* \"#utility.yul\":17400:17539   */\n      swap1\n      pop\n        /* \"#utility.yul\":17549:17621   */\n      tag_417\n        /* \"#utility.yul\":17617:17619   */\n      0x20\n        /* \"#utility.yul\":17606:17615   */\n      dup4\n        /* \"#utility.yul\":17602:17620   */\n      add\n        /* \"#utility.yul\":17593:17599   */\n      dup6\n        /* \"#utility.yul\":17549:17621   */\n      tag_216\n      jump\t// in\n    tag_417:\n        /* \"#utility.yul\":17631:17703   */\n      tag_418\n        /* \"#utility.yul\":17699:17701   */\n      0x40\n        /* \"#utility.yul\":17688:17697   */\n      dup4\n        /* \"#utility.yul\":17684:17702   */\n      add\n        /* \"#utility.yul\":17675:17681   */\n      dup5\n        /* \"#utility.yul\":17631:17703   */\n      tag_216\n      jump\t// in\n    tag_418:\n        /* \"#utility.yul\":17071:17710   */\n      swap4\n      swap3\n      pop\n      pop\n      pop\n      jump\t// out\n        /* \"#utility.yul\":17716:17897   */\n    tag_252:\n        /* \"#utility.yul\":17856:17889   */\n      0x5265656e7472616e637947756172643a207265656e7472616e742063616c6c00\n        /* \"#utility.yul\":17852:17853   */\n      0x00\n        /* \"#utility.yul\":17844:17850   */\n      dup3\n        /* \"#utility.yul\":17840:17854   */\n      add\n        /* \"#utility.yul\":17833:17890   */\n      mstore\n        /* \"#utility.yul\":17716:17897   */\n      pop\n      jump\t// out\n        /* \"#utility.yul\":17903:18269   */\n    tag_253:\n        /* \"#utility.yul\":18045:18048   */\n      0x00\n        /* \"#utility.yul\":18066:18133   */\n      tag_421\n        /* \"#utility.yul\":18130:18132   */\n      0x1f\n        /* \"#utility.yul\":18125:18128   */\n      dup4\n        /* \"#utility.yul\":18066:18133   */\n      tag_228\n      jump\t// in\n    tag_421:\n        /* \"#utility.yul\":18059:18133   */\n      swap2\n      pop\n        /* \"#utility.yul\":18142:18235   */\n      tag_422\n        /* \"#utility.yul\":18231:18234   */\n      dup3\n        /* \"#utility.yul\":18142:18235   */\n      tag_252\n      jump\t// in\n    tag_422:\n        /* \"#utility.yul\":18260:18262   */\n      0x20\n        /* \"#utility.yul\":18255:18258   */\n      dup3\n        /* \"#utility.yul\":18251:18263   */\n      add\n        /* \"#utility.yul\":18244:18263   */\n      swap1\n      pop\n        /* \"#utility.yul\":17903:18269   */\n      swap2\n      swap1\n      pop\n      jump\t// out\n        /* \"#utility.yul\":18275:18694   */\n    tag_194:\n        /* \"#utility.yul\":18441:18445   */\n      0x00\n        /* \"#utility.yul\":18479:18481   */\n      0x20\n        /* \"#utility.yul\":18468:18477   */\n      dup3\n        /* \"#utility.yul\":18464:18482   */\n      add\n        /* \"#utility.yul\":18456:18482   */\n      swap1\n      pop\n        /* \"#utility.yul\":18528:18537   */\n      dup2\n        /* \"#utility.yul\":18522:18526   */\n      dup2\n        /* \"#utility.yul\":18518:18538   */\n      sub\n        /* \"#utility.yul\":18514:18515   */\n      0x00\n        /* \"#utility.yul\":18503:18512   */\n      dup4\n        /* \"#utility.yul\":18499:18516   */\n      add\n        /* \"#utility.yul\":18492:18539   */\n      mstore\n        /* \"#utility.yul\":18556:18687   */\n      tag_424\n        /* \"#utility.yul\":18682:18686   */\n      dup2\n        /* \"#utility.yul\":18556:18687   */\n      tag_253\n      jump\t// in\n    tag_424:\n        /* \"#utility.yul\":18548:18687   */\n      swap1\n      pop\n        /* \"#utility.yul\":18275:18694   */\n      swap2\n      swap1\n      pop\n      jump\t// out\n        /* \"#utility.yul\":18700:18925   */\n    tag_254:\n        /* \"#utility.yul\":18840:18874   */\n      0x496e73756666696369656e74206c697175696469747920666f722063616c6375\n        /* \"#utility.yul\":18836:18837   */\n      0x00\n        /* \"#utility.yul\":18828:18834   */\n      dup3\n        /* \"#utility.yul\":18824:18838   */\n      add\n        /* \"#utility.yul\":18817:18875   */\n      mstore\n        /* \"#utility.yul\":18909:18917   */\n      0x6c6174696f6e0000000000000000000000000000000000000000000000000000\n        /* \"#utility.yul\":18904:18906   */\n      0x20\n        /* \"#utility.yul\":18896:18902   */\n      dup3\n        /* \"#utility.yul\":18892:18907   */\n      add\n        /* \"#utility.yul\":18885:18918   */\n      mstore\n        /* \"#utility.yul\":18700:18925   */\n      pop\n      jump\t// out\n        /* \"#utility.yul\":18931:19297   */\n    tag_255:\n        /* \"#utility.yul\":19073:19076   */\n      0x00\n        /* \"#utility.yul\":19094:19161   */\n      tag_427\n        /* \"#utility.yul\":19158:19160   */\n      0x26\n        /* \"#utility.yul\":19153:19156   */\n      dup4\n        /* \"#utility.yul\":19094:19161   */\n      tag_228\n      jump\t// in\n    tag_427:\n        /* \"#utility.yul\":19087:19161   */\n      swap2\n      pop\n        /* \"#utility.yul\":19170:19263   */\n      tag_428\n        /* \"#utility.yul\":19259:19262   */\n      dup3\n        /* \"#utility.yul\":19170:19263   */\n      tag_254\n      jump\t// in\n    tag_428:\n        /* \"#utility.yul\":19288:19290   */\n      0x40\n        /* \"#utility.yul\":19283:19286   */\n      dup3\n        /* \"#utility.yul\":19279:19291   */\n      add\n        /* \"#utility.yul\":19272:19291   */\n      swap1\n      pop\n        /* \"#utility.yul\":18931:19297   */\n      swap2\n      swap1\n      pop\n      jump\t// out\n        /* \"#utility.yul\":19303:19722   */\n    tag_199:\n        /* \"#utility.yul\":19469:19473   */\n      0x00\n        /* \"#utility.yul\":19507:19509   */\n      0x20\n        /* \"#utility.yul\":19496:19505   */\n      dup3\n        /* \"#utility.yul\":19492:19510   */\n      add\n        /* \"#utility.yul\":19484:19510   */\n      swap1\n      pop\n        /* \"#utility.yul\":19556:19565   */\n      dup2\n        /* \"#utility.yul\":19550:19554   */\n      dup2\n        /* \"#utility.yul\":19546:19566   */\n      sub\n        /* \"#utility.yul\":19542:19543   */\n      0x00\n        /* \"#utility.yul\":19531:19540   */\n      dup4\n        /* \"#utility.yul\":19527:19544   */\n      add\n        /* \"#utility.yul\":19520:19567   */\n      mstore\n        /* \"#utility.yul\":19584:19715   */\n      tag_430\n        /* \"#utility.yul\":19710:19714   */\n      dup2\n        /* \"#utility.yul\":19584:19715   */\n      tag_255\n      jump\t// in\n    tag_430:\n        /* \"#utility.yul\":19576:19715   */\n      swap1\n      pop\n        /* \"#utility.yul\":19303:19722   */\n      swap2\n      swap1\n      pop\n      jump\t// out\n        /* \"#utility.yul\":19728:19910   */\n    tag_256:\n        /* \"#utility.yul\":19868:19902   */\n      0x43616c63756c61746564206f757470757420616d6f756e74206973207a65726f\n        /* \"#utility.yul\":19864:19865   */\n      0x00\n        /* \"#utility.yul\":19856:19862   */\n      dup3\n        /* \"#utility.yul\":19852:19866   */\n      add\n        /* \"#utility.yul\":19845:19903   */\n      mstore\n        /* \"#utility.yul\":19728:19910   */\n      pop\n      jump\t// out\n        /* \"#utility.yul\":19916:20282   */\n    tag_257:\n        /* \"#utility.yul\":20058:20061   */\n      0x00\n        /* \"#utility.yul\":20079:20146   */\n      tag_433\n        /* \"#utility.yul\":20143:20145   */\n      0x20\n        /* \"#utility.yul\":20138:20141   */\n      dup4\n        /* \"#utility.yul\":20079:20146   */\n      tag_228\n      jump\t// in\n    tag_433:\n        /* \"#utility.yul\":20072:20146   */\n      swap2\n      pop\n        /* \"#utility.yul\":20155:20248   */\n      tag_434\n        /* \"#utility.yul\":20244:20247   */\n      dup3\n        /* \"#utility.yul\":20155:20248   */\n      tag_256\n      jump\t// in\n    tag_434:\n        /* \"#utility.yul\":20273:20275   */\n      0x20\n        /* \"#utility.yul\":20268:20271   */\n      dup3\n        /* \"#utility.yul\":20264:20276   */\n      add\n        /* \"#utility.yul\":20257:20276   */\n      swap1\n      pop\n        /* \"#utility.yul\":19916:20282   */\n      swap2\n      swap1\n      pop\n      jump\t// out\n        /* \"#utility.yul\":20288:20707   */\n    tag_206:\n        /* \"#utility.yul\":20454:20458   */\n      0x00\n        /* \"#utility.yul\":20492:20494   */\n      0x20\n        /* \"#utility.yul\":20481:20490   */\n      dup3\n        /* \"#utility.yul\":20477:20495   */\n      add\n        /* \"#utility.yul\":20469:20495   */\n      swap1\n      pop\n        /* \"#utility.yul\":20541:20550   */\n      dup2\n        /* \"#utility.yul\":20535:20539   */\n      dup2\n        /* \"#utility.yul\":20531:20551   */\n      sub\n        /* \"#utility.yul\":20527:20528   */\n      0x00\n        /* \"#utility.yul\":20516:20525   */\n      dup4\n        /* \"#utility.yul\":20512:20529   */\n      add\n        /* \"#utility.yul\":20505:20552   */\n      mstore\n        /* \"#utility.yul\":20569:20700   */\n      tag_436\n        /* \"#utility.yul\":20695:20699   */\n      dup2\n        /* \"#utility.yul\":20569:20700   */\n      tag_257\n      jump\t// in\n    tag_436:\n        /* \"#utility.yul\":20561:20700   */\n      swap1\n      pop\n        /* \"#utility.yul\":20288:20707   */\n      swap2\n      swap1\n      pop\n      jump\t// out\n\n    auxdata: 0xa2646970667358221220ce7dd75755c00b7f9df25ef7b8db3b886dd4eb741af6ec31e8a3caa248bea11d64736f6c634300081e0033\n}\n",
				"bytecode": {
					"linkReferences": {},
					"object": "608060405234801561000f575f5ffd5b50604051611d8b380380611d8b8339818101604052810190610031919061025f565b335f73ffffffffffffffffffffffffffffffffffffffff168173ffffffffffffffffffffffffffffffffffffffff16036100a2575f6040517f1e4fbdf700000000000000000000000000000000000000000000000000000000815260040161009991906102ac565b60405180910390fd5b6100b18161014060201b60201c565b50600180819055508160025f6101000a81548173ffffffffffffffffffffffffffffffffffffffff021916908373ffffffffffffffffffffffffffffffffffffffff1602179055508060035f6101000a81548173ffffffffffffffffffffffffffffffffffffffff021916908373ffffffffffffffffffffffffffffffffffffffff16021790555050506102c5565b5f5f5f9054906101000a900473ffffffffffffffffffffffffffffffffffffffff169050815f5f6101000a81548173ffffffffffffffffffffffffffffffffffffffff021916908373ffffffffffffffffffffffffffffffffffffffff1602179055508173ffffffffffffffffffffffffffffffffffffffff168173ffffffffffffffffffffffffffffffffffffffff167f8be0079c531659141344cd1fd0a4f28419497f9722a3daafe3b4186f6b6457e060405160405180910390a35050565b5f5ffd5b5f73ffffffffffffffffffffffffffffffffffffffff82169050919050565b5f61022e82610205565b9050919050565b61023e81610224565b8114610248575f5ffd5b50565b5f8151905061025981610235565b92915050565b5f5f6040838503121561027557610274610201565b5b5f6102828582860161024b565b92505060206102938582860161024b565b9150509250929050565b6102a681610224565b82525050565b5f6020820190506102bf5f83018461029d565b92915050565b611ab9806102d25f395ff3fe608060405234801561000f575f5ffd5b50600436106100b2575f3560e01c80638da5cb5b1161006f5780638da5cb5b146101665780639cd441da146101845780639d7de6b3146101a0578063dc5fa6c5146101bc578063e4f1f70a146101da578063f2fde38b146101f6576100b2565b80630fc63d10146100b657806319e36f3b146100d457806341976e09146100f25780635f64b55b14610122578063715018a6146101405780638014a7aa1461014a575b5f5ffd5b6100be610212565b6040516100cb91906110c7565b60405180910390f35b6100dc610237565b6040516100e991906110f8565b60405180910390f35b61010c60048036038101906101079190611150565b61023d565b60405161011991906110f8565b60405180910390f35b61012a61039c565b60405161013791906110c7565b60405180910390f35b6101486103c1565b005b610164600480360381019061015f91906111a5565b6103d4565b005b61016e610677565b60405161017b91906111df565b60405180910390f35b61019e600480360381019061019991906111f8565b61069e565b005b6101ba60048036038101906101b591906111f8565b61089d565b005b6101c4610a9f565b6040516101d191906110f8565b60405180910390f35b6101f460048036038101906101ef91906111a5565b610aa5565b005b610210600480360381019061020b9190611150565b610d48565b005b60025f9054906101000a900473ffffffffffffffffffffffffffffffffffffffff1681565b60055481565b5f60025f9054906101000a900473ffffffffffffffffffffffffffffffffffffffff1673ffffffffffffffffffffffffffffffffffffffff168273ffffffffffffffffffffffffffffffffffffffff16036102cd575f600454036102a3575f9050610397565b600454670de0b6b3a76400006005546102bc9190611263565b6102c691906112d1565b9050610397565b60035f9054906101000a900473ffffffffffffffffffffffffffffffffffffffff1673ffffffffffffffffffffffffffffffffffffffff168273ffffffffffffffffffffffffffffffffffffffff160361035c575f60055403610332575f9050610397565b600554670de0b6b3a764000060045461034b9190611263565b61035591906112d1565b9050610397565b6040517f08c379a000000000000000000000000000000000000000000000000000000000815260040161038e9061135b565b60405180910390fd5b919050565b60035f9054906101000a900473ffffffffffffffffffffffffffffffffffffffff1681565b6103c9610dcc565b6103d25f610e53565b565b6103dc610f14565b5f811161041e576040517f08c379a0000000000000000000000000000000000000000000000000000000008152600401610415906113e9565b60405180910390fd5b5f60045411801561043057505f600554115b61046f576040517f08c379a000000000000000000000000000000000000000000000000000000000815260040161046690611451565b60405180910390fd5b5f61047f82600554600454610f63565b90508060045410156104c6576040517f08c379a00000000000000000000000000000000000000000000000000000000081526004016104bd906114df565b60405180910390fd5b60035f9054906101000a900473ffffffffffffffffffffffffffffffffffffffff1673ffffffffffffffffffffffffffffffffffffffff166323b872dd3330856040518463ffffffff1660e01b8152600401610524939291906114fd565b6020604051808303815f875af1158015610540573d5f5f3e3d5ffd5b505050506040513d601f19601f820116820180604052508101906105649190611567565b5060025f9054906101000a900473ffffffffffffffffffffffffffffffffffffffff1673ffffffffffffffffffffffffffffffffffffffff1663a9059cbb33836040518363ffffffff1660e01b81526004016105c1929190611592565b6020604051808303815f875af11580156105dd573d5f5f3e3d5ffd5b505050506040513d601f19601f820116820180604052508101906106019190611567565b508160055f82825461061391906115b9565b925050819055508060045f82825461062b91906115ec565b925050819055507f99151d1285a42a31514afc05d8341521a9e02f4d15fe80d8cd617dd0e6330c3b8282604051610663929190611669565b60405180910390a15061067461103d565b50565b5f5f5f9054906101000a900473ffffffffffffffffffffffffffffffffffffffff16905090565b6106a6610dcc565b5f8211806106b357505f81115b6106f2576040517f08c379a00000000000000000000000000000000000000000000000000000000081526004016106e990611713565b60405180910390fd5b60025f9054906101000a900473ffffffffffffffffffffffffffffffffffffffff1673ffffffffffffffffffffffffffffffffffffffff166323b872dd3330856040518463ffffffff1660e01b8152600401610750939291906114fd565b6020604051808303815f875af115801561076c573d5f5f3e3d5ffd5b505050506040513d601f19601f820116820180604052508101906107909190611567565b5060035f9054906101000a900473ffffffffffffffffffffffffffffffffffffffff1673ffffffffffffffffffffffffffffffffffffffff166323b872dd3330846040518463ffffffff1660e01b81526004016107ef939291906114fd565b6020604051808303815f875af115801561080b573d5f5f3e3d5ffd5b505050506040513d601f19601f8201168201806040525081019061082f9190611567565b508160045f82825461084191906115b9565b925050819055508060055f82825461085991906115b9565b925050819055507f959b1d93cfbbd38471fd78660c739ffed1589f0ac706cbce37f4d8db90f15b1d828260405161089192919061177b565b60405180910390a15050565b6108a5610dcc565b60045482111580156108b957506005548111155b6108f8576040517f08c379a00000000000000000000000000000000000000000000000000000000081526004016108ef906117ff565b60405180910390fd5b8160045f82825461090991906115ec565b925050819055508060055f82825461092191906115ec565b9250508190555060025f9054906101000a900473ffffffffffffffffffffffffffffffffffffffff1673ffffffffffffffffffffffffffffffffffffffff1663a9059cbb33846040518363ffffffff1660e01b8152600401610984929190611592565b6020604051808303815f875af11580156109a0573d5f5f3e3d5ffd5b505050506040513d601f19601f820116820180604052508101906109c49190611567565b5060035f9054906101000a900473ffffffffffffffffffffffffffffffffffffffff1673ffffffffffffffffffffffffffffffffffffffff1663a9059cbb33836040518363ffffffff1660e01b8152600401610a21929190611592565b6020604051808303815f875af1158015610a3d573d5f5f3e3d5ffd5b505050506040513d601f19601f82011682018060405250810190610a619190611567565b507f959b1d93cfbbd38471fd78660c739ffed1589f0ac706cbce37f4d8db90f15b1d8282604051610a93929190611867565b60405180910390a15050565b60045481565b610aad610f14565b5f8111610aef576040517f08c379a0000000000000000000000000000000000000000000000000000000008152600401610ae6906113e9565b60405180910390fd5b5f600454118015610b0157505f600554115b610b40576040517f08c379a0000000000000000000000000000000000000000000000000000000008152600401610b3790611451565b60405180910390fd5b5f610b5082600454600554610f63565b9050806005541015610b97576040517f08c379a0000000000000000000000000000000000000000000000000000000008152600401610b8e906114df565b60405180910390fd5b60025f9054906101000a900473ffffffffffffffffffffffffffffffffffffffff1673ffffffffffffffffffffffffffffffffffffffff166323b872dd3330856040518463ffffffff1660e01b8152600401610bf5939291906114fd565b6020604051808303815f875af1158015610c11573d5f5f3e3d5ffd5b505050506040513d601f19601f82011682018060405250810190610c359190611567565b5060035f9054906101000a900473ffffffffffffffffffffffffffffffffffffffff1673ffffffffffffffffffffffffffffffffffffffff1663a9059cbb33836040518363ffffffff1660e01b8152600401610c92929190611592565b6020604051808303815f875af1158015610cae573d5f5f3e3d5ffd5b505050506040513d601f19601f82011682018060405250810190610cd29190611567565b508160045f828254610ce491906115b9565b925050819055508060055f828254610cfc91906115ec565b925050819055507f99151d1285a42a31514afc05d8341521a9e02f4d15fe80d8cd617dd0e6330c3b8282604051610d349291906118eb565b60405180910390a150610d4561103d565b50565b610d50610dcc565b5f73ffffffffffffffffffffffffffffffffffffffff168173ffffffffffffffffffffffffffffffffffffffff1603610dc0575f6040517f1e4fbdf7000000000000000000000000000000000000000000000000000000008152600401610db791906111df565b60405180910390fd5b610dc981610e53565b50565b610dd4611046565b73ffffffffffffffffffffffffffffffffffffffff16610df2610677565b73ffffffffffffffffffffffffffffffffffffffff1614610e5157610e15611046565b6040517f118cdaa7000000000000000000000000000000000000000000000000000000008152600401610e4891906111df565b60405180910390fd5b565b5f5f5f9054906101000a900473ffffffffffffffffffffffffffffffffffffffff169050815f5f6101000a81548173ffffffffffffffffffffffffffffffffffffffff021916908373ffffffffffffffffffffffffffffffffffffffff1602179055508173ffffffffffffffffffffffffffffffffffffffff168173ffffffffffffffffffffffffffffffffffffffff167f8be0079c531659141344cd1fd0a4f28419497f9722a3daafe3b4186f6b6457e060405160405180910390a35050565b600260015403610f59576040517f08c379a0000000000000000000000000000000000000000000000000000000008152600401610f509061196f565b60405180910390fd5b6002600181905550565b5f5f83118015610f7257505f82115b610fb1576040517f08c379a0000000000000000000000000000000000000000000000000000000008152600401610fa8906119fd565b60405180910390fd5b5f8284610fbe9190611263565b90505f8585610fcd91906115b9565b90505f8183610fdc91906112d1565b90505f8186610feb91906115ec565b90505f811161102f576040517f08c379a000000000000000000000000000000000000000000000000000000000815260040161102690611a65565b60405180910390fd5b809450505050509392505050565b60018081905550565b5f33905090565b5f73ffffffffffffffffffffffffffffffffffffffff82169050919050565b5f819050919050565b5f61108f61108a6110858461104d565b61106c565b61104d565b9050919050565b5f6110a082611075565b9050919050565b5f6110b182611096565b9050919050565b6110c1816110a7565b82525050565b5f6020820190506110da5f8301846110b8565b92915050565b5f819050919050565b6110f2816110e0565b82525050565b5f60208201905061110b5f8301846110e9565b92915050565b5f5ffd5b5f61111f8261104d565b9050919050565b61112f81611115565b8114611139575f5ffd5b50565b5f8135905061114a81611126565b92915050565b5f6020828403121561116557611164611111565b5b5f6111728482850161113c565b91505092915050565b611184816110e0565b811461118e575f5ffd5b50565b5f8135905061119f8161117b565b92915050565b5f602082840312156111ba576111b9611111565b5b5f6111c784828501611191565b91505092915050565b6111d981611115565b82525050565b5f6020820190506111f25f8301846111d0565b92915050565b5f5f6040838503121561120e5761120d611111565b5b5f61121b85828601611191565b925050602061122c85828601611191565b9150509250929050565b7f4e487b71000000000000000000000000000000000000000000000000000000005f52601160045260245ffd5b5f61126d826110e0565b9150611278836110e0565b9250828202611286816110e0565b9150828204841483151761129d5761129c611236565b5b5092915050565b7f4e487b71000000000000000000000000000000000000000000000000000000005f52601260045260245ffd5b5f6112db826110e0565b91506112e6836110e0565b9250826112f6576112f56112a4565b5b828204905092915050565b5f82825260208201905092915050565b7f496e76616c696420746f6b656e206164647265737300000000000000000000005f82015250565b5f611345601583611301565b915061135082611311565b602082019050919050565b5f6020820190508181035f83015261137281611339565b9050919050565b7f416d6f756e7420696e206d7573742062652067726561746572207468616e207a5f8201527f65726f0000000000000000000000000000000000000000000000000000000000602082015250565b5f6113d3602383611301565b91506113de82611379565b604082019050919050565b5f6020820190508181035f830152611400816113c7565b9050919050565b7f4c697175696469747920706f6f6c20697320656d7074790000000000000000005f82015250565b5f61143b601783611301565b915061144682611407565b602082019050919050565b5f6020820190508181035f8301526114688161142f565b9050919050565b7f4e6f7420656e6f756768206c697175696469747920666f7220746865207377615f8201527f7000000000000000000000000000000000000000000000000000000000000000602082015250565b5f6114c9602183611301565b91506114d48261146f565b604082019050919050565b5f6020820190508181035f8301526114f6816114bd565b9050919050565b5f6060820190506115105f8301866111d0565b61151d60208301856111d0565b61152a60408301846110e9565b949350505050565b5f8115159050919050565b61154681611532565b8114611550575f5ffd5b50565b5f815190506115618161153d565b92915050565b5f6020828403121561157c5761157b611111565b5b5f61158984828501611553565b91505092915050565b5f6040820190506115a55f8301856111d0565b6115b260208301846110e9565b9392505050565b5f6115c3826110e0565b91506115ce836110e0565b92508282019050808211156115e6576115e5611236565b5b92915050565b5f6115f6826110e0565b9150611601836110e0565b925082820390508181111561161957611618611236565b5b92915050565b7f42666f72410000000000000000000000000000000000000000000000000000005f82015250565b5f611653600583611301565b915061165e8261161f565b602082019050919050565b5f6060820190508181035f83015261168081611647565b905061168f60208301856110e9565b61169c60408301846110e9565b9392505050565b7f416d6f756e7473206d7573742062652067726561746572207468616e207a65725f8201527f6f00000000000000000000000000000000000000000000000000000000000000602082015250565b5f6116fd602183611301565b9150611708826116a3565b604082019050919050565b5f6020820190508181035f83015261172a816116f1565b9050919050565b7f41646400000000000000000000000000000000000000000000000000000000005f82015250565b5f611765600383611301565b915061177082611731565b602082019050919050565b5f6060820190508181035f83015261179281611759565b90506117a160208301856110e9565b6117ae60408301846110e9565b9392505050565b7f496e73756666696369656e74206c6971756964697479000000000000000000005f82015250565b5f6117e9601683611301565b91506117f4826117b5565b602082019050919050565b5f6020820190508181035f830152611816816117dd565b9050919050565b7f52656d6f766500000000000000000000000000000000000000000000000000005f82015250565b5f611851600683611301565b915061185c8261181d565b602082019050919050565b5f6060820190508181035f83015261187e81611845565b905061188d60208301856110e9565b61189a60408301846110e9565b9392505050565b7f41666f72420000000000000000000000000000000000000000000000000000005f82015250565b5f6118d5600583611301565b91506118e0826118a1565b602082019050919050565b5f6060820190508181035f830152611902816118c9565b905061191160208301856110e9565b61191e60408301846110e9565b9392505050565b7f5265656e7472616e637947756172643a207265656e7472616e742063616c6c005f82015250565b5f611959601f83611301565b915061196482611925565b602082019050919050565b5f6020820190508181035f8301526119868161194d565b9050919050565b7f496e73756666696369656e74206c697175696469747920666f722063616c63755f8201527f6c6174696f6e0000000000000000000000000000000000000000000000000000602082015250565b5f6119e7602683611301565b91506119f28261198d565b604082019050919050565b5f6020820190508181035f830152611a14816119db565b9050919050565b7f43616c63756c61746564206f757470757420616d6f756e74206973207a65726f5f82015250565b5f611a4f602083611301565b9150611a5a82611a1b565b602082019050919050565b5f6020820190508181035f830152611a7c81611a43565b905091905056fea2646970667358221220ce7dd75755c00b7f9df25ef7b8db3b886dd4eb741af6ec31e8a3caa248bea11d64736f6c634300081e0033",
					"opcodes": "PUSH1 0x80 PUSH1 0x40 MSTORE CALLVALUE DUP1 ISZERO PUSH2 0xF JUMPI PUSH0 PUSH0 REVERT JUMPDEST POP PUSH1 0x40 MLOAD PUSH2 0x1D8B CODESIZE SUB DUP1 PUSH2 0x1D8B DUP4 CODECOPY DUP2 DUP2 ADD PUSH1 0x40 MSTORE DUP2 ADD SWAP1 PUSH2 0x31 SWAP2 SWAP1 PUSH2 0x25F JUMP JUMPDEST CALLER PUSH0 PUSH20 0xFFFFFFFFFFFFFFFFFFFFFFFFFFFFFFFFFFFFFFFF AND DUP2 PUSH20 0xFFFFFFFFFFFFFFFFFFFFFFFFFFFFFFFFFFFFFFFF AND SUB PUSH2 0xA2 JUMPI PUSH0 PUSH1 0x40 MLOAD PUSH32 0x1E4FBDF700000000000000000000000000000000000000000000000000000000 DUP2 MSTORE PUSH1 0x4 ADD PUSH2 0x99 SWAP2 SWAP1 PUSH2 0x2AC JUMP JUMPDEST PUSH1 0x40 MLOAD DUP1 SWAP2 SUB SWAP1 REVERT JUMPDEST PUSH2 0xB1 DUP2 PUSH2 0x140 PUSH1 0x20 SHL PUSH1 0x20 SHR JUMP JUMPDEST POP PUSH1 0x1 DUP1 DUP2 SWAP1 SSTORE POP DUP2 PUSH1 0x2 PUSH0 PUSH2 0x100 EXP DUP2 SLOAD DUP2 PUSH20 0xFFFFFFFFFFFFFFFFFFFFFFFFFFFFFFFFFFFFFFFF MUL NOT AND SWAP1 DUP4 PUSH20 0xFFFFFFFFFFFFFFFFFFFFFFFFFFFFFFFFFFFFFFFF AND MUL OR SWAP1 SSTORE POP DUP1 PUSH1 0x3 PUSH0 PUSH2 0x100 EXP DUP2 SLOAD DUP2 PUSH20 0xFFFFFFFFFFFFFFFFFFFFFFFFFFFFFFFFFFFFFFFF MUL NOT AND SWAP1 DUP4 PUSH20 0xFFFFFFFFFFFFFFFFFFFFFFFFFFFFFFFFFFFFFFFF AND MUL OR SWAP1 SSTORE POP POP POP PUSH2 0x2C5 JUMP JUMPDEST PUSH0 PUSH0 PUSH0 SWAP1 SLOAD SWAP1 PUSH2 0x100 EXP SWAP1 DIV PUSH20 0xFFFFFFFFFFFFFFFFFFFFFFFFFFFFFFFFFFFFFFFF AND SWAP1 POP DUP2 PUSH0 PUSH0 PUSH2 0x100 EXP DUP2 SLOAD DUP2 PUSH20 0xFFFFFFFFFFFFFFFFFFFFFFFFFFFFFFFFFFFFFFFF MUL NOT AND SWAP1 DUP4 PUSH20 0xFFFFFFFFFFFFFFFFFFFFFFFFFFFFFFFFFFFFFFFF AND MUL OR SWAP1 SSTORE POP DUP2 PUSH20 0xFFFFFFFFFFFFFFFFFFFFFFFFFFFFFFFFFFFFFFFF AND DUP2 PUSH20 0xFFFFFFFFFFFFFFFFFFFFFFFFFFFFFFFFFFFFFFFF AND PUSH32 0x8BE0079C531659141344CD1FD0A4F28419497F9722A3DAAFE3B4186F6B6457E0 PUSH1 0x40 MLOAD PUSH1 0x40 MLOAD DUP1 SWAP2 SUB SWAP1 LOG3 POP POP JUMP JUMPDEST PUSH0 PUSH0 REVERT JUMPDEST PUSH0 PUSH20 0xFFFFFFFFFFFFFFFFFFFFFFFFFFFFFFFFFFFFFFFF DUP3 AND SWAP1 POP SWAP2 SWAP1 POP JUMP JUMPDEST PUSH0 PUSH2 0x22E DUP3 PUSH2 0x205 JUMP JUMPDEST SWAP1 POP SWAP2 SWAP1 POP JUMP JUMPDEST PUSH2 0x23E DUP2 PUSH2 0x224 JUMP JUMPDEST DUP2 EQ PUSH2 0x248 JUMPI PUSH0 PUSH0 REVERT JUMPDEST POP JUMP JUMPDEST PUSH0 DUP2 MLOAD SWAP1 POP PUSH2 0x259 DUP2 PUSH2 0x235 JUMP JUMPDEST SWAP3 SWAP2 POP POP JUMP JUMPDEST PUSH0 PUSH0 PUSH1 0x40 DUP4 DUP6 SUB SLT ISZERO PUSH2 0x275 JUMPI PUSH2 0x274 PUSH2 0x201 JUMP JUMPDEST JUMPDEST PUSH0 PUSH2 0x282 DUP6 DUP3 DUP7 ADD PUSH2 0x24B JUMP JUMPDEST SWAP3 POP POP PUSH1 0x20 PUSH2 0x293 DUP6 DUP3 DUP7 ADD PUSH2 0x24B JUMP JUMPDEST SWAP2 POP POP SWAP3 POP SWAP3 SWAP1 POP JUMP JUMPDEST PUSH2 0x2A6 DUP2 PUSH2 0x224 JUMP JUMPDEST DUP3 MSTORE POP POP JUMP JUMPDEST PUSH0 PUSH1 0x20 DUP3 ADD SWAP1 POP PUSH2 0x2BF PUSH0 DUP4 ADD DUP5 PUSH2 0x29D JUMP JUMPDEST SWAP3 SWAP2 POP POP JUMP JUMPDEST PUSH2 0x1AB9 DUP1 PUSH2 0x2D2 PUSH0 CODECOPY PUSH0 RETURN INVALID PUSH1 0x80 PUSH1 0x40 MSTORE CALLVALUE DUP1 ISZERO PUSH2 0xF JUMPI PUSH0 PUSH0 REVERT JUMPDEST POP PUSH1 0x4 CALLDATASIZE LT PUSH2 0xB2 JUMPI PUSH0 CALLDATALOAD PUSH1 0xE0 SHR DUP1 PUSH4 0x8DA5CB5B GT PUSH2 0x6F JUMPI DUP1 PUSH4 0x8DA5CB5B EQ PUSH2 0x166 JUMPI DUP1 PUSH4 0x9CD441DA EQ PUSH2 0x184 JUMPI DUP1 PUSH4 0x9D7DE6B3 EQ PUSH2 0x1A0 JUMPI DUP1 PUSH4 0xDC5FA6C5 EQ PUSH2 0x1BC JUMPI DUP1 PUSH4 0xE4F1F70A EQ PUSH2 0x1DA JUMPI DUP1 PUSH4 0xF2FDE38B EQ PUSH2 0x1F6 JUMPI PUSH2 0xB2 JUMP JUMPDEST DUP1 PUSH4 0xFC63D10 EQ PUSH2 0xB6 JUMPI DUP1 PUSH4 0x19E36F3B EQ PUSH2 0xD4 JUMPI DUP1 PUSH4 0x41976E09 EQ PUSH2 0xF2 JUMPI DUP1 PUSH4 0x5F64B55B EQ PUSH2 0x122 JUMPI DUP1 PUSH4 0x715018A6 EQ PUSH2 0x140 JUMPI DUP1 PUSH4 0x8014A7AA EQ PUSH2 0x14A JUMPI JUMPDEST PUSH0 PUSH0 REVERT JUMPDEST PUSH2 0xBE PUSH2 0x212 JUMP JUMPDEST PUSH1 0x40 MLOAD PUSH2 0xCB SWAP2 SWAP1 PUSH2 0x10C7 JUMP JUMPDEST PUSH1 0x40 MLOAD DUP1 SWAP2 SUB SWAP1 RETURN JUMPDEST PUSH2 0xDC PUSH2 0x237 JUMP JUMPDEST PUSH1 0x40 MLOAD PUSH2 0xE9 SWAP2 SWAP1 PUSH2 0x10F8 JUMP JUMPDEST PUSH1 0x40 MLOAD DUP1 SWAP2 SUB SWAP1 RETURN JUMPDEST PUSH2 0x10C PUSH1 0x4 DUP1 CALLDATASIZE SUB DUP2 ADD SWAP1 PUSH2 0x107 SWAP2 SWAP1 PUSH2 0x1150 JUMP JUMPDEST PUSH2 0x23D JUMP JUMPDEST PUSH1 0x40 MLOAD PUSH2 0x119 SWAP2 SWAP1 PUSH2 0x10F8 JUMP JUMPDEST PUSH1 0x40 MLOAD DUP1 SWAP2 SUB SWAP1 RETURN JUMPDEST PUSH2 0x12A PUSH2 0x39C JUMP JUMPDEST PUSH1 0x40 MLOAD PUSH2 0x137 SWAP2 SWAP1 PUSH2 0x10C7 JUMP JUMPDEST PUSH1 0x40 MLOAD DUP1 SWAP2 SUB SWAP1 RETURN JUMPDEST PUSH2 0x148 PUSH2 0x3C1 JUMP JUMPDEST STOP JUMPDEST PUSH2 0x164 PUSH1 0x4 DUP1 CALLDATASIZE SUB DUP2 ADD SWAP1 PUSH2 0x15F SWAP2 SWAP1 PUSH2 0x11A5 JUMP JUMPDEST PUSH2 0x3D4 JUMP JUMPDEST STOP JUMPDEST PUSH2 0x16E PUSH2 0x677 JUMP JUMPDEST PUSH1 0x40 MLOAD PUSH2 0x17B SWAP2 SWAP1 PUSH2 0x11DF JUMP JUMPDEST PUSH1 0x40 MLOAD DUP1 SWAP2 SUB SWAP1 RETURN JUMPDEST PUSH2 0x19E PUSH1 0x4 DUP1 CALLDATASIZE SUB DUP2 ADD SWAP1 PUSH2 0x199 SWAP2 SWAP1 PUSH2 0x11F8 JUMP JUMPDEST PUSH2 0x69E JUMP JUMPDEST STOP JUMPDEST PUSH2 0x1BA PUSH1 0x4 DUP1 CALLDATASIZE SUB DUP2 ADD SWAP1 PUSH2 0x1B5 SWAP2 SWAP1 PUSH2 0x11F8 JUMP JUMPDEST PUSH2 0x89D JUMP JUMPDEST STOP JUMPDEST PUSH2 0x1C4 PUSH2 0xA9F JUMP JUMPDEST PUSH1 0x40 MLOAD PUSH2 0x1D1 SWAP2 SWAP1 PUSH2 0x10F8 JUMP JUMPDEST PUSH1 0x40 MLOAD DUP1 SWAP2 SUB SWAP1 RETURN JUMPDEST PUSH2 0x1F4 PUSH1 0x4 DUP1 CALLDATASIZE SUB DUP2 ADD SWAP1 PUSH2 0x1EF SWAP2 SWAP1 PUSH2 0x11A5 JUMP JUMPDEST PUSH2 0xAA5 JUMP JUMPDEST STOP JUMPDEST PUSH2 0x210 PUSH1 0x4 DUP1 CALLDATASIZE SUB DUP2 ADD SWAP1 PUSH2 0x20B SWAP2 SWAP1 PUSH2 0x1150 JUMP JUMPDEST PUSH2 0xD48 JUMP JUMPDEST STOP JUMPDEST PUSH1 0x2 PUSH0 SWAP1 SLOAD SWAP1 PUSH2 0x100 EXP SWAP1 DIV PUSH20 0xFFFFFFFFFFFFFFFFFFFFFFFFFFFFFFFFFFFFFFFF AND DUP2 JUMP JUMPDEST PUSH1 0x5 SLOAD DUP2 JUMP JUMPDEST PUSH0 PUSH1 0x2 PUSH0 SWAP1 SLOAD SWAP1 PUSH2 0x100 EXP SWAP1 DIV PUSH20 0xFFFFFFFFFFFFFFFFFFFFFFFFFFFFFFFFFFFFFFFF AND PUSH20 0xFFFFFFFFFFFFFFFFFFFFFFFFFFFFFFFFFFFFFFFF AND DUP3 PUSH20 0xFFFFFFFFFFFFFFFFFFFFFFFFFFFFFFFFFFFFFFFF AND SUB PUSH2 0x2CD JUMPI PUSH0 PUSH1 0x4 SLOAD SUB PUSH2 0x2A3 JUMPI PUSH0 SWAP1 POP PUSH2 0x397 JUMP JUMPDEST PUSH1 0x4 SLOAD PUSH8 0xDE0B6B3A7640000 PUSH1 0x5 SLOAD PUSH2 0x2BC SWAP2 SWAP1 PUSH2 0x1263 JUMP JUMPDEST PUSH2 0x2C6 SWAP2 SWAP1 PUSH2 0x12D1 JUMP JUMPDEST SWAP1 POP PUSH2 0x397 JUMP JUMPDEST PUSH1 0x3 PUSH0 SWAP1 SLOAD SWAP1 PUSH2 0x100 EXP SWAP1 DIV PUSH20 0xFFFFFFFFFFFFFFFFFFFFFFFFFFFFFFFFFFFFFFFF AND PUSH20 0xFFFFFFFFFFFFFFFFFFFFFFFFFFFFFFFFFFFFFFFF AND DUP3 PUSH20 0xFFFFFFFFFFFFFFFFFFFFFFFFFFFFFFFFFFFFFFFF AND SUB PUSH2 0x35C JUMPI PUSH0 PUSH1 0x5 SLOAD SUB PUSH2 0x332 JUMPI PUSH0 SWAP1 POP PUSH2 0x397 JUMP JUMPDEST PUSH1 0x5 SLOAD PUSH8 0xDE0B6B3A7640000 PUSH1 0x4 SLOAD PUSH2 0x34B SWAP2 SWAP1 PUSH2 0x1263 JUMP JUMPDEST PUSH2 0x355 SWAP2 SWAP1 PUSH2 0x12D1 JUMP JUMPDEST SWAP1 POP PUSH2 0x397 JUMP JUMPDEST PUSH1 0x40 MLOAD PUSH32 0x8C379A000000000000000000000000000000000000000000000000000000000 DUP2 MSTORE PUSH1 0x4 ADD PUSH2 0x38E SWAP1 PUSH2 0x135B JUMP JUMPDEST PUSH1 0x40 MLOAD DUP1 SWAP2 SUB SWAP1 REVERT JUMPDEST SWAP2 SWAP1 POP JUMP JUMPDEST PUSH1 0x3 PUSH0 SWAP1 SLOAD SWAP1 PUSH2 0x100 EXP SWAP1 DIV PUSH20 0xFFFFFFFFFFFFFFFFFFFFFFFFFFFFFFFFFFFFFFFF AND DUP2 JUMP JUMPDEST PUSH2 0x3C9 PUSH2 0xDCC JUMP JUMPDEST PUSH2 0x3D2 PUSH0 PUSH2 0xE53 JUMP JUMPDEST JUMP JUMPDEST PUSH2 0x3DC PUSH2 0xF14 JUMP JUMPDEST PUSH0 DUP2 GT PUSH2 0x41E JUMPI PUSH1 0x40 MLOAD PUSH32 0x8C379A000000000000000000000000000000000000000000000000000000000 DUP2 MSTORE PUSH1 0x4 ADD PUSH2 0x415 SWAP1 PUSH2 0x13E9 JUMP JUMPDEST PUSH1 0x40 MLOAD DUP1 SWAP2 SUB SWAP1 REVERT JUMPDEST PUSH0 PUSH1 0x4 SLOAD GT DUP1 ISZERO PUSH2 0x430 JUMPI POP PUSH0 PUSH1 0x5 SLOAD GT JUMPDEST PUSH2 0x46F JUMPI PUSH1 0x40 MLOAD PUSH32 0x8C379A000000000000000000000000000000000000000000000000000000000 DUP2 MSTORE PUSH1 0x4 ADD PUSH2 0x466 SWAP1 PUSH2 0x1451 JUMP JUMPDEST PUSH1 0x40 MLOAD DUP1 SWAP2 SUB SWAP1 REVERT JUMPDEST PUSH0 PUSH2 0x47F DUP3 PUSH1 0x5 SLOAD PUSH1 0x4 SLOAD PUSH2 0xF63 JUMP JUMPDEST SWAP1 POP DUP1 PUSH1 0x4 SLOAD LT ISZERO PUSH2 0x4C6 JUMPI PUSH1 0x40 MLOAD PUSH32 0x8C379A000000000000000000000000000000000000000000000000000000000 DUP2 MSTORE PUSH1 0x4 ADD PUSH2 0x4BD SWAP1 PUSH2 0x14DF JUMP JUMPDEST PUSH1 0x40 MLOAD DUP1 SWAP2 SUB SWAP1 REVERT JUMPDEST PUSH1 0x3 PUSH0 SWAP1 SLOAD SWAP1 PUSH2 0x100 EXP SWAP1 DIV PUSH20 0xFFFFFFFFFFFFFFFFFFFFFFFFFFFFFFFFFFFFFFFF AND PUSH20 0xFFFFFFFFFFFFFFFFFFFFFFFFFFFFFFFFFFFFFFFF AND PUSH4 0x23B872DD CALLER ADDRESS DUP6 PUSH1 0x40 MLOAD DUP5 PUSH4 0xFFFFFFFF AND PUSH1 0xE0 SHL DUP2 MSTORE PUSH1 0x4 ADD PUSH2 0x524 SWAP4 SWAP3 SWAP2 SWAP1 PUSH2 0x14FD JUMP JUMPDEST PUSH1 0x20 PUSH1 0x40 MLOAD DUP1 DUP4 SUB DUP2 PUSH0 DUP8 GAS CALL ISZERO DUP1 ISZERO PUSH2 0x540 JUMPI RETURNDATASIZE PUSH0 PUSH0 RETURNDATACOPY RETURNDATASIZE PUSH0 REVERT JUMPDEST POP POP POP POP PUSH1 0x40 MLOAD RETURNDATASIZE PUSH1 0x1F NOT PUSH1 0x1F DUP3 ADD AND DUP3 ADD DUP1 PUSH1 0x40 MSTORE POP DUP2 ADD SWAP1 PUSH2 0x564 SWAP2 SWAP1 PUSH2 0x1567 JUMP JUMPDEST POP PUSH1 0x2 PUSH0 SWAP1 SLOAD SWAP1 PUSH2 0x100 EXP SWAP1 DIV PUSH20 0xFFFFFFFFFFFFFFFFFFFFFFFFFFFFFFFFFFFFFFFF AND PUSH20 0xFFFFFFFFFFFFFFFFFFFFFFFFFFFFFFFFFFFFFFFF AND PUSH4 0xA9059CBB CALLER DUP4 PUSH1 0x40 MLOAD DUP4 PUSH4 0xFFFFFFFF AND PUSH1 0xE0 SHL DUP2 MSTORE PUSH1 0x4 ADD PUSH2 0x5C1 SWAP3 SWAP2 SWAP1 PUSH2 0x1592 JUMP JUMPDEST PUSH1 0x20 PUSH1 0x40 MLOAD DUP1 DUP4 SUB DUP2 PUSH0 DUP8 GAS CALL ISZERO DUP1 ISZERO PUSH2 0x5DD JUMPI RETURNDATASIZE PUSH0 PUSH0 RETURNDATACOPY RETURNDATASIZE PUSH0 REVERT JUMPDEST POP POP POP POP PUSH1 0x40 MLOAD RETURNDATASIZE PUSH1 0x1F NOT PUSH1 0x1F DUP3 ADD AND DUP3 ADD DUP1 PUSH1 0x40 MSTORE POP DUP2 ADD SWAP1 PUSH2 0x601 SWAP2 SWAP1 PUSH2 0x1567 JUMP JUMPDEST POP DUP2 PUSH1 0x5 PUSH0 DUP3 DUP3 SLOAD PUSH2 0x613 SWAP2 SWAP1 PUSH2 0x15B9 JUMP JUMPDEST SWAP3 POP POP DUP2 SWAP1 SSTORE POP DUP1 PUSH1 0x4 PUSH0 DUP3 DUP3 SLOAD PUSH2 0x62B SWAP2 SWAP1 PUSH2 0x15EC JUMP JUMPDEST SWAP3 POP POP DUP2 SWAP1 SSTORE POP PUSH32 0x99151D1285A42A31514AFC05D8341521A9E02F4D15FE80D8CD617DD0E6330C3B DUP3 DUP3 PUSH1 0x40 MLOAD PUSH2 0x663 SWAP3 SWAP2 SWAP1 PUSH2 0x1669 JUMP JUMPDEST PUSH1 0x40 MLOAD DUP1 SWAP2 SUB SWAP1 LOG1 POP PUSH2 0x674 PUSH2 0x103D JUMP JUMPDEST POP JUMP JUMPDEST PUSH0 PUSH0 PUSH0 SWAP1 SLOAD SWAP1 PUSH2 0x100 EXP SWAP1 DIV PUSH20 0xFFFFFFFFFFFFFFFFFFFFFFFFFFFFFFFFFFFFFFFF AND SWAP1 POP SWAP1 JUMP JUMPDEST PUSH2 0x6A6 PUSH2 0xDCC JUMP JUMPDEST PUSH0 DUP3 GT DUP1 PUSH2 0x6B3 JUMPI POP PUSH0 DUP2 GT JUMPDEST PUSH2 0x6F2 JUMPI PUSH1 0x40 MLOAD PUSH32 0x8C379A000000000000000000000000000000000000000000000000000000000 DUP2 MSTORE PUSH1 0x4 ADD PUSH2 0x6E9 SWAP1 PUSH2 0x1713 JUMP JUMPDEST PUSH1 0x40 MLOAD DUP1 SWAP2 SUB SWAP1 REVERT JUMPDEST PUSH1 0x2 PUSH0 SWAP1 SLOAD SWAP1 PUSH2 0x100 EXP SWAP1 DIV PUSH20 0xFFFFFFFFFFFFFFFFFFFFFFFFFFFFFFFFFFFFFFFF AND PUSH20 0xFFFFFFFFFFFFFFFFFFFFFFFFFFFFFFFFFFFFFFFF AND PUSH4 0x23B872DD CALLER ADDRESS DUP6 PUSH1 0x40 MLOAD DUP5 PUSH4 0xFFFFFFFF AND PUSH1 0xE0 SHL DUP2 MSTORE PUSH1 0x4 ADD PUSH2 0x750 SWAP4 SWAP3 SWAP2 SWAP1 PUSH2 0x14FD JUMP JUMPDEST PUSH1 0x20 PUSH1 0x40 MLOAD DUP1 DUP4 SUB DUP2 PUSH0 DUP8 GAS CALL ISZERO DUP1 ISZERO PUSH2 0x76C JUMPI RETURNDATASIZE PUSH0 PUSH0 RETURNDATACOPY RETURNDATASIZE PUSH0 REVERT JUMPDEST POP POP POP POP PUSH1 0x40 MLOAD RETURNDATASIZE PUSH1 0x1F NOT PUSH1 0x1F DUP3 ADD AND DUP3 ADD DUP1 PUSH1 0x40 MSTORE POP DUP2 ADD SWAP1 PUSH2 0x790 SWAP2 SWAP1 PUSH2 0x1567 JUMP JUMPDEST POP PUSH1 0x3 PUSH0 SWAP1 SLOAD SWAP1 PUSH2 0x100 EXP SWAP1 DIV PUSH20 0xFFFFFFFFFFFFFFFFFFFFFFFFFFFFFFFFFFFFFFFF AND PUSH20 0xFFFFFFFFFFFFFFFFFFFFFFFFFFFFFFFFFFFFFFFF AND PUSH4 0x23B872DD CALLER ADDRESS DUP5 PUSH1 0x40 MLOAD DUP5 PUSH4 0xFFFFFFFF AND PUSH1 0xE0 SHL DUP2 MSTORE PUSH1 0x4 ADD PUSH2 0x7EF SWAP4 SWAP3 SWAP2 SWAP1 PUSH2 0x14FD JUMP JUMPDEST PUSH1 0x20 PUSH1 0x40 MLOAD DUP1 DUP4 SUB DUP2 PUSH0 DUP8 GAS CALL ISZERO DUP1 ISZERO PUSH2 0x80B JUMPI RETURNDATASIZE PUSH0 PUSH0 RETURNDATACOPY RETURNDATASIZE PUSH0 REVERT JUMPDEST POP POP POP POP PUSH1 0x40 MLOAD RETURNDATASIZE PUSH1 0x1F NOT PUSH1 0x1F DUP3 ADD AND DUP3 ADD DUP1 PUSH1 0x40 MSTORE POP DUP2 ADD SWAP1 PUSH2 0x82F SWAP2 SWAP1 PUSH2 0x1567 JUMP JUMPDEST POP DUP2 PUSH1 0x4 PUSH0 DUP3 DUP3 SLOAD PUSH2 0x841 SWAP2 SWAP1 PUSH2 0x15B9 JUMP JUMPDEST SWAP3 POP POP DUP2 SWAP1 SSTORE POP DUP1 PUSH1 0x5 PUSH0 DUP3 DUP3 SLOAD PUSH2 0x859 SWAP2 SWAP1 PUSH2 0x15B9 JUMP JUMPDEST SWAP3 POP POP DUP2 SWAP1 SSTORE POP PUSH32 0x959B1D93CFBBD38471FD78660C739FFED1589F0AC706CBCE37F4D8DB90F15B1D DUP3 DUP3 PUSH1 0x40 MLOAD PUSH2 0x891 SWAP3 SWAP2 SWAP1 PUSH2 0x177B JUMP JUMPDEST PUSH1 0x40 MLOAD DUP1 SWAP2 SUB SWAP1 LOG1 POP POP JUMP JUMPDEST PUSH2 0x8A5 PUSH2 0xDCC JUMP JUMPDEST PUSH1 0x4 SLOAD DUP3 GT ISZERO DUP1 ISZERO PUSH2 0x8B9 JUMPI POP PUSH1 0x5 SLOAD DUP2 GT ISZERO JUMPDEST PUSH2 0x8F8 JUMPI PUSH1 0x40 MLOAD PUSH32 0x8C379A000000000000000000000000000000000000000000000000000000000 DUP2 MSTORE PUSH1 0x4 ADD PUSH2 0x8EF SWAP1 PUSH2 0x17FF JUMP JUMPDEST PUSH1 0x40 MLOAD DUP1 SWAP2 SUB SWAP1 REVERT JUMPDEST DUP2 PUSH1 0x4 PUSH0 DUP3 DUP3 SLOAD PUSH2 0x909 SWAP2 SWAP1 PUSH2 0x15EC JUMP JUMPDEST SWAP3 POP POP DUP2 SWAP1 SSTORE POP DUP1 PUSH1 0x5 PUSH0 DUP3 DUP3 SLOAD PUSH2 0x921 SWAP2 SWAP1 PUSH2 0x15EC JUMP JUMPDEST SWAP3 POP POP DUP2 SWAP1 SSTORE POP PUSH1 0x2 PUSH0 SWAP1 SLOAD SWAP1 PUSH2 0x100 EXP SWAP1 DIV PUSH20 0xFFFFFFFFFFFFFFFFFFFFFFFFFFFFFFFFFFFFFFFF AND PUSH20 0xFFFFFFFFFFFFFFFFFFFFFFFFFFFFFFFFFFFFFFFF AND PUSH4 0xA9059CBB CALLER DUP5 PUSH1 0x40 MLOAD DUP4 PUSH4 0xFFFFFFFF AND PUSH1 0xE0 SHL DUP2 MSTORE PUSH1 0x4 ADD PUSH2 0x984 SWAP3 SWAP2 SWAP1 PUSH2 0x1592 JUMP JUMPDEST PUSH1 0x20 PUSH1 0x40 MLOAD DUP1 DUP4 SUB DUP2 PUSH0 DUP8 GAS CALL ISZERO DUP1 ISZERO PUSH2 0x9A0 JUMPI RETURNDATASIZE PUSH0 PUSH0 RETURNDATACOPY RETURNDATASIZE PUSH0 REVERT JUMPDEST POP POP POP POP PUSH1 0x40 MLOAD RETURNDATASIZE PUSH1 0x1F NOT PUSH1 0x1F DUP3 ADD AND DUP3 ADD DUP1 PUSH1 0x40 MSTORE POP DUP2 ADD SWAP1 PUSH2 0x9C4 SWAP2 SWAP1 PUSH2 0x1567 JUMP JUMPDEST POP PUSH1 0x3 PUSH0 SWAP1 SLOAD SWAP1 PUSH2 0x100 EXP SWAP1 DIV PUSH20 0xFFFFFFFFFFFFFFFFFFFFFFFFFFFFFFFFFFFFFFFF AND PUSH20 0xFFFFFFFFFFFFFFFFFFFFFFFFFFFFFFFFFFFFFFFF AND PUSH4 0xA9059CBB CALLER DUP4 PUSH1 0x40 MLOAD DUP4 PUSH4 0xFFFFFFFF AND PUSH1 0xE0 SHL DUP2 MSTORE PUSH1 0x4 ADD PUSH2 0xA21 SWAP3 SWAP2 SWAP1 PUSH2 0x1592 JUMP JUMPDEST PUSH1 0x20 PUSH1 0x40 MLOAD DUP1 DUP4 SUB DUP2 PUSH0 DUP8 GAS CALL ISZERO DUP1 ISZERO PUSH2 0xA3D JUMPI RETURNDATASIZE PUSH0 PUSH0 RETURNDATACOPY RETURNDATASIZE PUSH0 REVERT JUMPDEST POP POP POP POP PUSH1 0x40 MLOAD RETURNDATASIZE PUSH1 0x1F NOT PUSH1 0x1F DUP3 ADD AND DUP3 ADD DUP1 PUSH1 0x40 MSTORE POP DUP2 ADD SWAP1 PUSH2 0xA61 SWAP2 SWAP1 PUSH2 0x1567 JUMP JUMPDEST POP PUSH32 0x959B1D93CFBBD38471FD78660C739FFED1589F0AC706CBCE37F4D8DB90F15B1D DUP3 DUP3 PUSH1 0x40 MLOAD PUSH2 0xA93 SWAP3 SWAP2 SWAP1 PUSH2 0x1867 JUMP JUMPDEST PUSH1 0x40 MLOAD DUP1 SWAP2 SUB SWAP1 LOG1 POP POP JUMP JUMPDEST PUSH1 0x4 SLOAD DUP2 JUMP JUMPDEST PUSH2 0xAAD PUSH2 0xF14 JUMP JUMPDEST PUSH0 DUP2 GT PUSH2 0xAEF JUMPI PUSH1 0x40 MLOAD PUSH32 0x8C379A000000000000000000000000000000000000000000000000000000000 DUP2 MSTORE PUSH1 0x4 ADD PUSH2 0xAE6 SWAP1 PUSH2 0x13E9 JUMP JUMPDEST PUSH1 0x40 MLOAD DUP1 SWAP2 SUB SWAP1 REVERT JUMPDEST PUSH0 PUSH1 0x4 SLOAD GT DUP1 ISZERO PUSH2 0xB01 JUMPI POP PUSH0 PUSH1 0x5 SLOAD GT JUMPDEST PUSH2 0xB40 JUMPI PUSH1 0x40 MLOAD PUSH32 0x8C379A000000000000000000000000000000000000000000000000000000000 DUP2 MSTORE PUSH1 0x4 ADD PUSH2 0xB37 SWAP1 PUSH2 0x1451 JUMP JUMPDEST PUSH1 0x40 MLOAD DUP1 SWAP2 SUB SWAP1 REVERT JUMPDEST PUSH0 PUSH2 0xB50 DUP3 PUSH1 0x4 SLOAD PUSH1 0x5 SLOAD PUSH2 0xF63 JUMP JUMPDEST SWAP1 POP DUP1 PUSH1 0x5 SLOAD LT ISZERO PUSH2 0xB97 JUMPI PUSH1 0x40 MLOAD PUSH32 0x8C379A000000000000000000000000000000000000000000000000000000000 DUP2 MSTORE PUSH1 0x4 ADD PUSH2 0xB8E SWAP1 PUSH2 0x14DF JUMP JUMPDEST PUSH1 0x40 MLOAD DUP1 SWAP2 SUB SWAP1 REVERT JUMPDEST PUSH1 0x2 PUSH0 SWAP1 SLOAD SWAP1 PUSH2 0x100 EXP SWAP1 DIV PUSH20 0xFFFFFFFFFFFFFFFFFFFFFFFFFFFFFFFFFFFFFFFF AND PUSH20 0xFFFFFFFFFFFFFFFFFFFFFFFFFFFFFFFFFFFFFFFF AND PUSH4 0x23B872DD CALLER ADDRESS DUP6 PUSH1 0x40 MLOAD DUP5 PUSH4 0xFFFFFFFF AND PUSH1 0xE0 SHL DUP2 MSTORE PUSH1 0x4 ADD PUSH2 0xBF5 SWAP4 SWAP3 SWAP2 SWAP1 PUSH2 0x14FD JUMP JUMPDEST PUSH1 0x20 PUSH1 0x40 MLOAD DUP1 DUP4 SUB DUP2 PUSH0 DUP8 GAS CALL ISZERO DUP1 ISZERO PUSH2 0xC11 JUMPI RETURNDATASIZE PUSH0 PUSH0 RETURNDATACOPY RETURNDATASIZE PUSH0 REVERT JUMPDEST POP POP POP POP PUSH1 0x40 MLOAD RETURNDATASIZE PUSH1 0x1F NOT PUSH1 0x1F DUP3 ADD AND DUP3 ADD DUP1 PUSH1 0x40 MSTORE POP DUP2 ADD SWAP1 PUSH2 0xC35 SWAP2 SWAP1 PUSH2 0x1567 JUMP JUMPDEST POP PUSH1 0x3 PUSH0 SWAP1 SLOAD SWAP1 PUSH2 0x100 EXP SWAP1 DIV PUSH20 0xFFFFFFFFFFFFFFFFFFFFFFFFFFFFFFFFFFFFFFFF AND PUSH20 0xFFFFFFFFFFFFFFFFFFFFFFFFFFFFFFFFFFFFFFFF AND PUSH4 0xA9059CBB CALLER DUP4 PUSH1 0x40 MLOAD DUP4 PUSH4 0xFFFFFFFF AND PUSH1 0xE0 SHL DUP2 MSTORE PUSH1 0x4 ADD PUSH2 0xC92 SWAP3 SWAP2 SWAP1 PUSH2 0x1592 JUMP JUMPDEST PUSH1 0x20 PUSH1 0x40 MLOAD DUP1 DUP4 SUB DUP2 PUSH0 DUP8 GAS CALL ISZERO DUP1 ISZERO PUSH2 0xCAE JUMPI RETURNDATASIZE PUSH0 PUSH0 RETURNDATACOPY RETURNDATASIZE PUSH0 REVERT JUMPDEST POP POP POP POP PUSH1 0x40 MLOAD RETURNDATASIZE PUSH1 0x1F NOT PUSH1 0x1F DUP3 ADD AND DUP3 ADD DUP1 PUSH1 0x40 MSTORE POP DUP2 ADD SWAP1 PUSH2 0xCD2 SWAP2 SWAP1 PUSH2 0x1567 JUMP JUMPDEST POP DUP2 PUSH1 0x4 PUSH0 DUP3 DUP3 SLOAD PUSH2 0xCE4 SWAP2 SWAP1 PUSH2 0x15B9 JUMP JUMPDEST SWAP3 POP POP DUP2 SWAP1 SSTORE POP DUP1 PUSH1 0x5 PUSH0 DUP3 DUP3 SLOAD PUSH2 0xCFC SWAP2 SWAP1 PUSH2 0x15EC JUMP JUMPDEST SWAP3 POP POP DUP2 SWAP1 SSTORE POP PUSH32 0x99151D1285A42A31514AFC05D8341521A9E02F4D15FE80D8CD617DD0E6330C3B DUP3 DUP3 PUSH1 0x40 MLOAD PUSH2 0xD34 SWAP3 SWAP2 SWAP1 PUSH2 0x18EB JUMP JUMPDEST PUSH1 0x40 MLOAD DUP1 SWAP2 SUB SWAP1 LOG1 POP PUSH2 0xD45 PUSH2 0x103D JUMP JUMPDEST POP JUMP JUMPDEST PUSH2 0xD50 PUSH2 0xDCC JUMP JUMPDEST PUSH0 PUSH20 0xFFFFFFFFFFFFFFFFFFFFFFFFFFFFFFFFFFFFFFFF AND DUP2 PUSH20 0xFFFFFFFFFFFFFFFFFFFFFFFFFFFFFFFFFFFFFFFF AND SUB PUSH2 0xDC0 JUMPI PUSH0 PUSH1 0x40 MLOAD PUSH32 0x1E4FBDF700000000000000000000000000000000000000000000000000000000 DUP2 MSTORE PUSH1 0x4 ADD PUSH2 0xDB7 SWAP2 SWAP1 PUSH2 0x11DF JUMP JUMPDEST PUSH1 0x40 MLOAD DUP1 SWAP2 SUB SWAP1 REVERT JUMPDEST PUSH2 0xDC9 DUP2 PUSH2 0xE53 JUMP JUMPDEST POP JUMP JUMPDEST PUSH2 0xDD4 PUSH2 0x1046 JUMP JUMPDEST PUSH20 0xFFFFFFFFFFFFFFFFFFFFFFFFFFFFFFFFFFFFFFFF AND PUSH2 0xDF2 PUSH2 0x677 JUMP JUMPDEST PUSH20 0xFFFFFFFFFFFFFFFFFFFFFFFFFFFFFFFFFFFFFFFF AND EQ PUSH2 0xE51 JUMPI PUSH2 0xE15 PUSH2 0x1046 JUMP JUMPDEST PUSH1 0x40 MLOAD PUSH32 0x118CDAA700000000000000000000000000000000000000000000000000000000 DUP2 MSTORE PUSH1 0x4 ADD PUSH2 0xE48 SWAP2 SWAP1 PUSH2 0x11DF JUMP JUMPDEST PUSH1 0x40 MLOAD DUP1 SWAP2 SUB SWAP1 REVERT JUMPDEST JUMP JUMPDEST PUSH0 PUSH0 PUSH0 SWAP1 SLOAD SWAP1 PUSH2 0x100 EXP SWAP1 DIV PUSH20 0xFFFFFFFFFFFFFFFFFFFFFFFFFFFFFFFFFFFFFFFF AND SWAP1 POP DUP2 PUSH0 PUSH0 PUSH2 0x100 EXP DUP2 SLOAD DUP2 PUSH20 0xFFFFFFFFFFFFFFFFFFFFFFFFFFFFFFFFFFFFFFFF MUL NOT AND SWAP1 DUP4 PUSH20 0xFFFFFFFFFFFFFFFFFFFFFFFFFFFFFFFFFFFFFFFF AND MUL OR SWAP1 SSTORE POP DUP2 PUSH20 0xFFFFFFFFFFFFFFFFFFFFFFFFFFFFFFFFFFFFFFFF AND DUP2 PUSH20 0xFFFFFFFFFFFFFFFFFFFFFFFFFFFFFFFFFFFFFFFF AND PUSH32 0x8BE0079C531659141344CD1FD0A4F28419497F9722A3DAAFE3B4186F6B6457E0 PUSH1 0x40 MLOAD PUSH1 0x40 MLOAD DUP1 SWAP2 SUB SWAP1 LOG3 POP POP JUMP JUMPDEST PUSH1 0x2 PUSH1 0x1 SLOAD SUB PUSH2 0xF59 JUMPI PUSH1 0x40 MLOAD PUSH32 0x8C379A000000000000000000000000000000000000000000000000000000000 DUP2 MSTORE PUSH1 0x4 ADD PUSH2 0xF50 SWAP1 PUSH2 0x196F JUMP JUMPDEST PUSH1 0x40 MLOAD DUP1 SWAP2 SUB SWAP1 REVERT JUMPDEST PUSH1 0x2 PUSH1 0x1 DUP2 SWAP1 SSTORE POP JUMP JUMPDEST PUSH0 PUSH0 DUP4 GT DUP1 ISZERO PUSH2 0xF72 JUMPI POP PUSH0 DUP3 GT JUMPDEST PUSH2 0xFB1 JUMPI PUSH1 0x40 MLOAD PUSH32 0x8C379A000000000000000000000000000000000000000000000000000000000 DUP2 MSTORE PUSH1 0x4 ADD PUSH2 0xFA8 SWAP1 PUSH2 0x19FD JUMP JUMPDEST PUSH1 0x40 MLOAD DUP1 SWAP2 SUB SWAP1 REVERT JUMPDEST PUSH0 DUP3 DUP5 PUSH2 0xFBE SWAP2 SWAP1 PUSH2 0x1263 JUMP JUMPDEST SWAP1 POP PUSH0 DUP6 DUP6 PUSH2 0xFCD SWAP2 SWAP1 PUSH2 0x15B9 JUMP JUMPDEST SWAP1 POP PUSH0 DUP2 DUP4 PUSH2 0xFDC SWAP2 SWAP1 PUSH2 0x12D1 JUMP JUMPDEST SWAP1 POP PUSH0 DUP2 DUP7 PUSH2 0xFEB SWAP2 SWAP1 PUSH2 0x15EC JUMP JUMPDEST SWAP1 POP PUSH0 DUP2 GT PUSH2 0x102F JUMPI PUSH1 0x40 MLOAD PUSH32 0x8C379A000000000000000000000000000000000000000000000000000000000 DUP2 MSTORE PUSH1 0x4 ADD PUSH2 0x1026 SWAP1 PUSH2 0x1A65 JUMP JUMPDEST PUSH1 0x40 MLOAD DUP1 SWAP2 SUB SWAP1 REVERT JUMPDEST DUP1 SWAP5 POP POP POP POP POP SWAP4 SWAP3 POP POP POP JUMP JUMPDEST PUSH1 0x1 DUP1 DUP2 SWAP1 SSTORE POP JUMP JUMPDEST PUSH0 CALLER SWAP1 POP SWAP1 JUMP JUMPDEST PUSH0 PUSH20 0xFFFFFFFFFFFFFFFFFFFFFFFFFFFFFFFFFFFFFFFF DUP3 AND SWAP1 POP SWAP2 SWAP1 POP JUMP JUMPDEST PUSH0 DUP2 SWAP1 POP SWAP2 SWAP1 POP JUMP JUMPDEST PUSH0 PUSH2 0x108F PUSH2 0x108A PUSH2 0x1085 DUP5 PUSH2 0x104D JUMP JUMPDEST PUSH2 0x106C JUMP JUMPDEST PUSH2 0x104D JUMP JUMPDEST SWAP1 POP SWAP2 SWAP1 POP JUMP JUMPDEST PUSH0 PUSH2 0x10A0 DUP3 PUSH2 0x1075 JUMP JUMPDEST SWAP1 POP SWAP2 SWAP1 POP JUMP JUMPDEST PUSH0 PUSH2 0x10B1 DUP3 PUSH2 0x1096 JUMP JUMPDEST SWAP1 POP SWAP2 SWAP1 POP JUMP JUMPDEST PUSH2 0x10C1 DUP2 PUSH2 0x10A7 JUMP JUMPDEST DUP3 MSTORE POP POP JUMP JUMPDEST PUSH0 PUSH1 0x20 DUP3 ADD SWAP1 POP PUSH2 0x10DA PUSH0 DUP4 ADD DUP5 PUSH2 0x10B8 JUMP JUMPDEST SWAP3 SWAP2 POP POP JUMP JUMPDEST PUSH0 DUP2 SWAP1 POP SWAP2 SWAP1 POP JUMP JUMPDEST PUSH2 0x10F2 DUP2 PUSH2 0x10E0 JUMP JUMPDEST DUP3 MSTORE POP POP JUMP JUMPDEST PUSH0 PUSH1 0x20 DUP3 ADD SWAP1 POP PUSH2 0x110B PUSH0 DUP4 ADD DUP5 PUSH2 0x10E9 JUMP JUMPDEST SWAP3 SWAP2 POP POP JUMP JUMPDEST PUSH0 PUSH0 REVERT JUMPDEST PUSH0 PUSH2 0x111F DUP3 PUSH2 0x104D JUMP JUMPDEST SWAP1 POP SWAP2 SWAP1 POP JUMP JUMPDEST PUSH2 0x112F DUP2 PUSH2 0x1115 JUMP JUMPDEST DUP2 EQ PUSH2 0x1139 JUMPI PUSH0 PUSH0 REVERT JUMPDEST POP JUMP JUMPDEST PUSH0 DUP2 CALLDATALOAD SWAP1 POP PUSH2 0x114A DUP2 PUSH2 0x1126 JUMP JUMPDEST SWAP3 SWAP2 POP POP JUMP JUMPDEST PUSH0 PUSH1 0x20 DUP3 DUP5 SUB SLT ISZERO PUSH2 0x1165 JUMPI PUSH2 0x1164 PUSH2 0x1111 JUMP JUMPDEST JUMPDEST PUSH0 PUSH2 0x1172 DUP5 DUP3 DUP6 ADD PUSH2 0x113C JUMP JUMPDEST SWAP2 POP POP SWAP3 SWAP2 POP POP JUMP JUMPDEST PUSH2 0x1184 DUP2 PUSH2 0x10E0 JUMP JUMPDEST DUP2 EQ PUSH2 0x118E JUMPI PUSH0 PUSH0 REVERT JUMPDEST POP JUMP JUMPDEST PUSH0 DUP2 CALLDATALOAD SWAP1 POP PUSH2 0x119F DUP2 PUSH2 0x117B JUMP JUMPDEST SWAP3 SWAP2 POP POP JUMP JUMPDEST PUSH0 PUSH1 0x20 DUP3 DUP5 SUB SLT ISZERO PUSH2 0x11BA JUMPI PUSH2 0x11B9 PUSH2 0x1111 JUMP JUMPDEST JUMPDEST PUSH0 PUSH2 0x11C7 DUP5 DUP3 DUP6 ADD PUSH2 0x1191 JUMP JUMPDEST SWAP2 POP POP SWAP3 SWAP2 POP POP JUMP JUMPDEST PUSH2 0x11D9 DUP2 PUSH2 0x1115 JUMP JUMPDEST DUP3 MSTORE POP POP JUMP JUMPDEST PUSH0 PUSH1 0x20 DUP3 ADD SWAP1 POP PUSH2 0x11F2 PUSH0 DUP4 ADD DUP5 PUSH2 0x11D0 JUMP JUMPDEST SWAP3 SWAP2 POP POP JUMP JUMPDEST PUSH0 PUSH0 PUSH1 0x40 DUP4 DUP6 SUB SLT ISZERO PUSH2 0x120E JUMPI PUSH2 0x120D PUSH2 0x1111 JUMP JUMPDEST JUMPDEST PUSH0 PUSH2 0x121B DUP6 DUP3 DUP7 ADD PUSH2 0x1191 JUMP JUMPDEST SWAP3 POP POP PUSH1 0x20 PUSH2 0x122C DUP6 DUP3 DUP7 ADD PUSH2 0x1191 JUMP JUMPDEST SWAP2 POP POP SWAP3 POP SWAP3 SWAP1 POP JUMP JUMPDEST PUSH32 0x4E487B7100000000000000000000000000000000000000000000000000000000 PUSH0 MSTORE PUSH1 0x11 PUSH1 0x4 MSTORE PUSH1 0x24 PUSH0 REVERT JUMPDEST PUSH0 PUSH2 0x126D DUP3 PUSH2 0x10E0 JUMP JUMPDEST SWAP2 POP PUSH2 0x1278 DUP4 PUSH2 0x10E0 JUMP JUMPDEST SWAP3 POP DUP3 DUP3 MUL PUSH2 0x1286 DUP2 PUSH2 0x10E0 JUMP JUMPDEST SWAP2 POP DUP3 DUP3 DIV DUP5 EQ DUP4 ISZERO OR PUSH2 0x129D JUMPI PUSH2 0x129C PUSH2 0x1236 JUMP JUMPDEST JUMPDEST POP SWAP3 SWAP2 POP POP JUMP JUMPDEST PUSH32 0x4E487B7100000000000000000000000000000000000000000000000000000000 PUSH0 MSTORE PUSH1 0x12 PUSH1 0x4 MSTORE PUSH1 0x24 PUSH0 REVERT JUMPDEST PUSH0 PUSH2 0x12DB DUP3 PUSH2 0x10E0 JUMP JUMPDEST SWAP2 POP PUSH2 0x12E6 DUP4 PUSH2 0x10E0 JUMP JUMPDEST SWAP3 POP DUP3 PUSH2 0x12F6 JUMPI PUSH2 0x12F5 PUSH2 0x12A4 JUMP JUMPDEST JUMPDEST DUP3 DUP3 DIV SWAP1 POP SWAP3 SWAP2 POP POP JUMP JUMPDEST PUSH0 DUP3 DUP3 MSTORE PUSH1 0x20 DUP3 ADD SWAP1 POP SWAP3 SWAP2 POP POP JUMP JUMPDEST PUSH32 0x496E76616C696420746F6B656E20616464726573730000000000000000000000 PUSH0 DUP3 ADD MSTORE POP JUMP JUMPDEST PUSH0 PUSH2 0x1345 PUSH1 0x15 DUP4 PUSH2 0x1301 JUMP JUMPDEST SWAP2 POP PUSH2 0x1350 DUP3 PUSH2 0x1311 JUMP JUMPDEST PUSH1 0x20 DUP3 ADD SWAP1 POP SWAP2 SWAP1 POP JUMP JUMPDEST PUSH0 PUSH1 0x20 DUP3 ADD SWAP1 POP DUP2 DUP2 SUB PUSH0 DUP4 ADD MSTORE PUSH2 0x1372 DUP2 PUSH2 0x1339 JUMP JUMPDEST SWAP1 POP SWAP2 SWAP1 POP JUMP JUMPDEST PUSH32 0x416D6F756E7420696E206D7573742062652067726561746572207468616E207A PUSH0 DUP3 ADD MSTORE PUSH32 0x65726F0000000000000000000000000000000000000000000000000000000000 PUSH1 0x20 DUP3 ADD MSTORE POP JUMP JUMPDEST PUSH0 PUSH2 0x13D3 PUSH1 0x23 DUP4 PUSH2 0x1301 JUMP JUMPDEST SWAP2 POP PUSH2 0x13DE DUP3 PUSH2 0x1379 JUMP JUMPDEST PUSH1 0x40 DUP3 ADD SWAP1 POP SWAP2 SWAP1 POP JUMP JUMPDEST PUSH0 PUSH1 0x20 DUP3 ADD SWAP1 POP DUP2 DUP2 SUB PUSH0 DUP4 ADD MSTORE PUSH2 0x1400 DUP2 PUSH2 0x13C7 JUMP JUMPDEST SWAP1 POP SWAP2 SWAP1 POP JUMP JUMPDEST PUSH32 0x4C697175696469747920706F6F6C20697320656D707479000000000000000000 PUSH0 DUP3 ADD MSTORE POP JUMP JUMPDEST PUSH0 PUSH2 0x143B PUSH1 0x17 DUP4 PUSH2 0x1301 JUMP JUMPDEST SWAP2 POP PUSH2 0x1446 DUP3 PUSH2 0x1407 JUMP JUMPDEST PUSH1 0x20 DUP3 ADD SWAP1 POP SWAP2 SWAP1 POP JUMP JUMPDEST PUSH0 PUSH1 0x20 DUP3 ADD SWAP1 POP DUP2 DUP2 SUB PUSH0 DUP4 ADD MSTORE PUSH2 0x1468 DUP2 PUSH2 0x142F JUMP JUMPDEST SWAP1 POP SWAP2 SWAP1 POP JUMP JUMPDEST PUSH32 0x4E6F7420656E6F756768206C697175696469747920666F722074686520737761 PUSH0 DUP3 ADD MSTORE PUSH32 0x7000000000000000000000000000000000000000000000000000000000000000 PUSH1 0x20 DUP3 ADD MSTORE POP JUMP JUMPDEST PUSH0 PUSH2 0x14C9 PUSH1 0x21 DUP4 PUSH2 0x1301 JUMP JUMPDEST SWAP2 POP PUSH2 0x14D4 DUP3 PUSH2 0x146F JUMP JUMPDEST PUSH1 0x40 DUP3 ADD SWAP1 POP SWAP2 SWAP1 POP JUMP JUMPDEST PUSH0 PUSH1 0x20 DUP3 ADD SWAP1 POP DUP2 DUP2 SUB PUSH0 DUP4 ADD MSTORE PUSH2 0x14F6 DUP2 PUSH2 0x14BD JUMP JUMPDEST SWAP1 POP SWAP2 SWAP1 POP JUMP JUMPDEST PUSH0 PUSH1 0x60 DUP3 ADD SWAP1 POP PUSH2 0x1510 PUSH0 DUP4 ADD DUP7 PUSH2 0x11D0 JUMP JUMPDEST PUSH2 0x151D PUSH1 0x20 DUP4 ADD DUP6 PUSH2 0x11D0 JUMP JUMPDEST PUSH2 0x152A PUSH1 0x40 DUP4 ADD DUP5 PUSH2 0x10E9 JUMP JUMPDEST SWAP5 SWAP4 POP POP POP POP JUMP JUMPDEST PUSH0 DUP2 ISZERO ISZERO SWAP1 POP SWAP2 SWAP1 POP JUMP JUMPDEST PUSH2 0x1546 DUP2 PUSH2 0x1532 JUMP JUMPDEST DUP2 EQ PUSH2 0x1550 JUMPI PUSH0 PUSH0 REVERT JUMPDEST POP JUMP JUMPDEST PUSH0 DUP2 MLOAD SWAP1 POP PUSH2 0x1561 DUP2 PUSH2 0x153D JUMP JUMPDEST SWAP3 SWAP2 POP POP JUMP JUMPDEST PUSH0 PUSH1 0x20 DUP3 DUP5 SUB SLT ISZERO PUSH2 0x157C JUMPI PUSH2 0x157B PUSH2 0x1111 JUMP JUMPDEST JUMPDEST PUSH0 PUSH2 0x1589 DUP5 DUP3 DUP6 ADD PUSH2 0x1553 JUMP JUMPDEST SWAP2 POP POP SWAP3 SWAP2 POP POP JUMP JUMPDEST PUSH0 PUSH1 0x40 DUP3 ADD SWAP1 POP PUSH2 0x15A5 PUSH0 DUP4 ADD DUP6 PUSH2 0x11D0 JUMP JUMPDEST PUSH2 0x15B2 PUSH1 0x20 DUP4 ADD DUP5 PUSH2 0x10E9 JUMP JUMPDEST SWAP4 SWAP3 POP POP POP JUMP JUMPDEST PUSH0 PUSH2 0x15C3 DUP3 PUSH2 0x10E0 JUMP JUMPDEST SWAP2 POP PUSH2 0x15CE DUP4 PUSH2 0x10E0 JUMP JUMPDEST SWAP3 POP DUP3 DUP3 ADD SWAP1 POP DUP1 DUP3 GT ISZERO PUSH2 0x15E6 JUMPI PUSH2 0x15E5 PUSH2 0x1236 JUMP JUMPDEST JUMPDEST SWAP3 SWAP2 POP POP JUMP JUMPDEST PUSH0 PUSH2 0x15F6 DUP3 PUSH2 0x10E0 JUMP JUMPDEST SWAP2 POP PUSH2 0x1601 DUP4 PUSH2 0x10E0 JUMP JUMPDEST SWAP3 POP DUP3 DUP3 SUB SWAP1 POP DUP2 DUP2 GT ISZERO PUSH2 0x1619 JUMPI PUSH2 0x1618 PUSH2 0x1236 JUMP JUMPDEST JUMPDEST SWAP3 SWAP2 POP POP JUMP JUMPDEST PUSH32 0x42666F7241000000000000000000000000000000000000000000000000000000 PUSH0 DUP3 ADD MSTORE POP JUMP JUMPDEST PUSH0 PUSH2 0x1653 PUSH1 0x5 DUP4 PUSH2 0x1301 JUMP JUMPDEST SWAP2 POP PUSH2 0x165E DUP3 PUSH2 0x161F JUMP JUMPDEST PUSH1 0x20 DUP3 ADD SWAP1 POP SWAP2 SWAP1 POP JUMP JUMPDEST PUSH0 PUSH1 0x60 DUP3 ADD SWAP1 POP DUP2 DUP2 SUB PUSH0 DUP4 ADD MSTORE PUSH2 0x1680 DUP2 PUSH2 0x1647 JUMP JUMPDEST SWAP1 POP PUSH2 0x168F PUSH1 0x20 DUP4 ADD DUP6 PUSH2 0x10E9 JUMP JUMPDEST PUSH2 0x169C PUSH1 0x40 DUP4 ADD DUP5 PUSH2 0x10E9 JUMP JUMPDEST SWAP4 SWAP3 POP POP POP JUMP JUMPDEST PUSH32 0x416D6F756E7473206D7573742062652067726561746572207468616E207A6572 PUSH0 DUP3 ADD MSTORE PUSH32 0x6F00000000000000000000000000000000000000000000000000000000000000 PUSH1 0x20 DUP3 ADD MSTORE POP JUMP JUMPDEST PUSH0 PUSH2 0x16FD PUSH1 0x21 DUP4 PUSH2 0x1301 JUMP JUMPDEST SWAP2 POP PUSH2 0x1708 DUP3 PUSH2 0x16A3 JUMP JUMPDEST PUSH1 0x40 DUP3 ADD SWAP1 POP SWAP2 SWAP1 POP JUMP JUMPDEST PUSH0 PUSH1 0x20 DUP3 ADD SWAP1 POP DUP2 DUP2 SUB PUSH0 DUP4 ADD MSTORE PUSH2 0x172A DUP2 PUSH2 0x16F1 JUMP JUMPDEST SWAP1 POP SWAP2 SWAP1 POP JUMP JUMPDEST PUSH32 0x4164640000000000000000000000000000000000000000000000000000000000 PUSH0 DUP3 ADD MSTORE POP JUMP JUMPDEST PUSH0 PUSH2 0x1765 PUSH1 0x3 DUP4 PUSH2 0x1301 JUMP JUMPDEST SWAP2 POP PUSH2 0x1770 DUP3 PUSH2 0x1731 JUMP JUMPDEST PUSH1 0x20 DUP3 ADD SWAP1 POP SWAP2 SWAP1 POP JUMP JUMPDEST PUSH0 PUSH1 0x60 DUP3 ADD SWAP1 POP DUP2 DUP2 SUB PUSH0 DUP4 ADD MSTORE PUSH2 0x1792 DUP2 PUSH2 0x1759 JUMP JUMPDEST SWAP1 POP PUSH2 0x17A1 PUSH1 0x20 DUP4 ADD DUP6 PUSH2 0x10E9 JUMP JUMPDEST PUSH2 0x17AE PUSH1 0x40 DUP4 ADD DUP5 PUSH2 0x10E9 JUMP JUMPDEST SWAP4 SWAP3 POP POP POP JUMP JUMPDEST PUSH32 0x496E73756666696369656E74206C697175696469747900000000000000000000 PUSH0 DUP3 ADD MSTORE POP JUMP JUMPDEST PUSH0 PUSH2 0x17E9 PUSH1 0x16 DUP4 PUSH2 0x1301 JUMP JUMPDEST SWAP2 POP PUSH2 0x17F4 DUP3 PUSH2 0x17B5 JUMP JUMPDEST PUSH1 0x20 DUP3 ADD SWAP1 POP SWAP2 SWAP1 POP JUMP JUMPDEST PUSH0 PUSH1 0x20 DUP3 ADD SWAP1 POP DUP2 DUP2 SUB PUSH0 DUP4 ADD MSTORE PUSH2 0x1816 DUP2 PUSH2 0x17DD JUMP JUMPDEST SWAP1 POP SWAP2 SWAP1 POP JUMP JUMPDEST PUSH32 0x52656D6F76650000000000000000000000000000000000000000000000000000 PUSH0 DUP3 ADD MSTORE POP JUMP JUMPDEST PUSH0 PUSH2 0x1851 PUSH1 0x6 DUP4 PUSH2 0x1301 JUMP JUMPDEST SWAP2 POP PUSH2 0x185C DUP3 PUSH2 0x181D JUMP JUMPDEST PUSH1 0x20 DUP3 ADD SWAP1 POP SWAP2 SWAP1 POP JUMP JUMPDEST PUSH0 PUSH1 0x60 DUP3 ADD SWAP1 POP DUP2 DUP2 SUB PUSH0 DUP4 ADD MSTORE PUSH2 0x187E DUP2 PUSH2 0x1845 JUMP JUMPDEST SWAP1 POP PUSH2 0x188D PUSH1 0x20 DUP4 ADD DUP6 PUSH2 0x10E9 JUMP JUMPDEST PUSH2 0x189A PUSH1 0x40 DUP4 ADD DUP5 PUSH2 0x10E9 JUMP JUMPDEST SWAP4 SWAP3 POP POP POP JUMP JUMPDEST PUSH32 0x41666F7242000000000000000000000000000000000000000000000000000000 PUSH0 DUP3 ADD MSTORE POP JUMP JUMPDEST PUSH0 PUSH2 0x18D5 PUSH1 0x5 DUP4 PUSH2 0x1301 JUMP JUMPDEST SWAP2 POP PUSH2 0x18E0 DUP3 PUSH2 0x18A1 JUMP JUMPDEST PUSH1 0x20 DUP3 ADD SWAP1 POP SWAP2 SWAP1 POP JUMP JUMPDEST PUSH0 PUSH1 0x60 DUP3 ADD SWAP1 POP DUP2 DUP2 SUB PUSH0 DUP4 ADD MSTORE PUSH2 0x1902 DUP2 PUSH2 0x18C9 JUMP JUMPDEST SWAP1 POP PUSH2 0x1911 PUSH1 0x20 DUP4 ADD DUP6 PUSH2 0x10E9 JUMP JUMPDEST PUSH2 0x191E PUSH1 0x40 DUP4 ADD DUP5 PUSH2 0x10E9 JUMP JUMPDEST SWAP4 SWAP3 POP POP POP JUMP JUMPDEST PUSH32 0x5265656E7472616E637947756172643A207265656E7472616E742063616C6C00 PUSH0 DUP3 ADD MSTORE POP JUMP JUMPDEST PUSH0 PUSH2 0x1959 PUSH1 0x1F DUP4 PUSH2 0x1301 JUMP JUMPDEST SWAP2 POP PUSH2 0x1964 DUP3 PUSH2 0x1925 JUMP JUMPDEST PUSH1 0x20 DUP3 ADD SWAP1 POP SWAP2 SWAP1 POP JUMP JUMPDEST PUSH0 PUSH1 0x20 DUP3 ADD SWAP1 POP DUP2 DUP2 SUB PUSH0 DUP4 ADD MSTORE PUSH2 0x1986 DUP2 PUSH2 0x194D JUMP JUMPDEST SWAP1 POP SWAP2 SWAP1 POP JUMP JUMPDEST PUSH32 0x496E73756666696369656E74206C697175696469747920666F722063616C6375 PUSH0 DUP3 ADD MSTORE PUSH32 0x6C6174696F6E0000000000000000000000000000000000000000000000000000 PUSH1 0x20 DUP3 ADD MSTORE POP JUMP JUMPDEST PUSH0 PUSH2 0x19E7 PUSH1 0x26 DUP4 PUSH2 0x1301 JUMP JUMPDEST SWAP2 POP PUSH2 0x19F2 DUP3 PUSH2 0x198D JUMP JUMPDEST PUSH1 0x40 DUP3 ADD SWAP1 POP SWAP2 SWAP1 POP JUMP JUMPDEST PUSH0 PUSH1 0x20 DUP3 ADD SWAP1 POP DUP2 DUP2 SUB PUSH0 DUP4 ADD MSTORE PUSH2 0x1A14 DUP2 PUSH2 0x19DB JUMP JUMPDEST SWAP1 POP SWAP2 SWAP1 POP JUMP JUMPDEST PUSH32 0x43616C63756C61746564206F757470757420616D6F756E74206973207A65726F PUSH0 DUP3 ADD MSTORE POP JUMP JUMPDEST PUSH0 PUSH2 0x1A4F PUSH1 0x20 DUP4 PUSH2 0x1301 JUMP JUMPDEST SWAP2 POP PUSH2 0x1A5A DUP3 PUSH2 0x1A1B JUMP JUMPDEST PUSH1 0x20 DUP3 ADD SWAP1 POP SWAP2 SWAP1 POP JUMP JUMPDEST PUSH0 PUSH1 0x20 DUP3 ADD SWAP1 POP DUP2 DUP2 SUB PUSH0 DUP4 ADD MSTORE PUSH2 0x1A7C DUP2 PUSH2 0x1A43 JUMP JUMPDEST SWAP1 POP SWAP2 SWAP1 POP JUMP INVALID LOG2 PUSH5 0x6970667358 0x22 SLT KECCAK256 0xCE PUSH30 0xD75755C00B7F9DF25EF7B8DB3B886DD4EB741AF6EC31E8A3CAA248BEA11D PUSH5 0x736F6C6343 STOP ADDMOD 0x1E STOP CALLER "
				},
				"gasEstimates": {
					"creation": {
						"codeDepositCost": "1368200",
						"executionCost": "infinite",
						"totalCost": "infinite"
					},
					"external": {
						"addLiquidity(uint256,uint256)": "infinite",
						"getPrice(address)": "infinite",
						"owner()": "2514",
						"removeLiquidity(uint256,uint256)": "infinite",
						"renounceOwnership()": "infinite",
						"reserveA()": "2491",
						"reserveB()": "2448",
						"swapAforB(uint256)": "infinite",
						"swapBforA(uint256)": "infinite",
						"tokenA()": "infinite",
						"tokenB()": "infinite",
						"transferOwnership(address)": "infinite"
					},
					"internal": {
						"getAmountOut(uint256,uint256,uint256)": "infinite"
					}
				},
				"methodIdentifiers": {
					"addLiquidity(uint256,uint256)": "9cd441da",
					"getPrice(address)": "41976e09",
					"owner()": "8da5cb5b",
					"removeLiquidity(uint256,uint256)": "9d7de6b3",
					"renounceOwnership()": "715018a6",
					"reserveA()": "dc5fa6c5",
					"reserveB()": "19e36f3b",
					"swapAforB(uint256)": "e4f1f70a",
					"swapBforA(uint256)": "8014a7aa",
					"tokenA()": "0fc63d10",
					"tokenB()": "5f64b55b",
					"transferOwnership(address)": "f2fde38b"
				}
			},
			"storageLayout": {
				"storage": [
					{
						"astId": 8,
						"contract": "Modulo3/TrabalhoFinal/SimpleDex.sol:SimpleDex",
						"label": "_owner",
						"offset": 0,
						"slot": "0",
						"type": "t_address"
					},
					{
						"astId": 158,
						"contract": "Modulo3/TrabalhoFinal/SimpleDex.sol:SimpleDex",
						"label": "_status",
						"offset": 0,
						"slot": "1",
						"type": "t_uint256"
					},
					{
						"astId": 332,
						"contract": "Modulo3/TrabalhoFinal/SimpleDex.sol:SimpleDex",
						"label": "tokenA",
						"offset": 0,
						"slot": "2",
						"type": "t_contract(IERC20)290"
					},
					{
						"astId": 335,
						"contract": "Modulo3/TrabalhoFinal/SimpleDex.sol:SimpleDex",
						"label": "tokenB",
						"offset": 0,
						"slot": "3",
						"type": "t_contract(IERC20)290"
					},
					{
						"astId": 337,
						"contract": "Modulo3/TrabalhoFinal/SimpleDex.sol:SimpleDex",
						"label": "reserveA",
						"offset": 0,
						"slot": "4",
						"type": "t_uint256"
					},
					{
						"astId": 339,
						"contract": "Modulo3/TrabalhoFinal/SimpleDex.sol:SimpleDex",
						"label": "reserveB",
						"offset": 0,
						"slot": "5",
						"type": "t_uint256"
					}
				],
				"types": {
					"t_address": {
						"encoding": "inplace",
						"label": "address",
						"numberOfBytes": "20"
					},
					"t_contract(IERC20)290": {
						"encoding": "inplace",
						"label": "contract IERC20",
						"numberOfBytes": "20"
					},
					"t_uint256": {
						"encoding": "inplace",
						"label": "uint256",
						"numberOfBytes": "32"
					}
				}
			},
			"userdoc": {
				"kind": "user",
				"methods": {},
				"version": 1
			}
		}
	}
}