{
	"data": {
		"bytecode": {
			"linkReferences": {},
			"object": "608060405234801561000f575f5ffd5b50604051611d8b380380611d8b8339818101604052810190610031919061025f565b335f73ffffffffffffffffffffffffffffffffffffffff168173ffffffffffffffffffffffffffffffffffffffff16036100a2575f6040517f1e4fbdf700000000000000000000000000000000000000000000000000000000815260040161009991906102ac565b60405180910390fd5b6100b18161014060201b60201c565b50600180819055508160025f6101000a81548173ffffffffffffffffffffffffffffffffffffffff021916908373ffffffffffffffffffffffffffffffffffffffff1602179055508060035f6101000a81548173ffffffffffffffffffffffffffffffffffffffff021916908373ffffffffffffffffffffffffffffffffffffffff16021790555050506102c5565b5f5f5f9054906101000a900473ffffffffffffffffffffffffffffffffffffffff169050815f5f6101000a81548173ffffffffffffffffffffffffffffffffffffffff021916908373ffffffffffffffffffffffffffffffffffffffff1602179055508173ffffffffffffffffffffffffffffffffffffffff168173ffffffffffffffffffffffffffffffffffffffff167f8be0079c531659141344cd1fd0a4f28419497f9722a3daafe3b4186f6b6457e060405160405180910390a35050565b5f5ffd5b5f73ffffffffffffffffffffffffffffffffffffffff82169050919050565b5f61022e82610205565b9050919050565b61023e81610224565b8114610248575f5ffd5b50565b5f8151905061025981610235565b92915050565b5f5f6040838503121561027557610274610201565b5b5f6102828582860161024b565b92505060206102938582860161024b565b9150509250929050565b6102a681610224565b82525050565b5f6020820190506102bf5f83018461029d565b92915050565b611ab9806102d25f395ff3fe608060405234801561000f575f5ffd5b50600436106100b2575f3560e01c80638da5cb5b1161006f5780638da5cb5b146101665780639cd441da146101845780639d7de6b3146101a0578063dc5fa6c5146101bc578063e4f1f70a146101da578063f2fde38b146101f6576100b2565b80630fc63d10146100b657806319e36f3b146100d457806341976e09146100f25780635f64b55b14610122578063715018a6146101405780638014a7aa1461014a575b5f5ffd5b6100be610212565b6040516100cb91906110c7565b60405180910390f35b6100dc610237565b6040516100e991906110f8565b60405180910390f35b61010c60048036038101906101079190611150565b61023d565b60405161011991906110f8565b60405180910390f35b61012a61039c565b60405161013791906110c7565b60405180910390f35b6101486103c1565b005b610164600480360381019061015f91906111a5565b6103d4565b005b61016e610677565b60405161017b91906111df565b60405180910390f35b61019e600480360381019061019991906111f8565b61069e565b005b6101ba60048036038101906101b591906111f8565b61089d565b005b6101c4610a9f565b6040516101d191906110f8565b60405180910390f35b6101f460048036038101906101ef91906111a5565b610aa5565b005b610210600480360381019061020b9190611150565b610d48565b005b60025f9054906101000a900473ffffffffffffffffffffffffffffffffffffffff1681565b60055481565b5f60025f9054906101000a900473ffffffffffffffffffffffffffffffffffffffff1673ffffffffffffffffffffffffffffffffffffffff168273ffffffffffffffffffffffffffffffffffffffff16036102cd575f600454036102a3575f9050610397565b600454670de0b6b3a76400006005546102bc9190611263565b6102c691906112d1565b9050610397565b60035f9054906101000a900473ffffffffffffffffffffffffffffffffffffffff1673ffffffffffffffffffffffffffffffffffffffff168273ffffffffffffffffffffffffffffffffffffffff160361035c575f60055403610332575f9050610397565b600554670de0b6b3a764000060045461034b9190611263565b61035591906112d1565b9050610397565b6040517f08c379a000000000000000000000000000000000000000000000000000000000815260040161038e9061135b565b60405180910390fd5b919050565b60035f9054906101000a900473ffffffffffffffffffffffffffffffffffffffff1681565b6103c9610dcc565b6103d25f610e53565b565b6103dc610f14565b5f811161041e576040517f08c379a0000000000000000000000000000000000000000000000000000000008152600401610415906113e9565b60405180910390fd5b5f60045411801561043057505f600554115b61046f576040517f08c379a000000000000000000000000000000000000000000000000000000000815260040161046690611451565b60405180910390fd5b5f61047f82600554600454610f63565b90508060045410156104c6576040517f08c379a00000000000000000000000000000000000000000000000000000000081526004016104bd906114df565b60405180910390fd5b60035f9054906101000a900473ffffffffffffffffffffffffffffffffffffffff1673ffffffffffffffffffffffffffffffffffffffff166323b872dd3330856040518463ffffffff1660e01b8152600401610524939291906114fd565b6020604051808303815f875af1158015610540573d5f5f3e3d5ffd5b505050506040513d601f19601f820116820180604052508101906105649190611567565b5060025f9054906101000a900473ffffffffffffffffffffffffffffffffffffffff1673ffffffffffffffffffffffffffffffffffffffff1663a9059cbb33836040518363ffffffff1660e01b81526004016105c1929190611592565b6020604051808303815f875af11580156105dd573d5f5f3e3d5ffd5b505050506040513d601f19601f820116820180604052508101906106019190611567565b508160055f82825461061391906115b9565b925050819055508060045f82825461062b91906115ec565b925050819055507f99151d1285a42a31514afc05d8341521a9e02f4d15fe80d8cd617dd0e6330c3b8282604051610663929190611669565b60405180910390a15061067461103d565b50565b5f5f5f9054906101000a900473ffffffffffffffffffffffffffffffffffffffff16905090565b6106a6610dcc565b5f8211806106b357505f81115b6106f2576040517f08c379a00000000000000000000000000000000000000000000000000000000081526004016106e990611713565b60405180910390fd5b60025f9054906101000a900473ffffffffffffffffffffffffffffffffffffffff1673ffffffffffffffffffffffffffffffffffffffff166323b872dd3330856040518463ffffffff1660e01b8152600401610750939291906114fd565b6020604051808303815f875af115801561076c573d5f5f3e3d5ffd5b505050506040513d601f19601f820116820180604052508101906107909190611567565b5060035f9054906101000a900473ffffffffffffffffffffffffffffffffffffffff1673ffffffffffffffffffffffffffffffffffffffff166323b872dd3330846040518463ffffffff1660e01b81526004016107ef939291906114fd565b6020604051808303815f875af115801561080b573d5f5f3e3d5ffd5b505050506040513d601f19601f8201168201806040525081019061082f9190611567565b508160045f82825461084191906115b9565b925050819055508060055f82825461085991906115b9565b925050819055507f959b1d93cfbbd38471fd78660c739ffed1589f0ac706cbce37f4d8db90f15b1d828260405161089192919061177b565b60405180910390a15050565b6108a5610dcc565b60045482111580156108b957506005548111155b6108f8576040517f08c379a00000000000000000000000000000000000000000000000000000000081526004016108ef906117ff565b60405180910390fd5b8160045f82825461090991906115ec565b925050819055508060055f82825461092191906115ec565b9250508190555060025f9054906101000a900473ffffffffffffffffffffffffffffffffffffffff1673ffffffffffffffffffffffffffffffffffffffff1663a9059cbb33846040518363ffffffff1660e01b8152600401610984929190611592565b6020604051808303815f875af11580156109a0573d5f5f3e3d5ffd5b505050506040513d601f19601f820116820180604052508101906109c49190611567565b5060035f9054906101000a900473ffffffffffffffffffffffffffffffffffffffff1673ffffffffffffffffffffffffffffffffffffffff1663a9059cbb33836040518363ffffffff1660e01b8152600401610a21929190611592565b6020604051808303815f875af1158015610a3d573d5f5f3e3d5ffd5b505050506040513d601f19601f82011682018060405250810190610a619190611567565b507f959b1d93cfbbd38471fd78660c739ffed1589f0ac706cbce37f4d8db90f15b1d8282604051610a93929190611867565b60405180910390a15050565b60045481565b610aad610f14565b5f8111610aef576040517f08c379a0000000000000000000000000000000000000000000000000000000008152600401610ae6906113e9565b60405180910390fd5b5f600454118015610b0157505f600554115b610b40576040517f08c379a0000000000000000000000000000000000000000000000000000000008152600401610b3790611451565b60405180910390fd5b5f610b5082600454600554610f63565b9050806005541015610b97576040517f08c379a0000000000000000000000000000000000000000000000000000000008152600401610b8e906114df565b60405180910390fd5b60025f9054906101000a900473ffffffffffffffffffffffffffffffffffffffff1673ffffffffffffffffffffffffffffffffffffffff166323b872dd3330856040518463ffffffff1660e01b8152600401610bf5939291906114fd565b6020604051808303815f875af1158015610c11573d5f5f3e3d5ffd5b505050506040513d601f19601f82011682018060405250810190610c359190611567565b5060035f9054906101000a900473ffffffffffffffffffffffffffffffffffffffff1673ffffffffffffffffffffffffffffffffffffffff1663a9059cbb33836040518363ffffffff1660e01b8152600401610c92929190611592565b6020604051808303815f875af1158015610cae573d5f5f3e3d5ffd5b505050506040513d601f19601f82011682018060405250810190610cd29190611567565b508160045f828254610ce491906115b9565b925050819055508060055f828254610cfc91906115ec565b925050819055507f99151d1285a42a31514afc05d8341521a9e02f4d15fe80d8cd617dd0e6330c3b8282604051610d349291906118eb565b60405180910390a150610d4561103d565b50565b610d50610dcc565b5f73ffffffffffffffffffffffffffffffffffffffff168173ffffffffffffffffffffffffffffffffffffffff1603610dc0575f6040517f1e4fbdf7000000000000000000000000000000000000000000000000000000008152600401610db791906111df565b60405180910390fd5b610dc981610e53565b50565b610dd4611046565b73ffffffffffffffffffffffffffffffffffffffff16610df2610677565b73ffffffffffffffffffffffffffffffffffffffff1614610e5157610e15611046565b6040517f118cdaa7000000000000000000000000000000000000000000000000000000008152600401610e4891906111df565b60405180910390fd5b565b5f5f5f9054906101000a900473ffffffffffffffffffffffffffffffffffffffff169050815f5f6101000a81548173ffffffffffffffffffffffffffffffffffffffff021916908373ffffffffffffffffffffffffffffffffffffffff1602179055508173ffffffffffffffffffffffffffffffffffffffff168173ffffffffffffffffffffffffffffffffffffffff167f8be0079c531659141344cd1fd0a4f28419497f9722a3daafe3b4186f6b6457e060405160405180910390a35050565b600260015403610f59576040517f08c379a0000000000000000000000000000000000000000000000000000000008152600401610f509061196f565b60405180910390fd5b6002600181905550565b5f5f83118015610f7257505f82115b610fb1576040517f08c379a0000000000000000000000000000000000000000000000000000000008152600401610fa8906119fd565b60405180910390fd5b5f8284610fbe9190611263565b90505f8585610fcd91906115b9565b90505f8183610fdc91906112d1565b90505f8186610feb91906115ec565b90505f811161102f576040517f08c379a000000000000000000000000000000000000000000000000000000000815260040161102690611a65565b60405180910390fd5b809450505050509392505050565b60018081905550565b5f33905090565b5f73ffffffffffffffffffffffffffffffffffffffff82169050919050565b5f819050919050565b5f61108f61108a6110858461104d565b61106c565b61104d565b9050919050565b5f6110a082611075565b9050919050565b5f6110b182611096565b9050919050565b6110c1816110a7565b82525050565b5f6020820190506110da5f8301846110b8565b92915050565b5f819050919050565b6110f2816110e0565b82525050565b5f60208201905061110b5f8301846110e9565b92915050565b5f5ffd5b5f61111f8261104d565b9050919050565b61112f81611115565b8114611139575f5ffd5b50565b5f8135905061114a81611126565b92915050565b5f6020828403121561116557611164611111565b5b5f6111728482850161113c565b91505092915050565b611184816110e0565b811461118e575f5ffd5b50565b5f8135905061119f8161117b565b92915050565b5f602082840312156111ba576111b9611111565b5b5f6111c784828501611191565b91505092915050565b6111d981611115565b82525050565b5f6020820190506111f25f8301846111d0565b92915050565b5f5f6040838503121561120e5761120d611111565b5b5f61121b85828601611191565b925050602061122c85828601611191565b9150509250929050565b7f4e487b71000000000000000000000000000000000000000000000000000000005f52601160045260245ffd5b5f61126d826110e0565b9150611278836110e0565b9250828202611286816110e0565b9150828204841483151761129d5761129c611236565b5b5092915050565b7f4e487b71000000000000000000000000000000000000000000000000000000005f52601260045260245ffd5b5f6112db826110e0565b91506112e6836110e0565b9250826112f6576112f56112a4565b5b828204905092915050565b5f82825260208201905092915050565b7f496e76616c696420746f6b656e206164647265737300000000000000000000005f82015250565b5f611345601583611301565b915061135082611311565b602082019050919050565b5f6020820190508181035f83015261137281611339565b9050919050565b7f416d6f756e7420696e206d7573742062652067726561746572207468616e207a5f8201527f65726f0000000000000000000000000000000000000000000000000000000000602082015250565b5f6113d3602383611301565b91506113de82611379565b604082019050919050565b5f6020820190508181035f830152611400816113c7565b9050919050565b7f4c697175696469747920706f6f6c20697320656d7074790000000000000000005f82015250565b5f61143b601783611301565b915061144682611407565b602082019050919050565b5f6020820190508181035f8301526114688161142f565b9050919050565b7f4e6f7420656e6f756768206c697175696469747920666f7220746865207377615f8201527f7000000000000000000000000000000000000000000000000000000000000000602082015250565b5f6114c9602183611301565b91506114d48261146f565b604082019050919050565b5f6020820190508181035f8301526114f6816114bd565b9050919050565b5f6060820190506115105f8301866111d0565b61151d60208301856111d0565b61152a60408301846110e9565b949350505050565b5f8115159050919050565b61154681611532565b8114611550575f5ffd5b50565b5f815190506115618161153d565b92915050565b5f6020828403121561157c5761157b611111565b5b5f61158984828501611553565b91505092915050565b5f6040820190506115a55f8301856111d0565b6115b260208301846110e9565b9392505050565b5f6115c3826110e0565b91506115ce836110e0565b92508282019050808211156115e6576115e5611236565b5b92915050565b5f6115f6826110e0565b9150611601836110e0565b925082820390508181111561161957611618611236565b5b92915050565b7f42666f72410000000000000000000000000000000000000000000000000000005f82015250565b5f611653600583611301565b915061165e8261161f565b602082019050919050565b5f6060820190508181035f83015261168081611647565b905061168f60208301856110e9565b61169c60408301846110e9565b9392505050565b7f416d6f756e7473206d7573742062652067726561746572207468616e207a65725f8201527f6f00000000000000000000000000000000000000000000000000000000000000602082015250565b5f6116fd602183611301565b9150611708826116a3565b604082019050919050565b5f6020820190508181035f83015261172a816116f1565b9050919050565b7f41646400000000000000000000000000000000000000000000000000000000005f82015250565b5f611765600383611301565b915061177082611731565b602082019050919050565b5f6060820190508181035f83015261179281611759565b90506117a160208301856110e9565b6117ae60408301846110e9565b9392505050565b7f496e73756666696369656e74206c6971756964697479000000000000000000005f82015250565b5f6117e9601683611301565b91506117f4826117b5565b602082019050919050565b5f6020820190508181035f830152611816816117dd565b9050919050565b7f52656d6f766500000000000000000000000000000000000000000000000000005f82015250565b5f611851600683611301565b915061185c8261181d565b602082019050919050565b5f6060820190508181035f83015261187e81611845565b905061188d60208301856110e9565b61189a60408301846110e9565b9392505050565b7f41666f72420000000000000000000000000000000000000000000000000000005f82015250565b5f6118d5600583611301565b91506118e0826118a1565b602082019050919050565b5f6060820190508181035f830152611902816118c9565b905061191160208301856110e9565b61191e60408301846110e9565b9392505050565b7f5265656e7472616e637947756172643a207265656e7472616e742063616c6c005f82015250565b5f611959601f83611301565b915061196482611925565b602082019050919050565b5f6020820190508181035f8301526119868161194d565b9050919050565b7f496e73756666696369656e74206c697175696469747920666f722063616c63755f8201527f6c6174696f6e0000000000000000000000000000000000000000000000000000602082015250565b5f6119e7602683611301565b91506119f28261198d565b604082019050919050565b5f6020820190508181035f830152611a14816119db565b9050919050565b7f43616c63756c61746564206f757470757420616d6f756e74206973207a65726f5f82015250565b5f611a4f602083611301565b9150611a5a82611a1b565b602082019050919050565b5f6020820190508181035f830152611a7c81611a43565b905091905056fea2646970667358221220ce7dd75755c00b7f9df25ef7b8db3b886dd4eb741af6ec31e8a3caa248bea11d64736f6c634300081e0033",
			"opcodes": "PUSH1 0x80 PUSH1 0x40 MSTORE CALLVALUE DUP1 ISZERO PUSH2 0xF JUMPI PUSH0 PUSH0 REVERT JUMPDEST POP PUSH1 0x40 MLOAD PUSH2 0x1D8B CODESIZE SUB DUP1 PUSH2 0x1D8B DUP4 CODECOPY DUP2 DUP2 ADD PUSH1 0x40 MSTORE DUP2 ADD SWAP1 PUSH2 0x31 SWAP2 SWAP1 PUSH2 0x25F JUMP JUMPDEST CALLER PUSH0 PUSH20 0xFFFFFFFFFFFFFFFFFFFFFFFFFFFFFFFFFFFFFFFF AND DUP2 PUSH20 0xFFFFFFFFFFFFFFFFFFFFFFFFFFFFFFFFFFFFFFFF AND SUB PUSH2 0xA2 JUMPI PUSH0 PUSH1 0x40 MLOAD PUSH32 0x1E4FBDF700000000000000000000000000000000000000000000000000000000 DUP2 MSTORE PUSH1 0x4 ADD PUSH2 0x99 SWAP2 SWAP1 PUSH2 0x2AC JUMP JUMPDEST PUSH1 0x40 MLOAD DUP1 SWAP2 SUB SWAP1 REVERT JUMPDEST PUSH2 0xB1 DUP2 PUSH2 0x140 PUSH1 0x20 SHL PUSH1 0x20 SHR JUMP JUMPDEST POP PUSH1 0x1 DUP1 DUP2 SWAP1 SSTORE POP DUP2 PUSH1 0x2 PUSH0 PUSH2 0x100 EXP DUP2 SLOAD DUP2 PUSH20 0xFFFFFFFFFFFFFFFFFFFFFFFFFFFFFFFFFFFFFFFF MUL NOT AND SWAP1 DUP4 PUSH20 0xFFFFFFFFFFFFFFFFFFFFFFFFFFFFFFFFFFFFFFFF AND MUL OR SWAP1 SSTORE POP DUP1 PUSH1 0x3 PUSH0 PUSH2 0x100 EXP DUP2 SLOAD DUP2 PUSH20 0xFFFFFFFFFFFFFFFFFFFFFFFFFFFFFFFFFFFFFFFF MUL NOT AND SWAP1 DUP4 PUSH20 0xFFFFFFFFFFFFFFFFFFFFFFFFFFFFFFFFFFFFFFFF AND MUL OR SWAP1 SSTORE POP POP POP PUSH2 0x2C5 JUMP JUMPDEST PUSH0 PUSH0 PUSH0 SWAP1 SLOAD SWAP1 PUSH2 0x100 EXP SWAP1 DIV PUSH20 0xFFFFFFFFFFFFFFFFFFFFFFFFFFFFFFFFFFFFFFFF AND SWAP1 POP DUP2 PUSH0 PUSH0 PUSH2 0x100 EXP DUP2 SLOAD DUP2 PUSH20 0xFFFFFFFFFFFFFFFFFFFFFFFFFFFFFFFFFFFFFFFF MUL NOT AND SWAP1 DUP4 PUSH20 0xFFFFFFFFFFFFFFFFFFFFFFFFFFFFFFFFFFFFFFFF AND MUL OR SWAP1 SSTORE POP DUP2 PUSH20 0xFFFFFFFFFFFFFFFFFFFFFFFFFFFFFFFFFFFFFFFF AND DUP2 PUSH20 0xFFFFFFFFFFFFFFFFFFFFFFFFFFFFFFFFFFFFFFFF AND PUSH32 0x8BE0079C531659141344CD1FD0A4F28419497F9722A3DAAFE3B4186F6B6457E0 PUSH1 0x40 MLOAD PUSH1 0x40 MLOAD DUP1 SWAP2 SUB SWAP1 LOG3 POP POP JUMP JUMPDEST PUSH0 PUSH0 REVERT JUMPDEST PUSH0 PUSH20 0xFFFFFFFFFFFFFFFFFFFFFFFFFFFFFFFFFFFFFFFF DUP3 AND SWAP1 POP SWAP2 SWAP1 POP JUMP JUMPDEST PUSH0 PUSH2 0x22E DUP3 PUSH2 0x205 JUMP JUMPDEST SWAP1 POP SWAP2 SWAP1 POP JUMP JUMPDEST PUSH2 0x23E DUP2 PUSH2 0x224 JUMP JUMPDEST DUP2 EQ PUSH2 0x248 JUMPI PUSH0 PUSH0 REVERT JUMPDEST POP JUMP JUMPDEST PUSH0 DUP2 MLOAD SWAP1 POP PUSH2 0x259 DUP2 PUSH2 0x235 JUMP JUMPDEST SWAP3 SWAP2 POP POP JUMP JUMPDEST PUSH0 PUSH0 PUSH1 0x40 DUP4 DUP6 SUB SLT ISZERO PUSH2 0x275 JUMPI PUSH2 0x274 PUSH2 0x201 JUMP JUMPDEST JUMPDEST PUSH0 PUSH2 0x282 DUP6 DUP3 DUP7 ADD PUSH2 0x24B JUMP JUMPDEST SWAP3 POP POP PUSH1 0x20 PUSH2 0x293 DUP6 DUP3 DUP7 ADD PUSH2 0x24B JUMP JUMPDEST SWAP2 POP POP SWAP3 POP SWAP3 SWAP1 POP JUMP JUMPDEST PUSH2 0x2A6 DUP2 PUSH2 0x224 JUMP JUMPDEST DUP3 MSTORE POP POP JUMP JUMPDEST PUSH0 PUSH1 0x20 DUP3 ADD SWAP1 POP PUSH2 0x2BF PUSH0 DUP4 ADD DUP5 PUSH2 0x29D JUMP JUMPDEST SWAP3 SWAP2 POP POP JUMP JUMPDEST PUSH2 0x1AB9 DUP1 PUSH2 0x2D2 PUSH0 CODECOPY PUSH0 RETURN INVALID PUSH1 0x80 PUSH1 0x40 MSTORE CALLVALUE DUP1 ISZERO PUSH2 0xF JUMPI PUSH0 PUSH0 REVERT JUMPDEST POP PUSH1 0x4 CALLDATASIZE LT PUSH2 0xB2 JUMPI PUSH0 CALLDATALOAD PUSH1 0xE0 SHR DUP1 PUSH4 0x8DA5CB5B GT PUSH2 0x6F JUMPI DUP1 PUSH4 0x8DA5CB5B EQ PUSH2 0x166 JUMPI DUP1 PUSH4 0x9CD441DA EQ PUSH2 0x184 JUMPI DUP1 PUSH4 0x9D7DE6B3 EQ PUSH2 0x1A0 JUMPI DUP1 PUSH4 0xDC5FA6C5 EQ PUSH2 0x1BC JUMPI DUP1 PUSH4 0xE4F1F70A EQ PUSH2 0x1DA JUMPI DUP1 PUSH4 0xF2FDE38B EQ PUSH2 0x1F6 JUMPI PUSH2 0xB2 JUMP JUMPDEST DUP1 PUSH4 0xFC63D10 EQ PUSH2 0xB6 JUMPI DUP1 PUSH4 0x19E36F3B EQ PUSH2 0xD4 JUMPI DUP1 PUSH4 0x41976E09 EQ PUSH2 0xF2 JUMPI DUP1 PUSH4 0x5F64B55B EQ PUSH2 0x122 JUMPI DUP1 PUSH4 0x715018A6 EQ PUSH2 0x140 JUMPI DUP1 PUSH4 0x8014A7AA EQ PUSH2 0x14A JUMPI JUMPDEST PUSH0 PUSH0 REVERT JUMPDEST PUSH2 0xBE PUSH2 0x212 JUMP JUMPDEST PUSH1 0x40 MLOAD PUSH2 0xCB SWAP2 SWAP1 PUSH2 0x10C7 JUMP JUMPDEST PUSH1 0x40 MLOAD DUP1 SWAP2 SUB SWAP1 RETURN JUMPDEST PUSH2 0xDC PUSH2 0x237 JUMP JUMPDEST PUSH1 0x40 MLOAD PUSH2 0xE9 SWAP2 SWAP1 PUSH2 0x10F8 JUMP JUMPDEST PUSH1 0x40 MLOAD DUP1 SWAP2 SUB SWAP1 RETURN JUMPDEST PUSH2 0x10C PUSH1 0x4 DUP1 CALLDATASIZE SUB DUP2 ADD SWAP1 PUSH2 0x107 SWAP2 SWAP1 PUSH2 0x1150 JUMP JUMPDEST PUSH2 0x23D JUMP JUMPDEST PUSH1 0x40 MLOAD PUSH2 0x119 SWAP2 SWAP1 PUSH2 0x10F8 JUMP JUMPDEST PUSH1 0x40 MLOAD DUP1 SWAP2 SUB SWAP1 RETURN JUMPDEST PUSH2 0x12A PUSH2 0x39C JUMP JUMPDEST PUSH1 0x40 MLOAD PUSH2 0x137 SWAP2 SWAP1 PUSH2 0x10C7 JUMP JUMPDEST PUSH1 0x40 MLOAD DUP1 SWAP2 SUB SWAP1 RETURN JUMPDEST PUSH2 0x148 PUSH2 0x3C1 JUMP JUMPDEST STOP JUMPDEST PUSH2 0x164 PUSH1 0x4 DUP1 CALLDATASIZE SUB DUP2 ADD SWAP1 PUSH2 0x15F SWAP2 SWAP1 PUSH2 0x11A5 JUMP JUMPDEST PUSH2 0x3D4 JUMP JUMPDEST STOP JUMPDEST PUSH2 0x16E PUSH2 0x677 JUMP JUMPDEST PUSH1 0x40 MLOAD PUSH2 0x17B SWAP2 SWAP1 PUSH2 0x11DF JUMP JUMPDEST PUSH1 0x40 MLOAD DUP1 SWAP2 SUB SWAP1 RETURN JUMPDEST PUSH2 0x19E PUSH1 0x4 DUP1 CALLDATASIZE SUB DUP2 ADD SWAP1 PUSH2 0x199 SWAP2 SWAP1 PUSH2 0x11F8 JUMP JUMPDEST PUSH2 0x69E JUMP JUMPDEST STOP JUMPDEST PUSH2 0x1BA PUSH1 0x4 DUP1 CALLDATASIZE SUB DUP2 ADD SWAP1 PUSH2 0x1B5 SWAP2 SWAP1 PUSH2 0x11F8 JUMP JUMPDEST PUSH2 0x89D JUMP JUMPDEST STOP JUMPDEST PUSH2 0x1C4 PUSH2 0xA9F JUMP JUMPDEST PUSH1 0x40 MLOAD PUSH2 0x1D1 SWAP2 SWAP1 PUSH2 0x10F8 JUMP JUMPDEST PUSH1 0x40 MLOAD DUP1 SWAP2 SUB SWAP1 RETURN JUMPDEST PUSH2 0x1F4 PUSH1 0x4 DUP1 CALLDATASIZE SUB DUP2 ADD SWAP1 PUSH2 0x1EF SWAP2 SWAP1 PUSH2 0x11A5 JUMP JUMPDEST PUSH2 0xAA5 JUMP JUMPDEST STOP JUMPDEST PUSH2 0x210 PUSH1 0x4 DUP1 CALLDATASIZE SUB DUP2 ADD SWAP1 PUSH2 0x20B SWAP2 SWAP1 PUSH2 0x1150 JUMP JUMPDEST PUSH2 0xD48 JUMP JUMPDEST STOP JUMPDEST PUSH1 0x2 PUSH0 SWAP1 SLOAD SWAP1 PUSH2 0x100 EXP SWAP1 DIV PUSH20 0xFFFFFFFFFFFFFFFFFFFFFFFFFFFFFFFFFFFFFFFF AND DUP2 JUMP JUMPDEST PUSH1 0x5 SLOAD DUP2 JUMP JUMPDEST PUSH0 PUSH1 0x2 PUSH0 SWAP1 SLOAD SWAP1 PUSH2 0x100 EXP SWAP1 DIV PUSH20 0xFFFFFFFFFFFFFFFFFFFFFFFFFFFFFFFFFFFFFFFF AND PUSH20 0xFFFFFFFFFFFFFFFFFFFFFFFFFFFFFFFFFFFFFFFF AND DUP3 PUSH20 0xFFFFFFFFFFFFFFFFFFFFFFFFFFFFFFFFFFFFFFFF AND SUB PUSH2 0x2CD JUMPI PUSH0 PUSH1 0x4 SLOAD SUB PUSH2 0x2A3 JUMPI PUSH0 SWAP1 POP PUSH2 0x397 JUMP JUMPDEST PUSH1 0x4 SLOAD PUSH8 0xDE0B6B3A7640000 PUSH1 0x5 SLOAD PUSH2 0x2BC SWAP2 SWAP1 PUSH2 0x1263 JUMP JUMPDEST PUSH2 0x2C6 SWAP2 SWAP1 PUSH2 0x12D1 JUMP JUMPDEST SWAP1 POP PUSH2 0x397 JUMP JUMPDEST PUSH1 0x3 PUSH0 SWAP1 SLOAD SWAP1 PUSH2 0x100 EXP SWAP1 DIV PUSH20 0xFFFFFFFFFFFFFFFFFFFFFFFFFFFFFFFFFFFFFFFF AND PUSH20 0xFFFFFFFFFFFFFFFFFFFFFFFFFFFFFFFFFFFFFFFF AND DUP3 PUSH20 0xFFFFFFFFFFFFFFFFFFFFFFFFFFFFFFFFFFFFFFFF AND SUB PUSH2 0x35C JUMPI PUSH0 PUSH1 0x5 SLOAD SUB PUSH2 0x332 JUMPI PUSH0 SWAP1 POP PUSH2 0x397 JUMP JUMPDEST PUSH1 0x5 SLOAD PUSH8 0xDE0B6B3A7640000 PUSH1 0x4 SLOAD PUSH2 0x34B SWAP2 SWAP1 PUSH2 0x1263 JUMP JUMPDEST PUSH2 0x355 SWAP2 SWAP1 PUSH2 0x12D1 JUMP JUMPDEST SWAP1 POP PUSH2 0x397 JUMP JUMPDEST PUSH1 0x40 MLOAD PUSH32 0x8C379A000000000000000000000000000000000000000000000000000000000 DUP2 MSTORE PUSH1 0x4 ADD PUSH2 0x38E SWAP1 PUSH2 0x135B JUMP JUMPDEST PUSH1 0x40 MLOAD DUP1 SWAP2 SUB SWAP1 REVERT JUMPDEST SWAP2 SWAP1 POP JUMP JUMPDEST PUSH1 0x3 PUSH0 SWAP1 SLOAD SWAP1 PUSH2 0x100 EXP SWAP1 DIV PUSH20 0xFFFFFFFFFFFFFFFFFFFFFFFFFFFFFFFFFFFFFFFF AND DUP2 JUMP JUMPDEST PUSH2 0x3C9 PUSH2 0xDCC JUMP JUMPDEST PUSH2 0x3D2 PUSH0 PUSH2 0xE53 JUMP JUMPDEST JUMP JUMPDEST PUSH2 0x3DC PUSH2 0xF14 JUMP JUMPDEST PUSH0 DUP2 GT PUSH2 0x41E JUMPI PUSH1 0x40 MLOAD PUSH32 0x8C379A000000000000000000000000000000000000000000000000000000000 DUP2 MSTORE PUSH1 0x4 ADD PUSH2 0x415 SWAP1 PUSH2 0x13E9 JUMP JUMPDEST PUSH1 0x40 MLOAD DUP1 SWAP2 SUB SWAP1 REVERT JUMPDEST PUSH0 PUSH1 0x4 SLOAD GT DUP1 ISZERO PUSH2 0x430 JUMPI POP PUSH0 PUSH1 0x5 SLOAD GT JUMPDEST PUSH2 0x46F JUMPI PUSH1 0x40 MLOAD PUSH32 0x8C379A000000000000000000000000000000000000000000000000000000000 DUP2 MSTORE PUSH1 0x4 ADD PUSH2 0x466 SWAP1 PUSH2 0x1451 JUMP JUMPDEST PUSH1 0x40 MLOAD DUP1 SWAP2 SUB SWAP1 REVERT JUMPDEST PUSH0 PUSH2 0x47F DUP3 PUSH1 0x5 SLOAD PUSH1 0x4 SLOAD PUSH2 0xF63 JUMP JUMPDEST SWAP1 POP DUP1 PUSH1 0x4 SLOAD LT ISZERO PUSH2 0x4C6 JUMPI PUSH1 0x40 MLOAD PUSH32 0x8C379A000000000000000000000000000000000000000000000000000000000 DUP2 MSTORE PUSH1 0x4 ADD PUSH2 0x4BD SWAP1 PUSH2 0x14DF JUMP JUMPDEST PUSH1 0x40 MLOAD DUP1 SWAP2 SUB SWAP1 REVERT JUMPDEST PUSH1 0x3 PUSH0 SWAP1 SLOAD SWAP1 PUSH2 0x100 EXP SWAP1 DIV PUSH20 0xFFFFFFFFFFFFFFFFFFFFFFFFFFFFFFFFFFFFFFFF AND PUSH20 0xFFFFFFFFFFFFFFFFFFFFFFFFFFFFFFFFFFFFFFFF AND PUSH4 0x23B872DD CALLER ADDRESS DUP6 PUSH1 0x40 MLOAD DUP5 PUSH4 0xFFFFFFFF AND PUSH1 0xE0 SHL DUP2 MSTORE PUSH1 0x4 ADD PUSH2 0x524 SWAP4 SWAP3 SWAP2 SWAP1 PUSH2 0x14FD JUMP JUMPDEST PUSH1 0x20 PUSH1 0x40 MLOAD DUP1 DUP4 SUB DUP2 PUSH0 DUP8 GAS CALL ISZERO DUP1 ISZERO PUSH2 0x540 JUMPI RETURNDATASIZE PUSH0 PUSH0 RETURNDATACOPY RETURNDATASIZE PUSH0 REVERT JUMPDEST POP POP POP POP PUSH1 0x40 MLOAD RETURNDATASIZE PUSH1 0x1F NOT PUSH1 0x1F DUP3 ADD AND DUP3 ADD DUP1 PUSH1 0x40 MSTORE POP DUP2 ADD SWAP1 PUSH2 0x564 SWAP2 SWAP1 PUSH2 0x1567 JUMP JUMPDEST POP PUSH1 0x2 PUSH0 SWAP1 SLOAD SWAP1 PUSH2 0x100 EXP SWAP1 DIV PUSH20 0xFFFFFFFFFFFFFFFFFFFFFFFFFFFFFFFFFFFFFFFF AND PUSH20 0xFFFFFFFFFFFFFFFFFFFFFFFFFFFFFFFFFFFFFFFF AND PUSH4 0xA9059CBB CALLER DUP4 PUSH1 0x40 MLOAD DUP4 PUSH4 0xFFFFFFFF AND PUSH1 0xE0 SHL DUP2 MSTORE PUSH1 0x4 ADD PUSH2 0x5C1 SWAP3 SWAP2 SWAP1 PUSH2 0x1592 JUMP JUMPDEST PUSH1 0x20 PUSH1 0x40 MLOAD DUP1 DUP4 SUB DUP2 PUSH0 DUP8 GAS CALL ISZERO DUP1 ISZERO PUSH2 0x5DD JUMPI RETURNDATASIZE PUSH0 PUSH0 RETURNDATACOPY RETURNDATASIZE PUSH0 REVERT JUMPDEST POP POP POP POP PUSH1 0x40 MLOAD RETURNDATASIZE PUSH1 0x1F NOT PUSH1 0x1F DUP3 ADD AND DUP3 ADD DUP1 PUSH1 0x40 MSTORE POP DUP2 ADD SWAP1 PUSH2 0x601 SWAP2 SWAP1 PUSH2 0x1567 JUMP JUMPDEST POP DUP2 PUSH1 0x5 PUSH0 DUP3 DUP3 SLOAD PUSH2 0x613 SWAP2 SWAP1 PUSH2 0x15B9 JUMP JUMPDEST SWAP3 POP POP DUP2 SWAP1 SSTORE POP DUP1 PUSH1 0x4 PUSH0 DUP3 DUP3 SLOAD PUSH2 0x62B SWAP2 SWAP1 PUSH2 0x15EC JUMP JUMPDEST SWAP3 POP POP DUP2 SWAP1 SSTORE POP PUSH32 0x99151D1285A42A31514AFC05D8341521A9E02F4D15FE80D8CD617DD0E6330C3B DUP3 DUP3 PUSH1 0x40 MLOAD PUSH2 0x663 SWAP3 SWAP2 SWAP1 PUSH2 0x1669 JUMP JUMPDEST PUSH1 0x40 MLOAD DUP1 SWAP2 SUB SWAP1 LOG1 POP PUSH2 0x674 PUSH2 0x103D JUMP JUMPDEST POP JUMP JUMPDEST PUSH0 PUSH0 PUSH0 SWAP1 SLOAD SWAP1 PUSH2 0x100 EXP SWAP1 DIV PUSH20 0xFFFFFFFFFFFFFFFFFFFFFFFFFFFFFFFFFFFFFFFF AND SWAP1 POP SWAP1 JUMP JUMPDEST PUSH2 0x6A6 PUSH2 0xDCC JUMP JUMPDEST PUSH0 DUP3 GT DUP1 PUSH2 0x6B3 JUMPI POP PUSH0 DUP2 GT JUMPDEST PUSH2 0x6F2 JUMPI PUSH1 0x40 MLOAD PUSH32 0x8C379A000000000000000000000000000000000000000000000000000000000 DUP2 MSTORE PUSH1 0x4 ADD PUSH2 0x6E9 SWAP1 PUSH2 0x1713 JUMP JUMPDEST PUSH1 0x40 MLOAD DUP1 SWAP2 SUB SWAP1 REVERT JUMPDEST PUSH1 0x2 PUSH0 SWAP1 SLOAD SWAP1 PUSH2 0x100 EXP SWAP1 DIV PUSH20 0xFFFFFFFFFFFFFFFFFFFFFFFFFFFFFFFFFFFFFFFF AND PUSH20 0xFFFFFFFFFFFFFFFFFFFFFFFFFFFFFFFFFFFFFFFF AND PUSH4 0x23B872DD CALLER ADDRESS DUP6 PUSH1 0x40 MLOAD DUP5 PUSH4 0xFFFFFFFF AND PUSH1 0xE0 SHL DUP2 MSTORE PUSH1 0x4 ADD PUSH2 0x750 SWAP4 SWAP3 SWAP2 SWAP1 PUSH2 0x14FD JUMP JUMPDEST PUSH1 0x20 PUSH1 0x40 MLOAD DUP1 DUP4 SUB DUP2 PUSH0 DUP8 GAS CALL ISZERO DUP1 ISZERO PUSH2 0x76C JUMPI RETURNDATASIZE PUSH0 PUSH0 RETURNDATACOPY RETURNDATASIZE PUSH0 REVERT JUMPDEST POP POP POP POP PUSH1 0x40 MLOAD RETURNDATASIZE PUSH1 0x1F NOT PUSH1 0x1F DUP3 ADD AND DUP3 ADD DUP1 PUSH1 0x40 MSTORE POP DUP2 ADD SWAP1 PUSH2 0x790 SWAP2 SWAP1 PUSH2 0x1567 JUMP JUMPDEST POP PUSH1 0x3 PUSH0 SWAP1 SLOAD SWAP1 PUSH2 0x100 EXP SWAP1 DIV PUSH20 0xFFFFFFFFFFFFFFFFFFFFFFFFFFFFFFFFFFFFFFFF AND PUSH20 0xFFFFFFFFFFFFFFFFFFFFFFFFFFFFFFFFFFFFFFFF AND PUSH4 0x23B872DD CALLER ADDRESS DUP5 PUSH1 0x40 MLOAD DUP5 PUSH4 0xFFFFFFFF AND PUSH1 0xE0 SHL DUP2 MSTORE PUSH1 0x4 ADD PUSH2 0x7EF SWAP4 SWAP3 SWAP2 SWAP1 PUSH2 0x14FD JUMP JUMPDEST PUSH1 0x20 PUSH1 0x40 MLOAD DUP1 DUP4 SUB DUP2 PUSH0 DUP8 GAS CALL ISZERO DUP1 ISZERO PUSH2 0x80B JUMPI RETURNDATASIZE PUSH0 PUSH0 RETURNDATACOPY RETURNDATASIZE PUSH0 REVERT JUMPDEST POP POP POP POP PUSH1 0x40 MLOAD RETURNDATASIZE PUSH1 0x1F NOT PUSH1 0x1F DUP3 ADD AND DUP3 ADD DUP1 PUSH1 0x40 MSTORE POP DUP2 ADD SWAP1 PUSH2 0x82F SWAP2 SWAP1 PUSH2 0x1567 JUMP JUMPDEST POP DUP2 PUSH1 0x4 PUSH0 DUP3 DUP3 SLOAD PUSH2 0x841 SWAP2 SWAP1 PUSH2 0x15B9 JUMP JUMPDEST SWAP3 POP POP DUP2 SWAP1 SSTORE POP DUP1 PUSH1 0x5 PUSH0 DUP3 DUP3 SLOAD PUSH2 0x859 SWAP2 SWAP1 PUSH2 0x15B9 JUMP JUMPDEST SWAP3 POP POP DUP2 SWAP1 SSTORE POP PUSH32 0x959B1D93CFBBD38471FD78660C739FFED1589F0AC706CBCE37F4D8DB90F15B1D DUP3 DUP3 PUSH1 0x40 MLOAD PUSH2 0x891 SWAP3 SWAP2 SWAP1 PUSH2 0x177B JUMP JUMPDEST PUSH1 0x40 MLOAD DUP1 SWAP2 SUB SWAP1 LOG1 POP POP JUMP JUMPDEST PUSH2 0x8A5 PUSH2 0xDCC JUMP JUMPDEST PUSH1 0x4 SLOAD DUP3 GT ISZERO DUP1 ISZERO PUSH2 0x8B9 JUMPI POP PUSH1 0x5 SLOAD DUP2 GT ISZERO JUMPDEST PUSH2 0x8F8 JUMPI PUSH1 0x40 MLOAD PUSH32 0x8C379A000000000000000000000000000000000000000000000000000000000 DUP2 MSTORE PUSH1 0x4 ADD PUSH2 0x8EF SWAP1 PUSH2 0x17FF JUMP JUMPDEST PUSH1 0x40 MLOAD DUP1 SWAP2 SUB SWAP1 REVERT JUMPDEST DUP2 PUSH1 0x4 PUSH0 DUP3 DUP3 SLOAD PUSH2 0x909 SWAP2 SWAP1 PUSH2 0x15EC JUMP JUMPDEST SWAP3 POP POP DUP2 SWAP1 SSTORE POP DUP1 PUSH1 0x5 PUSH0 DUP3 DUP3 SLOAD PUSH2 0x921 SWAP2 SWAP1 PUSH2 0x15EC JUMP JUMPDEST SWAP3 POP POP DUP2 SWAP1 SSTORE POP PUSH1 0x2 PUSH0 SWAP1 SLOAD SWAP1 PUSH2 0x100 EXP SWAP1 DIV PUSH20 0xFFFFFFFFFFFFFFFFFFFFFFFFFFFFFFFFFFFFFFFF AND PUSH20 0xFFFFFFFFFFFFFFFFFFFFFFFFFFFFFFFFFFFFFFFF AND PUSH4 0xA9059CBB CALLER DUP5 PUSH1 0x40 MLOAD DUP4 PUSH4 0xFFFFFFFF AND PUSH1 0xE0 SHL DUP2 MSTORE PUSH1 0x4 ADD PUSH2 0x984 SWAP3 SWAP2 SWAP1 PUSH2 0x1592 JUMP JUMPDEST PUSH1 0x20 PUSH1 0x40 MLOAD DUP1 DUP4 SUB DUP2 PUSH0 DUP8 GAS CALL ISZERO DUP1 ISZERO PUSH2 0x9A0 JUMPI RETURNDATASIZE PUSH0 PUSH0 RETURNDATACOPY RETURNDATASIZE PUSH0 REVERT JUMPDEST POP POP POP POP PUSH1 0x40 MLOAD RETURNDATASIZE PUSH1 0x1F NOT PUSH1 0x1F DUP3 ADD AND DUP3 ADD DUP1 PUSH1 0x40 MSTORE POP DUP2 ADD SWAP1 PUSH2 0x9C4 SWAP2 SWAP1 PUSH2 0x1567 JUMP JUMPDEST POP PUSH1 0x3 PUSH0 SWAP1 SLOAD SWAP1 PUSH2 0x100 EXP SWAP1 DIV PUSH20 0xFFFFFFFFFFFFFFFFFFFFFFFFFFFFFFFFFFFFFFFF AND PUSH20 0xFFFFFFFFFFFFFFFFFFFFFFFFFFFFFFFFFFFFFFFF AND PUSH4 0xA9059CBB CALLER DUP4 PUSH1 0x40 MLOAD DUP4 PUSH4 0xFFFFFFFF AND PUSH1 0xE0 SHL DUP2 MSTORE PUSH1 0x4 ADD PUSH2 0xA21 SWAP3 SWAP2 SWAP1 PUSH2 0x1592 JUMP JUMPDEST PUSH1 0x20 PUSH1 0x40 MLOAD DUP1 DUP4 SUB DUP2 PUSH0 DUP8 GAS CALL ISZERO DUP1 ISZERO PUSH2 0xA3D JUMPI RETURNDATASIZE PUSH0 PUSH0 RETURNDATACOPY RETURNDATASIZE PUSH0 REVERT JUMPDEST POP POP POP POP PUSH1 0x40 MLOAD RETURNDATASIZE PUSH1 0x1F NOT PUSH1 0x1F DUP3 ADD AND DUP3 ADD DUP1 PUSH1 0x40 MSTORE POP DUP2 ADD SWAP1 PUSH2 0xA61 SWAP2 SWAP1 PUSH2 0x1567 JUMP JUMPDEST POP PUSH32 0x959B1D93CFBBD38471FD78660C739FFED1589F0AC706CBCE37F4D8DB90F15B1D DUP3 DUP3 PUSH1 0x40 MLOAD PUSH2 0xA93 SWAP3 SWAP2 SWAP1 PUSH2 0x1867 JUMP JUMPDEST PUSH1 0x40 MLOAD DUP1 SWAP2 SUB SWAP1 LOG1 POP POP JUMP JUMPDEST PUSH1 0x4 SLOAD DUP2 JUMP JUMPDEST PUSH2 0xAAD PUSH2 0xF14 JUMP JUMPDEST PUSH0 DUP2 GT PUSH2 0xAEF JUMPI PUSH1 0x40 MLOAD PUSH32 0x8C379A000000000000000000000000000000000000000000000000000000000 DUP2 MSTORE PUSH1 0x4 ADD PUSH2 0xAE6 SWAP1 PUSH2 0x13E9 JUMP JUMPDEST PUSH1 0x40 MLOAD DUP1 SWAP2 SUB SWAP1 REVERT JUMPDEST PUSH0 PUSH1 0x4 SLOAD GT DUP1 ISZERO PUSH2 0xB01 JUMPI POP PUSH0 PUSH1 0x5 SLOAD GT JUMPDEST PUSH2 0xB40 JUMPI PUSH1 0x40 MLOAD PUSH32 0x8C379A000000000000000000000000000000000000000000000000000000000 DUP2 MSTORE PUSH1 0x4 ADD PUSH2 0xB37 SWAP1 PUSH2 0x1451 JUMP JUMPDEST PUSH1 0x40 MLOAD DUP1 SWAP2 SUB SWAP1 REVERT JUMPDEST PUSH0 PUSH2 0xB50 DUP3 PUSH1 0x4 SLOAD PUSH1 0x5 SLOAD PUSH2 0xF63 JUMP JUMPDEST SWAP1 POP DUP1 PUSH1 0x5 SLOAD LT ISZERO PUSH2 0xB97 JUMPI PUSH1 0x40 MLOAD PUSH32 0x8C379A000000000000000000000000000000000000000000000000000000000 DUP2 MSTORE PUSH1 0x4 ADD PUSH2 0xB8E SWAP1 PUSH2 0x14DF JUMP JUMPDEST PUSH1 0x40 MLOAD DUP1 SWAP2 SUB SWAP1 REVERT JUMPDEST PUSH1 0x2 PUSH0 SWAP1 SLOAD SWAP1 PUSH2 0x100 EXP SWAP1 DIV PUSH20 0xFFFFFFFFFFFFFFFFFFFFFFFFFFFFFFFFFFFFFFFF AND PUSH20 0xFFFFFFFFFFFFFFFFFFFFFFFFFFFFFFFFFFFFFFFF AND PUSH4 0x23B872DD CALLER ADDRESS DUP6 PUSH1 0x40 MLOAD DUP5 PUSH4 0xFFFFFFFF AND PUSH1 0xE0 SHL DUP2 MSTORE PUSH1 0x4 ADD PUSH2 0xBF5 SWAP4 SWAP3 SWAP2 SWAP1 PUSH2 0x14FD JUMP JUMPDEST PUSH1 0x20 PUSH1 0x40 MLOAD DUP1 DUP4 SUB DUP2 PUSH0 DUP8 GAS CALL ISZERO DUP1 ISZERO PUSH2 0xC11 JUMPI RETURNDATASIZE PUSH0 PUSH0 RETURNDATACOPY RETURNDATASIZE PUSH0 REVERT JUMPDEST POP POP POP POP PUSH1 0x40 MLOAD RETURNDATASIZE PUSH1 0x1F NOT PUSH1 0x1F DUP3 ADD AND DUP3 ADD DUP1 PUSH1 0x40 MSTORE POP DUP2 ADD SWAP1 PUSH2 0xC35 SWAP2 SWAP1 PUSH2 0x1567 JUMP JUMPDEST POP PUSH1 0x3 PUSH0 SWAP1 SLOAD SWAP1 PUSH2 0x100 EXP SWAP1 DIV PUSH20 0xFFFFFFFFFFFFFFFFFFFFFFFFFFFFFFFFFFFFFFFF AND PUSH20 0xFFFFFFFFFFFFFFFFFFFFFFFFFFFFFFFFFFFFFFFF AND PUSH4 0xA9059CBB CALLER DUP4 PUSH1 0x40 MLOAD DUP4 PUSH4 0xFFFFFFFF AND PUSH1 0xE0 SHL DUP2 MSTORE PUSH1 0x4 ADD PUSH2 0xC92 SWAP3 SWAP2 SWAP1 PUSH2 0x1592 JUMP JUMPDEST PUSH1 0x20 PUSH1 0x40 MLOAD DUP1 DUP4 SUB DUP2 PUSH0 DUP8 GAS CALL ISZERO DUP1 ISZERO PUSH2 0xCAE JUMPI RETURNDATASIZE PUSH0 PUSH0 RETURNDATACOPY RETURNDATASIZE PUSH0 REVERT JUMPDEST POP POP POP POP PUSH1 0x40 MLOAD RETURNDATASIZE PUSH1 0x1F NOT PUSH1 0x1F DUP3 ADD AND DUP3 ADD DUP1 PUSH1 0x40 MSTORE POP DUP2 ADD SWAP1 PUSH2 0xCD2 SWAP2 SWAP1 PUSH2 0x1567 JUMP JUMPDEST POP DUP2 PUSH1 0x4 PUSH0 DUP3 DUP3 SLOAD PUSH2 0xCE4 SWAP2 SWAP1 PUSH2 0x15B9 JUMP JUMPDEST SWAP3 POP POP DUP2 SWAP1 SSTORE POP DUP1 PUSH1 0x5 PUSH0 DUP3 DUP3 SLOAD PUSH2 0xCFC SWAP2 SWAP1 PUSH2 0x15EC JUMP JUMPDEST SWAP3 POP POP DUP2 SWAP1 SSTORE POP PUSH32 0x99151D1285A42A31514AFC05D8341521A9E02F4D15FE80D8CD617DD0E6330C3B DUP3 DUP3 PUSH1 0x40 MLOAD PUSH2 0xD34 SWAP3 SWAP2 SWAP1 PUSH2 0x18EB JUMP JUMPDEST PUSH1 0x40 MLOAD DUP1 SWAP2 SUB SWAP1 LOG1 POP PUSH2 0xD45 PUSH2 0x103D JUMP JUMPDEST POP JUMP JUMPDEST PUSH2 0xD50 PUSH2 0xDCC JUMP JUMPDEST PUSH0 PUSH20 0xFFFFFFFFFFFFFFFFFFFFFFFFFFFFFFFFFFFFFFFF AND DUP2 PUSH20 0xFFFFFFFFFFFFFFFFFFFFFFFFFFFFFFFFFFFFFFFF AND SUB PUSH2 0xDC0 JUMPI PUSH0 PUSH1 0x40 MLOAD PUSH32 0x1E4FBDF700000000000000000000000000000000000000000000000000000000 DUP2 MSTORE PUSH1 0x4 ADD PUSH2 0xDB7 SWAP2 SWAP1 PUSH2 0x11DF JUMP JUMPDEST PUSH1 0x40 MLOAD DUP1 SWAP2 SUB SWAP1 REVERT JUMPDEST PUSH2 0xDC9 DUP2 PUSH2 0xE53 JUMP JUMPDEST POP JUMP JUMPDEST PUSH2 0xDD4 PUSH2 0x1046 JUMP JUMPDEST PUSH20 0xFFFFFFFFFFFFFFFFFFFFFFFFFFFFFFFFFFFFFFFF AND PUSH2 0xDF2 PUSH2 0x677 JUMP JUMPDEST PUSH20 0xFFFFFFFFFFFFFFFFFFFFFFFFFFFFFFFFFFFFFFFF AND EQ PUSH2 0xE51 JUMPI PUSH2 0xE15 PUSH2 0x1046 JUMP JUMPDEST PUSH1 0x40 MLOAD PUSH32 0x118CDAA700000000000000000000000000000000000000000000000000000000 DUP2 MSTORE PUSH1 0x4 ADD PUSH2 0xE48 SWAP2 SWAP1 PUSH2 0x11DF JUMP JUMPDEST PUSH1 0x40 MLOAD DUP1 SWAP2 SUB SWAP1 REVERT JUMPDEST JUMP JUMPDEST PUSH0 PUSH0 PUSH0 SWAP1 SLOAD SWAP1 PUSH2 0x100 EXP SWAP1 DIV PUSH20 0xFFFFFFFFFFFFFFFFFFFFFFFFFFFFFFFFFFFFFFFF AND SWAP1 POP DUP2 PUSH0 PUSH0 PUSH2 0x100 EXP DUP2 SLOAD DUP2 PUSH20 0xFFFFFFFFFFFFFFFFFFFFFFFFFFFFFFFFFFFFFFFF MUL NOT AND SWAP1 DUP4 PUSH20 0xFFFFFFFFFFFFFFFFFFFFFFFFFFFFFFFFFFFFFFFF AND MUL OR SWAP1 SSTORE POP DUP2 PUSH20 0xFFFFFFFFFFFFFFFFFFFFFFFFFFFFFFFFFFFFFFFF AND DUP2 PUSH20 0xFFFFFFFFFFFFFFFFFFFFFFFFFFFFFFFFFFFFFFFF AND PUSH32 0x8BE0079C531659141344CD1FD0A4F28419497F9722A3DAAFE3B4186F6B6457E0 PUSH1 0x40 MLOAD PUSH1 0x40 MLOAD DUP1 SWAP2 SUB SWAP1 LOG3 POP POP JUMP JUMPDEST PUSH1 0x2 PUSH1 0x1 SLOAD SUB PUSH2 0xF59 JUMPI PUSH1 0x40 MLOAD PUSH32 0x8C379A000000000000000000000000000000000000000000000000000000000 DUP2 MSTORE PUSH1 0x4 ADD PUSH2 0xF50 SWAP1 PUSH2 0x196F JUMP JUMPDEST PUSH1 0x40 MLOAD DUP1 SWAP2 SUB SWAP1 REVERT JUMPDEST PUSH1 0x2 PUSH1 0x1 DUP2 SWAP1 SSTORE POP JUMP JUMPDEST PUSH0 PUSH0 DUP4 GT DUP1 ISZERO PUSH2 0xF72 JUMPI POP PUSH0 DUP3 GT JUMPDEST PUSH2 0xFB1 JUMPI PUSH1 0x40 MLOAD PUSH32 0x8C379A000000000000000000000000000000000000000000000000000000000 DUP2 MSTORE PUSH1 0x4 ADD PUSH2 0xFA8 SWAP1 PUSH2 0x19FD JUMP JUMPDEST PUSH1 0x40 MLOAD DUP1 SWAP2 SUB SWAP1 REVERT JUMPDEST PUSH0 DUP3 DUP5 PUSH2 0xFBE SWAP2 SWAP1 PUSH2 0x1263 JUMP JUMPDEST SWAP1 POP PUSH0 DUP6 DUP6 PUSH2 0xFCD SWAP2 SWAP1 PUSH2 0x15B9 JUMP JUMPDEST SWAP1 POP PUSH0 DUP2 DUP4 PUSH2 0xFDC SWAP2 SWAP1 PUSH2 0x12D1 JUMP JUMPDEST SWAP1 POP PUSH0 DUP2 DUP7 PUSH2 0xFEB SWAP2 SWAP1 PUSH2 0x15EC JUMP JUMPDEST SWAP1 POP PUSH0 DUP2 GT PUSH2 0x102F JUMPI PUSH1 0x40 MLOAD PUSH32 0x8C379A000000000000000000000000000000000000000000000000000000000 DUP2 MSTORE PUSH1 0x4 ADD PUSH2 0x1026 SWAP1 PUSH2 0x1A65 JUMP JUMPDEST PUSH1 0x40 MLOAD DUP1 SWAP2 SUB SWAP1 REVERT JUMPDEST DUP1 SWAP5 POP POP POP POP POP SWAP4 SWAP3 POP POP POP JUMP JUMPDEST PUSH1 0x1 DUP1 DUP2 SWAP1 SSTORE POP JUMP JUMPDEST PUSH0 CALLER SWAP1 POP SWAP1 JUMP JUMPDEST PUSH0 PUSH20 0xFFFFFFFFFFFFFFFFFFFFFFFFFFFFFFFFFFFFFFFF DUP3 AND SWAP1 POP SWAP2 SWAP1 POP JUMP JUMPDEST PUSH0 DUP2 SWAP1 POP SWAP2 SWAP1 POP JUMP JUMPDEST PUSH0 PUSH2 0x108F PUSH2 0x108A PUSH2 0x1085 DUP5 PUSH2 0x104D JUMP JUMPDEST PUSH2 0x106C JUMP JUMPDEST PUSH2 0x104D JUMP JUMPDEST SWAP1 POP SWAP2 SWAP1 POP JUMP JUMPDEST PUSH0 PUSH2 0x10A0 DUP3 PUSH2 0x1075 JUMP JUMPDEST SWAP1 POP SWAP2 SWAP1 POP JUMP JUMPDEST PUSH0 PUSH2 0x10B1 DUP3 PUSH2 0x1096 JUMP JUMPDEST SWAP1 POP SWAP2 SWAP1 POP JUMP JUMPDEST PUSH2 0x10C1 DUP2 PUSH2 0x10A7 JUMP JUMPDEST DUP3 MSTORE POP POP JUMP JUMPDEST PUSH0 PUSH1 0x20 DUP3 ADD SWAP1 POP PUSH2 0x10DA PUSH0 DUP4 ADD DUP5 PUSH2 0x10B8 JUMP JUMPDEST SWAP3 SWAP2 POP POP JUMP JUMPDEST PUSH0 DUP2 SWAP1 POP SWAP2 SWAP1 POP JUMP JUMPDEST PUSH2 0x10F2 DUP2 PUSH2 0x10E0 JUMP JUMPDEST DUP3 MSTORE POP POP JUMP JUMPDEST PUSH0 PUSH1 0x20 DUP3 ADD SWAP1 POP PUSH2 0x110B PUSH0 DUP4 ADD DUP5 PUSH2 0x10E9 JUMP JUMPDEST SWAP3 SWAP2 POP POP JUMP JUMPDEST PUSH0 PUSH0 REVERT JUMPDEST PUSH0 PUSH2 0x111F DUP3 PUSH2 0x104D JUMP JUMPDEST SWAP1 POP SWAP2 SWAP1 POP JUMP JUMPDEST PUSH2 0x112F DUP2 PUSH2 0x1115 JUMP JUMPDEST DUP2 EQ PUSH2 0x1139 JUMPI PUSH0 PUSH0 REVERT JUMPDEST POP JUMP JUMPDEST PUSH0 DUP2 CALLDATALOAD SWAP1 POP PUSH2 0x114A DUP2 PUSH2 0x1126 JUMP JUMPDEST SWAP3 SWAP2 POP POP JUMP JUMPDEST PUSH0 PUSH1 0x20 DUP3 DUP5 SUB SLT ISZERO PUSH2 0x1165 JUMPI PUSH2 0x1164 PUSH2 0x1111 JUMP JUMPDEST JUMPDEST PUSH0 PUSH2 0x1172 DUP5 DUP3 DUP6 ADD PUSH2 0x113C JUMP JUMPDEST SWAP2 POP POP SWAP3 SWAP2 POP POP JUMP JUMPDEST PUSH2 0x1184 DUP2 PUSH2 0x10E0 JUMP JUMPDEST DUP2 EQ PUSH2 0x118E JUMPI PUSH0 PUSH0 REVERT JUMPDEST POP JUMP JUMPDEST PUSH0 DUP2 CALLDATALOAD SWAP1 POP PUSH2 0x119F DUP2 PUSH2 0x117B JUMP JUMPDEST SWAP3 SWAP2 POP POP JUMP JUMPDEST PUSH0 PUSH1 0x20 DUP3 DUP5 SUB SLT ISZERO PUSH2 0x11BA JUMPI PUSH2 0x11B9 PUSH2 0x1111 JUMP JUMPDEST JUMPDEST PUSH0 PUSH2 0x11C7 DUP5 DUP3 DUP6 ADD PUSH2 0x1191 JUMP JUMPDEST SWAP2 POP POP SWAP3 SWAP2 POP POP JUMP JUMPDEST PUSH2 0x11D9 DUP2 PUSH2 0x1115 JUMP JUMPDEST DUP3 MSTORE POP POP JUMP JUMPDEST PUSH0 PUSH1 0x20 DUP3 ADD SWAP1 POP PUSH2 0x11F2 PUSH0 DUP4 ADD DUP5 PUSH2 0x11D0 JUMP JUMPDEST SWAP3 SWAP2 POP POP JUMP JUMPDEST PUSH0 PUSH0 PUSH1 0x40 DUP4 DUP6 SUB SLT ISZERO PUSH2 0x120E JUMPI PUSH2 0x120D PUSH2 0x1111 JUMP JUMPDEST JUMPDEST PUSH0 PUSH2 0x121B DUP6 DUP3 DUP7 ADD PUSH2 0x1191 JUMP JUMPDEST SWAP3 POP POP PUSH1 0x20 PUSH2 0x122C DUP6 DUP3 DUP7 ADD PUSH2 0x1191 JUMP JUMPDEST SWAP2 POP POP SWAP3 POP SWAP3 SWAP1 POP JUMP JUMPDEST PUSH32 0x4E487B7100000000000000000000000000000000000000000000000000000000 PUSH0 MSTORE PUSH1 0x11 PUSH1 0x4 MSTORE PUSH1 0x24 PUSH0 REVERT JUMPDEST PUSH0 PUSH2 0x126D DUP3 PUSH2 0x10E0 JUMP JUMPDEST SWAP2 POP PUSH2 0x1278 DUP4 PUSH2 0x10E0 JUMP JUMPDEST SWAP3 POP DUP3 DUP3 MUL PUSH2 0x1286 DUP2 PUSH2 0x10E0 JUMP JUMPDEST SWAP2 POP DUP3 DUP3 DIV DUP5 EQ DUP4 ISZERO OR PUSH2 0x129D JUMPI PUSH2 0x129C PUSH2 0x1236 JUMP JUMPDEST JUMPDEST POP SWAP3 SWAP2 POP POP JUMP JUMPDEST PUSH32 0x4E487B7100000000000000000000000000000000000000000000000000000000 PUSH0 MSTORE PUSH1 0x12 PUSH1 0x4 MSTORE PUSH1 0x24 PUSH0 REVERT JUMPDEST PUSH0 PUSH2 0x12DB DUP3 PUSH2 0x10E0 JUMP JUMPDEST SWAP2 POP PUSH2 0x12E6 DUP4 PUSH2 0x10E0 JUMP JUMPDEST SWAP3 POP DUP3 PUSH2 0x12F6 JUMPI PUSH2 0x12F5 PUSH2 0x12A4 JUMP JUMPDEST JUMPDEST DUP3 DUP3 DIV SWAP1 POP SWAP3 SWAP2 POP POP JUMP JUMPDEST PUSH0 DUP3 DUP3 MSTORE PUSH1 0x20 DUP3 ADD SWAP1 POP SWAP3 SWAP2 POP POP JUMP JUMPDEST PUSH32 0x496E76616C696420746F6B656E20616464726573730000000000000000000000 PUSH0 DUP3 ADD MSTORE POP JUMP JUMPDEST PUSH0 PUSH2 0x1345 PUSH1 0x15 DUP4 PUSH2 0x1301 JUMP JUMPDEST SWAP2 POP PUSH2 0x1350 DUP3 PUSH2 0x1311 JUMP JUMPDEST PUSH1 0x20 DUP3 ADD SWAP1 POP SWAP2 SWAP1 POP JUMP JUMPDEST PUSH0 PUSH1 0x20 DUP3 ADD SWAP1 POP DUP2 DUP2 SUB PUSH0 DUP4 ADD MSTORE PUSH2 0x1372 DUP2 PUSH2 0x1339 JUMP JUMPDEST SWAP1 POP SWAP2 SWAP1 POP JUMP JUMPDEST PUSH32 0x416D6F756E7420696E206D7573742062652067726561746572207468616E207A PUSH0 DUP3 ADD MSTORE PUSH32 0x65726F0000000000000000000000000000000000000000000000000000000000 PUSH1 0x20 DUP3 ADD MSTORE POP JUMP JUMPDEST PUSH0 PUSH2 0x13D3 PUSH1 0x23 DUP4 PUSH2 0x1301 JUMP JUMPDEST SWAP2 POP PUSH2 0x13DE DUP3 PUSH2 0x1379 JUMP JUMPDEST PUSH1 0x40 DUP3 ADD SWAP1 POP SWAP2 SWAP1 POP JUMP JUMPDEST PUSH0 PUSH1 0x20 DUP3 ADD SWAP1 POP DUP2 DUP2 SUB PUSH0 DUP4 ADD MSTORE PUSH2 0x1400 DUP2 PUSH2 0x13C7 JUMP JUMPDEST SWAP1 POP SWAP2 SWAP1 POP JUMP JUMPDEST PUSH32 0x4C697175696469747920706F6F6C20697320656D707479000000000000000000 PUSH0 DUP3 ADD MSTORE POP JUMP JUMPDEST PUSH0 PUSH2 0x143B PUSH1 0x17 DUP4 PUSH2 0x1301 JUMP JUMPDEST SWAP2 POP PUSH2 0x1446 DUP3 PUSH2 0x1407 JUMP JUMPDEST PUSH1 0x20 DUP3 ADD SWAP1 POP SWAP2 SWAP1 POP JUMP JUMPDEST PUSH0 PUSH1 0x20 DUP3 ADD SWAP1 POP DUP2 DUP2 SUB PUSH0 DUP4 ADD MSTORE PUSH2 0x1468 DUP2 PUSH2 0x142F JUMP JUMPDEST SWAP1 POP SWAP2 SWAP1 POP JUMP JUMPDEST PUSH32 0x4E6F7420656E6F756768206C697175696469747920666F722074686520737761 PUSH0 DUP3 ADD MSTORE PUSH32 0x7000000000000000000000000000000000000000000000000000000000000000 PUSH1 0x20 DUP3 ADD MSTORE POP JUMP JUMPDEST PUSH0 PUSH2 0x14C9 PUSH1 0x21 DUP4 PUSH2 0x1301 JUMP JUMPDEST SWAP2 POP PUSH2 0x14D4 DUP3 PUSH2 0x146F JUMP JUMPDEST PUSH1 0x40 DUP3 ADD SWAP1 POP SWAP2 SWAP1 POP JUMP JUMPDEST PUSH0 PUSH1 0x20 DUP3 ADD SWAP1 POP DUP2 DUP2 SUB PUSH0 DUP4 ADD MSTORE PUSH2 0x14F6 DUP2 PUSH2 0x14BD JUMP JUMPDEST SWAP1 POP SWAP2 SWAP1 POP JUMP JUMPDEST PUSH0 PUSH1 0x60 DUP3 ADD SWAP1 POP PUSH2 0x1510 PUSH0 DUP4 ADD DUP7 PUSH2 0x11D0 JUMP JUMPDEST PUSH2 0x151D PUSH1 0x20 DUP4 ADD DUP6 PUSH2 0x11D0 JUMP JUMPDEST PUSH2 0x152A PUSH1 0x40 DUP4 ADD DUP5 PUSH2 0x10E9 JUMP JUMPDEST SWAP5 SWAP4 POP POP POP POP JUMP JUMPDEST PUSH0 DUP2 ISZERO ISZERO SWAP1 POP SWAP2 SWAP1 POP JUMP JUMPDEST PUSH2 0x1546 DUP2 PUSH2 0x1532 JUMP JUMPDEST DUP2 EQ PUSH2 0x1550 JUMPI PUSH0 PUSH0 REVERT JUMPDEST POP JUMP JUMPDEST PUSH0 DUP2 MLOAD SWAP1 POP PUSH2 0x1561 DUP2 PUSH2 0x153D JUMP JUMPDEST SWAP3 SWAP2 POP POP JUMP JUMPDEST PUSH0 PUSH1 0x20 DUP3 DUP5 SUB SLT ISZERO PUSH2 0x157C JUMPI PUSH2 0x157B PUSH2 0x1111 JUMP JUMPDEST JUMPDEST PUSH0 PUSH2 0x1589 DUP5 DUP3 DUP6 ADD PUSH2 0x1553 JUMP JUMPDEST SWAP2 POP POP SWAP3 SWAP2 POP POP JUMP JUMPDEST PUSH0 PUSH1 0x40 DUP3 ADD SWAP1 POP PUSH2 0x15A5 PUSH0 DUP4 ADD DUP6 PUSH2 0x11D0 JUMP JUMPDEST PUSH2 0x15B2 PUSH1 0x20 DUP4 ADD DUP5 PUSH2 0x10E9 JUMP JUMPDEST SWAP4 SWAP3 POP POP POP JUMP JUMPDEST PUSH0 PUSH2 0x15C3 DUP3 PUSH2 0x10E0 JUMP JUMPDEST SWAP2 POP PUSH2 0x15CE DUP4 PUSH2 0x10E0 JUMP JUMPDEST SWAP3 POP DUP3 DUP3 ADD SWAP1 POP DUP1 DUP3 GT ISZERO PUSH2 0x15E6 JUMPI PUSH2 0x15E5 PUSH2 0x1236 JUMP JUMPDEST JUMPDEST SWAP3 SWAP2 POP POP JUMP JUMPDEST PUSH0 PUSH2 0x15F6 DUP3 PUSH2 0x10E0 JUMP JUMPDEST SWAP2 POP PUSH2 0x1601 DUP4 PUSH2 0x10E0 JUMP JUMPDEST SWAP3 POP DUP3 DUP3 SUB SWAP1 POP DUP2 DUP2 GT ISZERO PUSH2 0x1619 JUMPI PUSH2 0x1618 PUSH2 0x1236 JUMP JUMPDEST JUMPDEST SWAP3 SWAP2 POP POP JUMP JUMPDEST PUSH32 0x42666F7241000000000000000000000000000000000000000000000000000000 PUSH0 DUP3 ADD MSTORE POP JUMP JUMPDEST PUSH0 PUSH2 0x1653 PUSH1 0x5 DUP4 PUSH2 0x1301 JUMP JUMPDEST SWAP2 POP PUSH2 0x165E DUP3 PUSH2 0x161F JUMP JUMPDEST PUSH1 0x20 DUP3 ADD SWAP1 POP SWAP2 SWAP1 POP JUMP JUMPDEST PUSH0 PUSH1 0x60 DUP3 ADD SWAP1 POP DUP2 DUP2 SUB PUSH0 DUP4 ADD MSTORE PUSH2 0x1680 DUP2 PUSH2 0x1647 JUMP JUMPDEST SWAP1 POP PUSH2 0x168F PUSH1 0x20 DUP4 ADD DUP6 PUSH2 0x10E9 JUMP JUMPDEST PUSH2 0x169C PUSH1 0x40 DUP4 ADD DUP5 PUSH2 0x10E9 JUMP JUMPDEST SWAP4 SWAP3 POP POP POP JUMP JUMPDEST PUSH32 0x416D6F756E7473206D7573742062652067726561746572207468616E207A6572 PUSH0 DUP3 ADD MSTORE PUSH32 0x6F00000000000000000000000000000000000000000000000000000000000000 PUSH1 0x20 DUP3 ADD MSTORE POP JUMP JUMPDEST PUSH0 PUSH2 0x16FD PUSH1 0x21 DUP4 PUSH2 0x1301 JUMP JUMPDEST SWAP2 POP PUSH2 0x1708 DUP3 PUSH2 0x16A3 JUMP JUMPDEST PUSH1 0x40 DUP3 ADD SWAP1 POP SWAP2 SWAP1 POP JUMP JUMPDEST PUSH0 PUSH1 0x20 DUP3 ADD SWAP1 POP DUP2 DUP2 SUB PUSH0 DUP4 ADD MSTORE PUSH2 0x172A DUP2 PUSH2 0x16F1 JUMP JUMPDEST SWAP1 POP SWAP2 SWAP1 POP JUMP JUMPDEST PUSH32 0x4164640000000000000000000000000000000000000000000000000000000000 PUSH0 DUP3 ADD MSTORE POP JUMP JUMPDEST PUSH0 PUSH2 0x1765 PUSH1 0x3 DUP4 PUSH2 0x1301 JUMP JUMPDEST SWAP2 POP PUSH2 0x1770 DUP3 PUSH2 0x1731 JUMP JUMPDEST PUSH1 0x20 DUP3 ADD SWAP1 POP SWAP2 SWAP1 POP JUMP JUMPDEST PUSH0 PUSH1 0x60 DUP3 ADD SWAP1 POP DUP2 DUP2 SUB PUSH0 DUP4 ADD MSTORE PUSH2 0x1792 DUP2 PUSH2 0x1759 JUMP JUMPDEST SWAP1 POP PUSH2 0x17A1 PUSH1 0x20 DUP4 ADD DUP6 PUSH2 0x10E9 JUMP JUMPDEST PUSH2 0x17AE PUSH1 0x40 DUP4 ADD DUP5 PUSH2 0x10E9 JUMP JUMPDEST SWAP4 SWAP3 POP POP POP JUMP JUMPDEST PUSH32 0x496E73756666696369656E74206C697175696469747900000000000000000000 PUSH0 DUP3 ADD MSTORE POP JUMP JUMPDEST PUSH0 PUSH2 0x17E9 PUSH1 0x16 DUP4 PUSH2 0x1301 JUMP JUMPDEST SWAP2 POP PUSH2 0x17F4 DUP3 PUSH2 0x17B5 JUMP JUMPDEST PUSH1 0x20 DUP3 ADD SWAP1 POP SWAP2 SWAP1 POP JUMP JUMPDEST PUSH0 PUSH1 0x20 DUP3 ADD SWAP1 POP DUP2 DUP2 SUB PUSH0 DUP4 ADD MSTORE PUSH2 0x1816 DUP2 PUSH2 0x17DD JUMP JUMPDEST SWAP1 POP SWAP2 SWAP1 POP JUMP JUMPDEST PUSH32 0x52656D6F76650000000000000000000000000000000000000000000000000000 PUSH0 DUP3 ADD MSTORE POP JUMP JUMPDEST PUSH0 PUSH2 0x1851 PUSH1 0x6 DUP4 PUSH2 0x1301 JUMP JUMPDEST SWAP2 POP PUSH2 0x185C DUP3 PUSH2 0x181D JUMP JUMPDEST PUSH1 0x20 DUP3 ADD SWAP1 POP SWAP2 SWAP1 POP JUMP JUMPDEST PUSH0 PUSH1 0x60 DUP3 ADD SWAP1 POP DUP2 DUP2 SUB PUSH0 DUP4 ADD MSTORE PUSH2 0x187E DUP2 PUSH2 0x1845 JUMP JUMPDEST SWAP1 POP PUSH2 0x188D PUSH1 0x20 DUP4 ADD DUP6 PUSH2 0x10E9 JUMP JUMPDEST PUSH2 0x189A PUSH1 0x40 DUP4 ADD DUP5 PUSH2 0x10E9 JUMP JUMPDEST SWAP4 SWAP3 POP POP POP JUMP JUMPDEST PUSH32 0x41666F7242000000000000000000000000000000000000000000000000000000 PUSH0 DUP3 ADD MSTORE POP JUMP JUMPDEST PUSH0 PUSH2 0x18D5 PUSH1 0x5 DUP4 PUSH2 0x1301 JUMP JUMPDEST SWAP2 POP PUSH2 0x18E0 DUP3 PUSH2 0x18A1 JUMP JUMPDEST PUSH1 0x20 DUP3 ADD SWAP1 POP SWAP2 SWAP1 POP JUMP JUMPDEST PUSH0 PUSH1 0x60 DUP3 ADD SWAP1 POP DUP2 DUP2 SUB PUSH0 DUP4 ADD MSTORE PUSH2 0x1902 DUP2 PUSH2 0x18C9 JUMP JUMPDEST SWAP1 POP PUSH2 0x1911 PUSH1 0x20 DUP4 ADD DUP6 PUSH2 0x10E9 JUMP JUMPDEST PUSH2 0x191E PUSH1 0x40 DUP4 ADD DUP5 PUSH2 0x10E9 JUMP JUMPDEST SWAP4 SWAP3 POP POP POP JUMP JUMPDEST PUSH32 0x5265656E7472616E637947756172643A207265656E7472616E742063616C6C00 PUSH0 DUP3 ADD MSTORE POP JUMP JUMPDEST PUSH0 PUSH2 0x1959 PUSH1 0x1F DUP4 PUSH2 0x1301 JUMP JUMPDEST SWAP2 POP PUSH2 0x1964 DUP3 PUSH2 0x1925 JUMP JUMPDEST PUSH1 0x20 DUP3 ADD SWAP1 POP SWAP2 SWAP1 POP JUMP JUMPDEST PUSH0 PUSH1 0x20 DUP3 ADD SWAP1 POP DUP2 DUP2 SUB PUSH0 DUP4 ADD MSTORE PUSH2 0x1986 DUP2 PUSH2 0x194D JUMP JUMPDEST SWAP1 POP SWAP2 SWAP1 POP JUMP JUMPDEST PUSH32 0x496E73756666696369656E74206C697175696469747920666F722063616C6375 PUSH0 DUP3 ADD MSTORE PUSH32 0x6C6174696F6E0000000000000000000000000000000000000000000000000000 PUSH1 0x20 DUP3 ADD MSTORE POP JUMP JUMPDEST PUSH0 PUSH2 0x19E7 PUSH1 0x26 DUP4 PUSH2 0x1301 JUMP JUMPDEST SWAP2 POP PUSH2 0x19F2 DUP3 PUSH2 0x198D JUMP JUMPDEST PUSH1 0x40 DUP3 ADD SWAP1 POP SWAP2 SWAP1 POP JUMP JUMPDEST PUSH0 PUSH1 0x20 DUP3 ADD SWAP1 POP DUP2 DUP2 SUB PUSH0 DUP4 ADD MSTORE PUSH2 0x1A14 DUP2 PUSH2 0x19DB JUMP JUMPDEST SWAP1 POP SWAP2 SWAP1 POP JUMP JUMPDEST PUSH32 0x43616C63756C61746564206F757470757420616D6F756E74206973207A65726F PUSH0 DUP3 ADD MSTORE POP JUMP JUMPDEST PUSH0 PUSH2 0x1A4F PUSH1 0x20 DUP4 PUSH2 0x1301 JUMP JUMPDEST SWAP2 POP PUSH2 0x1A5A DUP3 PUSH2 0x1A1B JUMP JUMPDEST PUSH1 0x20 DUP3 ADD SWAP1 POP SWAP2 SWAP1 POP JUMP JUMPDEST PUSH0 PUSH1 0x20 DUP3 ADD SWAP1 POP DUP2 DUP2 SUB PUSH0 DUP4 ADD MSTORE PUSH2 0x1A7C DUP2 PUSH2 0x1A43 JUMP JUMPDEST SWAP1 POP SWAP2 SWAP1 POP JUMP INVALID LOG2 PUSH5 0x6970667358 0x22 SLT KECCAK256 0xCE PUSH30 0xD75755C00B7F9DF25EF7B8DB3B886DD4EB741AF6EC31E8A3CAA248BEA11D PUSH5 0x736F6C6343 STOP ADDMOD 0x1E STOP CALLER "
		},
		"gasEstimates": {
			"creation": {
				"codeDepositCost": "1368200",
				"executionCost": "infinite",
				"totalCost": "infinite"
			},
			"external": {
				"addLiquidity(uint256,uint256)": "infinite",
				"getPrice(address)": "infinite",
				"owner()": "2514",
				"removeLiquidity(uint256,uint256)": "infinite",
				"renounceOwnership()": "infinite",
				"reserveA()": "2491",
				"reserveB()": "2448",
				"swapAforB(uint256)": "infinite",
				"swapBforA(uint256)": "infinite",
				"tokenA()": "infinite",
				"tokenB()": "infinite",
				"transferOwnership(address)": "infinite"
			},
			"internal": {
				"getAmountOut(uint256,uint256,uint256)": "infinite"
			}
		},
		"methodIdentifiers": {
			"addLiquidity(uint256,uint256)": "9cd441da",
			"getPrice(address)": "41976e09",
			"owner()": "8da5cb5b",
			"removeLiquidity(uint256,uint256)": "9d7de6b3",
			"renounceOwnership()": "715018a6",
			"reserveA()": "dc5fa6c5",
			"reserveB()": "19e36f3b",
			"swapAforB(uint256)": "e4f1f70a",
			"swapBforA(uint256)": "8014a7aa",
			"tokenA()": "0fc63d10",
			"tokenB()": "5f64b55b",
			"transferOwnership(address)": "f2fde38b"
		}
	},
	"abi": [
		{
			"inputs": [
				{
					"internalType": "address",
					"name": "_tokenA",
					"type": "address"
				},
				{
					"internalType": "address",
					"name": "_tokenB",
					"type": "address"
				}
			],
			"stateMutability": "nonpayable",
			"type": "constructor"
		},
		{
			"inputs": [
				{
					"internalType": "address",
					"name": "owner",
					"type": "address"
				}
			],
			"name": "OwnableInvalidOwner",
			"type": "error"
		},
		{
			"inputs": [
				{
					"internalType": "address",
					"name": "account",
					"type": "address"
				}
			],
			"name": "OwnableUnauthorizedAccount",
			"type": "error"
		},
		{
			"anonymous": false,
			"inputs": [
				{
					"indexed": true,
					"internalType": "address",
					"name": "previousOwner",
					"type": "address"
				},
				{
					"indexed": true,
					"internalType": "address",
					"name": "newOwner",
					"type": "address"
				}
			],
			"name": "OwnershipTransferred",
			"type": "event"
		},
		{
			"anonymous": false,
			"inputs": [
				{
					"indexed": false,
					"internalType": "string",
					"name": "action",
					"type": "string"
				},
				{
					"indexed": false,
					"internalType": "uint256",
					"name": "amountA",
					"type": "uint256"
				},
				{
					"indexed": false,
					"internalType": "uint256",
					"name": "amountB",
					"type": "uint256"
				}
			],
			"name": "liquidity",
			"type": "event"
		},
		{
			"anonymous": false,
			"inputs": [
				{
					"indexed": false,
					"internalType": "string",
					"name": "action",
					"type": "string"
				},
				{
					"indexed": false,
					"internalType": "uint256",
					"name": "amountIn",
					"type": "uint256"
				},
				{
					"indexed": false,
					"internalType": "uint256",
					"name": "amountOut",
					"type": "uint256"
				}
			],
			"name": "swap",
			"type": "event"
		},
		{
			"inputs": [
				{
					"internalType": "uint256",
					"name": "amountA",
					"type": "uint256"
				},
				{
					"internalType": "uint256",
					"name": "amountB",
					"type": "uint256"
				}
			],
			"name": "addLiquidity",
			"outputs": [],
			"stateMutability": "nonpayable",
			"type": "function"
		},
		{
			"inputs": [
				{
					"internalType": "address",
					"name": "_token",
					"type": "address"
				}
			],
			"name": "getPrice",
			"outputs": [
				{
					"internalType": "uint256",
					"name": "",
					"type": "uint256"
				}
			],
			"stateMutability": "view",
			"type": "function"
		},
		{
			"inputs": [],
			"name": "owner",
			"outputs": [
				{
					"internalType": "address",
					"name": "",
					"type": "address"
				}
			],
			"stateMutability": "view",
			"type": "function"
		},
		{
			"inputs": [
				{
					"internalType": "uint256",
					"name": "amountA",
					"type": "uint256"
				},
				{
					"internalType": "uint256",
					"name": "amountB",
					"type": "uint256"
				}
			],
			"name": "removeLiquidity",
			"outputs": [],
			"stateMutability": "nonpayable",
			"type": "function"
		},
		{
			"inputs": [],
			"name": "renounceOwnership",
			"outputs": [],
			"stateMutability": "nonpayable",
			"type": "function"
		},
		{
			"inputs": [],
			"name": "reserveA",
			"outputs": [
				{
					"internalType": "uint256",
					"name": "",
					"type": "uint256"
				}
			],
			"stateMutability": "view",
			"type": "function"
		},
		{
			"inputs": [],
			"name": "reserveB",
			"outputs": [
				{
					"internalType": "uint256",
					"name": "",
					"type": "uint256"
				}
			],
			"stateMutability": "view",
			"type": "function"
		},
		{
			"inputs": [
				{
					"internalType": "uint256",
					"name": "amountAIn",
					"type": "uint256"
				}
			],
			"name": "swapAforB",
			"outputs": [],
			"stateMutability": "nonpayable",
			"type": "function"
		},
		{
			"inputs": [
				{
					"internalType": "uint256",
					"name": "amountBIn",
					"type": "uint256"
				}
			],
			"name": "swapBforA",
			"outputs": [],
			"stateMutability": "nonpayable",
			"type": "function"
		},
		{
			"inputs": [],
			"name": "tokenA",
			"outputs": [
				{
					"internalType": "contract IERC20",
					"name": "",
					"type": "address"
				}
			],
			"stateMutability": "view",
			"type": "function"
		},
		{
			"inputs": [],
			"name": "tokenB",
			"outputs": [
				{
					"internalType": "contract IERC20",
					"name": "",
					"type": "address"
				}
			],
			"stateMutability": "view",
			"type": "function"
		},
		{
			"inputs": [
				{
					"internalType": "address",
					"name": "newOwner",
					"type": "address"
				}
			],
			"name": "transferOwnership",
			"outputs": [],
			"stateMutability": "nonpayable",
			"type": "function"
		}
	]
}